{
  "address": "0xD776d9045a8a03AA89C266087922070562182c08",
  "abi": [
    {
      "inputs": [
        {
          "internalType": "contract ICarbonReceipt",
          "name": "receiptToken_",
          "type": "address"
        },
        {
          "internalType": "contract ICarbonX",
          "name": "supportedToken",
          "type": "address"
        }
      ],
      "stateMutability": "nonpayable",
      "type": "constructor"
    },
    {
      "inputs": [
        {
          "internalType": "address",
          "name": "token",
          "type": "address"
        }
      ],
      "name": "ErrAcknowledgeFailRejectedTokens",
      "type": "error"
    },
    {
      "inputs": [
        {
          "internalType": "address",
          "name": "token",
          "type": "address"
        }
      ],
      "name": "ErrTokenAddressHasNotChanged",
      "type": "error"
    },
    {
      "inputs": [
        {
          "internalType": "address",
          "name": "token",
          "type": "address"
        }
      ],
      "name": "ErrTokenNotSupported",
      "type": "error"
    },
    {
      "inputs": [
        {
          "internalType": "address",
          "name": "token",
          "type": "address"
        }
      ],
      "name": "ErrTransferIntoVaultIsNotAccepted",
      "type": "error"
    },
    {
      "inputs": [
        {
          "internalType": "address",
          "name": "token",
          "type": "address"
        }
      ],
      "name": "ErrTransferToNotCompatibleImplementer",
      "type": "error"
    },
    {
      "anonymous": false,
      "inputs": [
        {
          "indexed": false,
          "internalType": "uint256[]",
          "name": "tokenIds",
          "type": "uint256[]"
        },
        {
          "indexed": false,
          "internalType": "uint256[]",
          "name": "amounts",
          "type": "uint256[]"
        },
        {
          "indexed": true,
          "internalType": "address",
          "name": "from",
          "type": "address"
        },
        {
          "indexed": false,
          "internalType": "address",
          "name": "tokenAddress",
          "type": "address"
        },
        {
          "indexed": false,
          "internalType": "uint256[]",
          "name": "originalTokenIds",
          "type": "uint256[]"
        }
      ],
      "name": "CarbonBatchDeposited",
      "type": "event"
    },
    {
      "anonymous": false,
      "inputs": [
        {
          "indexed": true,
          "internalType": "uint256",
          "name": "tokenId",
          "type": "uint256"
        },
        {
          "indexed": false,
          "internalType": "uint256",
          "name": "amount",
          "type": "uint256"
        },
        {
          "indexed": true,
          "internalType": "address",
          "name": "from",
          "type": "address"
        },
        {
          "indexed": false,
          "internalType": "address",
          "name": "tokenAddress",
          "type": "address"
        },
        {
          "indexed": false,
          "internalType": "uint256",
          "name": "originalTokenId",
          "type": "uint256"
        }
      ],
      "name": "CarbonDeposited",
      "type": "event"
    },
    {
      "anonymous": false,
      "inputs": [
        {
          "indexed": true,
          "internalType": "address",
          "name": "previousOwner",
          "type": "address"
        },
        {
          "indexed": true,
          "internalType": "address",
          "name": "newOwner",
          "type": "address"
        }
      ],
      "name": "OwnershipTransferred",
      "type": "event"
    },
    {
      "anonymous": false,
      "inputs": [
        {
          "indexed": true,
          "internalType": "address",
          "name": "operator",
          "type": "address"
        },
        {
          "indexed": true,
          "internalType": "address",
          "name": "oldToken",
          "type": "address"
        },
        {
          "indexed": true,
          "internalType": "address",
          "name": "newToken",
          "type": "address"
        }
      ],
      "name": "ReceiptTokenChanged",
      "type": "event"
    },
    {
      "anonymous": false,
      "inputs": [
        {
          "indexed": false,
          "internalType": "address",
          "name": "operator",
          "type": "address"
        },
        {
          "indexed": false,
          "internalType": "address",
          "name": "supportedToken",
          "type": "address"
        }
      ],
      "name": "SupportedTokenAdded",
      "type": "event"
    },
    {
      "anonymous": false,
      "inputs": [
        {
          "indexed": false,
          "internalType": "address",
          "name": "operator",
          "type": "address"
        },
        {
          "indexed": false,
          "internalType": "address",
          "name": "supportedToken",
          "type": "address"
        }
      ],
      "name": "SupportedTokenRemoved",
      "type": "event"
    },
    {
      "inputs": [
        {
          "internalType": "contract ICarbonX",
          "name": "supportedToken",
          "type": "address"
        }
      ],
      "name": "addSupportedToken",
      "outputs": [],
      "stateMutability": "nonpayable",
      "type": "function"
    },
    {
      "inputs": [
        {
          "internalType": "contract ICarbonReceipt",
          "name": "receiptToken_",
          "type": "address"
        }
      ],
      "name": "changeReceiptToken",
      "outputs": [],
      "stateMutability": "nonpayable",
      "type": "function"
    },
    {
      "inputs": [],
      "name": "currentReceiptTokenId",
      "outputs": [
        {
          "internalType": "uint256",
          "name": "",
          "type": "uint256"
        }
      ],
      "stateMutability": "view",
      "type": "function"
    },
    {
      "inputs": [
        {
          "internalType": "address",
          "name": "operator",
          "type": "address"
        },
        {
          "internalType": "address",
          "name": "from",
          "type": "address"
        },
        {
          "internalType": "uint256[]",
          "name": "tokenIds",
          "type": "uint256[]"
        },
        {
          "internalType": "uint256[]",
          "name": "amounts",
          "type": "uint256[]"
        },
        {
          "internalType": "bytes",
          "name": "data",
          "type": "bytes"
        }
      ],
      "name": "onERC1155BatchReceived",
      "outputs": [
        {
          "internalType": "bytes4",
          "name": "",
          "type": "bytes4"
        }
      ],
      "stateMutability": "nonpayable",
      "type": "function"
    },
    {
      "inputs": [
        {
          "internalType": "address",
          "name": "operator",
          "type": "address"
        },
        {
          "internalType": "address",
          "name": "from",
          "type": "address"
        },
        {
          "internalType": "uint256",
          "name": "tokenId",
          "type": "uint256"
        },
        {
          "internalType": "uint256",
          "name": "amount",
          "type": "uint256"
        },
        {
          "internalType": "bytes",
          "name": "data",
          "type": "bytes"
        }
      ],
      "name": "onERC1155Received",
      "outputs": [
        {
          "internalType": "bytes4",
          "name": "",
          "type": "bytes4"
        }
      ],
      "stateMutability": "nonpayable",
      "type": "function"
    },
    {
      "inputs": [],
      "name": "owner",
      "outputs": [
        {
          "internalType": "address",
          "name": "",
          "type": "address"
        }
      ],
      "stateMutability": "view",
      "type": "function"
    },
    {
      "inputs": [
        {
          "internalType": "contract ICarbonX",
          "name": "supportedToken",
          "type": "address"
        }
      ],
      "name": "removeSupportedToken",
      "outputs": [],
      "stateMutability": "nonpayable",
      "type": "function"
    },
    {
      "inputs": [],
      "name": "renounceOwnership",
      "outputs": [],
      "stateMutability": "nonpayable",
      "type": "function"
    },
    {
      "inputs": [
        {
          "internalType": "bytes4",
          "name": "interfaceId",
          "type": "bytes4"
        }
      ],
      "name": "supportsInterface",
      "outputs": [
        {
          "internalType": "bool",
          "name": "",
          "type": "bool"
        }
      ],
      "stateMutability": "view",
      "type": "function"
    },
    {
      "inputs": [
        {
          "internalType": "address",
          "name": "token",
          "type": "address"
        }
      ],
      "name": "tokenIsSupported",
      "outputs": [
        {
          "internalType": "bool",
          "name": "",
          "type": "bool"
        }
      ],
      "stateMutability": "view",
      "type": "function"
    },
    {
      "inputs": [
        {
          "internalType": "address",
          "name": "newOwner",
          "type": "address"
        }
      ],
      "name": "transferOwnership",
      "outputs": [],
      "stateMutability": "nonpayable",
      "type": "function"
    }
  ],
  "transactionHash": "0xa6a1a2cb4ac4f13d3e2cf04785760f99ce03677be48cdeea24f6a9468a2d6aae",
  "args": [
    "0x55e1Cded5fa06c0BAf5d2d977C2AF7927C00411F",
    "0xf1F7C8f0D5579Aa121cF406C2570Ee38B68EcB03"
  ],
  "numDeployments": 5,
  "solcInputHash": "ed37d04bb660df0f24cd1f969b2033b4",
  "bytecode": "0x60806040523480156200001157600080fd5b506040516200167a3803806200167a833981016040819052620000349162000199565b6200003f336200006d565b600280546001600160a01b0319166001600160a01b0384161790556200006581620000bd565b5050620001f1565b600080546001600160a01b038381166001600160a01b0319831681178455604051919092169283917f8be0079c531659141344cd1fd0a4f28419497f9722a3daafe3b4186f6b6457e09190a35050565b620000c762000138565b6001600160a01b0381166000908152600360205260409020805460ff191660011790557fa318061bdea99ceef0e3387694a4b538ebde11b2c0fd8d8acff1cbe3f1962676620001133390565b604080516001600160a01b03928316815291841660208301520160405180910390a150565b6000546001600160a01b03163314620001975760405162461bcd60e51b815260206004820181905260248201527f4f776e61626c653a2063616c6c6572206973206e6f7420746865206f776e6572604482015260640160405180910390fd5b565b60008060408385031215620001ad57600080fd5b8251620001ba81620001d8565b6020840151909250620001cd81620001d8565b809150509250929050565b6001600160a01b0381168114620001ee57600080fd5b50565b61147980620002016000396000f3fe608060405234801561001057600080fd5b50600436106100c95760003560e01c80637631919011610081578063e70619501161005b578063e706195014610196578063f23a6e61146101c2578063f2fde38b146101d557600080fd5b8063763191901461013c5780638da5cb5b1461014f578063bc197c811461016a57600080fd5b80636d69fcaf116100b25780636d69fcaf1461010c578063715018a6146101215780637453e72c1461012957600080fd5b806301ffc9a7146100ce57806362889c69146100f6575b600080fd5b6100e16100dc3660046110b2565b6101e8565b60405190151581526020015b60405180910390f35b6100fe61022c565b6040519081526020016100ed565b61011f61011a366004610f55565b61023c565b005b61011f6102b4565b61011f610137366004610f55565b6102c8565b61011f61014a366004610f55565b6103a2565b6000546040516001600160a01b0390911681526020016100ed565b61017d610178366004610f79565b6103f1565b6040516001600160e01b031990911681526020016100ed565b6100e16101a4366004610f55565b6001600160a01b031660009081526003602052604090205460ff1690565b61017d6101d0366004611027565b61089c565b61011f6101e3366004610f55565b610c53565b60006001600160e01b031982167f01ffc9a7000000000000000000000000000000000000000000000000000000001480610226575061022682610ce3565b92915050565b600061023760015490565b905090565b610244610d4a565b6001600160a01b0381166000908152600360205260409020805460ff191660011790557fa318061bdea99ceef0e3387694a4b538ebde11b2c0fd8d8acff1cbe3f196267661028f3390565b604080516001600160a01b03928316815291841660208301520160405180910390a150565b6102bc610d4a565b6102c66000610da4565b565b6102d0610d4a565b6002546001600160a01b0382811691161415610328576040517f7e5566de0000000000000000000000000000000000000000000000000000000081526001600160a01b03821660048201526024015b60405180910390fd5b600280546001600160a01b038381167fffffffffffffffffffffffff0000000000000000000000000000000000000000831681179093551690816103693390565b6001600160a01b03167f4f5d62d8563c1c58a0e87d694de473a77a0381feeb46442fb2e3fb00e5e4c9ae60405160405180910390a45050565b6103aa610d4a565b6001600160a01b0381166000908152600360205260409020805460ff191690557f62ced09eccd8bfb8039b5a849bd3c5f0f64a904e0a66843c93380268c3c9440a3361028f565b33600081815260036020526040812054909190859060ff1661044a576040517ff29225fc0000000000000000000000000000000000000000000000000000000081526001600160a01b038316600482015260240161031f565b6040517fdf9c3e64000000000000000000000000000000000000000000000000000000008152339063df9c3e649061048e908b908b908b908b908b90600401611174565b60206040518083038186803b1580156104a657600080fd5b505afa9250505080156104d6575060408051601f3d908101601f191682019092526104d391810190611090565b60015b61058c576104e2611354565b806308c379a0141561051c57506104f7611370565b80610502575061051e565b8060405162461bcd60e51b815260040161031f91906112a1565b505b60405162461bcd60e51b815260206004820152603360248201527f436172626f6e5661756c743a207472616e7366657220746f206e6f742d636f6d60448201527f70617469626c6520696d706c656d656e74657200000000000000000000000000606482015260840161031f565b806105ff5760405162461bcd60e51b815260206004820152602d60248201527f436172626f6e5661756c743a207472616e7366657220696e746f207661756c7460448201527f206e6f7420616363657074656400000000000000000000000000000000000000606482015260840161031f565b506000865167ffffffffffffffff81111561061c5761061c61133e565b604051908082528060200260200182016040528015610645578160200160208202803683370190505b50905060005b87518110156106955760015482828151811061066957610669611328565b602002602001018181525050610683600180546001019055565b8061068d816112e1565b91505061064b565b506002546040517f38b565f10000000000000000000000000000000000000000000000000000000081526001600160a01b03909116906338b565f1906106e7908b9085908b9088908c906004016111d2565b600060405180830381600087803b15801561070157600080fd5b505af1158015610715573d6000803e3d6000fd5b50505050876001600160a01b03167f2ad9dd86ab6e0b9a16d9bfaa6221c3d8570fbf861bc0cf01e43561f517678f5a828861074d3390565b8660405161075e9493929190611259565b60405180910390a2604051638aaab70760e01b81523390638aaab70790610791908c908c908c908c908c90600401611174565b602060405180830381600087803b1580156107ab57600080fd5b505af19250505080156107db575060408051601f3d908101601f191682019092526107d8918101906110cf565b60015b6107e7576104e2611354565b6001600160e01b03198116638aaab70760e01b1461086d5760405162461bcd60e51b815260206004820152602560248201527f436172626f6e5661756c743a2049436172626f6e582072656a6563746564207460448201527f6f6b656e73000000000000000000000000000000000000000000000000000000606482015260840161031f565b507fbc197c81000000000000000000000000000000000000000000000000000000009998505050505050505050565b33600081815260036020526040812054909190859060ff166108f5576040517ff29225fc0000000000000000000000000000000000000000000000000000000081526001600160a01b038316600482015260240161031f565b600061090060015490565b9050610910600180546001019055565b600061091b88610e0c565b9050600061092888610e0c565b6040517fdf9c3e640000000000000000000000000000000000000000000000000000000081529091506001600160a01b0386169063df9c3e6490610978908e908e90879087908e90600401611174565b60206040518083038186803b15801561099057600080fd5b505afa9250505080156109c0575060408051601f3d908101601f191682019092526109bd91810190611090565b60015b610a2b576109cc611354565b806308c379a014156109ec57506109e1611370565b8061050257506109ee565b505b6040517f4ac0fa5b0000000000000000000000000000000000000000000000000000000081526001600160a01b038616600482015260240161031f565b80610a6d576040517f83e33e5d0000000000000000000000000000000000000000000000000000000081526001600160a01b038716600482015260240161031f565b506002546040517f56b4e96c0000000000000000000000000000000000000000000000000000000081526001600160a01b03909116906356b4e96c90610abf908d9087908d908a908e9060040161121a565b600060405180830381600087803b158015610ad957600080fd5b505af1158015610aed573d6000803e3d6000fd5b50505050896001600160a01b0316837fd797c87441d02020d857705fd8d523c1f782c39d735a59f41812890064caa4908a610b253390565b604080519283526001600160a01b039091166020830152810188905260600160405180910390a3604051638aaab70760e01b81523390638aaab70790610b77908e908e90879087908e90600401611174565b602060405180830381600087803b158015610b9157600080fd5b505af1925050508015610bc1575060408051601f3d908101601f19168201909252610bbe918101906110cf565b60015b610bcd576109cc611354565b6001600160e01b03198116638aaab70760e01b14610c22576040517f3ad7e1230000000000000000000000000000000000000000000000000000000081526001600160a01b038716600482015260240161031f565b507ff23a6e61000000000000000000000000000000000000000000000000000000009b9a5050505050505050505050565b610c5b610d4a565b6001600160a01b038116610cd75760405162461bcd60e51b815260206004820152602660248201527f4f776e61626c653a206e6577206f776e657220697320746865207a65726f206160448201527f6464726573730000000000000000000000000000000000000000000000000000606482015260840161031f565b610ce081610da4565b50565b60006001600160e01b031982167f4e2312e000000000000000000000000000000000000000000000000000000000148061022657507f01ffc9a7000000000000000000000000000000000000000000000000000000006001600160e01b0319831614610226565b6000546001600160a01b031633146102c65760405162461bcd60e51b815260206004820181905260248201527f4f776e61626c653a2063616c6c6572206973206e6f7420746865206f776e6572604482015260640161031f565b600080546001600160a01b038381167fffffffffffffffffffffffff0000000000000000000000000000000000000000831681178455604051919092169283917f8be0079c531659141344cd1fd0a4f28419497f9722a3daafe3b4186f6b6457e09190a35050565b60408051600180825281830190925260609160009190602080830190803683370190505090508281600081518110610e4657610e46611328565b602090810291909101015292915050565b600082601f830112610e6857600080fd5b8135602067ffffffffffffffff821115610e8457610e8461133e565b8160051b604051610e97838301826112b4565b8381528281018684018388018501891015610eb157600080fd5b600093505b85841015610ed4578035825260019390930192908401908401610eb6565b5090979650505050505050565b600082601f830112610ef257600080fd5b813567ffffffffffffffff811115610f0c57610f0c61133e565b604051610f236020601f19601f85011601826112b4565b818152846020838601011115610f3857600080fd5b816020850160208301376000918101602001919091529392505050565b600060208284031215610f6757600080fd5b8135610f7281611418565b9392505050565b600080600080600060a08688031215610f9157600080fd5b8535610f9c81611418565b94506020860135610fac81611418565b9350604086013567ffffffffffffffff80821115610fc957600080fd5b610fd589838a01610e57565b94506060880135915080821115610feb57600080fd5b610ff789838a01610e57565b9350608088013591508082111561100d57600080fd5b5061101a88828901610ee1565b9150509295509295909350565b600080600080600060a0868803121561103f57600080fd5b853561104a81611418565b9450602086013561105a81611418565b93506040860135925060608601359150608086013567ffffffffffffffff81111561108457600080fd5b61101a88828901610ee1565b6000602082840312156110a257600080fd5b81518015158114610f7257600080fd5b6000602082840312156110c457600080fd5b8135610f728161142d565b6000602082840312156110e157600080fd5b8151610f728161142d565b600081518084526020808501945080840160005b8381101561111c57815187529582019590820190600101611100565b509495945050505050565b6000815180845260005b8181101561114d57602081850181015186830182015201611131565b8181111561115f576000602083870101525b50601f01601f19169290920160200192915050565b60006001600160a01b03808816835280871660208401525060a060408301526111a060a08301866110ec565b82810360608401526111b281866110ec565b905082810360808401526111c68185611127565b98975050505050505050565b6001600160a01b038616815260a0602082015260006111f460a08301876110ec565b828103604084015261120681876110ec565b905082810360608401526111b281866110ec565b6001600160a01b038616815284602082015283604082015282606082015260a06080820152600061124e60a0830184611127565b979650505050505050565b60808152600061126c60808301876110ec565b828103602084015261127e81876110ec565b90506001600160a01b0385166040840152828103606084015261124e81856110ec565b602081526000610f726020830184611127565b601f19601f830116810181811067ffffffffffffffff821117156112da576112da61133e565b6040525050565b60007fffffffffffffffffffffffffffffffffffffffffffffffffffffffffffffffff82141561132157634e487b7160e01b600052601160045260246000fd5b5060010190565b634e487b7160e01b600052603260045260246000fd5b634e487b7160e01b600052604160045260246000fd5b600060033d111561136d5760046000803e5060005160e01c5b90565b600060443d101561137e5790565b6040517ffffffffffffffffffffffffffffffffffffffffffffffffffffffffffffffffc803d016004833e81513d67ffffffffffffffff81602484011181841117156113cc57505050505090565b82850191508151818111156113e45750505050505090565b843d87010160208285010111156113fe5750505050505090565b61140d602082860101876112b4565b509095945050505050565b6001600160a01b0381168114610ce057600080fd5b6001600160e01b031981168114610ce057600080fdfea264697066735822122090b53d95f6acabd8bd031327682084737b74302cefba807b97622797d89237a964736f6c63430008060033",
  "devdoc": {
    "errors": {
      "ErrAcknowledgeFailRejectedTokens(address)": [
        {
          "params": {
            "token": "address of Token"
          }
        }
      ],
      "ErrTokenAddressHasNotChanged(address)": [
        {
          "params": {
            "token": "address of Token"
          }
        }
      ],
      "ErrTokenNotSupported(address)": [
        {
          "params": {
            "token": "address of Token"
          }
        }
      ],
      "ErrTransferIntoVaultIsNotAccepted(address)": [
        {
          "params": {
            "token": "address of Token"
          }
        }
      ],
      "ErrTransferToNotCompatibleImplementer(address)": [
        {
          "params": {
            "token": "address of Token"
          }
        }
      ]
    },
    "kind": "dev",
    "methods": {
      "owner()": {
        "details": "Returns the address of the current owner."
      },
      "renounceOwnership()": {
        "details": "Leaves the contract without owner. It will not be possible to call `onlyOwner` functions anymore. Can only be called by the current owner. NOTE: Renouncing ownership will leave the contract without an owner, thereby removing any functionality that is only available to the owner."
      },
      "supportsInterface(bytes4)": {
        "details": "See {IERC165-supportsInterface}."
      },
      "transferOwnership(address)": {
        "details": "Transfers ownership of the contract to a new account (`newOwner`). Can only be called by the current owner."
      }
    },
    "version": 1
  },
  "userdoc": {
    "errors": {
      "ErrAcknowledgeFailRejectedTokens(address)": [
        {
          "notice": "CarbonVault: ICarbonX rejected tokens"
        }
      ],
      "ErrTokenAddressHasNotChanged(address)": [
        {
          "notice": "New token must have another address"
        }
      ],
      "ErrTokenNotSupported(address)": [
        {
          "notice": "The received `token` is not supported at the moment."
        }
      ],
      "ErrTransferIntoVaultIsNotAccepted(address)": [
        {
          "notice": "CarbonVault: transfer into vault not accepted"
        }
      ],
      "ErrTransferToNotCompatibleImplementer(address)": [
        {
          "notice": "CarbonVault: transfer to not-compatible implementer"
        }
      ]
    },
    "kind": "user",
    "methods": {},
    "version": 1
  },
  "storageLayout": {
    "storage": [
      {
        "astId": 546,
        "contract": "contracts/CarbonVault.sol:CarbonVault",
        "label": "_owner",
        "offset": 0,
        "slot": "0",
        "type": "t_address"
      },
      {
        "astId": 6492,
        "contract": "contracts/CarbonVault.sol:CarbonVault",
        "label": "_tokenIds",
        "offset": 0,
        "slot": "1",
        "type": "t_struct(Counter)3739_storage"
      },
      {
        "astId": 6495,
        "contract": "contracts/CarbonVault.sol:CarbonVault",
        "label": "_receiptToken",
        "offset": 0,
        "slot": "2",
        "type": "t_contract(ICarbonReceipt)7652"
      },
      {
        "astId": 6499,
        "contract": "contracts/CarbonVault.sol:CarbonVault",
        "label": "_supportedTokens",
        "offset": 0,
        "slot": "3",
        "type": "t_mapping(t_address,t_bool)"
      }
    ],
    "types": {
      "t_address": {
        "encoding": "inplace",
        "label": "address",
        "numberOfBytes": "20"
      },
      "t_bool": {
        "encoding": "inplace",
        "label": "bool",
        "numberOfBytes": "1"
      },
      "t_contract(ICarbonReceipt)7652": {
        "encoding": "inplace",
        "label": "contract ICarbonReceipt",
        "numberOfBytes": "20"
      },
      "t_mapping(t_address,t_bool)": {
        "encoding": "mapping",
        "key": "t_address",
        "label": "mapping(address => bool)",
        "numberOfBytes": "32",
        "value": "t_bool"
      },
      "t_struct(Counter)3739_storage": {
        "encoding": "inplace",
        "label": "struct Counters.Counter",
        "members": [
          {
            "astId": 3738,
            "contract": "contracts/CarbonVault.sol:CarbonVault",
            "label": "_value",
            "offset": 0,
            "slot": "0",
            "type": "t_uint256"
          }
        ],
        "numberOfBytes": "32"
      },
      "t_uint256": {
        "encoding": "inplace",
        "label": "uint256",
        "numberOfBytes": "32"
      }
    }
  }
}