{
  "address": "0x6D4A1DaE9CC6FDd95f4440130efc997617d51059",
  "abi": [
    {
      "inputs": [
        {
          "internalType": "address",
          "name": "signer_",
          "type": "address"
        },
        {
          "internalType": "string",
          "name": "baseUri_",
          "type": "string"
        }
      ],
      "stateMutability": "nonpayable",
      "type": "constructor"
    },
    {
      "anonymous": false,
      "inputs": [
        {
          "indexed": true,
          "internalType": "address",
          "name": "account",
          "type": "address"
        },
        {
          "indexed": true,
          "internalType": "address",
          "name": "operator",
          "type": "address"
        },
        {
          "indexed": false,
          "internalType": "bool",
          "name": "approved",
          "type": "bool"
        }
      ],
      "name": "ApprovalForAll",
      "type": "event"
    },
    {
      "anonymous": false,
      "inputs": [
        {
          "indexed": true,
          "internalType": "address",
          "name": "previousOwner",
          "type": "address"
        },
        {
          "indexed": true,
          "internalType": "address",
          "name": "newOwner",
          "type": "address"
        }
      ],
      "name": "OwnershipTransferred",
      "type": "event"
    },
    {
      "anonymous": false,
      "inputs": [
        {
          "indexed": true,
          "internalType": "address",
          "name": "oldSigner",
          "type": "address"
        },
        {
          "indexed": true,
          "internalType": "address",
          "name": "_signer",
          "type": "address"
        }
      ],
      "name": "SignerChanged",
      "type": "event"
    },
    {
      "anonymous": false,
      "inputs": [
        {
          "indexed": true,
          "internalType": "address",
          "name": "operator",
          "type": "address"
        },
        {
          "indexed": true,
          "internalType": "address",
          "name": "from",
          "type": "address"
        },
        {
          "indexed": true,
          "internalType": "address",
          "name": "to",
          "type": "address"
        },
        {
          "indexed": false,
          "internalType": "uint256[]",
          "name": "ids",
          "type": "uint256[]"
        },
        {
          "indexed": false,
          "internalType": "uint256[]",
          "name": "values",
          "type": "uint256[]"
        }
      ],
      "name": "TransferBatch",
      "type": "event"
    },
    {
      "anonymous": false,
      "inputs": [
        {
          "indexed": true,
          "internalType": "address",
          "name": "operator",
          "type": "address"
        },
        {
          "indexed": true,
          "internalType": "address",
          "name": "from",
          "type": "address"
        },
        {
          "indexed": true,
          "internalType": "address",
          "name": "to",
          "type": "address"
        },
        {
          "indexed": false,
          "internalType": "uint256",
          "name": "id",
          "type": "uint256"
        },
        {
          "indexed": false,
          "internalType": "uint256",
          "name": "value",
          "type": "uint256"
        }
      ],
      "name": "TransferSingle",
      "type": "event"
    },
    {
      "anonymous": false,
      "inputs": [
        {
          "indexed": false,
          "internalType": "string",
          "name": "value",
          "type": "string"
        },
        {
          "indexed": true,
          "internalType": "uint256",
          "name": "id",
          "type": "uint256"
        }
      ],
      "name": "URI",
      "type": "event"
    },
    {
      "inputs": [
        {
          "internalType": "address",
          "name": "account",
          "type": "address"
        },
        {
          "internalType": "uint256",
          "name": "id",
          "type": "uint256"
        }
      ],
      "name": "balanceOf",
      "outputs": [
        {
          "internalType": "uint256",
          "name": "",
          "type": "uint256"
        }
      ],
      "stateMutability": "view",
      "type": "function"
    },
    {
      "inputs": [
        {
          "internalType": "address[]",
          "name": "accounts",
          "type": "address[]"
        },
        {
          "internalType": "uint256[]",
          "name": "ids",
          "type": "uint256[]"
        }
      ],
      "name": "balanceOfBatch",
      "outputs": [
        {
          "internalType": "uint256[]",
          "name": "",
          "type": "uint256[]"
        }
      ],
      "stateMutability": "view",
      "type": "function"
    },
    {
      "inputs": [
        {
          "internalType": "address",
          "name": "account",
          "type": "address"
        },
        {
          "internalType": "uint256",
          "name": "id",
          "type": "uint256"
        },
        {
          "internalType": "uint256",
          "name": "value",
          "type": "uint256"
        }
      ],
      "name": "burn",
      "outputs": [],
      "stateMutability": "nonpayable",
      "type": "function"
    },
    {
      "inputs": [
        {
          "internalType": "address",
          "name": "account",
          "type": "address"
        },
        {
          "internalType": "uint256[]",
          "name": "ids",
          "type": "uint256[]"
        },
        {
          "internalType": "uint256[]",
          "name": "values",
          "type": "uint256[]"
        }
      ],
      "name": "burnBatch",
      "outputs": [],
      "stateMutability": "nonpayable",
      "type": "function"
    },
    {
      "inputs": [
        {
          "internalType": "address",
          "name": "to",
          "type": "address"
        },
        {
          "internalType": "uint256",
          "name": "tokenId",
          "type": "uint256"
        },
        {
          "internalType": "uint256",
          "name": "amount",
          "type": "uint256"
        },
        {
          "internalType": "string",
          "name": "tokenUri",
          "type": "string"
        },
        {
          "internalType": "bytes",
          "name": "signature",
          "type": "bytes"
        }
      ],
      "name": "create",
      "outputs": [],
      "stateMutability": "nonpayable",
      "type": "function"
    },
    {
      "inputs": [
        {
          "internalType": "address",
          "name": "to",
          "type": "address"
        },
        {
          "internalType": "uint256",
          "name": "tokenId",
          "type": "uint256"
        },
        {
          "internalType": "uint256",
          "name": "amount",
          "type": "uint256"
        },
        {
          "internalType": "string",
          "name": "tokenUri",
          "type": "string"
        }
      ],
      "name": "createMessage",
      "outputs": [
        {
          "internalType": "bytes32",
          "name": "",
          "type": "bytes32"
        }
      ],
      "stateMutability": "view",
      "type": "function"
    },
    {
      "inputs": [
        {
          "internalType": "address",
          "name": "to",
          "type": "address"
        },
        {
          "internalType": "uint256",
          "name": "tokenId",
          "type": "uint256"
        },
        {
          "internalType": "uint256",
          "name": "amount",
          "type": "uint256"
        }
      ],
      "name": "createMessage",
      "outputs": [
        {
          "internalType": "bytes32",
          "name": "",
          "type": "bytes32"
        }
      ],
      "stateMutability": "view",
      "type": "function"
    },
    {
      "inputs": [
        {
          "internalType": "uint256",
          "name": "id",
          "type": "uint256"
        }
      ],
      "name": "exists",
      "outputs": [
        {
          "internalType": "bool",
          "name": "",
          "type": "bool"
        }
      ],
      "stateMutability": "view",
      "type": "function"
    },
    {
      "inputs": [
        {
          "internalType": "address",
          "name": "account",
          "type": "address"
        },
        {
          "internalType": "address",
          "name": "operator",
          "type": "address"
        }
      ],
      "name": "isApprovedForAll",
      "outputs": [
        {
          "internalType": "bool",
          "name": "",
          "type": "bool"
        }
      ],
      "stateMutability": "view",
      "type": "function"
    },
    {
      "inputs": [
        {
          "internalType": "uint256",
          "name": "tokenId",
          "type": "uint256"
        },
        {
          "internalType": "uint256",
          "name": "amount",
          "type": "uint256"
        },
        {
          "internalType": "bytes",
          "name": "signature",
          "type": "bytes"
        }
      ],
      "name": "mint",
      "outputs": [],
      "stateMutability": "nonpayable",
      "type": "function"
    },
    {
      "inputs": [
        {
          "internalType": "address",
          "name": "to",
          "type": "address"
        },
        {
          "internalType": "uint256",
          "name": "tokenId",
          "type": "uint256"
        },
        {
          "internalType": "uint256",
          "name": "amount",
          "type": "uint256"
        },
        {
          "internalType": "bytes",
          "name": "signature",
          "type": "bytes"
        }
      ],
      "name": "mintTo",
      "outputs": [],
      "stateMutability": "nonpayable",
      "type": "function"
    },
    {
      "inputs": [],
      "name": "owner",
      "outputs": [
        {
          "internalType": "address",
          "name": "",
          "type": "address"
        }
      ],
      "stateMutability": "view",
      "type": "function"
    },
    {
      "inputs": [],
      "name": "renounceOwnership",
      "outputs": [],
      "stateMutability": "nonpayable",
      "type": "function"
    },
    {
      "inputs": [
        {
          "internalType": "address",
          "name": "from",
          "type": "address"
        },
        {
          "internalType": "address",
          "name": "to",
          "type": "address"
        },
        {
          "internalType": "uint256[]",
          "name": "ids",
          "type": "uint256[]"
        },
        {
          "internalType": "uint256[]",
          "name": "amounts",
          "type": "uint256[]"
        },
        {
          "internalType": "bytes",
          "name": "data",
          "type": "bytes"
        }
      ],
      "name": "safeBatchTransferFrom",
      "outputs": [],
      "stateMutability": "nonpayable",
      "type": "function"
    },
    {
      "inputs": [
        {
          "internalType": "address",
          "name": "from",
          "type": "address"
        },
        {
          "internalType": "address",
          "name": "to",
          "type": "address"
        },
        {
          "internalType": "uint256",
          "name": "id",
          "type": "uint256"
        },
        {
          "internalType": "uint256",
          "name": "amount",
          "type": "uint256"
        },
        {
          "internalType": "bytes",
          "name": "data",
          "type": "bytes"
        }
      ],
      "name": "safeTransferFrom",
      "outputs": [],
      "stateMutability": "nonpayable",
      "type": "function"
    },
    {
      "inputs": [
        {
          "internalType": "address",
          "name": "operator",
          "type": "address"
        },
        {
          "internalType": "bool",
          "name": "approved",
          "type": "bool"
        }
      ],
      "name": "setApprovalForAll",
      "outputs": [],
      "stateMutability": "nonpayable",
      "type": "function"
    },
    {
      "inputs": [
        {
          "internalType": "address",
          "name": "signer_",
          "type": "address"
        }
      ],
      "name": "setSigner",
      "outputs": [],
      "stateMutability": "nonpayable",
      "type": "function"
    },
    {
      "inputs": [
        {
          "internalType": "uint256",
          "name": "id",
          "type": "uint256"
        },
        {
          "internalType": "string",
          "name": "tokenUri",
          "type": "string"
        }
      ],
      "name": "setTokenUri",
      "outputs": [],
      "stateMutability": "nonpayable",
      "type": "function"
    },
    {
      "inputs": [],
      "name": "signer",
      "outputs": [
        {
          "internalType": "address",
          "name": "",
          "type": "address"
        }
      ],
      "stateMutability": "view",
      "type": "function"
    },
    {
      "inputs": [
        {
          "internalType": "bytes4",
          "name": "interfaceId",
          "type": "bytes4"
        }
      ],
      "name": "supportsInterface",
      "outputs": [
        {
          "internalType": "bool",
          "name": "",
          "type": "bool"
        }
      ],
      "stateMutability": "view",
      "type": "function"
    },
    {
      "inputs": [
        {
          "internalType": "uint256",
          "name": "id",
          "type": "uint256"
        }
      ],
      "name": "totalSupply",
      "outputs": [
        {
          "internalType": "uint256",
          "name": "",
          "type": "uint256"
        }
      ],
      "stateMutability": "view",
      "type": "function"
    },
    {
      "inputs": [
        {
          "internalType": "address",
          "name": "newOwner",
          "type": "address"
        }
      ],
      "name": "transferOwnership",
      "outputs": [],
      "stateMutability": "nonpayable",
      "type": "function"
    },
    {
      "inputs": [
        {
          "internalType": "uint256",
          "name": "id",
          "type": "uint256"
        }
      ],
      "name": "uri",
      "outputs": [
        {
          "internalType": "string",
          "name": "",
          "type": "string"
        }
      ],
      "stateMutability": "view",
      "type": "function"
    },
    {
      "inputs": [],
      "name": "withdraw",
      "outputs": [],
      "stateMutability": "nonpayable",
      "type": "function"
    }
  ],
  "transactionHash": "0xb650ffa18cd47c60d7a09461b3a9d036ae3b80b6356169bda0cf9f15fa6b8a31",
  "args": [
    "0xeebA72dcE016a06055dbD0318429053bEd738c7e",
    "ipfs://"
  ],
  "numDeployments": 3,
  "solcInputHash": "2d705b08c67b93f98b2eaa2f971bf586",
  "bytecode": "0x60806040523480156200001157600080fd5b5060405162002fd638038062002fd6833981016040819052620000349162000184565b80620000408162000073565b506200004c336200008c565b50600580546001600160a01b0319166001600160a01b0392909216919091179055620002d0565b805162000088906002906020840190620000de565b5050565b600480546001600160a01b038381166001600160a01b0319831681179093556040519116919082907f8be0079c531659141344cd1fd0a4f28419497f9722a3daafe3b4186f6b6457e090600090a35050565b828054620000ec906200027d565b90600052602060002090601f0160209004810192826200011057600085556200015b565b82601f106200012b57805160ff19168380011785556200015b565b828001600101855582156200015b579182015b828111156200015b5782518255916020019190600101906200013e565b50620001699291506200016d565b5090565b5b808211156200016957600081556001016200016e565b6000806040838503121562000197578182fd5b82516001600160a01b0381168114620001ae578283fd5b602084810151919350906001600160401b0380821115620001cd578384fd5b818601915086601f830112620001e1578384fd5b815181811115620001f657620001f6620002ba565b604051601f8201601f19908116603f01168101908382118183101715620002215762000221620002ba565b81604052828152898684870101111562000239578687fd5b8693505b828410156200025c57848401860151818501870152928501926200023d565b828411156200026d57868684830101525b8096505050505050509250929050565b600181811c908216806200029257607f821691505b60208210811415620002b457634e487b7160e01b600052602260045260246000fd5b50919050565b634e487b7160e01b600052604160045260246000fd5b612cf680620002e06000396000f3fe608060405234801561001057600080fd5b50600436106101975760003560e01c806357f7789e116100e3578063bd85b0391161008c578063f242432a11610066578063f242432a146103ef578063f2fde38b14610402578063f5298aca1461041557600080fd5b8063bd85b0391461033a578063e985e9c51461035a578063ed9ec58c1461039657600080fd5b8063715018a6116100bd578063715018a61461030e5780638da5cb5b14610316578063a22cb4651461032757600080fd5b806357f7789e146102d55780636b20c454146102e85780636c19e783146102fb57600080fd5b8063280f4e28116101455780633ccfd60b1161011f5780633ccfd60b1461028b5780634e1273f4146102935780634f558e79146102b357600080fd5b8063280f4e28146102525780632eb2c2d61461026557806336a100d51461027857600080fd5b80630e89341c116101765780630e89341c146101fa57806320d4f41b1461021a578063238ac9331461022d57600080fd5b8062fdd58e1461019c57806301ffc9a7146101c257806308dc9f42146101e5575b600080fd5b6101af6101aa3660046126b5565b610428565b6040519081526020015b60405180910390f35b6101d56101d0366004612890565b6104d1565b60405190151581526020016101b9565b6101f86101f336600461291b565b61056e565b005b61020d6102083660046128c8565b61059a565b6040516101b99190612b0a565b6101af610228366004612710565b61063c565b6005546001600160a01b03165b6040516001600160a01b0390911681526020016101b9565b6101f8610260366004612710565b610677565b6101f8610273366004612501565b6107f4565b6101f861028636600461276f565b610896565b6101f8610969565b6102a66102a13660046127c5565b6109f6565b6040516101b99190612ac9565b6101d56102c13660046128c8565b600090815260036020526040902054151590565b6101f86102e33660046128e0565b610b6c565b6101f86102f636600461260a565b610bd0565b6101f86103093660046124ae565b610c5a565b6101f8610d13565b6004546001600160a01b031661023a565b6101f861033536600461267b565b610d79565b6101af6103483660046128c8565b60009081526003602052604090205490565b6101d56103683660046124cf565b6001600160a01b03918216600090815260016020908152604080832093909416825291909152205460ff1690565b6101af6103a43660046126de565b604080516001600160a01b03851660208201529081018390526060810182905230608082015260009060a0016040516020818303038152906040528051906020012090509392505050565b6101f86103fd3660046125a7565b610d84565b6101f86104103660046124ae565b610e0b565b6101f86104233660046126de565b610eed565b60006001600160a01b0383166104ab5760405162461bcd60e51b815260206004820152602b60248201527f455243313135353a2062616c616e636520717565727920666f7220746865207a60448201527f65726f206164647265737300000000000000000000000000000000000000000060648201526084015b60405180910390fd5b506000908152602081815260408083206001600160a01b03949094168352929052205490565b60006001600160e01b031982167fd9b67a2600000000000000000000000000000000000000000000000000000000148061053457506001600160e01b031982167f0e89341c00000000000000000000000000000000000000000000000000000000145b8061056857507f01ffc9a7000000000000000000000000000000000000000000000000000000006001600160e01b03198316145b92915050565b600083815260036020526040902054839061058857600080fd5b61059433858585610677565b50505050565b60008181526006602052604090208054606091906105b790612b59565b80601f01602080910402602001604051908101604052809291908181526020018280546105e390612b59565b80156106305780601f1061060557610100808354040283529160200191610630565b820191906000526020600020905b81548152906001019060200180831161061357829003601f168201915b50505050509050919050565b60008484848430604051602001610657959493929190612a85565b604051602081830303815290604052805190602001209050949350505050565b600083815260036020526040902054839061069157600080fd5b600061073a6106e7878787604080516001600160a01b03851660208201529081018390526060810182905230608082015260009060a0016040516020818303038152906040528051906020012090509392505050565b6040517f19457468657265756d205369676e6564204d6573736167653a0a3332000000006020820152603c8101829052600090605c01604051602081830303815290604052805190602001209050919050565b905061074e6005546001600160a01b031690565b6001600160a01b03166107618285610f72565b6001600160a01b0316146107dd5760405162461bcd60e51b815260206004820152603b60248201527f456974686572207369676e61747572652069732077726f6e67206f722070617260448201527f616d65746572732068617665206265656e20636f72727570746564000000000060648201526084016104a2565b60606107eb87878784610f8e565b50505050505050565b6001600160a01b03851633148061081057506108108533610368565b6108825760405162461bcd60e51b815260206004820152603260248201527f455243313135353a207472616e736665722063616c6c6572206973206e6f742060448201527f6f776e6572206e6f7220617070726f766564000000000000000000000000000060648201526084016104a2565b61088f85858585856110c4565b5050505050565b60006108a76106e78787878761063c565b90506108bb6005546001600160a01b031690565b6001600160a01b03166108ce8284610f72565b6001600160a01b03161461094a5760405162461bcd60e51b815260206004820152603b60248201527f456974686572207369676e61747572652069732077726f6e67206f722070617260448201527f616d65746572732068617665206265656e20636f72727570746564000000000060648201526084016104a2565b606061095887878784610f8e565b8351156107eb576107eb868561134c565b6004546001600160a01b031633146109c35760405162461bcd60e51b815260206004820181905260248201527f4f776e61626c653a2063616c6c6572206973206e6f7420746865206f776e657260448201526064016104a2565b6040514790339082156108fc029083906000818181858888f193505050501580156109f2573d6000803e3d6000fd5b5050565b60608151835114610a6f5760405162461bcd60e51b815260206004820152602960248201527f455243313135353a206163636f756e747320616e6420696473206c656e67746860448201527f206d69736d61746368000000000000000000000000000000000000000000000060648201526084016104a2565b6000835167ffffffffffffffff811115610a9957634e487b7160e01b600052604160045260246000fd5b604051908082528060200260200182016040528015610ac2578160200160208202803683370190505b50905060005b8451811015610b6457610b29858281518110610af457634e487b7160e01b600052603260045260246000fd5b6020026020010151858381518110610b1c57634e487b7160e01b600052603260045260246000fd5b6020026020010151610428565b828281518110610b4957634e487b7160e01b600052603260045260246000fd5b6020908102919091010152610b5d81612bc1565b9050610ac8565b509392505050565b6004546001600160a01b03163314610bc65760405162461bcd60e51b815260206004820181905260248201527f4f776e61626c653a2063616c6c6572206973206e6f7420746865206f776e657260448201526064016104a2565b6109f2828261134c565b6001600160a01b038316331480610bec5750610bec8333610368565b610c4a5760405162461bcd60e51b815260206004820152602960248201527f455243313135353a2063616c6c6572206973206e6f74206f776e6572206e6f7260448201526808185c1c1c9bdd995960ba1b60648201526084016104a2565b610c5583838361136b565b505050565b6004546001600160a01b03163314610cb45760405162461bcd60e51b815260206004820181905260248201527f4f776e61626c653a2063616c6c6572206973206e6f7420746865206f776e657260448201526064016104a2565b600580546001600160a01b0383811673ffffffffffffffffffffffffffffffffffffffff19831681179093556040519116919082907feeb293e1f8f3a9db91ade748726387ed1352ca78f5430c5f06fe3d1e1ad5057990600090a35050565b6004546001600160a01b03163314610d6d5760405162461bcd60e51b815260206004820181905260248201527f4f776e61626c653a2063616c6c6572206973206e6f7420746865206f776e657260448201526064016104a2565b610d7760006115dc565b565b6109f233838361163b565b6001600160a01b038516331480610da05750610da08533610368565b610dfe5760405162461bcd60e51b815260206004820152602960248201527f455243313135353a2063616c6c6572206973206e6f74206f776e6572206e6f7260448201526808185c1c1c9bdd995960ba1b60648201526084016104a2565b61088f8585858585611730565b6004546001600160a01b03163314610e655760405162461bcd60e51b815260206004820181905260248201527f4f776e61626c653a2063616c6c6572206973206e6f7420746865206f776e657260448201526064016104a2565b6001600160a01b038116610ee15760405162461bcd60e51b815260206004820152602660248201527f4f776e61626c653a206e6577206f776e657220697320746865207a65726f206160448201527f646472657373000000000000000000000000000000000000000000000000000060648201526084016104a2565b610eea816115dc565b50565b6001600160a01b038316331480610f095750610f098333610368565b610f675760405162461bcd60e51b815260206004820152602960248201527f455243313135353a2063616c6c6572206973206e6f74206f776e6572206e6f7260448201526808185c1c1c9bdd995960ba1b60648201526084016104a2565b610c558383836118e9565b6000806000610f818585611a79565b91509150610b6481611ae9565b6001600160a01b03841661100a5760405162461bcd60e51b815260206004820152602160248201527f455243313135353a206d696e7420746f20746865207a65726f2061646472657360448201527f730000000000000000000000000000000000000000000000000000000000000060648201526084016104a2565b33600061101685611cea565b9050600061102385611cea565b905061103483600089858589611d43565b6000868152602081815260408083206001600160a01b038b16845290915281208054879290611064908490612b41565b909155505060408051878152602081018790526001600160a01b03808a1692600092918716917fc3d58168c5ae7397731d063d5bbf3d657854427343f4c083240f7aacaa2d0f62910160405180910390a46107eb83600089898989611d51565b81518351146111265760405162461bcd60e51b815260206004820152602860248201527f455243313135353a2069647320616e6420616d6f756e7473206c656e677468206044820152670dad2e6dac2e8c6d60c31b60648201526084016104a2565b6001600160a01b03841661118a5760405162461bcd60e51b815260206004820152602560248201527f455243313135353a207472616e7366657220746f20746865207a65726f206164604482015264647265737360d81b60648201526084016104a2565b33611199818787878787611d43565b60005b84518110156112de5760008582815181106111c757634e487b7160e01b600052603260045260246000fd5b6020026020010151905060008583815181106111f357634e487b7160e01b600052603260045260246000fd5b602090810291909101810151600084815280835260408082206001600160a01b038e1683529093529190912054909150818110156112865760405162461bcd60e51b815260206004820152602a60248201527f455243313135353a20696e73756666696369656e742062616c616e636520666f60448201526939103a3930b739b332b960b11b60648201526084016104a2565b6000838152602081815260408083206001600160a01b038e8116855292528083208585039055908b168252812080548492906112c3908490612b41565b92505081905550505050806112d790612bc1565b905061119c565b50846001600160a01b0316866001600160a01b0316826001600160a01b03167f4a39dc06d4c0dbc64b70af90fd698a233a518aa5d07e595d983b8c0526c8f7fb878760405161132e929190612adc565b60405180910390a4611344818787878787611f06565b505050505050565b60008281526006602090815260409091208251610c5592840190612316565b6001600160a01b0383166113cd5760405162461bcd60e51b815260206004820152602360248201527f455243313135353a206275726e2066726f6d20746865207a65726f206164647260448201526265737360e81b60648201526084016104a2565b805182511461142f5760405162461bcd60e51b815260206004820152602860248201527f455243313135353a2069647320616e6420616d6f756e7473206c656e677468206044820152670dad2e6dac2e8c6d60c31b60648201526084016104a2565b600033905061145281856000868660405180602001604052806000815250611d43565b60005b835181101561156f57600084828151811061148057634e487b7160e01b600052603260045260246000fd5b6020026020010151905060008483815181106114ac57634e487b7160e01b600052603260045260246000fd5b602090810291909101810151600084815280835260408082206001600160a01b038c1683529093529190912054909150818110156115385760405162461bcd60e51b8152602060048201526024808201527f455243313135353a206275726e20616d6f756e7420657863656564732062616c604482015263616e636560e01b60648201526084016104a2565b6000928352602083815260408085206001600160a01b038b168652909152909220910390558061156781612bc1565b915050611455565b5060006001600160a01b0316846001600160a01b0316826001600160a01b03167f4a39dc06d4c0dbc64b70af90fd698a233a518aa5d07e595d983b8c0526c8f7fb86866040516115c0929190612adc565b60405180910390a4604080516020810190915260009052610594565b600480546001600160a01b0383811673ffffffffffffffffffffffffffffffffffffffff19831681179093556040519116919082907f8be0079c531659141344cd1fd0a4f28419497f9722a3daafe3b4186f6b6457e090600090a35050565b816001600160a01b0316836001600160a01b031614156116c35760405162461bcd60e51b815260206004820152602960248201527f455243313135353a2073657474696e6720617070726f76616c2073746174757360448201527f20666f722073656c66000000000000000000000000000000000000000000000060648201526084016104a2565b6001600160a01b03838116600081815260016020908152604080832094871680845294825291829020805460ff191686151590811790915591519182527f17307eab39ab6107e8899845ad3d59bd9653f200f220920489ca2b5937696c31910160405180910390a3505050565b6001600160a01b0384166117945760405162461bcd60e51b815260206004820152602560248201527f455243313135353a207472616e7366657220746f20746865207a65726f206164604482015264647265737360d81b60648201526084016104a2565b3360006117a085611cea565b905060006117ad85611cea565b90506117bd838989858589611d43565b6000868152602081815260408083206001600160a01b038c168452909152902054858110156118415760405162461bcd60e51b815260206004820152602a60248201527f455243313135353a20696e73756666696369656e742062616c616e636520666f60448201526939103a3930b739b332b960b11b60648201526084016104a2565b6000878152602081815260408083206001600160a01b038d8116855292528083208985039055908a1682528120805488929061187e908490612b41565b909155505060408051888152602081018890526001600160a01b03808b16928c821692918816917fc3d58168c5ae7397731d063d5bbf3d657854427343f4c083240f7aacaa2d0f62910160405180910390a46118de848a8a8a8a8a611d51565b505050505050505050565b6001600160a01b03831661194b5760405162461bcd60e51b815260206004820152602360248201527f455243313135353a206275726e2066726f6d20746865207a65726f206164647260448201526265737360e81b60648201526084016104a2565b33600061195784611cea565b9050600061196484611cea565b905061198483876000858560405180602001604052806000815250611d43565b6000858152602081815260408083206001600160a01b038a16845290915290205484811015611a015760405162461bcd60e51b8152602060048201526024808201527f455243313135353a206275726e20616d6f756e7420657863656564732062616c604482015263616e636560e01b60648201526084016104a2565b6000868152602081815260408083206001600160a01b038b81168086529184528285208a8703905582518b81529384018a90529092908816917fc3d58168c5ae7397731d063d5bbf3d657854427343f4c083240f7aacaa2d0f62910160405180910390a46040805160208101909152600090526107eb565b600080825160411415611ab05760208301516040840151606085015160001a611aa487828585612011565b94509450505050611ae2565b825160401415611ada5760208301516040840151611acf8683836120fe565b935093505050611ae2565b506000905060025b9250929050565b6000816004811115611b0b57634e487b7160e01b600052602160045260246000fd5b1415611b145750565b6001816004811115611b3657634e487b7160e01b600052602160045260246000fd5b1415611b845760405162461bcd60e51b815260206004820152601860248201527f45434453413a20696e76616c6964207369676e6174757265000000000000000060448201526064016104a2565b6002816004811115611ba657634e487b7160e01b600052602160045260246000fd5b1415611bf45760405162461bcd60e51b815260206004820152601f60248201527f45434453413a20696e76616c6964207369676e6174757265206c656e6774680060448201526064016104a2565b6003816004811115611c1657634e487b7160e01b600052602160045260246000fd5b1415611c6f5760405162461bcd60e51b815260206004820152602260248201527f45434453413a20696e76616c6964207369676e6174757265202773272076616c604482015261756560f01b60648201526084016104a2565b6004816004811115611c9157634e487b7160e01b600052602160045260246000fd5b1415610eea5760405162461bcd60e51b815260206004820152602260248201527f45434453413a20696e76616c6964207369676e6174757265202776272076616c604482015261756560f01b60648201526084016104a2565b60408051600180825281830190925260609160009190602080830190803683370190505090508281600081518110611d3257634e487b7160e01b600052603260045260246000fd5b602090810291909101015292915050565b611344868686868686612150565b6001600160a01b0384163b156113445760405163f23a6e6160e01b81526001600160a01b0385169063f23a6e6190611d959089908990889088908890600401612a42565b602060405180830381600087803b158015611daf57600080fd5b505af1925050508015611ddf575060408051601f3d908101601f19168201909252611ddc918101906128ac565b60015b611e9557611deb612c08565b806308c379a01415611e255750611e00612c20565b80611e0b5750611e27565b8060405162461bcd60e51b81526004016104a29190612b0a565b505b60405162461bcd60e51b815260206004820152603460248201527f455243313135353a207472616e7366657220746f206e6f6e204552433131353560448201527f526563656976657220696d706c656d656e74657200000000000000000000000060648201526084016104a2565b6001600160e01b0319811663f23a6e6160e01b146107eb5760405162461bcd60e51b815260206004820152602860248201527f455243313135353a204552433131353552656365697665722072656a656374656044820152676420746f6b656e7360c01b60648201526084016104a2565b6001600160a01b0384163b156113445760405163bc197c8160e01b81526001600160a01b0385169063bc197c8190611f4a90899089908890889088906004016129e4565b602060405180830381600087803b158015611f6457600080fd5b505af1925050508015611f94575060408051601f3d908101601f19168201909252611f91918101906128ac565b60015b611fa057611deb612c08565b6001600160e01b0319811663bc197c8160e01b146107eb5760405162461bcd60e51b815260206004820152602860248201527f455243313135353a204552433131353552656365697665722072656a656374656044820152676420746f6b656e7360c01b60648201526084016104a2565b6000807f7fffffffffffffffffffffffffffffff5d576e7357a4501ddfe92f46681b20a083111561204857506000905060036120f5565b8460ff16601b1415801561206057508460ff16601c14155b1561207157506000905060046120f5565b6040805160008082526020820180845289905260ff881692820192909252606081018690526080810185905260019060a0016020604051602081039080840390855afa1580156120c5573d6000803e3d6000fd5b5050604051601f1901519150506001600160a01b0381166120ee576000600192509250506120f5565b9150600090505b94509492505050565b6000807f7fffffffffffffffffffffffffffffffffffffffffffffffffffffffffffffff83168161213460ff86901c601b612b41565b905061214287828885612011565b935093505050935093915050565b6001600160a01b0385166121f35760005b83518110156121f15782818151811061218a57634e487b7160e01b600052603260045260246000fd5b6020026020010151600360008684815181106121b657634e487b7160e01b600052603260045260246000fd5b6020026020010151815260200190815260200160002060008282546121db9190612b41565b909155506121ea905081612bc1565b9050612161565b505b6001600160a01b0384166113445760005b83518110156107eb57600084828151811061222f57634e487b7160e01b600052603260045260246000fd5b60200260200101519050600084838151811061225b57634e487b7160e01b600052603260045260246000fd5b60200260200101519050600060036000848152602001908152602001600020549050818110156122f35760405162461bcd60e51b815260206004820152602860248201527f455243313135353a206275726e20616d6f756e74206578636565647320746f7460448201527f616c537570706c7900000000000000000000000000000000000000000000000060648201526084016104a2565b6000928352600360205260409092209103905561230f81612bc1565b9050612204565b82805461232290612b59565b90600052602060002090601f016020900481019282612344576000855561238a565b82601f1061235d57805160ff191683800117855561238a565b8280016001018555821561238a579182015b8281111561238a57825182559160200191906001019061236f565b5061239692915061239a565b5090565b5b80821115612396576000815560010161239b565b80356001600160a01b03811681146123c657600080fd5b919050565b600082601f8301126123db578081fd5b813560206123e882612b1d565b6040516123f58282612b94565b8381528281019150858301600585901b87018401881015612414578586fd5b855b8581101561243257813584529284019290840190600101612416565b5090979650505050505050565b600082601f83011261244f578081fd5b813567ffffffffffffffff81111561246957612469612bf2565b604051612480601f8301601f191660200182612b94565b818152846020838601011115612494578283fd5b816020850160208301379081016020019190915292915050565b6000602082840312156124bf578081fd5b6124c8826123af565b9392505050565b600080604083850312156124e1578081fd5b6124ea836123af565b91506124f8602084016123af565b90509250929050565b600080600080600060a08688031215612518578081fd5b612521866123af565b945061252f602087016123af565b9350604086013567ffffffffffffffff8082111561254b578283fd5b61255789838a016123cb565b9450606088013591508082111561256c578283fd5b61257889838a016123cb565b9350608088013591508082111561258d578283fd5b5061259a8882890161243f565b9150509295509295909350565b600080600080600060a086880312156125be578081fd5b6125c7866123af565b94506125d5602087016123af565b93506040860135925060608601359150608086013567ffffffffffffffff8111156125fe578182fd5b61259a8882890161243f565b60008060006060848603121561261e578283fd5b612627846123af565b9250602084013567ffffffffffffffff80821115612643578384fd5b61264f878388016123cb565b93506040860135915080821115612664578283fd5b50612671868287016123cb565b9150509250925092565b6000806040838503121561268d578182fd5b612696836123af565b9150602083013580151581146126aa578182fd5b809150509250929050565b600080604083850312156126c7578182fd5b6126d0836123af565b946020939093013593505050565b6000806000606084860312156126f2578081fd5b6126fb846123af565b95602085013595506040909401359392505050565b60008060008060808587031215612725578182fd5b61272e856123af565b93506020850135925060408501359150606085013567ffffffffffffffff811115612757578182fd5b6127638782880161243f565b91505092959194509250565b600080600080600060a08688031215612786578283fd5b61278f866123af565b94506020860135935060408601359250606086013567ffffffffffffffff808211156127b9578283fd5b61257889838a0161243f565b600080604083850312156127d7578182fd5b823567ffffffffffffffff808211156127ee578384fd5b818501915085601f830112612801578384fd5b8135602061280e82612b1d565b60405161281b8282612b94565b8381528281019150858301600585901b870184018b101561283a578889fd5b8896505b848710156128635761284f816123af565b83526001969096019591830191830161283e565b5096505086013592505080821115612879578283fd5b50612886858286016123cb565b9150509250929050565b6000602082840312156128a1578081fd5b81356124c881612caa565b6000602082840312156128bd578081fd5b81516124c881612caa565b6000602082840312156128d9578081fd5b5035919050565b600080604083850312156128f2578182fd5b82359150602083013567ffffffffffffffff81111561290f578182fd5b6128868582860161243f565b60008060006060848603121561292f578081fd5b8335925060208401359150604084013567ffffffffffffffff811115612953578182fd5b6126718682870161243f565b6000815180845260208085019450808401835b8381101561298e57815187529582019590820190600101612972565b509495945050505050565b60008151808452815b818110156129be576020818501810151868301820152016129a2565b818111156129cf5782602083870101525b50601f01601f19169290920160200192915050565b60006001600160a01b03808816835280871660208401525060a06040830152612a1060a083018661295f565b8281036060840152612a22818661295f565b90508281036080840152612a368185612999565b98975050505050505050565b60006001600160a01b03808816835280871660208401525084604083015283606083015260a06080830152612a7a60a0830184612999565b979650505050505050565b60006001600160a01b03808816835286602084015285604084015260a06060840152612ab460a0840186612999565b91508084166080840152509695505050505050565b6020815260006124c8602083018461295f565b604081526000612aef604083018561295f565b8281036020840152612b01818561295f565b95945050505050565b6020815260006124c86020830184612999565b600067ffffffffffffffff821115612b3757612b37612bf2565b5060051b60200190565b60008219821115612b5457612b54612bdc565b500190565b600181811c90821680612b6d57607f821691505b60208210811415612b8e57634e487b7160e01b600052602260045260246000fd5b50919050565b601f8201601f1916810167ffffffffffffffff81118282101715612bba57612bba612bf2565b6040525050565b6000600019821415612bd557612bd5612bdc565b5060010190565b634e487b7160e01b600052601160045260246000fd5b634e487b7160e01b600052604160045260246000fd5b600060033d1115612c1d57600481823e5160e01c5b90565b600060443d1015612c2e5790565b6040516003193d81016004833e81513d67ffffffffffffffff8160248401118184111715612c5e57505050505090565b8285019150815181811115612c765750505050505090565b843d8701016020828501011115612c905750505050505090565b612c9f60208286010187612b94565b509095945050505050565b6001600160e01b031981168114610eea57600080fdfea264697066735822122021d7538d25d83b9f7d8819d42f8ec618b58a18bde5f3b67b1e62b8631c60972b64736f6c63430008040033",
  "devdoc": {
    "kind": "dev",
    "methods": {
      "balanceOf(address,uint256)": {
        "details": "See {IERC1155-balanceOf}. Requirements: - `account` cannot be the zero address."
      },
      "balanceOfBatch(address[],uint256[])": {
        "details": "See {IERC1155-balanceOfBatch}. Requirements: - `accounts` and `ids` must have the same length."
      },
      "createMessage(address,uint256,uint256)": {
        "params": {
          "amount": "the amount of tokens",
          "to": "the beneficiary",
          "tokenId": "the token id"
        },
        "returns": {
          "_0": "the message to sign"
        }
      },
      "createMessage(address,uint256,uint256,string)": {
        "params": {
          "amount": "the amount of tokens",
          "to": "the beneficiary",
          "tokenId": "the token id",
          "tokenUri": "The tokenUri"
        },
        "returns": {
          "_0": "the message to sign"
        }
      },
      "exists(uint256)": {
        "details": "Indicates whether any token exist with a given id, or not."
      },
      "isApprovedForAll(address,address)": {
        "details": "See {IERC1155-isApprovedForAll}."
      },
      "mintTo(address,uint256,uint256,bytes)": {
        "params": {
          "amount": "the amount of tokens",
          "to": "the beneficiary",
          "tokenId": "the token id"
        }
      },
      "owner()": {
        "details": "Returns the address of the current owner."
      },
      "renounceOwnership()": {
        "details": "Leaves the contract without owner. It will not be possible to call `onlyOwner` functions anymore. Can only be called by the current owner. NOTE: Renouncing ownership will leave the contract without an owner, thereby removing any functionality that is only available to the owner."
      },
      "safeBatchTransferFrom(address,address,uint256[],uint256[],bytes)": {
        "details": "See {IERC1155-safeBatchTransferFrom}."
      },
      "safeTransferFrom(address,address,uint256,uint256,bytes)": {
        "details": "See {IERC1155-safeTransferFrom}."
      },
      "setApprovalForAll(address,bool)": {
        "details": "See {IERC1155-setApprovalForAll}."
      },
      "signer()": {
        "returns": {
          "_0": "the signer address"
        }
      },
      "supportsInterface(bytes4)": {
        "details": "See {IERC165-supportsInterface}."
      },
      "totalSupply(uint256)": {
        "details": "Total amount of tokens in with a given id."
      },
      "transferOwnership(address)": {
        "details": "Transfers ownership of the contract to a new account (`newOwner`). Can only be called by the current owner."
      }
    },
    "version": 1
  },
  "userdoc": {
    "kind": "user",
    "methods": {
      "createMessage(address,uint256,uint256)": {
        "notice": "Helper that creates the message that signer needs to sign to allow a mint         this is usually also used when creating the allowances, to ensure \"message\"         is the same"
      },
      "createMessage(address,uint256,uint256,string)": {
        "notice": "Helper that creates the message that signer needs to sign to allow a mint         this is usually also used when creating the allowances, to ensure \"message\"         is the same"
      },
      "mintTo(address,uint256,uint256,bytes)": {
        "notice": "Mints token for existing tokenId to a specific beneficiary"
      },
      "signer()": {
        "notice": "Helper to know signers address"
      }
    },
    "version": 1
  },
  "storageLayout": {
    "storage": [
      {
        "astId": 765,
        "contract": "contracts/CarbonX.sol:CarbonX",
        "label": "_balances",
        "offset": 0,
        "slot": "0",
        "type": "t_mapping(t_uint256,t_mapping(t_address,t_uint256))"
      },
      {
        "astId": 771,
        "contract": "contracts/CarbonX.sol:CarbonX",
        "label": "_operatorApprovals",
        "offset": 0,
        "slot": "1",
        "type": "t_mapping(t_address,t_mapping(t_address,t_bool))"
      },
      {
        "astId": 773,
        "contract": "contracts/CarbonX.sol:CarbonX",
        "label": "_uri",
        "offset": 0,
        "slot": "2",
        "type": "t_string_storage"
      },
      {
        "astId": 2204,
        "contract": "contracts/CarbonX.sol:CarbonX",
        "label": "_totalSupply",
        "offset": 0,
        "slot": "3",
        "type": "t_mapping(t_uint256,t_uint256)"
      },
      {
        "astId": 550,
        "contract": "contracts/CarbonX.sol:CarbonX",
        "label": "_owner",
        "offset": 0,
        "slot": "4",
        "type": "t_address"
      },
      {
        "astId": 5057,
        "contract": "contracts/CarbonX.sol:CarbonX",
        "label": "_signer",
        "offset": 0,
        "slot": "5",
        "type": "t_address"
      },
      {
        "astId": 5061,
        "contract": "contracts/CarbonX.sol:CarbonX",
        "label": "_tokenUris",
        "offset": 0,
        "slot": "6",
        "type": "t_mapping(t_uint256,t_string_storage)"
      }
    ],
    "types": {
      "t_address": {
        "encoding": "inplace",
        "label": "address",
        "numberOfBytes": "20"
      },
      "t_bool": {
        "encoding": "inplace",
        "label": "bool",
        "numberOfBytes": "1"
      },
      "t_mapping(t_address,t_bool)": {
        "encoding": "mapping",
        "key": "t_address",
        "label": "mapping(address => bool)",
        "numberOfBytes": "32",
        "value": "t_bool"
      },
      "t_mapping(t_address,t_mapping(t_address,t_bool))": {
        "encoding": "mapping",
        "key": "t_address",
        "label": "mapping(address => mapping(address => bool))",
        "numberOfBytes": "32",
        "value": "t_mapping(t_address,t_bool)"
      },
      "t_mapping(t_address,t_uint256)": {
        "encoding": "mapping",
        "key": "t_address",
        "label": "mapping(address => uint256)",
        "numberOfBytes": "32",
        "value": "t_uint256"
      },
      "t_mapping(t_uint256,t_mapping(t_address,t_uint256))": {
        "encoding": "mapping",
        "key": "t_uint256",
        "label": "mapping(uint256 => mapping(address => uint256))",
        "numberOfBytes": "32",
        "value": "t_mapping(t_address,t_uint256)"
      },
      "t_mapping(t_uint256,t_string_storage)": {
        "encoding": "mapping",
        "key": "t_uint256",
        "label": "mapping(uint256 => string)",
        "numberOfBytes": "32",
        "value": "t_string_storage"
      },
      "t_mapping(t_uint256,t_uint256)": {
        "encoding": "mapping",
        "key": "t_uint256",
        "label": "mapping(uint256 => uint256)",
        "numberOfBytes": "32",
        "value": "t_uint256"
      },
      "t_string_storage": {
        "encoding": "bytes",
        "label": "string",
        "numberOfBytes": "32"
      },
      "t_uint256": {
        "encoding": "inplace",
        "label": "uint256",
        "numberOfBytes": "32"
      }
    }
  }
}