{
  "address": "0xf1F7C8f0D5579Aa121cF406C2570Ee38B68EcB03",
  "abi": [
    {
      "inputs": [
        {
          "internalType": "address",
          "name": "signer_",
          "type": "address"
        },
        {
          "internalType": "string",
          "name": "baseUri_",
          "type": "string"
        }
      ],
      "stateMutability": "nonpayable",
      "type": "constructor"
    },
    {
      "inputs": [
        {
          "internalType": "uint256",
          "name": "tokenId",
          "type": "uint256"
        },
        {
          "internalType": "uint256",
          "name": "amount",
          "type": "uint256"
        },
        {
          "internalType": "uint256",
          "name": "maxSupply",
          "type": "uint256"
        }
      ],
      "name": "ErrInitialSupplyGreaterThanNaxSupply",
      "type": "error"
    },
    {
      "inputs": [],
      "name": "ErrInvalidSignature",
      "type": "error"
    },
    {
      "inputs": [
        {
          "internalType": "uint256",
          "name": "tokenId",
          "type": "uint256"
        },
        {
          "internalType": "uint256",
          "name": "newSupply",
          "type": "uint256"
        },
        {
          "internalType": "uint256",
          "name": "maxSupply",
          "type": "uint256"
        }
      ],
      "name": "ErrMintWouldViolateMaxTokenSupply",
      "type": "error"
    },
    {
      "inputs": [],
      "name": "ErrSignerMustNotBeZeroAddress",
      "type": "error"
    },
    {
      "inputs": [
        {
          "internalType": "uint256",
          "name": "tokenId",
          "type": "uint256"
        }
      ],
      "name": "ErrTokenAlreadyExists",
      "type": "error"
    },
    {
      "inputs": [
        {
          "internalType": "uint256",
          "name": "tokenId",
          "type": "uint256"
        }
      ],
      "name": "ErrTokenNotExists",
      "type": "error"
    },
    {
      "anonymous": false,
      "inputs": [
        {
          "indexed": true,
          "internalType": "address",
          "name": "account",
          "type": "address"
        },
        {
          "indexed": true,
          "internalType": "address",
          "name": "operator",
          "type": "address"
        },
        {
          "indexed": false,
          "internalType": "bool",
          "name": "approved",
          "type": "bool"
        }
      ],
      "name": "ApprovalForAll",
      "type": "event"
    },
    {
      "anonymous": false,
      "inputs": [
        {
          "indexed": true,
          "internalType": "address",
          "name": "previousOwner",
          "type": "address"
        },
        {
          "indexed": true,
          "internalType": "address",
          "name": "newOwner",
          "type": "address"
        }
      ],
      "name": "OwnershipTransferred",
      "type": "event"
    },
    {
      "anonymous": false,
      "inputs": [
        {
          "indexed": true,
          "internalType": "address",
          "name": "oldSigner",
          "type": "address"
        },
        {
          "indexed": true,
          "internalType": "address",
          "name": "_signer",
          "type": "address"
        }
      ],
      "name": "SignerChanged",
      "type": "event"
    },
    {
      "anonymous": false,
      "inputs": [
        {
          "indexed": true,
          "internalType": "uint256",
          "name": "tokenId",
          "type": "uint256"
        },
        {
          "indexed": false,
          "internalType": "bytes32",
          "name": "oldUriHash",
          "type": "bytes32"
        },
        {
          "indexed": false,
          "internalType": "bytes32",
          "name": "newUriHash",
          "type": "bytes32"
        }
      ],
      "name": "TokenUriChanged",
      "type": "event"
    },
    {
      "anonymous": false,
      "inputs": [
        {
          "indexed": true,
          "internalType": "address",
          "name": "operator",
          "type": "address"
        },
        {
          "indexed": true,
          "internalType": "address",
          "name": "from",
          "type": "address"
        },
        {
          "indexed": true,
          "internalType": "address",
          "name": "to",
          "type": "address"
        },
        {
          "indexed": false,
          "internalType": "uint256[]",
          "name": "ids",
          "type": "uint256[]"
        },
        {
          "indexed": false,
          "internalType": "uint256[]",
          "name": "values",
          "type": "uint256[]"
        }
      ],
      "name": "TransferBatch",
      "type": "event"
    },
    {
      "anonymous": false,
      "inputs": [
        {
          "indexed": true,
          "internalType": "address",
          "name": "operator",
          "type": "address"
        },
        {
          "indexed": true,
          "internalType": "address",
          "name": "from",
          "type": "address"
        },
        {
          "indexed": true,
          "internalType": "address",
          "name": "to",
          "type": "address"
        },
        {
          "indexed": false,
          "internalType": "uint256",
          "name": "id",
          "type": "uint256"
        },
        {
          "indexed": false,
          "internalType": "uint256",
          "name": "value",
          "type": "uint256"
        }
      ],
      "name": "TransferSingle",
      "type": "event"
    },
    {
      "anonymous": false,
      "inputs": [
        {
          "indexed": false,
          "internalType": "string",
          "name": "value",
          "type": "string"
        },
        {
          "indexed": true,
          "internalType": "uint256",
          "name": "id",
          "type": "uint256"
        }
      ],
      "name": "URI",
      "type": "event"
    },
    {
      "inputs": [
        {
          "internalType": "address",
          "name": "account",
          "type": "address"
        },
        {
          "internalType": "uint256",
          "name": "id",
          "type": "uint256"
        }
      ],
      "name": "balanceOf",
      "outputs": [
        {
          "internalType": "uint256",
          "name": "",
          "type": "uint256"
        }
      ],
      "stateMutability": "view",
      "type": "function"
    },
    {
      "inputs": [
        {
          "internalType": "address[]",
          "name": "accounts",
          "type": "address[]"
        },
        {
          "internalType": "uint256[]",
          "name": "ids",
          "type": "uint256[]"
        }
      ],
      "name": "balanceOfBatch",
      "outputs": [
        {
          "internalType": "uint256[]",
          "name": "",
          "type": "uint256[]"
        }
      ],
      "stateMutability": "view",
      "type": "function"
    },
    {
      "inputs": [
        {
          "internalType": "address",
          "name": "account",
          "type": "address"
        },
        {
          "internalType": "uint256",
          "name": "id",
          "type": "uint256"
        },
        {
          "internalType": "uint256",
          "name": "value",
          "type": "uint256"
        }
      ],
      "name": "burn",
      "outputs": [],
      "stateMutability": "nonpayable",
      "type": "function"
    },
    {
      "inputs": [
        {
          "internalType": "address",
          "name": "account",
          "type": "address"
        },
        {
          "internalType": "uint256[]",
          "name": "ids",
          "type": "uint256[]"
        },
        {
          "internalType": "uint256[]",
          "name": "values",
          "type": "uint256[]"
        }
      ],
      "name": "burnBatch",
      "outputs": [],
      "stateMutability": "nonpayable",
      "type": "function"
    },
    {
      "inputs": [
        {
          "internalType": "address",
          "name": "to",
          "type": "address"
        },
        {
          "internalType": "uint256",
          "name": "tokenId",
          "type": "uint256"
        },
        {
          "internalType": "uint256",
          "name": "amount",
          "type": "uint256"
        },
        {
          "internalType": "uint256",
          "name": "maxSupply",
          "type": "uint256"
        },
        {
          "internalType": "string",
          "name": "tokenUri",
          "type": "string"
        },
        {
          "internalType": "bytes",
          "name": "signature",
          "type": "bytes"
        }
      ],
      "name": "create",
      "outputs": [],
      "stateMutability": "nonpayable",
      "type": "function"
    },
    {
      "inputs": [
        {
          "internalType": "address",
          "name": "to",
          "type": "address"
        },
        {
          "internalType": "uint256",
          "name": "tokenId",
          "type": "uint256"
        },
        {
          "internalType": "uint256",
          "name": "amount",
          "type": "uint256"
        },
        {
          "internalType": "string",
          "name": "tokenUri",
          "type": "string"
        }
      ],
      "name": "createMessage",
      "outputs": [
        {
          "internalType": "bytes32",
          "name": "",
          "type": "bytes32"
        }
      ],
      "stateMutability": "view",
      "type": "function"
    },
    {
      "inputs": [
        {
          "internalType": "address",
          "name": "to",
          "type": "address"
        },
        {
          "internalType": "uint256",
          "name": "tokenId",
          "type": "uint256"
        },
        {
          "internalType": "uint256",
          "name": "amount",
          "type": "uint256"
        }
      ],
      "name": "createMessage",
      "outputs": [
        {
          "internalType": "bytes32",
          "name": "",
          "type": "bytes32"
        }
      ],
      "stateMutability": "view",
      "type": "function"
    },
    {
      "inputs": [
        {
          "internalType": "uint256",
          "name": "id",
          "type": "uint256"
        }
      ],
      "name": "exists",
      "outputs": [
        {
          "internalType": "bool",
          "name": "",
          "type": "bool"
        }
      ],
      "stateMutability": "view",
      "type": "function"
    },
    {
      "inputs": [],
      "name": "getSigner",
      "outputs": [
        {
          "internalType": "address",
          "name": "",
          "type": "address"
        }
      ],
      "stateMutability": "view",
      "type": "function"
    },
    {
      "inputs": [
        {
          "internalType": "address",
          "name": "account",
          "type": "address"
        },
        {
          "internalType": "address",
          "name": "operator",
          "type": "address"
        }
      ],
      "name": "isApprovedForAll",
      "outputs": [
        {
          "internalType": "bool",
          "name": "",
          "type": "bool"
        }
      ],
      "stateMutability": "view",
      "type": "function"
    },
    {
      "inputs": [
        {
          "internalType": "address",
          "name": "",
          "type": "address"
        },
        {
          "internalType": "address",
          "name": "",
          "type": "address"
        },
        {
          "internalType": "uint256[]",
          "name": "",
          "type": "uint256[]"
        },
        {
          "internalType": "uint256[]",
          "name": "",
          "type": "uint256[]"
        },
        {
          "internalType": "bytes",
          "name": "",
          "type": "bytes"
        }
      ],
      "name": "isTransferIntoVaultAccepted",
      "outputs": [
        {
          "internalType": "bool",
          "name": "",
          "type": "bool"
        }
      ],
      "stateMutability": "view",
      "type": "function"
    },
    {
      "inputs": [
        {
          "internalType": "uint256",
          "name": "tokenId",
          "type": "uint256"
        },
        {
          "internalType": "uint256",
          "name": "amount",
          "type": "uint256"
        },
        {
          "internalType": "bytes",
          "name": "signature",
          "type": "bytes"
        }
      ],
      "name": "mint",
      "outputs": [],
      "stateMutability": "nonpayable",
      "type": "function"
    },
    {
      "inputs": [
        {
          "internalType": "address",
          "name": "to",
          "type": "address"
        },
        {
          "internalType": "uint256",
          "name": "tokenId",
          "type": "uint256"
        },
        {
          "internalType": "uint256",
          "name": "amount",
          "type": "uint256"
        },
        {
          "internalType": "bytes",
          "name": "signature",
          "type": "bytes"
        }
      ],
      "name": "mintTo",
      "outputs": [],
      "stateMutability": "nonpayable",
      "type": "function"
    },
    {
      "inputs": [
        {
          "internalType": "address",
          "name": "",
          "type": "address"
        },
        {
          "internalType": "address",
          "name": "",
          "type": "address"
        },
        {
          "internalType": "uint256[]",
          "name": "",
          "type": "uint256[]"
        },
        {
          "internalType": "uint256[]",
          "name": "",
          "type": "uint256[]"
        },
        {
          "internalType": "bytes",
          "name": "",
          "type": "bytes"
        }
      ],
      "name": "onTransferIntoVaultSuccessfullyDone",
      "outputs": [
        {
          "internalType": "bytes4",
          "name": "",
          "type": "bytes4"
        }
      ],
      "stateMutability": "nonpayable",
      "type": "function"
    },
    {
      "inputs": [],
      "name": "owner",
      "outputs": [
        {
          "internalType": "address",
          "name": "",
          "type": "address"
        }
      ],
      "stateMutability": "view",
      "type": "function"
    },
    {
      "inputs": [],
      "name": "renounceOwnership",
      "outputs": [],
      "stateMutability": "nonpayable",
      "type": "function"
    },
    {
      "inputs": [
        {
          "internalType": "address",
          "name": "from",
          "type": "address"
        },
        {
          "internalType": "address",
          "name": "to",
          "type": "address"
        },
        {
          "internalType": "uint256[]",
          "name": "ids",
          "type": "uint256[]"
        },
        {
          "internalType": "uint256[]",
          "name": "amounts",
          "type": "uint256[]"
        },
        {
          "internalType": "bytes",
          "name": "data",
          "type": "bytes"
        }
      ],
      "name": "safeBatchTransferFrom",
      "outputs": [],
      "stateMutability": "nonpayable",
      "type": "function"
    },
    {
      "inputs": [
        {
          "internalType": "address",
          "name": "from",
          "type": "address"
        },
        {
          "internalType": "address",
          "name": "to",
          "type": "address"
        },
        {
          "internalType": "uint256",
          "name": "id",
          "type": "uint256"
        },
        {
          "internalType": "uint256",
          "name": "amount",
          "type": "uint256"
        },
        {
          "internalType": "bytes",
          "name": "data",
          "type": "bytes"
        }
      ],
      "name": "safeTransferFrom",
      "outputs": [],
      "stateMutability": "nonpayable",
      "type": "function"
    },
    {
      "inputs": [
        {
          "internalType": "address",
          "name": "operator",
          "type": "address"
        },
        {
          "internalType": "bool",
          "name": "approved",
          "type": "bool"
        }
      ],
      "name": "setApprovalForAll",
      "outputs": [],
      "stateMutability": "nonpayable",
      "type": "function"
    },
    {
      "inputs": [
        {
          "internalType": "address",
          "name": "signer_",
          "type": "address"
        }
      ],
      "name": "setSigner",
      "outputs": [],
      "stateMutability": "nonpayable",
      "type": "function"
    },
    {
      "inputs": [
        {
          "internalType": "uint256",
          "name": "id",
          "type": "uint256"
        },
        {
          "internalType": "string",
          "name": "tokenUri",
          "type": "string"
        }
      ],
      "name": "setTokenUri",
      "outputs": [],
      "stateMutability": "nonpayable",
      "type": "function"
    },
    {
      "inputs": [
        {
          "internalType": "bytes4",
          "name": "interfaceId",
          "type": "bytes4"
        }
      ],
      "name": "supportsInterface",
      "outputs": [
        {
          "internalType": "bool",
          "name": "",
          "type": "bool"
        }
      ],
      "stateMutability": "view",
      "type": "function"
    },
    {
      "inputs": [
        {
          "internalType": "uint256",
          "name": "id",
          "type": "uint256"
        }
      ],
      "name": "totalSupply",
      "outputs": [
        {
          "internalType": "uint256",
          "name": "",
          "type": "uint256"
        }
      ],
      "stateMutability": "view",
      "type": "function"
    },
    {
      "inputs": [
        {
          "internalType": "address",
          "name": "newOwner",
          "type": "address"
        }
      ],
      "name": "transferOwnership",
      "outputs": [],
      "stateMutability": "nonpayable",
      "type": "function"
    },
    {
      "inputs": [
        {
          "internalType": "uint256",
          "name": "id",
          "type": "uint256"
        }
      ],
      "name": "uri",
      "outputs": [
        {
          "internalType": "string",
          "name": "",
          "type": "string"
        }
      ],
      "stateMutability": "view",
      "type": "function"
    }
  ],
  "transactionHash": "0xfc7d3d839e605230f7f57a458ba7e0b030eea5707523cd4ade46f8777186d49d",
  "args": [
    "0xeebA72dcE016a06055dbD0318429053bEd738c7e",
    "ipfs://"
  ],
  "numDeployments": 5,
  "solcInputHash": "ed37d04bb660df0f24cd1f969b2033b4",
  "bytecode": "0x60806040523480156200001157600080fd5b50604051620032c1380380620032c18339810160408190526200003491620001ac565b8062000040816200009b565b506200004c33620000b4565b6001600160a01b0382166200007457604051632756fa7b60e21b815260040160405180910390fd5b50600580546001600160a01b0319166001600160a01b0392909216919091179055620002ff565b8051620000b090600290602084019062000106565b5050565b600480546001600160a01b038381166001600160a01b0319831681179093556040519116919082907f8be0079c531659141344cd1fd0a4f28419497f9722a3daafe3b4186f6b6457e090600090a35050565b8280546200011490620002ac565b90600052602060002090601f01602090048101928262000138576000855562000183565b82601f106200015357805160ff191683800117855562000183565b8280016001018555821562000183579182015b828111156200018357825182559160200191906001019062000166565b506200019192915062000195565b5090565b5b8082111562000191576000815560010162000196565b60008060408385031215620001c057600080fd5b82516001600160a01b0381168114620001d857600080fd5b602084810151919350906001600160401b0380821115620001f857600080fd5b818601915086601f8301126200020d57600080fd5b815181811115620002225762000222620002e9565b604051601f8201601f19908116603f011681019083821181831017156200024d576200024d620002e9565b8160405282815289868487010111156200026657600080fd5b600093505b828410156200028a57848401860151818501870152928501926200026b565b828411156200029c5760008684830101525b8096505050505050509250929050565b600181811c90821680620002c157607f821691505b60208210811415620002e357634e487b7160e01b600052602260045260246000fd5b50919050565b634e487b7160e01b600052604160045260246000fd5b612fb2806200030f6000396000f3fe608060405234801561001057600080fd5b50600436106101a25760003560e01c8063715018a6116100ee578063bd85b03911610097578063ed9ec58c11610071578063ed9ec58c14610403578063f242432a1461045c578063f2fde38b1461046f578063f5298aca1461048257600080fd5b8063bd85b0391461038e578063df9c3e64146103ae578063e985e9c5146103c757600080fd5b80638aaab707116100c85780638aaab707146103195780638da5cb5b1461036a578063a22cb4651461037b57600080fd5b8063715018a6146102d95780637ac3c02f146102e157806383a9a2201461030657600080fd5b80632eb2c2d61161015057806357f7789e1161012a57806357f7789e146102a05780636b20c454146102b35780636c19e783146102c657600080fd5b80632eb2c2d61461024b5780634e1273f41461025e5780634f558e791461027e57600080fd5b80630e89341c116101815780630e89341c1461020557806320d4f41b14610225578063280f4e281461023857600080fd5b8062fdd58e146101a757806301ffc9a7146101cd57806308dc9f42146101f0575b600080fd5b6101ba6101b53660046127f4565b610495565b6040519081526020015b60405180910390f35b6101e06101db366004612a13565b61053e565b60405190151581526020016101c4565b6102036101fe366004612aa3565b6105db565b005b610218610213366004612a4d565b610637565b6040516101c49190612d2e565b6101ba610233366004612851565b6106d9565b610203610246366004612851565b610714565b610203610259366004612635565b610910565b61027161026c366004612942565b6109b2565b6040516101c49190612ced565b6101e061028c366004612a4d565b600090815260036020526040902054151590565b6102036102ae366004612a66565b610af0565b6102036102c1366004612744565b610ba3565b6102036102d43660046125e0565b610c41565b610203610d0d565b6005546001600160a01b03165b6040516001600160a01b0390911681526020016101c4565b6102036103143660046128b2565b610d21565b610351610327366004612635565b7f8aaab7070000000000000000000000000000000000000000000000000000000095945050505050565b6040516001600160e01b031990911681526020016101c4565b6004546001600160a01b03166102ee565b6102036103893660046127b8565b610eb9565b6101ba61039c366004612a4d565b60009081526003602052604090205490565b6101e06103bc366004612635565b600195945050505050565b6101e06103d5366004612602565b6001600160a01b03918216600090815260016020908152604080832093909416825291909152205460ff1690565b6101ba61041136600461281e565b604080516001600160a01b03851660208201529081018390526060810182905230608082015260009060a0016040516020818303038152906040528051906020012090509392505050565b61020361046a3660046126df565b610ec8565b61020361047d3660046125e0565b610f63565b61020361049036600461281e565b610ff0565b60006001600160a01b0383166105185760405162461bcd60e51b815260206004820152602a60248201527f455243313135353a2061646472657373207a65726f206973206e6f742061207660448201527f616c6964206f776e65720000000000000000000000000000000000000000000060648201526084015b60405180910390fd5b506000908152602081815260408083206001600160a01b03949094168352929052205490565b60006001600160e01b031982167fd9b67a260000000000000000000000000000000000000000000000000000000014806105a157506001600160e01b031982167f0e89341c00000000000000000000000000000000000000000000000000000000145b806105d557507f01ffc9a7000000000000000000000000000000000000000000000000000000006001600160e01b03198316145b92915050565b6000838152600360205260409020548390610625576040517f914a31ac0000000000000000000000000000000000000000000000000000000081526004810182905260240161050f565b61063133858585610714565b50505050565b600081815260066020526040902080546060919061065490612da9565b80601f016020809104026020016040519081016040528092919081815260200182805461068090612da9565b80156106cd5780601f106106a2576101008083540402835291602001916106cd565b820191906000526020600020905b8154815290600101906020018083116106b057829003601f168201915b50505050509050919050565b600084848484306040516020016106f4959493929190612ca9565b604051602081830303815290604052805190602001209050949350505050565b600083815260036020526040902054839061075e576040517f914a31ac0000000000000000000000000000000000000000000000000000000081526004810182905260240161050f565b60006108076107b4878787604080516001600160a01b03851660208201529081018390526060810182905230608082015260009060a0016040516020818303038152906040528051906020012090509392505050565b6040517f19457468657265756d205369676e6564204d6573736167653a0a3332000000006020820152603c8101829052600090605c01604051602081830303815290604052805190602001209050919050565b6005549091506001600160a01b03166108208285611089565b6001600160a01b031614610860576040517f98c9685400000000000000000000000000000000000000000000000000000000815260040160405180910390fd5b6000858152600760209081526040808320546003909252909120546108859086612d65565b11156108f95760008581526003602052604090205485906108a69086612d65565b600087815260076020526040908190205490517f3d2c8f0b00000000000000000000000000000000000000000000000000000000815260048101939093526024830191909152604482015260640161050f565b6060610907878787846110a5565b50505050505050565b6001600160a01b03851633148061092c575061092c85336103d5565b61099e5760405162461bcd60e51b815260206004820152602e60248201527f455243313135353a2063616c6c6572206973206e6f7420746f6b656e206f776e60448201527f6572206f7220617070726f766564000000000000000000000000000000000000606482015260840161050f565b6109ab85858585856111db565b5050505050565b60608151835114610a2b5760405162461bcd60e51b815260206004820152602960248201527f455243313135353a206163636f756e747320616e6420696473206c656e67746860448201527f206d69736d617463680000000000000000000000000000000000000000000000606482015260840161050f565b6000835167ffffffffffffffff811115610a4757610a47612e8c565b604051908082528060200260200182016040528015610a70578160200160208202803683370190505b50905060005b8451811015610ae857610abb858281518110610a9457610a94612e76565b6020026020010151858381518110610aae57610aae612e76565b6020026020010151610495565b828281518110610acd57610acd612e76565b6020908102919091010152610ae181612e11565b9050610a76565b509392505050565b610af8611487565b60008281526006602090815260408083209051610b159201612b6c565b604051602081830303815290604052805190602001209050600082604051602001610b409190612b50565b604051602081830303815290604052805190602001209050610b6284846114e1565b604080518381526020810183905285917f426f747ad7aaa92273a37d5172755fd3aaeb4f7f4e02dc53d713a02a0356649d910160405180910390a250505050565b6001600160a01b038316331480610bbf5750610bbf83336103d5565b610c315760405162461bcd60e51b815260206004820152602e60248201527f455243313135353a2063616c6c6572206973206e6f7420746f6b656e206f776e60448201527f6572206f7220617070726f766564000000000000000000000000000000000000606482015260840161050f565b610c3c838383611500565b505050565b610c49611487565b6001600160a01b038116610c89576040517f9d5be9ec00000000000000000000000000000000000000000000000000000000815260040160405180910390fd5b6005546001600160a01b0382811691161415610ca25750565b600580546001600160a01b038381167fffffffffffffffffffffffff0000000000000000000000000000000000000000831681179093556040519116919082907feeb293e1f8f3a9db91ade748726387ed1352ca78f5430c5f06fe3d1e1ad5057990600090a3505b50565b610d15611487565b610d1f600061179d565b565b60008581526003602052604090205415610d6a576040517f4af9b7410000000000000000000000000000000000000000000000000000000081526004810186905260240161050f565b8151600090839015610d8c57610d856107b4898989886106d9565b9150610ddd565b604080516001600160a01b038a166020808301919091528183018a905260608201899052306080808401919091528351808403909101815260a09092019092528051910120610dda906107b4565b91505b6005546001600160a01b0316610df38385611089565b6001600160a01b031614610e33576040517f98c9685400000000000000000000000000000000000000000000000000000000815260040160405180910390fd5b84861115610e7e576040517f922207da00000000000000000000000000000000000000000000000000000000815260048101889052602481018790526044810186905260640161050f565b6060610e8c898989846110a5565b6000888152600760205260409020869055845115610eae57610eae88866114e1565b505050505050505050565b610ec4338383611807565b5050565b6001600160a01b038516331480610ee45750610ee485336103d5565b610f565760405162461bcd60e51b815260206004820152602e60248201527f455243313135353a2063616c6c6572206973206e6f7420746f6b656e206f776e60448201527f6572206f7220617070726f766564000000000000000000000000000000000000606482015260840161050f565b6109ab85858585856118fc565b610f6b611487565b6001600160a01b038116610fe75760405162461bcd60e51b815260206004820152602660248201527f4f776e61626c653a206e6577206f776e657220697320746865207a65726f206160448201527f6464726573730000000000000000000000000000000000000000000000000000606482015260840161050f565b610d0a8161179d565b6001600160a01b03831633148061100c575061100c83336103d5565b61107e5760405162461bcd60e51b815260206004820152602e60248201527f455243313135353a2063616c6c6572206973206e6f7420746f6b656e206f776e60448201527f6572206f7220617070726f766564000000000000000000000000000000000000606482015260840161050f565b610c3c838383611ad5565b60008060006110988585611c98565b91509150610ae881611cde565b6001600160a01b0384166111215760405162461bcd60e51b815260206004820152602160248201527f455243313135353a206d696e7420746f20746865207a65726f2061646472657360448201527f7300000000000000000000000000000000000000000000000000000000000000606482015260840161050f565b33600061112d85611e47565b9050600061113a85611e47565b905061114b83600089858589611e92565b6000868152602081815260408083206001600160a01b038b1684529091528120805487929061117b908490612d65565b909155505060408051878152602081018790526001600160a01b03808a1692600092918716917fc3d58168c5ae7397731d063d5bbf3d657854427343f4c083240f7aacaa2d0f62910160405180910390a461090783600089898989611ea0565b81518351146112525760405162461bcd60e51b815260206004820152602860248201527f455243313135353a2069647320616e6420616d6f756e7473206c656e6774682060448201527f6d69736d61746368000000000000000000000000000000000000000000000000606482015260840161050f565b6001600160a01b0384166112ce5760405162461bcd60e51b815260206004820152602560248201527f455243313135353a207472616e7366657220746f20746865207a65726f20616460448201527f6472657373000000000000000000000000000000000000000000000000000000606482015260840161050f565b336112dd818787878787611e92565b60005b84518110156114195760008582815181106112fd576112fd612e76565b60200260200101519050600085838151811061131b5761131b612e76565b602090810291909101810151600084815280835260408082206001600160a01b038e1683529093529190912054909150818110156113c15760405162461bcd60e51b815260206004820152602a60248201527f455243313135353a20696e73756666696369656e742062616c616e636520666f60448201527f72207472616e7366657200000000000000000000000000000000000000000000606482015260840161050f565b6000838152602081815260408083206001600160a01b038e8116855292528083208585039055908b168252812080548492906113fe908490612d65565b925050819055505050508061141290612e11565b90506112e0565b50846001600160a01b0316866001600160a01b0316826001600160a01b03167f4a39dc06d4c0dbc64b70af90fd698a233a518aa5d07e595d983b8c0526c8f7fb8787604051611469929190612d00565b60405180910390a461147f81878787878761209c565b505050505050565b6004546001600160a01b03163314610d1f5760405162461bcd60e51b815260206004820181905260248201527f4f776e61626c653a2063616c6c6572206973206e6f7420746865206f776e6572604482015260640161050f565b60008281526006602090815260409091208251610c3c92840190612440565b6001600160a01b03831661157c5760405162461bcd60e51b815260206004820152602360248201527f455243313135353a206275726e2066726f6d20746865207a65726f206164647260448201527f6573730000000000000000000000000000000000000000000000000000000000606482015260840161050f565b80518251146115f35760405162461bcd60e51b815260206004820152602860248201527f455243313135353a2069647320616e6420616d6f756e7473206c656e6774682060448201527f6d69736d61746368000000000000000000000000000000000000000000000000606482015260840161050f565b600033905061161681856000868660405180602001604052806000815250611e92565b60005b835181101561173057600084828151811061163657611636612e76565b60200260200101519050600084838151811061165457611654612e76565b602090810291909101810151600084815280835260408082206001600160a01b038c1683529093529190912054909150818110156116f95760405162461bcd60e51b8152602060048201526024808201527f455243313135353a206275726e20616d6f756e7420657863656564732062616c60448201527f616e636500000000000000000000000000000000000000000000000000000000606482015260840161050f565b6000928352602083815260408085206001600160a01b038b168652909152909220910390558061172881612e11565b915050611619565b5060006001600160a01b0316846001600160a01b0316826001600160a01b03167f4a39dc06d4c0dbc64b70af90fd698a233a518aa5d07e595d983b8c0526c8f7fb8686604051611781929190612d00565b60405180910390a4604080516020810190915260009052610631565b600480546001600160a01b038381167fffffffffffffffffffffffff0000000000000000000000000000000000000000831681179093556040519116919082907f8be0079c531659141344cd1fd0a4f28419497f9722a3daafe3b4186f6b6457e090600090a35050565b816001600160a01b0316836001600160a01b0316141561188f5760405162461bcd60e51b815260206004820152602960248201527f455243313135353a2073657474696e6720617070726f76616c2073746174757360448201527f20666f722073656c660000000000000000000000000000000000000000000000606482015260840161050f565b6001600160a01b03838116600081815260016020908152604080832094871680845294825291829020805460ff191686151590811790915591519182527f17307eab39ab6107e8899845ad3d59bd9653f200f220920489ca2b5937696c31910160405180910390a3505050565b6001600160a01b0384166119785760405162461bcd60e51b815260206004820152602560248201527f455243313135353a207472616e7366657220746f20746865207a65726f20616460448201527f6472657373000000000000000000000000000000000000000000000000000000606482015260840161050f565b33600061198485611e47565b9050600061199185611e47565b90506119a1838989858589611e92565b6000868152602081815260408083206001600160a01b038c16845290915290205485811015611a385760405162461bcd60e51b815260206004820152602a60248201527f455243313135353a20696e73756666696369656e742062616c616e636520666f60448201527f72207472616e7366657200000000000000000000000000000000000000000000606482015260840161050f565b6000878152602081815260408083206001600160a01b038d8116855292528083208985039055908a16825281208054889290611a75908490612d65565b909155505060408051888152602081018890526001600160a01b03808b16928c821692918816917fc3d58168c5ae7397731d063d5bbf3d657854427343f4c083240f7aacaa2d0f62910160405180910390a4610eae848a8a8a8a8a611ea0565b6001600160a01b038316611b515760405162461bcd60e51b815260206004820152602360248201527f455243313135353a206275726e2066726f6d20746865207a65726f206164647260448201527f6573730000000000000000000000000000000000000000000000000000000000606482015260840161050f565b336000611b5d84611e47565b90506000611b6a84611e47565b9050611b8a83876000858560405180602001604052806000815250611e92565b6000858152602081815260408083206001600160a01b038a16845290915290205484811015611c205760405162461bcd60e51b8152602060048201526024808201527f455243313135353a206275726e20616d6f756e7420657863656564732062616c60448201527f616e636500000000000000000000000000000000000000000000000000000000606482015260840161050f565b6000868152602081815260408083206001600160a01b038b81168086529184528285208a8703905582518b81529384018a90529092908816917fc3d58168c5ae7397731d063d5bbf3d657854427343f4c083240f7aacaa2d0f62910160405180910390a4604080516020810190915260009052610907565b600080825160411415611ccf5760208301516040840151606085015160001a611cc3878285856121ee565b94509450505050611cd7565b506000905060025b9250929050565b6000816004811115611cf257611cf2612e60565b1415611cfb5750565b6001816004811115611d0f57611d0f612e60565b1415611d5d5760405162461bcd60e51b815260206004820152601860248201527f45434453413a20696e76616c6964207369676e61747572650000000000000000604482015260640161050f565b6002816004811115611d7157611d71612e60565b1415611dbf5760405162461bcd60e51b815260206004820152601f60248201527f45434453413a20696e76616c6964207369676e6174757265206c656e67746800604482015260640161050f565b6003816004811115611dd357611dd3612e60565b1415610d0a5760405162461bcd60e51b815260206004820152602260248201527f45434453413a20696e76616c6964207369676e6174757265202773272076616c60448201527f7565000000000000000000000000000000000000000000000000000000000000606482015260840161050f565b60408051600180825281830190925260609160009190602080830190803683370190505090508281600081518110611e8157611e81612e76565b602090810291909101015292915050565b61147f8686868686866122b2565b6001600160a01b0384163b1561147f576040517ff23a6e610000000000000000000000000000000000000000000000000000000081526001600160a01b0385169063f23a6e6190611efd9089908990889088908890600401612c66565b602060405180830381600087803b158015611f1757600080fd5b505af1925050508015611f47575060408051601f3d908101601f19168201909252611f4491810190612a30565b60015b611ffd57611f53612ea2565b806308c379a01415611f8d5750611f68612ebe565b80611f735750611f8f565b8060405162461bcd60e51b815260040161050f9190612d2e565b505b60405162461bcd60e51b815260206004820152603460248201527f455243313135353a207472616e7366657220746f206e6f6e2d4552433131353560448201527f526563656976657220696d706c656d656e746572000000000000000000000000606482015260840161050f565b6001600160e01b031981167ff23a6e6100000000000000000000000000000000000000000000000000000000146109075760405162461bcd60e51b815260206004820152602860248201527f455243313135353a204552433131353552656365697665722072656a6563746560448201527f6420746f6b656e73000000000000000000000000000000000000000000000000606482015260840161050f565b6001600160a01b0384163b1561147f576040517fbc197c810000000000000000000000000000000000000000000000000000000081526001600160a01b0385169063bc197c81906120f99089908990889088908890600401612c08565b602060405180830381600087803b15801561211357600080fd5b505af1925050508015612143575060408051601f3d908101601f1916820190925261214091810190612a30565b60015b61214f57611f53612ea2565b6001600160e01b031981167fbc197c8100000000000000000000000000000000000000000000000000000000146109075760405162461bcd60e51b815260206004820152602860248201527f455243313135353a204552433131353552656365697665722072656a6563746560448201527f6420746f6b656e73000000000000000000000000000000000000000000000000606482015260840161050f565b6000807f7fffffffffffffffffffffffffffffff5d576e7357a4501ddfe92f46681b20a083111561222557506000905060036122a9565b6040805160008082526020820180845289905260ff881692820192909252606081018690526080810185905260019060a0016020604051602081039080840390855afa158015612279573d6000803e3d6000fd5b5050604051601f1901519150506001600160a01b0381166122a2576000600192509250506122a9565b9150600090505b94509492505050565b6001600160a01b0385166123395760005b8351811015612337578281815181106122de576122de612e76565b6020026020010151600360008684815181106122fc576122fc612e76565b6020026020010151815260200190815260200160002060008282546123219190612d65565b90915550612330905081612e11565b90506122c3565b505b6001600160a01b03841661147f5760005b835181101561090757600084828151811061236757612367612e76565b60200260200101519050600084838151811061238557612385612e76565b602002602001015190506000600360008481526020019081526020016000205490508181101561241d5760405162461bcd60e51b815260206004820152602860248201527f455243313135353a206275726e20616d6f756e74206578636565647320746f7460448201527f616c537570706c79000000000000000000000000000000000000000000000000606482015260840161050f565b6000928352600360205260409092209103905561243981612e11565b905061234a565b82805461244c90612da9565b90600052602060002090601f01602090048101928261246e57600085556124b4565b82601f1061248757805160ff19168380011785556124b4565b828001600101855582156124b4579182015b828111156124b4578251825591602001919060010190612499565b506124c09291506124c4565b5090565b5b808211156124c057600081556001016124c5565b80356001600160a01b03811681146124f057600080fd5b919050565b600082601f83011261250657600080fd5b8135602061251382612d41565b6040516125208282612de4565b8381528281019150858301600585901b8701840188101561254057600080fd5b60005b8581101561255f57813584529284019290840190600101612543565b5090979650505050505050565b600082601f83011261257d57600080fd5b813567ffffffffffffffff81111561259757612597612e8c565b6040516125ae6020601f19601f8501160182612de4565b8181528460208386010111156125c357600080fd5b816020850160208301376000918101602001919091529392505050565b6000602082840312156125f257600080fd5b6125fb826124d9565b9392505050565b6000806040838503121561261557600080fd5b61261e836124d9565b915061262c602084016124d9565b90509250929050565b600080600080600060a0868803121561264d57600080fd5b612656866124d9565b9450612664602087016124d9565b9350604086013567ffffffffffffffff8082111561268157600080fd5b61268d89838a016124f5565b945060608801359150808211156126a357600080fd5b6126af89838a016124f5565b935060808801359150808211156126c557600080fd5b506126d28882890161256c565b9150509295509295909350565b600080600080600060a086880312156126f757600080fd5b612700866124d9565b945061270e602087016124d9565b93506040860135925060608601359150608086013567ffffffffffffffff81111561273857600080fd5b6126d28882890161256c565b60008060006060848603121561275957600080fd5b612762846124d9565b9250602084013567ffffffffffffffff8082111561277f57600080fd5b61278b878388016124f5565b935060408601359150808211156127a157600080fd5b506127ae868287016124f5565b9150509250925092565b600080604083850312156127cb57600080fd5b6127d4836124d9565b9150602083013580151581146127e957600080fd5b809150509250929050565b6000806040838503121561280757600080fd5b612810836124d9565b946020939093013593505050565b60008060006060848603121561283357600080fd5b61283c846124d9565b95602085013595506040909401359392505050565b6000806000806080858703121561286757600080fd5b612870856124d9565b93506020850135925060408501359150606085013567ffffffffffffffff81111561289a57600080fd5b6128a68782880161256c565b91505092959194509250565b60008060008060008060c087890312156128cb57600080fd5b6128d4876124d9565b9550602087013594506040870135935060608701359250608087013567ffffffffffffffff8082111561290657600080fd5b6129128a838b0161256c565b935060a089013591508082111561292857600080fd5b5061293589828a0161256c565b9150509295509295509295565b6000806040838503121561295557600080fd5b823567ffffffffffffffff8082111561296d57600080fd5b818501915085601f83011261298157600080fd5b8135602061298e82612d41565b60405161299b8282612de4565b8381528281019150858301600585901b870184018b10156129bb57600080fd5b600096505b848710156129e5576129d1816124d9565b8352600196909601959183019183016129c0565b50965050860135925050808211156129fc57600080fd5b50612a09858286016124f5565b9150509250929050565b600060208284031215612a2557600080fd5b81356125fb81612f66565b600060208284031215612a4257600080fd5b81516125fb81612f66565b600060208284031215612a5f57600080fd5b5035919050565b60008060408385031215612a7957600080fd5b82359150602083013567ffffffffffffffff811115612a9757600080fd5b612a098582860161256c565b600080600060608486031215612ab857600080fd5b8335925060208401359150604084013567ffffffffffffffff811115612add57600080fd5b6127ae8682870161256c565b600081518084526020808501945080840160005b83811015612b1957815187529582019590820190600101612afd565b509495945050505050565b60008151808452612b3c816020860160208601612d7d565b601f01601f19169290920160200192915050565b60008251612b62818460208701612d7d565b9190910192915050565b600080835481600182811c915080831680612b8857607f831692505b6020808410821415612ba857634e487b7160e01b86526022600452602486fd5b818015612bbc5760018114612bcd57612bfa565b60ff19861689528489019650612bfa565b60008a81526020902060005b86811015612bf25781548b820152908501908301612bd9565b505084890196505b509498975050505050505050565b60006001600160a01b03808816835280871660208401525060a06040830152612c3460a0830186612ae9565b8281036060840152612c468186612ae9565b90508281036080840152612c5a8185612b24565b98975050505050505050565b60006001600160a01b03808816835280871660208401525084604083015283606083015260a06080830152612c9e60a0830184612b24565b979650505050505050565b60006001600160a01b03808816835286602084015285604084015260a06060840152612cd860a0840186612b24565b91508084166080840152509695505050505050565b6020815260006125fb6020830184612ae9565b604081526000612d136040830185612ae9565b8281036020840152612d258185612ae9565b95945050505050565b6020815260006125fb6020830184612b24565b600067ffffffffffffffff821115612d5b57612d5b612e8c565b5060051b60200190565b60008219821115612d7857612d78612e4a565b500190565b60005b83811015612d98578181015183820152602001612d80565b838111156106315750506000910152565b600181811c90821680612dbd57607f821691505b60208210811415612dde57634e487b7160e01b600052602260045260246000fd5b50919050565b601f19601f830116810181811067ffffffffffffffff82111715612e0a57612e0a612e8c565b6040525050565b60007fffffffffffffffffffffffffffffffffffffffffffffffffffffffffffffffff821415612e4357612e43612e4a565b5060010190565b634e487b7160e01b600052601160045260246000fd5b634e487b7160e01b600052602160045260246000fd5b634e487b7160e01b600052603260045260246000fd5b634e487b7160e01b600052604160045260246000fd5b600060033d1115612ebb5760046000803e5060005160e01c5b90565b600060443d1015612ecc5790565b6040517ffffffffffffffffffffffffffffffffffffffffffffffffffffffffffffffffc803d016004833e81513d67ffffffffffffffff8160248401118184111715612f1a57505050505090565b8285019150815181811115612f325750505050505090565b843d8701016020828501011115612f4c5750505050505090565b612f5b60208286010187612de4565b509095945050505050565b6001600160e01b031981168114610d0a57600080fdfea26469706673582212207d7a86734789a8dae483b8514d3d55ed41d1948b9153254f3f40b7af9e4bf1bf64736f6c63430008060033",
  "devdoc": {
    "errors": {
      "ErrInitialSupplyGreaterThanNaxSupply(uint256,uint256,uint256)": [
        {
          "params": {
            "amount": "The initial amount of token to create into beneficiaries wallet",
            "maxSupply": "the overall max supply for this particular token-id",
            "tokenId": "the Token-Id"
          }
        }
      ],
      "ErrMintWouldViolateMaxTokenSupply(uint256,uint256,uint256)": [
        {
          "params": {
            "maxSupply": "the overall max supply for this particular token-id",
            "newSupply": "the new max-supply that would be created",
            "tokenId": "the Token-Id"
          }
        }
      ],
      "ErrTokenAlreadyExists(uint256)": [
        {
          "params": {
            "tokenId": "the Token-Id"
          }
        }
      ],
      "ErrTokenNotExists(uint256)": [
        {
          "params": {
            "tokenId": "the Token-Id"
          }
        }
      ]
    },
    "kind": "dev",
    "methods": {
      "balanceOf(address,uint256)": {
        "details": "See {IERC1155-balanceOf}. Requirements: - `account` cannot be the zero address."
      },
      "balanceOfBatch(address[],uint256[])": {
        "details": "See {IERC1155-balanceOfBatch}. Requirements: - `accounts` and `ids` must have the same length."
      },
      "create(address,uint256,uint256,uint256,string,bytes)": {
        "details": "Creates a new token with max supply, mints $amount into $to address",
        "params": {
          "amount": "The initial amount of token to create into beneficiaries wallet",
          "maxSupply": "the overall max supply for this particular token-id",
          "signature": "The ECDSA-signature",
          "to": "Beneficiary of the initial token creation",
          "tokenId": "the token-Id",
          "tokenUri": "the token-uri for the particular token-id"
        }
      },
      "createMessage(address,uint256,uint256)": {
        "params": {
          "amount": "the amount of tokens",
          "to": "the beneficiary",
          "tokenId": "the token id"
        },
        "returns": {
          "_0": "the message to sign"
        }
      },
      "createMessage(address,uint256,uint256,string)": {
        "params": {
          "amount": "the amount of tokens",
          "to": "the beneficiary",
          "tokenId": "the token id",
          "tokenUri": "The tokenUri"
        },
        "returns": {
          "_0": "the message to sign"
        }
      },
      "exists(uint256)": {
        "details": "Indicates whether any token exist with a given id, or not."
      },
      "getSigner()": {
        "returns": {
          "_0": "the signer address"
        }
      },
      "isApprovedForAll(address,address)": {
        "details": "See {IERC1155-isApprovedForAll}."
      },
      "mint(uint256,uint256,bytes)": {
        "details": "Mints token into msg.sender for existing tokenId to a specific beneficiary maximum supply may not exceed maxTokenSupplies[tokenId]",
        "params": {
          "amount": "the amount of tokens",
          "tokenId": "the token id"
        }
      },
      "mintTo(address,uint256,uint256,bytes)": {
        "details": "Mints token at beneficiary-address for existing tokenId to a specific beneficiary maximum supply may not exceed maxTokenSupplies[tokenId]",
        "params": {
          "amount": "the amount of tokens",
          "to": "the beneficiary",
          "tokenId": "the token id"
        }
      },
      "owner()": {
        "details": "Returns the address of the current owner."
      },
      "renounceOwnership()": {
        "details": "Leaves the contract without owner. It will not be possible to call `onlyOwner` functions anymore. Can only be called by the current owner. NOTE: Renouncing ownership will leave the contract without an owner, thereby removing any functionality that is only available to the owner."
      },
      "safeBatchTransferFrom(address,address,uint256[],uint256[],bytes)": {
        "details": "See {IERC1155-safeBatchTransferFrom}."
      },
      "safeTransferFrom(address,address,uint256,uint256,bytes)": {
        "details": "See {IERC1155-safeTransferFrom}."
      },
      "setApprovalForAll(address,bool)": {
        "details": "See {IERC1155-setApprovalForAll}."
      },
      "supportsInterface(bytes4)": {
        "details": "See {IERC165-supportsInterface}."
      },
      "totalSupply(uint256)": {
        "details": "Total amount of tokens in with a given id."
      },
      "transferOwnership(address)": {
        "details": "Transfers ownership of the contract to a new account (`newOwner`). Can only be called by the current owner."
      }
    },
    "version": 1
  },
  "userdoc": {
    "errors": {
      "ErrInitialSupplyGreaterThanNaxSupply(uint256,uint256,uint256)": [
        {
          "notice": "Initial supply `amount` is greater than max-supply `maxSupply`"
        }
      ],
      "ErrInvalidSignature()": [
        {
          "notice": "Either signature is wrong or parameters have been corrupted"
        }
      ],
      "ErrSignerMustNotBeZeroAddress()": [
        {
          "notice": "Signer must not be zero-address"
        }
      ],
      "ErrTokenAlreadyExists(uint256)": [
        {
          "notice": "Token `tokenId` already exists, use mint instead"
        }
      ],
      "ErrTokenNotExists(uint256)": [
        {
          "notice": "A token with Token-ID `tokenId` has not been created yet."
        }
      ]
    },
    "kind": "user",
    "methods": {
      "createMessage(address,uint256,uint256)": {
        "notice": "Helper that creates the message that signer needs to sign to allow a mint         this is usually also used when creating the allowances, to ensure \"message\"         is the same"
      },
      "createMessage(address,uint256,uint256,string)": {
        "notice": "Helper that creates the message that signer needs to sign to allow a mint         this is usually also used when creating the allowances, to ensure \"message\"         is the same"
      },
      "getSigner()": {
        "notice": "Helper to know signers address"
      }
    },
    "version": 1
  },
  "storageLayout": {
    "storage": [
      {
        "astId": 839,
        "contract": "contracts/CarbonX.sol:CarbonX",
        "label": "_balances",
        "offset": 0,
        "slot": "0",
        "type": "t_mapping(t_uint256,t_mapping(t_address,t_uint256))"
      },
      {
        "astId": 845,
        "contract": "contracts/CarbonX.sol:CarbonX",
        "label": "_operatorApprovals",
        "offset": 0,
        "slot": "1",
        "type": "t_mapping(t_address,t_mapping(t_address,t_bool))"
      },
      {
        "astId": 847,
        "contract": "contracts/CarbonX.sol:CarbonX",
        "label": "_uri",
        "offset": 0,
        "slot": "2",
        "type": "t_string_storage"
      },
      {
        "astId": 2278,
        "contract": "contracts/CarbonX.sol:CarbonX",
        "label": "_totalSupply",
        "offset": 0,
        "slot": "3",
        "type": "t_mapping(t_uint256,t_uint256)"
      },
      {
        "astId": 546,
        "contract": "contracts/CarbonX.sol:CarbonX",
        "label": "_owner",
        "offset": 0,
        "slot": "4",
        "type": "t_address"
      },
      {
        "astId": 7100,
        "contract": "contracts/CarbonX.sol:CarbonX",
        "label": "_signer",
        "offset": 0,
        "slot": "5",
        "type": "t_address"
      },
      {
        "astId": 7118,
        "contract": "contracts/CarbonX.sol:CarbonX",
        "label": "_tokenUris",
        "offset": 0,
        "slot": "6",
        "type": "t_mapping(t_uint256,t_string_storage)"
      },
      {
        "astId": 7122,
        "contract": "contracts/CarbonX.sol:CarbonX",
        "label": "_maxTokenSupplies",
        "offset": 0,
        "slot": "7",
        "type": "t_mapping(t_uint256,t_uint256)"
      }
    ],
    "types": {
      "t_address": {
        "encoding": "inplace",
        "label": "address",
        "numberOfBytes": "20"
      },
      "t_bool": {
        "encoding": "inplace",
        "label": "bool",
        "numberOfBytes": "1"
      },
      "t_mapping(t_address,t_bool)": {
        "encoding": "mapping",
        "key": "t_address",
        "label": "mapping(address => bool)",
        "numberOfBytes": "32",
        "value": "t_bool"
      },
      "t_mapping(t_address,t_mapping(t_address,t_bool))": {
        "encoding": "mapping",
        "key": "t_address",
        "label": "mapping(address => mapping(address => bool))",
        "numberOfBytes": "32",
        "value": "t_mapping(t_address,t_bool)"
      },
      "t_mapping(t_address,t_uint256)": {
        "encoding": "mapping",
        "key": "t_address",
        "label": "mapping(address => uint256)",
        "numberOfBytes": "32",
        "value": "t_uint256"
      },
      "t_mapping(t_uint256,t_mapping(t_address,t_uint256))": {
        "encoding": "mapping",
        "key": "t_uint256",
        "label": "mapping(uint256 => mapping(address => uint256))",
        "numberOfBytes": "32",
        "value": "t_mapping(t_address,t_uint256)"
      },
      "t_mapping(t_uint256,t_string_storage)": {
        "encoding": "mapping",
        "key": "t_uint256",
        "label": "mapping(uint256 => string)",
        "numberOfBytes": "32",
        "value": "t_string_storage"
      },
      "t_mapping(t_uint256,t_uint256)": {
        "encoding": "mapping",
        "key": "t_uint256",
        "label": "mapping(uint256 => uint256)",
        "numberOfBytes": "32",
        "value": "t_uint256"
      },
      "t_string_storage": {
        "encoding": "bytes",
        "label": "string",
        "numberOfBytes": "32"
      },
      "t_uint256": {
        "encoding": "inplace",
        "label": "uint256",
        "numberOfBytes": "32"
      }
    }
  }
}