{
  "address": "0xECce91D1b232d855Ce88729a15452c94844E80Eb",
  "abi": [
    {
      "inputs": [
        {
          "internalType": "string",
          "name": "baseUri_",
          "type": "string"
        }
      ],
      "stateMutability": "nonpayable",
      "type": "constructor"
    },
    {
      "anonymous": false,
      "inputs": [
        {
          "indexed": true,
          "internalType": "address",
          "name": "account",
          "type": "address"
        },
        {
          "indexed": true,
          "internalType": "address",
          "name": "operator",
          "type": "address"
        },
        {
          "indexed": false,
          "internalType": "bool",
          "name": "approved",
          "type": "bool"
        }
      ],
      "name": "ApprovalForAll",
      "type": "event"
    },
    {
      "anonymous": false,
      "inputs": [
        {
          "indexed": true,
          "internalType": "bytes32",
          "name": "role",
          "type": "bytes32"
        },
        {
          "indexed": true,
          "internalType": "bytes32",
          "name": "previousAdminRole",
          "type": "bytes32"
        },
        {
          "indexed": true,
          "internalType": "bytes32",
          "name": "newAdminRole",
          "type": "bytes32"
        }
      ],
      "name": "RoleAdminChanged",
      "type": "event"
    },
    {
      "anonymous": false,
      "inputs": [
        {
          "indexed": true,
          "internalType": "bytes32",
          "name": "role",
          "type": "bytes32"
        },
        {
          "indexed": true,
          "internalType": "address",
          "name": "account",
          "type": "address"
        },
        {
          "indexed": true,
          "internalType": "address",
          "name": "sender",
          "type": "address"
        }
      ],
      "name": "RoleGranted",
      "type": "event"
    },
    {
      "anonymous": false,
      "inputs": [
        {
          "indexed": true,
          "internalType": "bytes32",
          "name": "role",
          "type": "bytes32"
        },
        {
          "indexed": true,
          "internalType": "address",
          "name": "account",
          "type": "address"
        },
        {
          "indexed": true,
          "internalType": "address",
          "name": "sender",
          "type": "address"
        }
      ],
      "name": "RoleRevoked",
      "type": "event"
    },
    {
      "anonymous": false,
      "inputs": [
        {
          "indexed": true,
          "internalType": "address",
          "name": "operator",
          "type": "address"
        },
        {
          "indexed": true,
          "internalType": "address",
          "name": "from",
          "type": "address"
        },
        {
          "indexed": true,
          "internalType": "address",
          "name": "to",
          "type": "address"
        },
        {
          "indexed": false,
          "internalType": "uint256[]",
          "name": "ids",
          "type": "uint256[]"
        },
        {
          "indexed": false,
          "internalType": "uint256[]",
          "name": "values",
          "type": "uint256[]"
        }
      ],
      "name": "TransferBatch",
      "type": "event"
    },
    {
      "anonymous": false,
      "inputs": [
        {
          "indexed": true,
          "internalType": "address",
          "name": "operator",
          "type": "address"
        },
        {
          "indexed": true,
          "internalType": "address",
          "name": "from",
          "type": "address"
        },
        {
          "indexed": true,
          "internalType": "address",
          "name": "to",
          "type": "address"
        },
        {
          "indexed": false,
          "internalType": "uint256",
          "name": "id",
          "type": "uint256"
        },
        {
          "indexed": false,
          "internalType": "uint256",
          "name": "value",
          "type": "uint256"
        }
      ],
      "name": "TransferSingle",
      "type": "event"
    },
    {
      "anonymous": false,
      "inputs": [
        {
          "indexed": false,
          "internalType": "string",
          "name": "value",
          "type": "string"
        },
        {
          "indexed": true,
          "internalType": "uint256",
          "name": "id",
          "type": "uint256"
        }
      ],
      "name": "URI",
      "type": "event"
    },
    {
      "inputs": [],
      "name": "DEFAULT_ADMIN_ROLE",
      "outputs": [
        {
          "internalType": "bytes32",
          "name": "",
          "type": "bytes32"
        }
      ],
      "stateMutability": "view",
      "type": "function"
    },
    {
      "inputs": [],
      "name": "MINTER_ROLE",
      "outputs": [
        {
          "internalType": "bytes32",
          "name": "",
          "type": "bytes32"
        }
      ],
      "stateMutability": "view",
      "type": "function"
    },
    {
      "inputs": [],
      "name": "PAUSER_ROLE",
      "outputs": [
        {
          "internalType": "bytes32",
          "name": "",
          "type": "bytes32"
        }
      ],
      "stateMutability": "view",
      "type": "function"
    },
    {
      "inputs": [
        {
          "internalType": "address",
          "name": "account",
          "type": "address"
        },
        {
          "internalType": "uint256",
          "name": "id",
          "type": "uint256"
        }
      ],
      "name": "balanceOf",
      "outputs": [
        {
          "internalType": "uint256",
          "name": "",
          "type": "uint256"
        }
      ],
      "stateMutability": "view",
      "type": "function"
    },
    {
      "inputs": [
        {
          "internalType": "address[]",
          "name": "accounts",
          "type": "address[]"
        },
        {
          "internalType": "uint256[]",
          "name": "ids",
          "type": "uint256[]"
        }
      ],
      "name": "balanceOfBatch",
      "outputs": [
        {
          "internalType": "uint256[]",
          "name": "",
          "type": "uint256[]"
        }
      ],
      "stateMutability": "view",
      "type": "function"
    },
    {
      "inputs": [
        {
          "internalType": "address",
          "name": "to",
          "type": "address"
        },
        {
          "internalType": "uint256[]",
          "name": "tokenIds",
          "type": "uint256[]"
        },
        {
          "internalType": "uint256[]",
          "name": "amounts",
          "type": "uint256[]"
        },
        {
          "internalType": "uint256[]",
          "name": "originalTokenIds",
          "type": "uint256[]"
        },
        {
          "internalType": "bytes",
          "name": "data",
          "type": "bytes"
        }
      ],
      "name": "batchMintReceipt",
      "outputs": [],
      "stateMutability": "nonpayable",
      "type": "function"
    },
    {
      "inputs": [
        {
          "internalType": "address",
          "name": "account",
          "type": "address"
        },
        {
          "internalType": "uint256",
          "name": "id",
          "type": "uint256"
        },
        {
          "internalType": "uint256",
          "name": "value",
          "type": "uint256"
        }
      ],
      "name": "burn",
      "outputs": [],
      "stateMutability": "nonpayable",
      "type": "function"
    },
    {
      "inputs": [
        {
          "internalType": "address",
          "name": "account",
          "type": "address"
        },
        {
          "internalType": "uint256[]",
          "name": "ids",
          "type": "uint256[]"
        },
        {
          "internalType": "uint256[]",
          "name": "values",
          "type": "uint256[]"
        }
      ],
      "name": "burnBatch",
      "outputs": [],
      "stateMutability": "nonpayable",
      "type": "function"
    },
    {
      "inputs": [
        {
          "internalType": "uint256",
          "name": "id",
          "type": "uint256"
        }
      ],
      "name": "exists",
      "outputs": [
        {
          "internalType": "bool",
          "name": "",
          "type": "bool"
        }
      ],
      "stateMutability": "view",
      "type": "function"
    },
    {
      "inputs": [
        {
          "internalType": "bytes32",
          "name": "role",
          "type": "bytes32"
        }
      ],
      "name": "getRoleAdmin",
      "outputs": [
        {
          "internalType": "bytes32",
          "name": "",
          "type": "bytes32"
        }
      ],
      "stateMutability": "view",
      "type": "function"
    },
    {
      "inputs": [
        {
          "internalType": "bytes32",
          "name": "role",
          "type": "bytes32"
        },
        {
          "internalType": "uint256",
          "name": "index",
          "type": "uint256"
        }
      ],
      "name": "getRoleMember",
      "outputs": [
        {
          "internalType": "address",
          "name": "",
          "type": "address"
        }
      ],
      "stateMutability": "view",
      "type": "function"
    },
    {
      "inputs": [
        {
          "internalType": "bytes32",
          "name": "role",
          "type": "bytes32"
        }
      ],
      "name": "getRoleMemberCount",
      "outputs": [
        {
          "internalType": "uint256",
          "name": "",
          "type": "uint256"
        }
      ],
      "stateMutability": "view",
      "type": "function"
    },
    {
      "inputs": [
        {
          "internalType": "bytes32",
          "name": "role",
          "type": "bytes32"
        },
        {
          "internalType": "address",
          "name": "account",
          "type": "address"
        }
      ],
      "name": "grantRole",
      "outputs": [],
      "stateMutability": "nonpayable",
      "type": "function"
    },
    {
      "inputs": [
        {
          "internalType": "bytes32",
          "name": "role",
          "type": "bytes32"
        },
        {
          "internalType": "address",
          "name": "account",
          "type": "address"
        }
      ],
      "name": "hasRole",
      "outputs": [
        {
          "internalType": "bool",
          "name": "",
          "type": "bool"
        }
      ],
      "stateMutability": "view",
      "type": "function"
    },
    {
      "inputs": [
        {
          "internalType": "address",
          "name": "account",
          "type": "address"
        },
        {
          "internalType": "address",
          "name": "operator",
          "type": "address"
        }
      ],
      "name": "isApprovedForAll",
      "outputs": [
        {
          "internalType": "bool",
          "name": "",
          "type": "bool"
        }
      ],
      "stateMutability": "view",
      "type": "function"
    },
    {
      "inputs": [
        {
          "internalType": "address",
          "name": "to",
          "type": "address"
        },
        {
          "internalType": "uint256",
          "name": "tokenId",
          "type": "uint256"
        },
        {
          "internalType": "uint256",
          "name": "amount",
          "type": "uint256"
        },
        {
          "internalType": "uint256",
          "name": "originalTokenId",
          "type": "uint256"
        },
        {
          "internalType": "bytes",
          "name": "data",
          "type": "bytes"
        }
      ],
      "name": "mintReceipt",
      "outputs": [],
      "stateMutability": "nonpayable",
      "type": "function"
    },
    {
      "inputs": [
        {
          "internalType": "bytes32",
          "name": "role",
          "type": "bytes32"
        },
        {
          "internalType": "address",
          "name": "account",
          "type": "address"
        }
      ],
      "name": "renounceRole",
      "outputs": [],
      "stateMutability": "nonpayable",
      "type": "function"
    },
    {
      "inputs": [
        {
          "internalType": "bytes32",
          "name": "role",
          "type": "bytes32"
        },
        {
          "internalType": "address",
          "name": "account",
          "type": "address"
        }
      ],
      "name": "revokeRole",
      "outputs": [],
      "stateMutability": "nonpayable",
      "type": "function"
    },
    {
      "inputs": [
        {
          "internalType": "address",
          "name": "from",
          "type": "address"
        },
        {
          "internalType": "address",
          "name": "to",
          "type": "address"
        },
        {
          "internalType": "uint256[]",
          "name": "ids",
          "type": "uint256[]"
        },
        {
          "internalType": "uint256[]",
          "name": "amounts",
          "type": "uint256[]"
        },
        {
          "internalType": "bytes",
          "name": "data",
          "type": "bytes"
        }
      ],
      "name": "safeBatchTransferFrom",
      "outputs": [],
      "stateMutability": "nonpayable",
      "type": "function"
    },
    {
      "inputs": [
        {
          "internalType": "address",
          "name": "from",
          "type": "address"
        },
        {
          "internalType": "address",
          "name": "to",
          "type": "address"
        },
        {
          "internalType": "uint256",
          "name": "id",
          "type": "uint256"
        },
        {
          "internalType": "uint256",
          "name": "amount",
          "type": "uint256"
        },
        {
          "internalType": "bytes",
          "name": "data",
          "type": "bytes"
        }
      ],
      "name": "safeTransferFrom",
      "outputs": [],
      "stateMutability": "nonpayable",
      "type": "function"
    },
    {
      "inputs": [
        {
          "internalType": "address",
          "name": "operator",
          "type": "address"
        },
        {
          "internalType": "bool",
          "name": "approved",
          "type": "bool"
        }
      ],
      "name": "setApprovalForAll",
      "outputs": [],
      "stateMutability": "nonpayable",
      "type": "function"
    },
    {
      "inputs": [
        {
          "internalType": "bytes4",
          "name": "interfaceId",
          "type": "bytes4"
        }
      ],
      "name": "supportsInterface",
      "outputs": [
        {
          "internalType": "bool",
          "name": "",
          "type": "bool"
        }
      ],
      "stateMutability": "view",
      "type": "function"
    },
    {
      "inputs": [
        {
          "internalType": "uint256",
          "name": "id",
          "type": "uint256"
        }
      ],
      "name": "totalSupply",
      "outputs": [
        {
          "internalType": "uint256",
          "name": "",
          "type": "uint256"
        }
      ],
      "stateMutability": "view",
      "type": "function"
    },
    {
      "inputs": [
        {
          "internalType": "uint256",
          "name": "",
          "type": "uint256"
        }
      ],
      "name": "uri",
      "outputs": [
        {
          "internalType": "string",
          "name": "",
          "type": "string"
        }
      ],
      "stateMutability": "view",
      "type": "function"
    }
  ],
  "transactionHash": "0x985ccc3fb89f1680b768128c20bedfa39328837b6ae961e249c7682fe9e0dcb9",
  "args": [
    "ipfs://"
  ],
  "numDeployments": 2,
  "solcInputHash": "0b83fd30560fc4acc13e3ea1187deba1",
  "bytecode": "0x60806040523480156200001157600080fd5b5060405162003050380380620030508339810160408190526200003491620002c7565b806200004081620000ad565b506200004e600033620000c6565b6200007a7f9f2df0fed2c77648de5860a4cc508cd0818c85b8b8a1ab4ceeef8d981c8956a633620000c6565b620000a67f65d7a28e3265b37a6474929f336521b332c1681b933f6cb9f3376673440d862a33620000c6565b50620003f0565b8051620000c290600490602084019062000221565b5050565b620000c28282620000e382826200010f60201b62000c751760201c565b60008281526001602090815260409091206200010a91839062000d13620001af821b17901c565b505050565b6000828152602081815260408083206001600160a01b038516845290915290205460ff16620000c2576000828152602081815260408083206001600160a01b03851684529091529020805460ff191660011790556200016b3390565b6001600160a01b0316816001600160a01b0316837f2f8788117e7eff1d82e926ec794901d17c78024a50270940304540a733656f0d60405160405180910390a45050565b6000620001c6836001600160a01b038416620001cf565b90505b92915050565b60008181526001830160205260408120546200021857508154600181810184556000848152602080822090930184905584548482528286019093526040902091909155620001c9565b506000620001c9565b8280546200022f906200039d565b90600052602060002090601f0160209004810192826200025357600085556200029e565b82601f106200026e57805160ff19168380011785556200029e565b828001600101855582156200029e579182015b828111156200029e57825182559160200191906001019062000281565b50620002ac929150620002b0565b5090565b5b80821115620002ac5760008155600101620002b1565b60006020808385031215620002da578182fd5b82516001600160401b0380821115620002f1578384fd5b818501915085601f83011262000305578384fd5b8151818111156200031a576200031a620003da565b604051601f8201601f19908116603f01168101908382118183101715620003455762000345620003da565b8160405282815288868487010111156200035d578687fd5b8693505b8284101562000380578484018601518185018701529285019262000361565b828411156200039157868684830101525b98975050505050505050565b600181811c90821680620003b257607f821691505b60208210811415620003d457634e487b7160e01b600052602260045260246000fd5b50919050565b634e487b7160e01b600052604160045260246000fd5b612c5080620004006000396000f3fe608060405234801561001057600080fd5b50600436106101975760003560e01c80639010d07c116100e3578063d53913931161008c578063e985e9c511610066578063e985e9c5146103ef578063f242432a1461042b578063f5298aca1461043e57600080fd5b8063d53913931461038e578063d547741f146103b5578063e63ab1e9146103c857600080fd5b8063a22cb465116100bd578063a22cb46514610348578063bd85b0391461035b578063ca15c8731461037b57600080fd5b80639010d07c146102de57806391d1485414610309578063a217fddf1461034057600080fd5b806336568abe116101455780634f558e791161011f5780634f558e791461029657806356b4e96c146102b85780636b20c454146102cb57600080fd5b806336568abe1461025057806338b565f1146102635780634e1273f41461027657600080fd5b8063248a9ca311610176578063248a9ca3146102055780632eb2c2d6146102285780632f2ff15d1461023d57600080fd5b8062fdd58e1461019c57806301ffc9a7146101c25780630e89341c146101e5575b600080fd5b6101af6101aa366004612619565b610451565b6040519081526020015b60405180910390f35b6101d56101d03660046127ea565b6104ff565b60405190151581526020016101b9565b6101f86101f336600461278f565b610558565b6040516101b991906129eb565b6101af61021336600461278f565b60009081526020819052604090206001015490565b61023b610236366004612408565b6105ec565b005b61023b61024b3660046127a7565b61068e565b61023b61025e3660046127a7565b6106b8565b61023b610271366004612582565b610744565b6102896102843660046126c4565b610860565b6040516101b991906129aa565b6101d56102a436600461278f565b600090815260056020526040902054151590565b61023b6102c6366004612674565b6109d6565b61023b6102d9366004612511565b610a7e565b6102f16102ec3660046127c9565b610b03565b6040516001600160a01b0390911681526020016101b9565b6101d56103173660046127a7565b6000918252602082815260408084206001600160a01b0393909316845291905290205460ff1690565b6101af600081565b61023b6103563660046125df565b610b22565b6101af61036936600461278f565b60009081526005602052604090205490565b6101af61038936600461278f565b610b2d565b6101af7f9f2df0fed2c77648de5860a4cc508cd0818c85b8b8a1ab4ceeef8d981c8956a681565b61023b6103c33660046127a7565b610b44565b6101af7f65d7a28e3265b37a6474929f336521b332c1681b933f6cb9f3376673440d862a81565b6101d56103fd3660046123d6565b6001600160a01b03918216600090815260036020908152604080832093909416825291909152205460ff1690565b61023b6104393660046124ae565b610b69565b61023b61044c366004612642565b610bf0565b60006001600160a01b0383166104d45760405162461bcd60e51b815260206004820152602b60248201527f455243313135353a2062616c616e636520717565727920666f7220746865207a60448201527f65726f206164647265737300000000000000000000000000000000000000000060648201526084015b60405180910390fd5b5060008181526002602090815260408083206001600160a01b03861684529091529020545b92915050565b60006001600160e01b03198216636cdb3d1360e11b148061054957506001600160e01b031982167f5bfad1a800000000000000000000000000000000000000000000000000000000145b806104f957506104f982610d28565b60606004805461056790612ab3565b80601f016020809104026020016040519081016040528092919081815260200182805461059390612ab3565b80156105e05780601f106105b5576101008083540402835291602001916105e0565b820191906000526020600020905b8154815290600101906020018083116105c357829003601f168201915b50505050509050919050565b6001600160a01b038516331480610608575061060885336103fd565b61067a5760405162461bcd60e51b815260206004820152603260248201527f455243313135353a207472616e736665722063616c6c6572206973206e6f742060448201527f6f776e6572206e6f7220617070726f766564000000000000000000000000000060648201526084016104cb565b6106878585858585610d81565b5050505050565b6000828152602081905260409020600101546106a981611004565b6106b38383611011565b505050565b6001600160a01b03811633146107365760405162461bcd60e51b815260206004820152602f60248201527f416363657373436f6e74726f6c3a2063616e206f6e6c792072656e6f756e636560448201527f20726f6c657320666f722073656c66000000000000000000000000000000000060648201526084016104cb565b6107408282611033565b5050565b61076e7f9f2df0fed2c77648de5860a4cc508cd0818c85b8b8a1ab4ceeef8d981c8956a633610317565b6107e05760405162461bcd60e51b815260206004820152602e60248201527f436172626f6e5265636569707435353a206d7573742068617665206d696e746560448201527f7220726f6c6520746f206d696e7400000000000000000000000000000000000060648201526084016104cb565b60005b8451811015610858576108468686838151811061081057634e487b7160e01b600052603260045260246000fd5b602002602001015186848151811061083857634e487b7160e01b600052603260045260246000fd5b602002602001015185611055565b8061085081612b1b565b9150506107e3565b505050505050565b606081518351146108d95760405162461bcd60e51b815260206004820152602960248201527f455243313135353a206163636f756e747320616e6420696473206c656e67746860448201527f206d69736d61746368000000000000000000000000000000000000000000000060648201526084016104cb565b6000835167ffffffffffffffff81111561090357634e487b7160e01b600052604160045260246000fd5b60405190808252806020026020018201604052801561092c578160200160208202803683370190505b50905060005b84518110156109ce5761099385828151811061095e57634e487b7160e01b600052603260045260246000fd5b602002602001015185838151811061098657634e487b7160e01b600052603260045260246000fd5b6020026020010151610451565b8282815181106109b357634e487b7160e01b600052603260045260246000fd5b60209081029190910101526109c781612b1b565b9050610932565b509392505050565b610a007f9f2df0fed2c77648de5860a4cc508cd0818c85b8b8a1ab4ceeef8d981c8956a633610317565b610a725760405162461bcd60e51b815260206004820152602e60248201527f436172626f6e5265636569707435353a206d7573742068617665206d696e746560448201527f7220726f6c6520746f206d696e7400000000000000000000000000000000000060648201526084016104cb565b61068785858584611055565b6001600160a01b038316331480610a9a5750610a9a83336103fd565b610af85760405162461bcd60e51b815260206004820152602960248201527f455243313135353a2063616c6c6572206973206e6f74206f776e6572206e6f7260448201526808185c1c1c9bdd995960ba1b60648201526084016104cb565b6106b3838383611196565b6000828152600160205260408120610b1b908361140c565b9392505050565b610740338383611418565b60008181526001602052604081206104f99061150d565b600082815260208190526040902060010154610b5f81611004565b6106b38383611033565b6001600160a01b038516331480610b855750610b8585336103fd565b610be35760405162461bcd60e51b815260206004820152602960248201527f455243313135353a2063616c6c6572206973206e6f74206f776e6572206e6f7260448201526808185c1c1c9bdd995960ba1b60648201526084016104cb565b6106878585858585611517565b6001600160a01b038316331480610c0c5750610c0c83336103fd565b610c6a5760405162461bcd60e51b815260206004820152602960248201527f455243313135353a2063616c6c6572206973206e6f74206f776e6572206e6f7260448201526808185c1c1c9bdd995960ba1b60648201526084016104cb565b6106b38383836116d4565b6000828152602081815260408083206001600160a01b038516845290915290205460ff16610740576000828152602081815260408083206001600160a01b03851684529091529020805460ff19166001179055610ccf3390565b6001600160a01b0316816001600160a01b0316837f2f8788117e7eff1d82e926ec794901d17c78024a50270940304540a733656f0d60405160405180910390a45050565b6000610b1b836001600160a01b038416611868565b60006001600160e01b03198216636cdb3d1360e11b1480610d7257506001600160e01b031982167f0e89341c00000000000000000000000000000000000000000000000000000000145b806104f957506104f9826118b7565b8151835114610de35760405162461bcd60e51b815260206004820152602860248201527f455243313135353a2069647320616e6420616d6f756e7473206c656e677468206044820152670dad2e6dac2e8c6d60c31b60648201526084016104cb565b6001600160a01b038416610e475760405162461bcd60e51b815260206004820152602560248201527f455243313135353a207472616e7366657220746f20746865207a65726f206164604482015264647265737360d81b60648201526084016104cb565b33610e568187878787876118f5565b60005b8451811015610f9e576000858281518110610e8457634e487b7160e01b600052603260045260246000fd5b602002602001015190506000858381518110610eb057634e487b7160e01b600052603260045260246000fd5b60209081029190910181015160008481526002835260408082206001600160a01b038e168352909352919091205490915081811015610f445760405162461bcd60e51b815260206004820152602a60248201527f455243313135353a20696e73756666696369656e742062616c616e636520666f60448201526939103a3930b739b332b960b11b60648201526084016104cb565b60008381526002602090815260408083206001600160a01b038e8116855292528083208585039055908b16825281208054849290610f83908490612a22565b9250508190555050505080610f9790612b1b565b9050610e59565b50846001600160a01b0316866001600160a01b0316826001600160a01b03167f4a39dc06d4c0dbc64b70af90fd698a233a518aa5d07e595d983b8c0526c8f7fb8787604051610fee9291906129bd565b60405180910390a4610858818787878787611903565b61100e8133611ab8565b50565b61101b8282610c75565b60008281526001602052604090206106b39082610d13565b61103d8282611b36565b60008281526001602052604090206106b39082611bb5565b6001600160a01b0384166110d15760405162461bcd60e51b815260206004820152602160248201527f455243313135353a206d696e7420746f20746865207a65726f2061646472657360448201527f730000000000000000000000000000000000000000000000000000000000000060648201526084016104cb565b3360006110dd85611bca565b905060006110ea85611bca565b90506110fb836000898585896118f5565b60008681526002602090815260408083206001600160a01b038b1684529091528120805487929061112d908490612a22565b909155505060408051878152602081018790526001600160a01b03808a1692600092918716917fc3d58168c5ae7397731d063d5bbf3d657854427343f4c083240f7aacaa2d0f62910160405180910390a461118d83600089898989611c23565b50505050505050565b6001600160a01b0383166111f85760405162461bcd60e51b815260206004820152602360248201527f455243313135353a206275726e2066726f6d20746865207a65726f206164647260448201526265737360e81b60648201526084016104cb565b805182511461125a5760405162461bcd60e51b815260206004820152602860248201527f455243313135353a2069647320616e6420616d6f756e7473206c656e677468206044820152670dad2e6dac2e8c6d60c31b60648201526084016104cb565b600033905061127d818560008686604051806020016040528060008152506118f5565b60005b835181101561139d5760008482815181106112ab57634e487b7160e01b600052603260045260246000fd5b6020026020010151905060008483815181106112d757634e487b7160e01b600052603260045260246000fd5b60209081029190910181015160008481526002835260408082206001600160a01b038c1683529093529190912054909150818110156113645760405162461bcd60e51b8152602060048201526024808201527f455243313135353a206275726e20616d6f756e7420657863656564732062616c604482015263616e636560e01b60648201526084016104cb565b60009283526002602090815260408085206001600160a01b038b168652909152909220910390558061139581612b1b565b915050611280565b5060006001600160a01b0316846001600160a01b0316826001600160a01b03167f4a39dc06d4c0dbc64b70af90fd698a233a518aa5d07e595d983b8c0526c8f7fb86866040516113ee9291906129bd565b60405180910390a46040805160208101909152600090525b50505050565b6000610b1b8383611d2e565b816001600160a01b0316836001600160a01b031614156114a05760405162461bcd60e51b815260206004820152602960248201527f455243313135353a2073657474696e6720617070726f76616c2073746174757360448201527f20666f722073656c66000000000000000000000000000000000000000000000060648201526084016104cb565b6001600160a01b03838116600081815260036020908152604080832094871680845294825291829020805460ff191686151590811790915591519182527f17307eab39ab6107e8899845ad3d59bd9653f200f220920489ca2b5937696c31910160405180910390a3505050565b60006104f9825490565b6001600160a01b03841661157b5760405162461bcd60e51b815260206004820152602560248201527f455243313135353a207472616e7366657220746f20746865207a65726f206164604482015264647265737360d81b60648201526084016104cb565b33600061158785611bca565b9050600061159485611bca565b90506115a48389898585896118f5565b60008681526002602090815260408083206001600160a01b038c1684529091529020548581101561162a5760405162461bcd60e51b815260206004820152602a60248201527f455243313135353a20696e73756666696369656e742062616c616e636520666f60448201526939103a3930b739b332b960b11b60648201526084016104cb565b60008781526002602090815260408083206001600160a01b038d8116855292528083208985039055908a16825281208054889290611669908490612a22565b909155505060408051888152602081018890526001600160a01b03808b16928c821692918816917fc3d58168c5ae7397731d063d5bbf3d657854427343f4c083240f7aacaa2d0f62910160405180910390a46116c9848a8a8a8a8a611c23565b505050505050505050565b6001600160a01b0383166117365760405162461bcd60e51b815260206004820152602360248201527f455243313135353a206275726e2066726f6d20746865207a65726f206164647260448201526265737360e81b60648201526084016104cb565b33600061174284611bca565b9050600061174f84611bca565b905061176f838760008585604051806020016040528060008152506118f5565b60008581526002602090815260408083206001600160a01b038a168452909152902054848110156117ee5760405162461bcd60e51b8152602060048201526024808201527f455243313135353a206275726e20616d6f756e7420657863656564732062616c604482015263616e636560e01b60648201526084016104cb565b60008681526002602090815260408083206001600160a01b038b81168086529184528285208a8703905582518b81529384018a90529092908816917fc3d58168c5ae7397731d063d5bbf3d657854427343f4c083240f7aacaa2d0f62910160405180910390a460408051602081019091526000905261118d565b60008181526001830160205260408120546118af575081546001818101845560008481526020808220909301849055845484825282860190935260409020919091556104f9565b5060006104f9565b60006001600160e01b031982167f5a05180f0000000000000000000000000000000000000000000000000000000014806104f957506104f982611d66565b610858868686868686611dcd565b6001600160a01b0384163b156108585760405163bc197c8160e01b81526001600160a01b0385169063bc197c81906119479089908990889088908890600401612909565b602060405180830381600087803b15801561196157600080fd5b505af1925050508015611991575060408051601f3d908101601f1916820190925261198e91810190612806565b60015b611a475761199d612b62565b806308c379a014156119d757506119b2612b7a565b806119bd57506119d9565b8060405162461bcd60e51b81526004016104cb91906129eb565b505b60405162461bcd60e51b815260206004820152603460248201527f455243313135353a207472616e7366657220746f206e6f6e204552433131353560448201527f526563656976657220696d706c656d656e74657200000000000000000000000060648201526084016104cb565b6001600160e01b0319811663bc197c8160e01b1461118d5760405162461bcd60e51b815260206004820152602860248201527f455243313135353a204552433131353552656365697665722072656a656374656044820152676420746f6b656e7360c01b60648201526084016104cb565b6000828152602081815260408083206001600160a01b038516845290915290205460ff1661074057611af4816001600160a01b03166014611f93565b611aff836020611f93565b604051602001611b10929190612888565b60408051601f198184030181529082905262461bcd60e51b82526104cb916004016129eb565b6000828152602081815260408083206001600160a01b038516845290915290205460ff1615610740576000828152602081815260408083206001600160a01b0385168085529252808320805460ff1916905551339285917ff6391f5c32d9c69d2a47ea670b442974b53935d1edc7fd64eb21e047a839171b9190a45050565b6000610b1b836001600160a01b0384166121ba565b60408051600180825281830190925260609160009190602080830190803683370190505090508281600081518110611c1257634e487b7160e01b600052603260045260246000fd5b602090810291909101015292915050565b6001600160a01b0384163b156108585760405163f23a6e6160e01b81526001600160a01b0385169063f23a6e6190611c679089908990889088908890600401612967565b602060405180830381600087803b158015611c8157600080fd5b505af1925050508015611cb1575060408051601f3d908101601f19168201909252611cae91810190612806565b60015b611cbd5761199d612b62565b6001600160e01b0319811663f23a6e6160e01b1461118d5760405162461bcd60e51b815260206004820152602860248201527f455243313135353a204552433131353552656365697665722072656a656374656044820152676420746f6b656e7360c01b60648201526084016104cb565b6000826000018281548110611d5357634e487b7160e01b600052603260045260246000fd5b9060005260206000200154905092915050565b60006001600160e01b031982167f7965db0b0000000000000000000000000000000000000000000000000000000014806104f957507f01ffc9a7000000000000000000000000000000000000000000000000000000006001600160e01b03198316146104f9565b6001600160a01b038516611e705760005b8351811015611e6e57828181518110611e0757634e487b7160e01b600052603260045260246000fd5b602002602001015160056000868481518110611e3357634e487b7160e01b600052603260045260246000fd5b602002602001015181526020019081526020016000206000828254611e589190612a22565b90915550611e67905081612b1b565b9050611dde565b505b6001600160a01b0384166108585760005b835181101561118d576000848281518110611eac57634e487b7160e01b600052603260045260246000fd5b602002602001015190506000848381518110611ed857634e487b7160e01b600052603260045260246000fd5b6020026020010151905060006005600084815260200190815260200160002054905081811015611f705760405162461bcd60e51b815260206004820152602860248201527f455243313135353a206275726e20616d6f756e74206578636565647320746f7460448201527f616c537570706c7900000000000000000000000000000000000000000000000060648201526084016104cb565b60009283526005602052604090922091039055611f8c81612b1b565b9050611e81565b60606000611fa2836002612a3a565b611fad906002612a22565b67ffffffffffffffff811115611fd357634e487b7160e01b600052604160045260246000fd5b6040519080825280601f01601f191660200182016040528015611ffd576020820181803683370190505b5090507f30000000000000000000000000000000000000000000000000000000000000008160008151811061204257634e487b7160e01b600052603260045260246000fd5b60200101906001600160f81b031916908160001a9053507f78000000000000000000000000000000000000000000000000000000000000008160018151811061209b57634e487b7160e01b600052603260045260246000fd5b60200101906001600160f81b031916908160001a90535060006120bf846002612a3a565b6120ca906001612a22565b90505b600181111561216b577f303132333435363738396162636465660000000000000000000000000000000085600f166010811061211957634e487b7160e01b600052603260045260246000fd5b1a60f81b82828151811061213d57634e487b7160e01b600052603260045260246000fd5b60200101906001600160f81b031916908160001a90535060049490941c9361216481612a9c565b90506120cd565b508315610b1b5760405162461bcd60e51b815260206004820181905260248201527f537472696e67733a20686578206c656e67746820696e73756666696369656e7460448201526064016104cb565b600081815260018301602052604081205480156122cd5760006121de600183612a59565b85549091506000906121f290600190612a59565b905081811461227357600086600001828154811061222057634e487b7160e01b600052603260045260246000fd5b906000526020600020015490508087600001848154811061225157634e487b7160e01b600052603260045260246000fd5b6000918252602080832090910192909255918252600188019052604090208390555b855486908061229257634e487b7160e01b600052603160045260246000fd5b6001900381819060005260206000200160009055905585600101600086815260200190815260200160002060009055600193505050506104f9565b60009150506104f9565b80356001600160a01b03811681146122ee57600080fd5b919050565b600082601f830112612303578081fd5b81356020612310826129fe565b60405161231d8282612aee565b8381528281019150858301600585901b8701840188101561233c578586fd5b855b8581101561235a5781358452928401929084019060010161233e565b5090979650505050505050565b600082601f830112612377578081fd5b813567ffffffffffffffff81111561239157612391612b4c565b6040516123a8601f8301601f191660200182612aee565b8181528460208386010111156123bc578283fd5b816020850160208301379081016020019190915292915050565b600080604083850312156123e8578182fd5b6123f1836122d7565b91506123ff602084016122d7565b90509250929050565b600080600080600060a0868803121561241f578081fd5b612428866122d7565b9450612436602087016122d7565b9350604086013567ffffffffffffffff80821115612452578283fd5b61245e89838a016122f3565b94506060880135915080821115612473578283fd5b61247f89838a016122f3565b93506080880135915080821115612494578283fd5b506124a188828901612367565b9150509295509295909350565b600080600080600060a086880312156124c5578081fd5b6124ce866122d7565b94506124dc602087016122d7565b93506040860135925060608601359150608086013567ffffffffffffffff811115612505578182fd5b6124a188828901612367565b600080600060608486031215612525578283fd5b61252e846122d7565b9250602084013567ffffffffffffffff8082111561254a578384fd5b612556878388016122f3565b9350604086013591508082111561256b578283fd5b50612578868287016122f3565b9150509250925092565b600080600080600060a08688031215612599578081fd5b6125a2866122d7565b9450602086013567ffffffffffffffff808211156125be578283fd5b6125ca89838a016122f3565b95506040880135915080821115612452578283fd5b600080604083850312156125f1578182fd5b6125fa836122d7565b91506020830135801515811461260e578182fd5b809150509250929050565b6000806040838503121561262b578182fd5b612634836122d7565b946020939093013593505050565b600080600060608486031215612656578081fd5b61265f846122d7565b95602085013595506040909401359392505050565b600080600080600060a0868803121561268b578283fd5b612694866122d7565b9450602086013593506040860135925060608601359150608086013567ffffffffffffffff811115612505578182fd5b600080604083850312156126d6578182fd5b823567ffffffffffffffff808211156126ed578384fd5b818501915085601f830112612700578384fd5b8135602061270d826129fe565b60405161271a8282612aee565b8381528281019150858301600585901b870184018b1015612739578889fd5b8896505b848710156127625761274e816122d7565b83526001969096019591830191830161273d565b5096505086013592505080821115612778578283fd5b50612785858286016122f3565b9150509250929050565b6000602082840312156127a0578081fd5b5035919050565b600080604083850312156127b9578182fd5b823591506123ff602084016122d7565b600080604083850312156127db578182fd5b50508035926020909101359150565b6000602082840312156127fb578081fd5b8135610b1b81612c04565b600060208284031215612817578081fd5b8151610b1b81612c04565b6000815180845260208085019450808401835b8381101561285157815187529582019590820190600101612835565b509495945050505050565b60008151808452612874816020860160208601612a70565b601f01601f19169290920160200192915050565b7f416363657373436f6e74726f6c3a206163636f756e74200000000000000000008152600083516128c0816017850160208801612a70565b7f206973206d697373696e6720726f6c652000000000000000000000000000000060179184019182015283516128fd816028840160208801612a70565b01602801949350505050565b60006001600160a01b03808816835280871660208401525060a0604083015261293560a0830186612822565b82810360608401526129478186612822565b9050828103608084015261295b818561285c565b98975050505050505050565b60006001600160a01b03808816835280871660208401525084604083015283606083015260a0608083015261299f60a083018461285c565b979650505050505050565b602081526000610b1b6020830184612822565b6040815260006129d06040830185612822565b82810360208401526129e28185612822565b95945050505050565b602081526000610b1b602083018461285c565b600067ffffffffffffffff821115612a1857612a18612b4c565b5060051b60200190565b60008219821115612a3557612a35612b36565b500190565b6000816000190483118215151615612a5457612a54612b36565b500290565b600082821015612a6b57612a6b612b36565b500390565b60005b83811015612a8b578181015183820152602001612a73565b838111156114065750506000910152565b600081612aab57612aab612b36565b506000190190565b600181811c90821680612ac757607f821691505b60208210811415612ae857634e487b7160e01b600052602260045260246000fd5b50919050565b601f8201601f1916810167ffffffffffffffff81118282101715612b1457612b14612b4c565b6040525050565b6000600019821415612b2f57612b2f612b36565b5060010190565b634e487b7160e01b600052601160045260246000fd5b634e487b7160e01b600052604160045260246000fd5b600060033d1115612b7757600481823e5160e01c5b90565b600060443d1015612b885790565b6040516003193d81016004833e81513d67ffffffffffffffff8160248401118184111715612bb857505050505090565b8285019150815181811115612bd05750505050505090565b843d8701016020828501011115612bea5750505050505090565b612bf960208286010187612aee565b509095945050505050565b6001600160e01b03198116811461100e57600080fdfea2646970667358221220720c71cae96e1d4e6639b5cfe0a4ece15993ecf236c081ddb81a2526470fc18b64736f6c63430008040033",
  "devdoc": {
    "kind": "dev",
    "methods": {
      "balanceOf(address,uint256)": {
        "details": "See {IERC1155-balanceOf}. Requirements: - `account` cannot be the zero address."
      },
      "balanceOfBatch(address[],uint256[])": {
        "details": "See {IERC1155-balanceOfBatch}. Requirements: - `accounts` and `ids` must have the same length."
      },
      "exists(uint256)": {
        "details": "Indicates whether any token exist with a given id, or not."
      },
      "getRoleAdmin(bytes32)": {
        "details": "Returns the admin role that controls `role`. See {grantRole} and {revokeRole}. To change a role's admin, use {_setRoleAdmin}."
      },
      "getRoleMember(bytes32,uint256)": {
        "details": "Returns one of the accounts that have `role`. `index` must be a value between 0 and {getRoleMemberCount}, non-inclusive. Role bearers are not sorted in any particular way, and their ordering may change at any point. WARNING: When using {getRoleMember} and {getRoleMemberCount}, make sure you perform all queries on the same block. See the following https://forum.openzeppelin.com/t/iterating-over-elements-on-enumerableset-in-openzeppelin-contracts/2296[forum post] for more information."
      },
      "getRoleMemberCount(bytes32)": {
        "details": "Returns the number of accounts that have `role`. Can be used together with {getRoleMember} to enumerate all bearers of a role."
      },
      "grantRole(bytes32,address)": {
        "details": "Grants `role` to `account`. If `account` had not been already granted `role`, emits a {RoleGranted} event. Requirements: - the caller must have ``role``'s admin role."
      },
      "hasRole(bytes32,address)": {
        "details": "Returns `true` if `account` has been granted `role`."
      },
      "isApprovedForAll(address,address)": {
        "details": "See {IERC1155-isApprovedForAll}."
      },
      "renounceRole(bytes32,address)": {
        "details": "Revokes `role` from the calling account. Roles are often managed via {grantRole} and {revokeRole}: this function's purpose is to provide a mechanism for accounts to lose their privileges if they are compromised (such as when a trusted device is misplaced). If the calling account had been revoked `role`, emits a {RoleRevoked} event. Requirements: - the caller must be `account`."
      },
      "revokeRole(bytes32,address)": {
        "details": "Revokes `role` from `account`. If `account` had been granted `role`, emits a {RoleRevoked} event. Requirements: - the caller must have ``role``'s admin role."
      },
      "safeBatchTransferFrom(address,address,uint256[],uint256[],bytes)": {
        "details": "See {IERC1155-safeBatchTransferFrom}."
      },
      "safeTransferFrom(address,address,uint256,uint256,bytes)": {
        "details": "See {IERC1155-safeTransferFrom}."
      },
      "setApprovalForAll(address,bool)": {
        "details": "See {IERC1155-setApprovalForAll}."
      },
      "supportsInterface(bytes4)": {
        "details": "See {IERC165-supportsInterface}."
      },
      "totalSupply(uint256)": {
        "details": "Total amount of tokens in with a given id."
      },
      "uri(uint256)": {
        "details": "See {IERC1155MetadataURI-uri}. This implementation returns the same URI for *all* token types. It relies on the token type ID substitution mechanism https://eips.ethereum.org/EIPS/eip-1155#metadata[defined in the EIP]. Clients calling this function must replace the `\\{id\\}` substring with the actual token type ID."
      }
    },
    "version": 1
  },
  "userdoc": {
    "kind": "user",
    "methods": {},
    "version": 1
  },
  "storageLayout": {
    "storage": [
      {
        "astId": 24,
        "contract": "contracts/CarbonReceipt55.sol:CarbonReceipt55",
        "label": "_roles",
        "offset": 0,
        "slot": "0",
        "type": "t_mapping(t_bytes32,t_struct(RoleData)19_storage)"
      },
      {
        "astId": 338,
        "contract": "contracts/CarbonReceipt55.sol:CarbonReceipt55",
        "label": "_roleMembers",
        "offset": 0,
        "slot": "1",
        "type": "t_mapping(t_bytes32,t_struct(AddressSet)4655_storage)"
      },
      {
        "astId": 765,
        "contract": "contracts/CarbonReceipt55.sol:CarbonReceipt55",
        "label": "_balances",
        "offset": 0,
        "slot": "2",
        "type": "t_mapping(t_uint256,t_mapping(t_address,t_uint256))"
      },
      {
        "astId": 771,
        "contract": "contracts/CarbonReceipt55.sol:CarbonReceipt55",
        "label": "_operatorApprovals",
        "offset": 0,
        "slot": "3",
        "type": "t_mapping(t_address,t_mapping(t_address,t_bool))"
      },
      {
        "astId": 773,
        "contract": "contracts/CarbonReceipt55.sol:CarbonReceipt55",
        "label": "_uri",
        "offset": 0,
        "slot": "4",
        "type": "t_string_storage"
      },
      {
        "astId": 2204,
        "contract": "contracts/CarbonReceipt55.sol:CarbonReceipt55",
        "label": "_totalSupply",
        "offset": 0,
        "slot": "5",
        "type": "t_mapping(t_uint256,t_uint256)"
      }
    ],
    "types": {
      "t_address": {
        "encoding": "inplace",
        "label": "address",
        "numberOfBytes": "20"
      },
      "t_array(t_bytes32)dyn_storage": {
        "base": "t_bytes32",
        "encoding": "dynamic_array",
        "label": "bytes32[]",
        "numberOfBytes": "32"
      },
      "t_bool": {
        "encoding": "inplace",
        "label": "bool",
        "numberOfBytes": "1"
      },
      "t_bytes32": {
        "encoding": "inplace",
        "label": "bytes32",
        "numberOfBytes": "32"
      },
      "t_mapping(t_address,t_bool)": {
        "encoding": "mapping",
        "key": "t_address",
        "label": "mapping(address => bool)",
        "numberOfBytes": "32",
        "value": "t_bool"
      },
      "t_mapping(t_address,t_mapping(t_address,t_bool))": {
        "encoding": "mapping",
        "key": "t_address",
        "label": "mapping(address => mapping(address => bool))",
        "numberOfBytes": "32",
        "value": "t_mapping(t_address,t_bool)"
      },
      "t_mapping(t_address,t_uint256)": {
        "encoding": "mapping",
        "key": "t_address",
        "label": "mapping(address => uint256)",
        "numberOfBytes": "32",
        "value": "t_uint256"
      },
      "t_mapping(t_bytes32,t_struct(AddressSet)4655_storage)": {
        "encoding": "mapping",
        "key": "t_bytes32",
        "label": "mapping(bytes32 => struct EnumerableSet.AddressSet)",
        "numberOfBytes": "32",
        "value": "t_struct(AddressSet)4655_storage"
      },
      "t_mapping(t_bytes32,t_struct(RoleData)19_storage)": {
        "encoding": "mapping",
        "key": "t_bytes32",
        "label": "mapping(bytes32 => struct AccessControl.RoleData)",
        "numberOfBytes": "32",
        "value": "t_struct(RoleData)19_storage"
      },
      "t_mapping(t_bytes32,t_uint256)": {
        "encoding": "mapping",
        "key": "t_bytes32",
        "label": "mapping(bytes32 => uint256)",
        "numberOfBytes": "32",
        "value": "t_uint256"
      },
      "t_mapping(t_uint256,t_mapping(t_address,t_uint256))": {
        "encoding": "mapping",
        "key": "t_uint256",
        "label": "mapping(uint256 => mapping(address => uint256))",
        "numberOfBytes": "32",
        "value": "t_mapping(t_address,t_uint256)"
      },
      "t_mapping(t_uint256,t_uint256)": {
        "encoding": "mapping",
        "key": "t_uint256",
        "label": "mapping(uint256 => uint256)",
        "numberOfBytes": "32",
        "value": "t_uint256"
      },
      "t_string_storage": {
        "encoding": "bytes",
        "label": "string",
        "numberOfBytes": "32"
      },
      "t_struct(AddressSet)4655_storage": {
        "encoding": "inplace",
        "label": "struct EnumerableSet.AddressSet",
        "members": [
          {
            "astId": 4654,
            "contract": "contracts/CarbonReceipt55.sol:CarbonReceipt55",
            "label": "_inner",
            "offset": 0,
            "slot": "0",
            "type": "t_struct(Set)4354_storage"
          }
        ],
        "numberOfBytes": "64"
      },
      "t_struct(RoleData)19_storage": {
        "encoding": "inplace",
        "label": "struct AccessControl.RoleData",
        "members": [
          {
            "astId": 16,
            "contract": "contracts/CarbonReceipt55.sol:CarbonReceipt55",
            "label": "members",
            "offset": 0,
            "slot": "0",
            "type": "t_mapping(t_address,t_bool)"
          },
          {
            "astId": 18,
            "contract": "contracts/CarbonReceipt55.sol:CarbonReceipt55",
            "label": "adminRole",
            "offset": 0,
            "slot": "1",
            "type": "t_bytes32"
          }
        ],
        "numberOfBytes": "64"
      },
      "t_struct(Set)4354_storage": {
        "encoding": "inplace",
        "label": "struct EnumerableSet.Set",
        "members": [
          {
            "astId": 4349,
            "contract": "contracts/CarbonReceipt55.sol:CarbonReceipt55",
            "label": "_values",
            "offset": 0,
            "slot": "0",
            "type": "t_array(t_bytes32)dyn_storage"
          },
          {
            "astId": 4353,
            "contract": "contracts/CarbonReceipt55.sol:CarbonReceipt55",
            "label": "_indexes",
            "offset": 0,
            "slot": "1",
            "type": "t_mapping(t_bytes32,t_uint256)"
          }
        ],
        "numberOfBytes": "64"
      },
      "t_uint256": {
        "encoding": "inplace",
        "label": "uint256",
        "numberOfBytes": "32"
      }
    }
  }
}