{
  "address": "0x223e00C394910444302Cb7AC73b99f2E8e688e40",
  "abi": [
    {
      "inputs": [
        {
          "internalType": "string",
          "name": "name_",
          "type": "string"
        },
        {
          "internalType": "string",
          "name": "symbol_",
          "type": "string"
        }
      ],
      "stateMutability": "nonpayable",
      "type": "constructor"
    },
    {
      "anonymous": false,
      "inputs": [
        {
          "indexed": true,
          "internalType": "address",
          "name": "account",
          "type": "address"
        },
        {
          "indexed": true,
          "internalType": "address",
          "name": "operator",
          "type": "address"
        },
        {
          "indexed": false,
          "internalType": "bool",
          "name": "approved",
          "type": "bool"
        }
      ],
      "name": "ApprovalForAll",
      "type": "event"
    },
    {
      "anonymous": false,
      "inputs": [
        {
          "indexed": true,
          "internalType": "bytes32",
          "name": "role",
          "type": "bytes32"
        },
        {
          "indexed": true,
          "internalType": "bytes32",
          "name": "previousAdminRole",
          "type": "bytes32"
        },
        {
          "indexed": true,
          "internalType": "bytes32",
          "name": "newAdminRole",
          "type": "bytes32"
        }
      ],
      "name": "RoleAdminChanged",
      "type": "event"
    },
    {
      "anonymous": false,
      "inputs": [
        {
          "indexed": true,
          "internalType": "bytes32",
          "name": "role",
          "type": "bytes32"
        },
        {
          "indexed": true,
          "internalType": "address",
          "name": "account",
          "type": "address"
        },
        {
          "indexed": true,
          "internalType": "address",
          "name": "sender",
          "type": "address"
        }
      ],
      "name": "RoleGranted",
      "type": "event"
    },
    {
      "anonymous": false,
      "inputs": [
        {
          "indexed": true,
          "internalType": "bytes32",
          "name": "role",
          "type": "bytes32"
        },
        {
          "indexed": true,
          "internalType": "address",
          "name": "account",
          "type": "address"
        },
        {
          "indexed": true,
          "internalType": "address",
          "name": "sender",
          "type": "address"
        }
      ],
      "name": "RoleRevoked",
      "type": "event"
    },
    {
      "anonymous": false,
      "inputs": [
        {
          "indexed": true,
          "internalType": "address",
          "name": "operator",
          "type": "address"
        },
        {
          "indexed": true,
          "internalType": "address",
          "name": "from",
          "type": "address"
        },
        {
          "indexed": true,
          "internalType": "address",
          "name": "to",
          "type": "address"
        },
        {
          "indexed": false,
          "internalType": "uint256[]",
          "name": "ids",
          "type": "uint256[]"
        },
        {
          "indexed": false,
          "internalType": "uint256[]",
          "name": "values",
          "type": "uint256[]"
        }
      ],
      "name": "TransferBatch",
      "type": "event"
    },
    {
      "anonymous": false,
      "inputs": [
        {
          "indexed": true,
          "internalType": "address",
          "name": "operator",
          "type": "address"
        },
        {
          "indexed": true,
          "internalType": "address",
          "name": "from",
          "type": "address"
        },
        {
          "indexed": true,
          "internalType": "address",
          "name": "to",
          "type": "address"
        },
        {
          "indexed": false,
          "internalType": "uint256",
          "name": "id",
          "type": "uint256"
        },
        {
          "indexed": false,
          "internalType": "uint256",
          "name": "value",
          "type": "uint256"
        }
      ],
      "name": "TransferSingle",
      "type": "event"
    },
    {
      "anonymous": false,
      "inputs": [
        {
          "indexed": false,
          "internalType": "string",
          "name": "value",
          "type": "string"
        },
        {
          "indexed": true,
          "internalType": "uint256",
          "name": "id",
          "type": "uint256"
        }
      ],
      "name": "URI",
      "type": "event"
    },
    {
      "inputs": [],
      "name": "DEFAULT_ADMIN_ROLE",
      "outputs": [
        {
          "internalType": "bytes32",
          "name": "",
          "type": "bytes32"
        }
      ],
      "stateMutability": "view",
      "type": "function"
    },
    {
      "inputs": [],
      "name": "MINTER_ROLE",
      "outputs": [
        {
          "internalType": "bytes32",
          "name": "",
          "type": "bytes32"
        }
      ],
      "stateMutability": "view",
      "type": "function"
    },
    {
      "inputs": [],
      "name": "PAUSER_ROLE",
      "outputs": [
        {
          "internalType": "bytes32",
          "name": "",
          "type": "bytes32"
        }
      ],
      "stateMutability": "view",
      "type": "function"
    },
    {
      "inputs": [
        {
          "internalType": "address",
          "name": "account",
          "type": "address"
        },
        {
          "internalType": "uint256",
          "name": "id",
          "type": "uint256"
        }
      ],
      "name": "balanceOf",
      "outputs": [
        {
          "internalType": "uint256",
          "name": "",
          "type": "uint256"
        }
      ],
      "stateMutability": "view",
      "type": "function"
    },
    {
      "inputs": [
        {
          "internalType": "address[]",
          "name": "accounts",
          "type": "address[]"
        },
        {
          "internalType": "uint256[]",
          "name": "ids",
          "type": "uint256[]"
        }
      ],
      "name": "balanceOfBatch",
      "outputs": [
        {
          "internalType": "uint256[]",
          "name": "",
          "type": "uint256[]"
        }
      ],
      "stateMutability": "view",
      "type": "function"
    },
    {
      "inputs": [
        {
          "internalType": "address",
          "name": "to",
          "type": "address"
        },
        {
          "internalType": "uint256[]",
          "name": "tokenIds",
          "type": "uint256[]"
        },
        {
          "internalType": "uint256[]",
          "name": "amounts",
          "type": "uint256[]"
        },
        {
          "internalType": "uint256[]",
          "name": "originalTokenIds",
          "type": "uint256[]"
        },
        {
          "internalType": "bytes",
          "name": "data",
          "type": "bytes"
        }
      ],
      "name": "batchMintReceipt",
      "outputs": [],
      "stateMutability": "nonpayable",
      "type": "function"
    },
    {
      "inputs": [
        {
          "internalType": "address",
          "name": "account",
          "type": "address"
        },
        {
          "internalType": "uint256",
          "name": "id",
          "type": "uint256"
        },
        {
          "internalType": "uint256",
          "name": "value",
          "type": "uint256"
        }
      ],
      "name": "burn",
      "outputs": [],
      "stateMutability": "nonpayable",
      "type": "function"
    },
    {
      "inputs": [
        {
          "internalType": "address",
          "name": "account",
          "type": "address"
        },
        {
          "internalType": "uint256[]",
          "name": "ids",
          "type": "uint256[]"
        },
        {
          "internalType": "uint256[]",
          "name": "values",
          "type": "uint256[]"
        }
      ],
      "name": "burnBatch",
      "outputs": [],
      "stateMutability": "nonpayable",
      "type": "function"
    },
    {
      "inputs": [
        {
          "internalType": "uint256",
          "name": "id",
          "type": "uint256"
        }
      ],
      "name": "exists",
      "outputs": [
        {
          "internalType": "bool",
          "name": "",
          "type": "bool"
        }
      ],
      "stateMutability": "view",
      "type": "function"
    },
    {
      "inputs": [
        {
          "internalType": "bytes32",
          "name": "role",
          "type": "bytes32"
        }
      ],
      "name": "getRoleAdmin",
      "outputs": [
        {
          "internalType": "bytes32",
          "name": "",
          "type": "bytes32"
        }
      ],
      "stateMutability": "view",
      "type": "function"
    },
    {
      "inputs": [
        {
          "internalType": "bytes32",
          "name": "role",
          "type": "bytes32"
        },
        {
          "internalType": "uint256",
          "name": "index",
          "type": "uint256"
        }
      ],
      "name": "getRoleMember",
      "outputs": [
        {
          "internalType": "address",
          "name": "",
          "type": "address"
        }
      ],
      "stateMutability": "view",
      "type": "function"
    },
    {
      "inputs": [
        {
          "internalType": "bytes32",
          "name": "role",
          "type": "bytes32"
        }
      ],
      "name": "getRoleMemberCount",
      "outputs": [
        {
          "internalType": "uint256",
          "name": "",
          "type": "uint256"
        }
      ],
      "stateMutability": "view",
      "type": "function"
    },
    {
      "inputs": [
        {
          "internalType": "bytes32",
          "name": "role",
          "type": "bytes32"
        },
        {
          "internalType": "address",
          "name": "account",
          "type": "address"
        }
      ],
      "name": "grantRole",
      "outputs": [],
      "stateMutability": "nonpayable",
      "type": "function"
    },
    {
      "inputs": [
        {
          "internalType": "bytes32",
          "name": "role",
          "type": "bytes32"
        },
        {
          "internalType": "address",
          "name": "account",
          "type": "address"
        }
      ],
      "name": "hasRole",
      "outputs": [
        {
          "internalType": "bool",
          "name": "",
          "type": "bool"
        }
      ],
      "stateMutability": "view",
      "type": "function"
    },
    {
      "inputs": [
        {
          "internalType": "address",
          "name": "account",
          "type": "address"
        },
        {
          "internalType": "address",
          "name": "operator",
          "type": "address"
        }
      ],
      "name": "isApprovedForAll",
      "outputs": [
        {
          "internalType": "bool",
          "name": "",
          "type": "bool"
        }
      ],
      "stateMutability": "view",
      "type": "function"
    },
    {
      "inputs": [
        {
          "internalType": "address",
          "name": "to",
          "type": "address"
        },
        {
          "internalType": "uint256",
          "name": "tokenId",
          "type": "uint256"
        },
        {
          "internalType": "uint256",
          "name": "amount",
          "type": "uint256"
        },
        {
          "internalType": "uint256",
          "name": "originalTokenId",
          "type": "uint256"
        },
        {
          "internalType": "bytes",
          "name": "data",
          "type": "bytes"
        }
      ],
      "name": "mintReceipt",
      "outputs": [],
      "stateMutability": "nonpayable",
      "type": "function"
    },
    {
      "inputs": [
        {
          "internalType": "uint256",
          "name": "tokenId",
          "type": "uint256"
        },
        {
          "internalType": "uint256",
          "name": "index",
          "type": "uint256"
        }
      ],
      "name": "receiptData",
      "outputs": [
        {
          "components": [
            {
              "internalType": "uint256",
              "name": "originalTokenId",
              "type": "uint256"
            },
            {
              "internalType": "uint256",
              "name": "amount",
              "type": "uint256"
            },
            {
              "internalType": "uint256",
              "name": "blockNumber",
              "type": "uint256"
            },
            {
              "internalType": "uint256",
              "name": "blockTime",
              "type": "uint256"
            }
          ],
          "internalType": "struct CarbonReceipt55.ReceiptData",
          "name": "",
          "type": "tuple"
        }
      ],
      "stateMutability": "view",
      "type": "function"
    },
    {
      "inputs": [
        {
          "internalType": "uint256",
          "name": "tokenId",
          "type": "uint256"
        }
      ],
      "name": "receiptDataCount",
      "outputs": [
        {
          "internalType": "uint256",
          "name": "",
          "type": "uint256"
        }
      ],
      "stateMutability": "view",
      "type": "function"
    },
    {
      "inputs": [
        {
          "internalType": "bytes32",
          "name": "role",
          "type": "bytes32"
        },
        {
          "internalType": "address",
          "name": "account",
          "type": "address"
        }
      ],
      "name": "renounceRole",
      "outputs": [],
      "stateMutability": "nonpayable",
      "type": "function"
    },
    {
      "inputs": [
        {
          "internalType": "bytes32",
          "name": "role",
          "type": "bytes32"
        },
        {
          "internalType": "address",
          "name": "account",
          "type": "address"
        }
      ],
      "name": "revokeRole",
      "outputs": [],
      "stateMutability": "nonpayable",
      "type": "function"
    },
    {
      "inputs": [
        {
          "internalType": "address",
          "name": "from",
          "type": "address"
        },
        {
          "internalType": "address",
          "name": "to",
          "type": "address"
        },
        {
          "internalType": "uint256[]",
          "name": "ids",
          "type": "uint256[]"
        },
        {
          "internalType": "uint256[]",
          "name": "amounts",
          "type": "uint256[]"
        },
        {
          "internalType": "bytes",
          "name": "data",
          "type": "bytes"
        }
      ],
      "name": "safeBatchTransferFrom",
      "outputs": [],
      "stateMutability": "nonpayable",
      "type": "function"
    },
    {
      "inputs": [
        {
          "internalType": "address",
          "name": "from",
          "type": "address"
        },
        {
          "internalType": "address",
          "name": "to",
          "type": "address"
        },
        {
          "internalType": "uint256",
          "name": "id",
          "type": "uint256"
        },
        {
          "internalType": "uint256",
          "name": "amount",
          "type": "uint256"
        },
        {
          "internalType": "bytes",
          "name": "data",
          "type": "bytes"
        }
      ],
      "name": "safeTransferFrom",
      "outputs": [],
      "stateMutability": "nonpayable",
      "type": "function"
    },
    {
      "inputs": [
        {
          "internalType": "address",
          "name": "operator",
          "type": "address"
        },
        {
          "internalType": "bool",
          "name": "approved",
          "type": "bool"
        }
      ],
      "name": "setApprovalForAll",
      "outputs": [],
      "stateMutability": "nonpayable",
      "type": "function"
    },
    {
      "inputs": [
        {
          "internalType": "bytes4",
          "name": "interfaceId",
          "type": "bytes4"
        }
      ],
      "name": "supportsInterface",
      "outputs": [
        {
          "internalType": "bool",
          "name": "",
          "type": "bool"
        }
      ],
      "stateMutability": "view",
      "type": "function"
    },
    {
      "inputs": [
        {
          "internalType": "uint256",
          "name": "id",
          "type": "uint256"
        }
      ],
      "name": "totalSupply",
      "outputs": [
        {
          "internalType": "uint256",
          "name": "",
          "type": "uint256"
        }
      ],
      "stateMutability": "view",
      "type": "function"
    },
    {
      "inputs": [
        {
          "internalType": "uint256",
          "name": "",
          "type": "uint256"
        }
      ],
      "name": "uri",
      "outputs": [
        {
          "internalType": "string",
          "name": "",
          "type": "string"
        }
      ],
      "stateMutability": "view",
      "type": "function"
    }
  ],
  "transactionHash": "0x85a2ef10813664b4731bb9af16b4636a89b288a255f08499863093305c8f8a76",
  "args": [
    "CarbonReceipt",
    "CR1"
  ],
  "numDeployments": 3,
  "solcInputHash": "d5422413f3683c7ca62bb90967462287",
  "bytecode": "0x60806040523480156200001157600080fd5b50604051620033a1380380620033a18339810160408190526200003491620003b5565b6040805160208101909152600081526200004e81620000e8565b508151620000649060069060208501906200025c565b5080516200007a9060079060208401906200025c565b506200008860003362000101565b620000b47f9f2df0fed2c77648de5860a4cc508cd0818c85b8b8a1ab4ceeef8d981c8956a63362000101565b620000e07f65d7a28e3265b37a6474929f336521b332c1681b933f6cb9f3376673440d862a3362000101565b50506200046f565b8051620000fd9060049060208401906200025c565b5050565b620000fd82826200011e82826200014a60201b62000f471760201c565b60008281526001602090815260409091206200014591839062000fe5620001ea821b17901c565b505050565b6000828152602081815260408083206001600160a01b038516845290915290205460ff16620000fd576000828152602081815260408083206001600160a01b03851684529091529020805460ff19166001179055620001a63390565b6001600160a01b0316816001600160a01b0316837f2f8788117e7eff1d82e926ec794901d17c78024a50270940304540a733656f0d60405160405180910390a45050565b600062000201836001600160a01b0384166200020a565b90505b92915050565b6000818152600183016020526040812054620002535750815460018181018455600084815260208082209093018490558454848252828601909352604090209190915562000204565b50600062000204565b8280546200026a906200041c565b90600052602060002090601f0160209004810192826200028e5760008555620002d9565b82601f10620002a957805160ff1916838001178555620002d9565b82800160010185558215620002d9579182015b82811115620002d9578251825591602001919060010190620002bc565b50620002e7929150620002eb565b5090565b5b80821115620002e75760008155600101620002ec565b600082601f83011262000313578081fd5b81516001600160401b038082111562000330576200033062000459565b604051601f8301601f19908116603f011681019082821181831017156200035b576200035b62000459565b8160405283815260209250868385880101111562000377578485fd5b8491505b838210156200039a57858201830151818301840152908201906200037b565b83821115620003ab57848385830101525b9695505050505050565b60008060408385031215620003c8578182fd5b82516001600160401b0380821115620003df578384fd5b620003ed8683870162000302565b9350602085015191508082111562000403578283fd5b50620004128582860162000302565b9150509250929050565b600181811c908216806200043157607f821691505b602082108114156200045357634e487b7160e01b600052602260045260246000fd5b50919050565b634e487b7160e01b600052604160045260246000fd5b612f22806200047f6000396000f3fe608060405234801561001057600080fd5b50600436106101ac5760003560e01c80639010d07c116100ee578063d539139311610097578063e985e9c511610071578063e985e9c514610424578063f242432a14610460578063f316c25b14610473578063f5298aca146104b957600080fd5b8063d5391393146103c3578063d547741f146103ea578063e63ab1e9146103fd57600080fd5b8063a22cb465116100c8578063a22cb4651461037d578063bd85b03914610390578063ca15c873146103b057600080fd5b80639010d07c1461031357806391d148541461033e578063a217fddf1461037557600080fd5b80632f2ff15d1161015b5780634e1273f4116101355780634e1273f4146102ab5780634f558e79146102cb57806356b4e96c146102ed5780636b20c4541461030057600080fd5b80632f2ff15d1461027257806336568abe1461028557806338b565f11461029857600080fd5b80630e89341c1161018c5780630e89341c1461021a578063248a9ca31461023a5780632eb2c2d61461025d57600080fd5b8062719405146101b1578062fdd58e146101e457806301ffc9a7146101f7575b600080fd5b6101d16101bf366004612a61565b60009081526008602052604090205490565b6040519081526020015b60405180910390f35b6101d16101f23660046128eb565b6104cc565b61020a610205366004612abc565b61057a565b60405190151581526020016101db565b61022d610228366004612a61565b6105d3565b6040516101db9190612cbd565b6101d1610248366004612a61565b60009081526020819052604090206001015490565b61027061026b3660046126da565b610667565b005b610270610280366004612a79565b610709565b610270610293366004612a79565b610733565b6102706102a6366004612854565b6107bf565b6102be6102b9366004612996565b6109cb565b6040516101db9190612c7c565b61020a6102d9366004612a61565b600090815260056020526040902054151590565b6102706102fb366004612946565b610b41565b61027061030e3660046127e3565b610c51565b610326610321366004612a9b565b610cd6565b6040516001600160a01b0390911681526020016101db565b61020a61034c366004612a79565b6000918252602082815260408084206001600160a01b0393909316845291905290205460ff1690565b6101d1600081565b61027061038b3660046128b1565b610cf5565b6101d161039e366004612a61565b60009081526005602052604090205490565b6101d16103be366004612a61565b610d00565b6101d17f9f2df0fed2c77648de5860a4cc508cd0818c85b8b8a1ab4ceeef8d981c8956a681565b6102706103f8366004612a79565b610d17565b6101d17f65d7a28e3265b37a6474929f336521b332c1681b933f6cb9f3376673440d862a81565b61020a6104323660046126a8565b6001600160a01b03918216600090815260036020908152604080832093909416825291909152205460ff1690565b61027061046e366004612780565b610d3c565b610486610481366004612a9b565b610dc3565b6040516101db91908151815260208083015190820152604080830151908201526060918201519181019190915260800190565b6102706104c7366004612914565b610ec2565b60006001600160a01b03831661054f5760405162461bcd60e51b815260206004820152602b60248201527f455243313135353a2062616c616e636520717565727920666f7220746865207a60448201527f65726f206164647265737300000000000000000000000000000000000000000060648201526084015b60405180910390fd5b5060008181526002602090815260408083206001600160a01b03861684529091529020545b92915050565b60006001600160e01b03198216636cdb3d1360e11b14806105c457506001600160e01b031982167f5bfad1a800000000000000000000000000000000000000000000000000000000145b80610574575061057482610ffa565b6060600480546105e290612d85565b80601f016020809104026020016040519081016040528092919081815260200182805461060e90612d85565b801561065b5780601f106106305761010080835404028352916020019161065b565b820191906000526020600020905b81548152906001019060200180831161063e57829003601f168201915b50505050509050919050565b6001600160a01b03851633148061068357506106838533610432565b6106f55760405162461bcd60e51b815260206004820152603260248201527f455243313135353a207472616e736665722063616c6c6572206973206e6f742060448201527f6f776e6572206e6f7220617070726f76656400000000000000000000000000006064820152608401610546565b6107028585858585611053565b5050505050565b600082815260208190526040902060010154610724816112d6565b61072e83836112e3565b505050565b6001600160a01b03811633146107b15760405162461bcd60e51b815260206004820152602f60248201527f416363657373436f6e74726f6c3a2063616e206f6e6c792072656e6f756e636560448201527f20726f6c657320666f722073656c6600000000000000000000000000000000006064820152608401610546565b6107bb8282611305565b5050565b6107e97f9f2df0fed2c77648de5860a4cc508cd0818c85b8b8a1ab4ceeef8d981c8956a63361034c565b61085b5760405162461bcd60e51b815260206004820152602e60248201527f436172626f6e5265636569707435353a206d7573742068617665206d696e746560448201527f7220726f6c6520746f206d696e740000000000000000000000000000000000006064820152608401610546565b60005b84518110156109c3576108c18686838151811061088b57634e487b7160e01b600052603260045260246000fd5b60200260200101518684815181106108b357634e487b7160e01b600052603260045260246000fd5b602002602001015185611327565b600060405180608001604052808584815181106108ee57634e487b7160e01b600052603260045260246000fd5b6020026020010151815260200186848151811061091b57634e487b7160e01b600052603260045260246000fd5b602002602001015181526020014381526020014281525090506008600087848151811061095857634e487b7160e01b600052603260045260246000fd5b6020908102919091018101518252818101929092526040908101600090812080546001818101835591835291849020855160049093020191825592840151928101929092558201516002820155606090910151600390910155806109bb81612ded565b91505061085e565b505050505050565b60608151835114610a445760405162461bcd60e51b815260206004820152602960248201527f455243313135353a206163636f756e747320616e6420696473206c656e67746860448201527f206d69736d6174636800000000000000000000000000000000000000000000006064820152608401610546565b6000835167ffffffffffffffff811115610a6e57634e487b7160e01b600052604160045260246000fd5b604051908082528060200260200182016040528015610a97578160200160208202803683370190505b50905060005b8451811015610b3957610afe858281518110610ac957634e487b7160e01b600052603260045260246000fd5b6020026020010151858381518110610af157634e487b7160e01b600052603260045260246000fd5b60200260200101516104cc565b828281518110610b1e57634e487b7160e01b600052603260045260246000fd5b6020908102919091010152610b3281612ded565b9050610a9d565b509392505050565b610b6b7f9f2df0fed2c77648de5860a4cc508cd0818c85b8b8a1ab4ceeef8d981c8956a63361034c565b610bdd5760405162461bcd60e51b815260206004820152602e60248201527f436172626f6e5265636569707435353a206d7573742068617665206d696e746560448201527f7220726f6c6520746f206d696e740000000000000000000000000000000000006064820152608401610546565b610be985858584611327565b506040805160808101825291825260208083019384524383830190815242606085019081526000968752600883529286208054600181810183559188529290962093516004909202909301908155925193830193909355516002820155905160039091015550565b6001600160a01b038316331480610c6d5750610c6d8333610432565b610ccb5760405162461bcd60e51b815260206004820152602960248201527f455243313135353a2063616c6c6572206973206e6f74206f776e6572206e6f7260448201526808185c1c1c9bdd995960ba1b6064820152608401610546565b61072e838383611468565b6000828152600160205260408120610cee90836116de565b9392505050565b6107bb3383836116ea565b6000818152600160205260408120610574906117df565b600082815260208190526040902060010154610d32816112d6565b61072e8383611305565b6001600160a01b038516331480610d585750610d588533610432565b610db65760405162461bcd60e51b815260206004820152602960248201527f455243313135353a2063616c6c6572206973206e6f74206f776e6572206e6f7260448201526808185c1c1c9bdd995960ba1b6064820152608401610546565b61070285858585856117e9565b610dee6040518060800160405280600081526020016000815260200160008152602001600081525090565b6000838152600860205260409020548210610e4b5760405162461bcd60e51b815260206004820152601360248201527f496e646578206f7574206f6620426f756e6473000000000000000000000000006044820152606401610546565b6000838152600860205260409020805483908110610e7957634e487b7160e01b600052603260045260246000fd5b9060005260206000209060040201604051806080016040529081600082015481526020016001820154815260200160028201548152602001600382015481525050905092915050565b6001600160a01b038316331480610ede5750610ede8333610432565b610f3c5760405162461bcd60e51b815260206004820152602960248201527f455243313135353a2063616c6c6572206973206e6f74206f776e6572206e6f7260448201526808185c1c1c9bdd995960ba1b6064820152608401610546565b61072e8383836119a6565b6000828152602081815260408083206001600160a01b038516845290915290205460ff166107bb576000828152602081815260408083206001600160a01b03851684529091529020805460ff19166001179055610fa13390565b6001600160a01b0316816001600160a01b0316837f2f8788117e7eff1d82e926ec794901d17c78024a50270940304540a733656f0d60405160405180910390a45050565b6000610cee836001600160a01b038416611b3a565b60006001600160e01b03198216636cdb3d1360e11b148061104457506001600160e01b031982167f0e89341c00000000000000000000000000000000000000000000000000000000145b80610574575061057482611b89565b81518351146110b55760405162461bcd60e51b815260206004820152602860248201527f455243313135353a2069647320616e6420616d6f756e7473206c656e677468206044820152670dad2e6dac2e8c6d60c31b6064820152608401610546565b6001600160a01b0384166111195760405162461bcd60e51b815260206004820152602560248201527f455243313135353a207472616e7366657220746f20746865207a65726f206164604482015264647265737360d81b6064820152608401610546565b33611128818787878787611bc7565b60005b845181101561127057600085828151811061115657634e487b7160e01b600052603260045260246000fd5b60200260200101519050600085838151811061118257634e487b7160e01b600052603260045260246000fd5b60209081029190910181015160008481526002835260408082206001600160a01b038e1683529093529190912054909150818110156112165760405162461bcd60e51b815260206004820152602a60248201527f455243313135353a20696e73756666696369656e742062616c616e636520666f60448201526939103a3930b739b332b960b11b6064820152608401610546565b60008381526002602090815260408083206001600160a01b038e8116855292528083208585039055908b16825281208054849290611255908490612cf4565b925050819055505050508061126990612ded565b905061112b565b50846001600160a01b0316866001600160a01b0316826001600160a01b03167f4a39dc06d4c0dbc64b70af90fd698a233a518aa5d07e595d983b8c0526c8f7fb87876040516112c0929190612c8f565b60405180910390a46109c3818787878787611bd5565b6112e08133611d8a565b50565b6112ed8282610f47565b600082815260016020526040902061072e9082610fe5565b61130f8282611e08565b600082815260016020526040902061072e9082611e87565b6001600160a01b0384166113a35760405162461bcd60e51b815260206004820152602160248201527f455243313135353a206d696e7420746f20746865207a65726f2061646472657360448201527f73000000000000000000000000000000000000000000000000000000000000006064820152608401610546565b3360006113af85611e9c565b905060006113bc85611e9c565b90506113cd83600089858589611bc7565b60008681526002602090815260408083206001600160a01b038b168452909152812080548792906113ff908490612cf4565b909155505060408051878152602081018790526001600160a01b03808a1692600092918716917fc3d58168c5ae7397731d063d5bbf3d657854427343f4c083240f7aacaa2d0f62910160405180910390a461145f83600089898989611ef5565b50505050505050565b6001600160a01b0383166114ca5760405162461bcd60e51b815260206004820152602360248201527f455243313135353a206275726e2066726f6d20746865207a65726f206164647260448201526265737360e81b6064820152608401610546565b805182511461152c5760405162461bcd60e51b815260206004820152602860248201527f455243313135353a2069647320616e6420616d6f756e7473206c656e677468206044820152670dad2e6dac2e8c6d60c31b6064820152608401610546565b600033905061154f81856000868660405180602001604052806000815250611bc7565b60005b835181101561166f57600084828151811061157d57634e487b7160e01b600052603260045260246000fd5b6020026020010151905060008483815181106115a957634e487b7160e01b600052603260045260246000fd5b60209081029190910181015160008481526002835260408082206001600160a01b038c1683529093529190912054909150818110156116365760405162461bcd60e51b8152602060048201526024808201527f455243313135353a206275726e20616d6f756e7420657863656564732062616c604482015263616e636560e01b6064820152608401610546565b60009283526002602090815260408085206001600160a01b038b168652909152909220910390558061166781612ded565b915050611552565b5060006001600160a01b0316846001600160a01b0316826001600160a01b03167f4a39dc06d4c0dbc64b70af90fd698a233a518aa5d07e595d983b8c0526c8f7fb86866040516116c0929190612c8f565b60405180910390a46040805160208101909152600090525b50505050565b6000610cee8383612000565b816001600160a01b0316836001600160a01b031614156117725760405162461bcd60e51b815260206004820152602960248201527f455243313135353a2073657474696e6720617070726f76616c2073746174757360448201527f20666f722073656c6600000000000000000000000000000000000000000000006064820152608401610546565b6001600160a01b03838116600081815260036020908152604080832094871680845294825291829020805460ff191686151590811790915591519182527f17307eab39ab6107e8899845ad3d59bd9653f200f220920489ca2b5937696c31910160405180910390a3505050565b6000610574825490565b6001600160a01b03841661184d5760405162461bcd60e51b815260206004820152602560248201527f455243313135353a207472616e7366657220746f20746865207a65726f206164604482015264647265737360d81b6064820152608401610546565b33600061185985611e9c565b9050600061186685611e9c565b9050611876838989858589611bc7565b60008681526002602090815260408083206001600160a01b038c168452909152902054858110156118fc5760405162461bcd60e51b815260206004820152602a60248201527f455243313135353a20696e73756666696369656e742062616c616e636520666f60448201526939103a3930b739b332b960b11b6064820152608401610546565b60008781526002602090815260408083206001600160a01b038d8116855292528083208985039055908a1682528120805488929061193b908490612cf4565b909155505060408051888152602081018890526001600160a01b03808b16928c821692918816917fc3d58168c5ae7397731d063d5bbf3d657854427343f4c083240f7aacaa2d0f62910160405180910390a461199b848a8a8a8a8a611ef5565b505050505050505050565b6001600160a01b038316611a085760405162461bcd60e51b815260206004820152602360248201527f455243313135353a206275726e2066726f6d20746865207a65726f206164647260448201526265737360e81b6064820152608401610546565b336000611a1484611e9c565b90506000611a2184611e9c565b9050611a4183876000858560405180602001604052806000815250611bc7565b60008581526002602090815260408083206001600160a01b038a16845290915290205484811015611ac05760405162461bcd60e51b8152602060048201526024808201527f455243313135353a206275726e20616d6f756e7420657863656564732062616c604482015263616e636560e01b6064820152608401610546565b60008681526002602090815260408083206001600160a01b038b81168086529184528285208a8703905582518b81529384018a90529092908816917fc3d58168c5ae7397731d063d5bbf3d657854427343f4c083240f7aacaa2d0f62910160405180910390a460408051602081019091526000905261145f565b6000818152600183016020526040812054611b8157508154600181810184556000848152602080822090930184905584548482528286019093526040902091909155610574565b506000610574565b60006001600160e01b031982167f5a05180f000000000000000000000000000000000000000000000000000000001480610574575061057482612038565b6109c386868686868661209f565b6001600160a01b0384163b156109c35760405163bc197c8160e01b81526001600160a01b0385169063bc197c8190611c199089908990889088908890600401612bdb565b602060405180830381600087803b158015611c3357600080fd5b505af1925050508015611c63575060408051601f3d908101601f19168201909252611c6091810190612ad8565b60015b611d1957611c6f612e34565b806308c379a01415611ca95750611c84612e4c565b80611c8f5750611cab565b8060405162461bcd60e51b81526004016105469190612cbd565b505b60405162461bcd60e51b815260206004820152603460248201527f455243313135353a207472616e7366657220746f206e6f6e204552433131353560448201527f526563656976657220696d706c656d656e7465720000000000000000000000006064820152608401610546565b6001600160e01b0319811663bc197c8160e01b1461145f5760405162461bcd60e51b815260206004820152602860248201527f455243313135353a204552433131353552656365697665722072656a656374656044820152676420746f6b656e7360c01b6064820152608401610546565b6000828152602081815260408083206001600160a01b038516845290915290205460ff166107bb57611dc6816001600160a01b03166014612265565b611dd1836020612265565b604051602001611de2929190612b5a565b60408051601f198184030181529082905262461bcd60e51b825261054691600401612cbd565b6000828152602081815260408083206001600160a01b038516845290915290205460ff16156107bb576000828152602081815260408083206001600160a01b0385168085529252808320805460ff1916905551339285917ff6391f5c32d9c69d2a47ea670b442974b53935d1edc7fd64eb21e047a839171b9190a45050565b6000610cee836001600160a01b03841661248c565b60408051600180825281830190925260609160009190602080830190803683370190505090508281600081518110611ee457634e487b7160e01b600052603260045260246000fd5b602090810291909101015292915050565b6001600160a01b0384163b156109c35760405163f23a6e6160e01b81526001600160a01b0385169063f23a6e6190611f399089908990889088908890600401612c39565b602060405180830381600087803b158015611f5357600080fd5b505af1925050508015611f83575060408051601f3d908101601f19168201909252611f8091810190612ad8565b60015b611f8f57611c6f612e34565b6001600160e01b0319811663f23a6e6160e01b1461145f5760405162461bcd60e51b815260206004820152602860248201527f455243313135353a204552433131353552656365697665722072656a656374656044820152676420746f6b656e7360c01b6064820152608401610546565b600082600001828154811061202557634e487b7160e01b600052603260045260246000fd5b9060005260206000200154905092915050565b60006001600160e01b031982167f7965db0b00000000000000000000000000000000000000000000000000000000148061057457507f01ffc9a7000000000000000000000000000000000000000000000000000000006001600160e01b0319831614610574565b6001600160a01b0385166121425760005b8351811015612140578281815181106120d957634e487b7160e01b600052603260045260246000fd5b60200260200101516005600086848151811061210557634e487b7160e01b600052603260045260246000fd5b60200260200101518152602001908152602001600020600082825461212a9190612cf4565b90915550612139905081612ded565b90506120b0565b505b6001600160a01b0384166109c35760005b835181101561145f57600084828151811061217e57634e487b7160e01b600052603260045260246000fd5b6020026020010151905060008483815181106121aa57634e487b7160e01b600052603260045260246000fd5b60200260200101519050600060056000848152602001908152602001600020549050818110156122425760405162461bcd60e51b815260206004820152602860248201527f455243313135353a206275726e20616d6f756e74206578636565647320746f7460448201527f616c537570706c790000000000000000000000000000000000000000000000006064820152608401610546565b6000928352600560205260409092209103905561225e81612ded565b9050612153565b60606000612274836002612d0c565b61227f906002612cf4565b67ffffffffffffffff8111156122a557634e487b7160e01b600052604160045260246000fd5b6040519080825280601f01601f1916602001820160405280156122cf576020820181803683370190505b5090507f30000000000000000000000000000000000000000000000000000000000000008160008151811061231457634e487b7160e01b600052603260045260246000fd5b60200101906001600160f81b031916908160001a9053507f78000000000000000000000000000000000000000000000000000000000000008160018151811061236d57634e487b7160e01b600052603260045260246000fd5b60200101906001600160f81b031916908160001a9053506000612391846002612d0c565b61239c906001612cf4565b90505b600181111561243d577f303132333435363738396162636465660000000000000000000000000000000085600f16601081106123eb57634e487b7160e01b600052603260045260246000fd5b1a60f81b82828151811061240f57634e487b7160e01b600052603260045260246000fd5b60200101906001600160f81b031916908160001a90535060049490941c9361243681612d6e565b905061239f565b508315610cee5760405162461bcd60e51b815260206004820181905260248201527f537472696e67733a20686578206c656e67746820696e73756666696369656e746044820152606401610546565b6000818152600183016020526040812054801561259f5760006124b0600183612d2b565b85549091506000906124c490600190612d2b565b90508181146125455760008660000182815481106124f257634e487b7160e01b600052603260045260246000fd5b906000526020600020015490508087600001848154811061252357634e487b7160e01b600052603260045260246000fd5b6000918252602080832090910192909255918252600188019052604090208390555b855486908061256457634e487b7160e01b600052603160045260246000fd5b600190038181906000526020600020016000905590558560010160008681526020019081526020016000206000905560019350505050610574565b6000915050610574565b80356001600160a01b03811681146125c057600080fd5b919050565b600082601f8301126125d5578081fd5b813560206125e282612cd0565b6040516125ef8282612dc0565b8381528281019150858301600585901b8701840188101561260e578586fd5b855b8581101561262c57813584529284019290840190600101612610565b5090979650505050505050565b600082601f830112612649578081fd5b813567ffffffffffffffff81111561266357612663612e1e565b60405161267a601f8301601f191660200182612dc0565b81815284602083860101111561268e578283fd5b816020850160208301379081016020019190915292915050565b600080604083850312156126ba578182fd5b6126c3836125a9565b91506126d1602084016125a9565b90509250929050565b600080600080600060a086880312156126f1578081fd5b6126fa866125a9565b9450612708602087016125a9565b9350604086013567ffffffffffffffff80821115612724578283fd5b61273089838a016125c5565b94506060880135915080821115612745578283fd5b61275189838a016125c5565b93506080880135915080821115612766578283fd5b5061277388828901612639565b9150509295509295909350565b600080600080600060a08688031215612797578081fd5b6127a0866125a9565b94506127ae602087016125a9565b93506040860135925060608601359150608086013567ffffffffffffffff8111156127d7578182fd5b61277388828901612639565b6000806000606084860312156127f7578283fd5b612800846125a9565b9250602084013567ffffffffffffffff8082111561281c578384fd5b612828878388016125c5565b9350604086013591508082111561283d578283fd5b5061284a868287016125c5565b9150509250925092565b600080600080600060a0868803121561286b578081fd5b612874866125a9565b9450602086013567ffffffffffffffff80821115612890578283fd5b61289c89838a016125c5565b95506040880135915080821115612724578283fd5b600080604083850312156128c3578182fd5b6128cc836125a9565b9150602083013580151581146128e0578182fd5b809150509250929050565b600080604083850312156128fd578182fd5b612906836125a9565b946020939093013593505050565b600080600060608486031215612928578081fd5b612931846125a9565b95602085013595506040909401359392505050565b600080600080600060a0868803121561295d578283fd5b612966866125a9565b9450602086013593506040860135925060608601359150608086013567ffffffffffffffff8111156127d7578182fd5b600080604083850312156129a8578182fd5b823567ffffffffffffffff808211156129bf578384fd5b818501915085601f8301126129d2578384fd5b813560206129df82612cd0565b6040516129ec8282612dc0565b8381528281019150858301600585901b870184018b1015612a0b578889fd5b8896505b84871015612a3457612a20816125a9565b835260019690960195918301918301612a0f565b5096505086013592505080821115612a4a578283fd5b50612a57858286016125c5565b9150509250929050565b600060208284031215612a72578081fd5b5035919050565b60008060408385031215612a8b578182fd5b823591506126d1602084016125a9565b60008060408385031215612aad578182fd5b50508035926020909101359150565b600060208284031215612acd578081fd5b8135610cee81612ed6565b600060208284031215612ae9578081fd5b8151610cee81612ed6565b6000815180845260208085019450808401835b83811015612b2357815187529582019590820190600101612b07565b509495945050505050565b60008151808452612b46816020860160208601612d42565b601f01601f19169290920160200192915050565b7f416363657373436f6e74726f6c3a206163636f756e7420000000000000000000815260008351612b92816017850160208801612d42565b7f206973206d697373696e6720726f6c65200000000000000000000000000000006017918401918201528351612bcf816028840160208801612d42565b01602801949350505050565b60006001600160a01b03808816835280871660208401525060a06040830152612c0760a0830186612af4565b8281036060840152612c198186612af4565b90508281036080840152612c2d8185612b2e565b98975050505050505050565b60006001600160a01b03808816835280871660208401525084604083015283606083015260a06080830152612c7160a0830184612b2e565b979650505050505050565b602081526000610cee6020830184612af4565b604081526000612ca26040830185612af4565b8281036020840152612cb48185612af4565b95945050505050565b602081526000610cee6020830184612b2e565b600067ffffffffffffffff821115612cea57612cea612e1e565b5060051b60200190565b60008219821115612d0757612d07612e08565b500190565b6000816000190483118215151615612d2657612d26612e08565b500290565b600082821015612d3d57612d3d612e08565b500390565b60005b83811015612d5d578181015183820152602001612d45565b838111156116d85750506000910152565b600081612d7d57612d7d612e08565b506000190190565b600181811c90821680612d9957607f821691505b60208210811415612dba57634e487b7160e01b600052602260045260246000fd5b50919050565b601f8201601f1916810167ffffffffffffffff81118282101715612de657612de6612e1e565b6040525050565b6000600019821415612e0157612e01612e08565b5060010190565b634e487b7160e01b600052601160045260246000fd5b634e487b7160e01b600052604160045260246000fd5b600060033d1115612e4957600481823e5160e01c5b90565b600060443d1015612e5a5790565b6040516003193d81016004833e81513d67ffffffffffffffff8160248401118184111715612e8a57505050505090565b8285019150815181811115612ea25750505050505090565b843d8701016020828501011115612ebc5750505050505090565b612ecb60208286010187612dc0565b509095945050505050565b6001600160e01b0319811681146112e057600080fdfea2646970667358221220d643d211fbb80451335eb3474a98b9fc3a05b400af7930c84dc638a7c9e302ff64736f6c63430008040033",
  "devdoc": {
    "kind": "dev",
    "methods": {
      "balanceOf(address,uint256)": {
        "details": "See {IERC1155-balanceOf}. Requirements: - `account` cannot be the zero address."
      },
      "balanceOfBatch(address[],uint256[])": {
        "details": "See {IERC1155-balanceOfBatch}. Requirements: - `accounts` and `ids` must have the same length."
      },
      "exists(uint256)": {
        "details": "Indicates whether any token exist with a given id, or not."
      },
      "getRoleAdmin(bytes32)": {
        "details": "Returns the admin role that controls `role`. See {grantRole} and {revokeRole}. To change a role's admin, use {_setRoleAdmin}."
      },
      "getRoleMember(bytes32,uint256)": {
        "details": "Returns one of the accounts that have `role`. `index` must be a value between 0 and {getRoleMemberCount}, non-inclusive. Role bearers are not sorted in any particular way, and their ordering may change at any point. WARNING: When using {getRoleMember} and {getRoleMemberCount}, make sure you perform all queries on the same block. See the following https://forum.openzeppelin.com/t/iterating-over-elements-on-enumerableset-in-openzeppelin-contracts/2296[forum post] for more information."
      },
      "getRoleMemberCount(bytes32)": {
        "details": "Returns the number of accounts that have `role`. Can be used together with {getRoleMember} to enumerate all bearers of a role."
      },
      "grantRole(bytes32,address)": {
        "details": "Grants `role` to `account`. If `account` had not been already granted `role`, emits a {RoleGranted} event. Requirements: - the caller must have ``role``'s admin role."
      },
      "hasRole(bytes32,address)": {
        "details": "Returns `true` if `account` has been granted `role`."
      },
      "isApprovedForAll(address,address)": {
        "details": "See {IERC1155-isApprovedForAll}."
      },
      "renounceRole(bytes32,address)": {
        "details": "Revokes `role` from the calling account. Roles are often managed via {grantRole} and {revokeRole}: this function's purpose is to provide a mechanism for accounts to lose their privileges if they are compromised (such as when a trusted device is misplaced). If the calling account had been revoked `role`, emits a {RoleRevoked} event. Requirements: - the caller must be `account`."
      },
      "revokeRole(bytes32,address)": {
        "details": "Revokes `role` from `account`. If `account` had been granted `role`, emits a {RoleRevoked} event. Requirements: - the caller must have ``role``'s admin role."
      },
      "safeBatchTransferFrom(address,address,uint256[],uint256[],bytes)": {
        "details": "See {IERC1155-safeBatchTransferFrom}."
      },
      "safeTransferFrom(address,address,uint256,uint256,bytes)": {
        "details": "See {IERC1155-safeTransferFrom}."
      },
      "setApprovalForAll(address,bool)": {
        "details": "See {IERC1155-setApprovalForAll}."
      },
      "supportsInterface(bytes4)": {
        "details": "See {IERC165-supportsInterface}."
      },
      "totalSupply(uint256)": {
        "details": "Total amount of tokens in with a given id."
      },
      "uri(uint256)": {
        "details": "See {IERC1155MetadataURI-uri}. This implementation returns the same URI for *all* token types. It relies on the token type ID substitution mechanism https://eips.ethereum.org/EIPS/eip-1155#metadata[defined in the EIP]. Clients calling this function must replace the `\\{id\\}` substring with the actual token type ID."
      }
    },
    "version": 1
  },
  "userdoc": {
    "kind": "user",
    "methods": {},
    "version": 1
  },
  "storageLayout": {
    "storage": [
      {
        "astId": 24,
        "contract": "contracts/CarbonReceipt55.sol:CarbonReceipt55",
        "label": "_roles",
        "offset": 0,
        "slot": "0",
        "type": "t_mapping(t_bytes32,t_struct(RoleData)19_storage)"
      },
      {
        "astId": 338,
        "contract": "contracts/CarbonReceipt55.sol:CarbonReceipt55",
        "label": "_roleMembers",
        "offset": 0,
        "slot": "1",
        "type": "t_mapping(t_bytes32,t_struct(AddressSet)4655_storage)"
      },
      {
        "astId": 765,
        "contract": "contracts/CarbonReceipt55.sol:CarbonReceipt55",
        "label": "_balances",
        "offset": 0,
        "slot": "2",
        "type": "t_mapping(t_uint256,t_mapping(t_address,t_uint256))"
      },
      {
        "astId": 771,
        "contract": "contracts/CarbonReceipt55.sol:CarbonReceipt55",
        "label": "_operatorApprovals",
        "offset": 0,
        "slot": "3",
        "type": "t_mapping(t_address,t_mapping(t_address,t_bool))"
      },
      {
        "astId": 773,
        "contract": "contracts/CarbonReceipt55.sol:CarbonReceipt55",
        "label": "_uri",
        "offset": 0,
        "slot": "4",
        "type": "t_string_storage"
      },
      {
        "astId": 2204,
        "contract": "contracts/CarbonReceipt55.sol:CarbonReceipt55",
        "label": "_totalSupply",
        "offset": 0,
        "slot": "5",
        "type": "t_mapping(t_uint256,t_uint256)"
      },
      {
        "astId": 5071,
        "contract": "contracts/CarbonReceipt55.sol:CarbonReceipt55",
        "label": "_name",
        "offset": 0,
        "slot": "6",
        "type": "t_string_storage"
      },
      {
        "astId": 5073,
        "contract": "contracts/CarbonReceipt55.sol:CarbonReceipt55",
        "label": "_symbol",
        "offset": 0,
        "slot": "7",
        "type": "t_string_storage"
      },
      {
        "astId": 5079,
        "contract": "contracts/CarbonReceipt55.sol:CarbonReceipt55",
        "label": "_receipts",
        "offset": 0,
        "slot": "8",
        "type": "t_mapping(t_uint256,t_array(t_struct(ReceiptData)5059_storage)dyn_storage)"
      }
    ],
    "types": {
      "t_address": {
        "encoding": "inplace",
        "label": "address",
        "numberOfBytes": "20"
      },
      "t_array(t_bytes32)dyn_storage": {
        "base": "t_bytes32",
        "encoding": "dynamic_array",
        "label": "bytes32[]",
        "numberOfBytes": "32"
      },
      "t_array(t_struct(ReceiptData)5059_storage)dyn_storage": {
        "base": "t_struct(ReceiptData)5059_storage",
        "encoding": "dynamic_array",
        "label": "struct CarbonReceipt55.ReceiptData[]",
        "numberOfBytes": "32"
      },
      "t_bool": {
        "encoding": "inplace",
        "label": "bool",
        "numberOfBytes": "1"
      },
      "t_bytes32": {
        "encoding": "inplace",
        "label": "bytes32",
        "numberOfBytes": "32"
      },
      "t_mapping(t_address,t_bool)": {
        "encoding": "mapping",
        "key": "t_address",
        "label": "mapping(address => bool)",
        "numberOfBytes": "32",
        "value": "t_bool"
      },
      "t_mapping(t_address,t_mapping(t_address,t_bool))": {
        "encoding": "mapping",
        "key": "t_address",
        "label": "mapping(address => mapping(address => bool))",
        "numberOfBytes": "32",
        "value": "t_mapping(t_address,t_bool)"
      },
      "t_mapping(t_address,t_uint256)": {
        "encoding": "mapping",
        "key": "t_address",
        "label": "mapping(address => uint256)",
        "numberOfBytes": "32",
        "value": "t_uint256"
      },
      "t_mapping(t_bytes32,t_struct(AddressSet)4655_storage)": {
        "encoding": "mapping",
        "key": "t_bytes32",
        "label": "mapping(bytes32 => struct EnumerableSet.AddressSet)",
        "numberOfBytes": "32",
        "value": "t_struct(AddressSet)4655_storage"
      },
      "t_mapping(t_bytes32,t_struct(RoleData)19_storage)": {
        "encoding": "mapping",
        "key": "t_bytes32",
        "label": "mapping(bytes32 => struct AccessControl.RoleData)",
        "numberOfBytes": "32",
        "value": "t_struct(RoleData)19_storage"
      },
      "t_mapping(t_bytes32,t_uint256)": {
        "encoding": "mapping",
        "key": "t_bytes32",
        "label": "mapping(bytes32 => uint256)",
        "numberOfBytes": "32",
        "value": "t_uint256"
      },
      "t_mapping(t_uint256,t_array(t_struct(ReceiptData)5059_storage)dyn_storage)": {
        "encoding": "mapping",
        "key": "t_uint256",
        "label": "mapping(uint256 => struct CarbonReceipt55.ReceiptData[])",
        "numberOfBytes": "32",
        "value": "t_array(t_struct(ReceiptData)5059_storage)dyn_storage"
      },
      "t_mapping(t_uint256,t_mapping(t_address,t_uint256))": {
        "encoding": "mapping",
        "key": "t_uint256",
        "label": "mapping(uint256 => mapping(address => uint256))",
        "numberOfBytes": "32",
        "value": "t_mapping(t_address,t_uint256)"
      },
      "t_mapping(t_uint256,t_uint256)": {
        "encoding": "mapping",
        "key": "t_uint256",
        "label": "mapping(uint256 => uint256)",
        "numberOfBytes": "32",
        "value": "t_uint256"
      },
      "t_string_storage": {
        "encoding": "bytes",
        "label": "string",
        "numberOfBytes": "32"
      },
      "t_struct(AddressSet)4655_storage": {
        "encoding": "inplace",
        "label": "struct EnumerableSet.AddressSet",
        "members": [
          {
            "astId": 4654,
            "contract": "contracts/CarbonReceipt55.sol:CarbonReceipt55",
            "label": "_inner",
            "offset": 0,
            "slot": "0",
            "type": "t_struct(Set)4354_storage"
          }
        ],
        "numberOfBytes": "64"
      },
      "t_struct(ReceiptData)5059_storage": {
        "encoding": "inplace",
        "label": "struct CarbonReceipt55.ReceiptData",
        "members": [
          {
            "astId": 5052,
            "contract": "contracts/CarbonReceipt55.sol:CarbonReceipt55",
            "label": "originalTokenId",
            "offset": 0,
            "slot": "0",
            "type": "t_uint256"
          },
          {
            "astId": 5054,
            "contract": "contracts/CarbonReceipt55.sol:CarbonReceipt55",
            "label": "amount",
            "offset": 0,
            "slot": "1",
            "type": "t_uint256"
          },
          {
            "astId": 5056,
            "contract": "contracts/CarbonReceipt55.sol:CarbonReceipt55",
            "label": "blockNumber",
            "offset": 0,
            "slot": "2",
            "type": "t_uint256"
          },
          {
            "astId": 5058,
            "contract": "contracts/CarbonReceipt55.sol:CarbonReceipt55",
            "label": "blockTime",
            "offset": 0,
            "slot": "3",
            "type": "t_uint256"
          }
        ],
        "numberOfBytes": "128"
      },
      "t_struct(RoleData)19_storage": {
        "encoding": "inplace",
        "label": "struct AccessControl.RoleData",
        "members": [
          {
            "astId": 16,
            "contract": "contracts/CarbonReceipt55.sol:CarbonReceipt55",
            "label": "members",
            "offset": 0,
            "slot": "0",
            "type": "t_mapping(t_address,t_bool)"
          },
          {
            "astId": 18,
            "contract": "contracts/CarbonReceipt55.sol:CarbonReceipt55",
            "label": "adminRole",
            "offset": 0,
            "slot": "1",
            "type": "t_bytes32"
          }
        ],
        "numberOfBytes": "64"
      },
      "t_struct(Set)4354_storage": {
        "encoding": "inplace",
        "label": "struct EnumerableSet.Set",
        "members": [
          {
            "astId": 4349,
            "contract": "contracts/CarbonReceipt55.sol:CarbonReceipt55",
            "label": "_values",
            "offset": 0,
            "slot": "0",
            "type": "t_array(t_bytes32)dyn_storage"
          },
          {
            "astId": 4353,
            "contract": "contracts/CarbonReceipt55.sol:CarbonReceipt55",
            "label": "_indexes",
            "offset": 0,
            "slot": "1",
            "type": "t_mapping(t_bytes32,t_uint256)"
          }
        ],
        "numberOfBytes": "64"
      },
      "t_uint256": {
        "encoding": "inplace",
        "label": "uint256",
        "numberOfBytes": "32"
      }
    }
  }
}