{
  "address": "0x7126A7BEBf57B17D472fA171fD443589569903C8",
  "abi": [
    {
      "inputs": [
        {
          "internalType": "string",
          "name": "name",
          "type": "string"
        },
        {
          "internalType": "string",
          "name": "symbol",
          "type": "string"
        }
      ],
      "stateMutability": "nonpayable",
      "type": "constructor"
    },
    {
      "anonymous": false,
      "inputs": [
        {
          "indexed": true,
          "internalType": "address",
          "name": "owner",
          "type": "address"
        },
        {
          "indexed": true,
          "internalType": "address",
          "name": "spender",
          "type": "address"
        },
        {
          "indexed": false,
          "internalType": "uint256",
          "name": "value",
          "type": "uint256"
        }
      ],
      "name": "Approval",
      "type": "event"
    },
    {
      "anonymous": false,
      "inputs": [
        {
          "indexed": false,
          "internalType": "address",
          "name": "account",
          "type": "address"
        }
      ],
      "name": "Paused",
      "type": "event"
    },
    {
      "anonymous": false,
      "inputs": [
        {
          "indexed": true,
          "internalType": "bytes32",
          "name": "role",
          "type": "bytes32"
        },
        {
          "indexed": true,
          "internalType": "bytes32",
          "name": "previousAdminRole",
          "type": "bytes32"
        },
        {
          "indexed": true,
          "internalType": "bytes32",
          "name": "newAdminRole",
          "type": "bytes32"
        }
      ],
      "name": "RoleAdminChanged",
      "type": "event"
    },
    {
      "anonymous": false,
      "inputs": [
        {
          "indexed": true,
          "internalType": "bytes32",
          "name": "role",
          "type": "bytes32"
        },
        {
          "indexed": true,
          "internalType": "address",
          "name": "account",
          "type": "address"
        },
        {
          "indexed": true,
          "internalType": "address",
          "name": "sender",
          "type": "address"
        }
      ],
      "name": "RoleGranted",
      "type": "event"
    },
    {
      "anonymous": false,
      "inputs": [
        {
          "indexed": true,
          "internalType": "bytes32",
          "name": "role",
          "type": "bytes32"
        },
        {
          "indexed": true,
          "internalType": "address",
          "name": "account",
          "type": "address"
        },
        {
          "indexed": true,
          "internalType": "address",
          "name": "sender",
          "type": "address"
        }
      ],
      "name": "RoleRevoked",
      "type": "event"
    },
    {
      "anonymous": false,
      "inputs": [
        {
          "indexed": true,
          "internalType": "address",
          "name": "from",
          "type": "address"
        },
        {
          "indexed": true,
          "internalType": "address",
          "name": "to",
          "type": "address"
        },
        {
          "indexed": false,
          "internalType": "uint256",
          "name": "value",
          "type": "uint256"
        }
      ],
      "name": "Transfer",
      "type": "event"
    },
    {
      "anonymous": false,
      "inputs": [
        {
          "indexed": false,
          "internalType": "address",
          "name": "account",
          "type": "address"
        }
      ],
      "name": "Unpaused",
      "type": "event"
    },
    {
      "inputs": [],
      "name": "DEFAULT_ADMIN_ROLE",
      "outputs": [
        {
          "internalType": "bytes32",
          "name": "",
          "type": "bytes32"
        }
      ],
      "stateMutability": "view",
      "type": "function"
    },
    {
      "inputs": [],
      "name": "MINTER_ROLE",
      "outputs": [
        {
          "internalType": "bytes32",
          "name": "",
          "type": "bytes32"
        }
      ],
      "stateMutability": "view",
      "type": "function"
    },
    {
      "inputs": [],
      "name": "PAUSER_ROLE",
      "outputs": [
        {
          "internalType": "bytes32",
          "name": "",
          "type": "bytes32"
        }
      ],
      "stateMutability": "view",
      "type": "function"
    },
    {
      "inputs": [
        {
          "internalType": "address",
          "name": "owner",
          "type": "address"
        },
        {
          "internalType": "address",
          "name": "spender",
          "type": "address"
        }
      ],
      "name": "allowance",
      "outputs": [
        {
          "internalType": "uint256",
          "name": "",
          "type": "uint256"
        }
      ],
      "stateMutability": "view",
      "type": "function"
    },
    {
      "inputs": [
        {
          "internalType": "address",
          "name": "spender",
          "type": "address"
        },
        {
          "internalType": "uint256",
          "name": "amount",
          "type": "uint256"
        }
      ],
      "name": "approve",
      "outputs": [
        {
          "internalType": "bool",
          "name": "",
          "type": "bool"
        }
      ],
      "stateMutability": "nonpayable",
      "type": "function"
    },
    {
      "inputs": [
        {
          "internalType": "address",
          "name": "account",
          "type": "address"
        }
      ],
      "name": "balanceOf",
      "outputs": [
        {
          "internalType": "uint256",
          "name": "",
          "type": "uint256"
        }
      ],
      "stateMutability": "view",
      "type": "function"
    },
    {
      "inputs": [
        {
          "internalType": "address",
          "name": "to",
          "type": "address"
        },
        {
          "internalType": "uint256[]",
          "name": "tokenIds",
          "type": "uint256[]"
        },
        {
          "internalType": "uint256[]",
          "name": "amounts",
          "type": "uint256[]"
        },
        {
          "internalType": "uint256[]",
          "name": "",
          "type": "uint256[]"
        },
        {
          "internalType": "bytes",
          "name": "",
          "type": "bytes"
        }
      ],
      "name": "batchMintReceipt",
      "outputs": [],
      "stateMutability": "nonpayable",
      "type": "function"
    },
    {
      "inputs": [
        {
          "internalType": "uint256",
          "name": "amount",
          "type": "uint256"
        }
      ],
      "name": "burn",
      "outputs": [],
      "stateMutability": "nonpayable",
      "type": "function"
    },
    {
      "inputs": [
        {
          "internalType": "address",
          "name": "account",
          "type": "address"
        },
        {
          "internalType": "uint256",
          "name": "amount",
          "type": "uint256"
        }
      ],
      "name": "burnFrom",
      "outputs": [],
      "stateMutability": "nonpayable",
      "type": "function"
    },
    {
      "inputs": [],
      "name": "decimals",
      "outputs": [
        {
          "internalType": "uint8",
          "name": "",
          "type": "uint8"
        }
      ],
      "stateMutability": "view",
      "type": "function"
    },
    {
      "inputs": [
        {
          "internalType": "address",
          "name": "spender",
          "type": "address"
        },
        {
          "internalType": "uint256",
          "name": "subtractedValue",
          "type": "uint256"
        }
      ],
      "name": "decreaseAllowance",
      "outputs": [
        {
          "internalType": "bool",
          "name": "",
          "type": "bool"
        }
      ],
      "stateMutability": "nonpayable",
      "type": "function"
    },
    {
      "inputs": [
        {
          "internalType": "bytes32",
          "name": "role",
          "type": "bytes32"
        }
      ],
      "name": "getRoleAdmin",
      "outputs": [
        {
          "internalType": "bytes32",
          "name": "",
          "type": "bytes32"
        }
      ],
      "stateMutability": "view",
      "type": "function"
    },
    {
      "inputs": [
        {
          "internalType": "bytes32",
          "name": "role",
          "type": "bytes32"
        },
        {
          "internalType": "uint256",
          "name": "index",
          "type": "uint256"
        }
      ],
      "name": "getRoleMember",
      "outputs": [
        {
          "internalType": "address",
          "name": "",
          "type": "address"
        }
      ],
      "stateMutability": "view",
      "type": "function"
    },
    {
      "inputs": [
        {
          "internalType": "bytes32",
          "name": "role",
          "type": "bytes32"
        }
      ],
      "name": "getRoleMemberCount",
      "outputs": [
        {
          "internalType": "uint256",
          "name": "",
          "type": "uint256"
        }
      ],
      "stateMutability": "view",
      "type": "function"
    },
    {
      "inputs": [
        {
          "internalType": "bytes32",
          "name": "role",
          "type": "bytes32"
        },
        {
          "internalType": "address",
          "name": "account",
          "type": "address"
        }
      ],
      "name": "grantRole",
      "outputs": [],
      "stateMutability": "nonpayable",
      "type": "function"
    },
    {
      "inputs": [
        {
          "internalType": "bytes32",
          "name": "role",
          "type": "bytes32"
        },
        {
          "internalType": "address",
          "name": "account",
          "type": "address"
        }
      ],
      "name": "hasRole",
      "outputs": [
        {
          "internalType": "bool",
          "name": "",
          "type": "bool"
        }
      ],
      "stateMutability": "view",
      "type": "function"
    },
    {
      "inputs": [
        {
          "internalType": "address",
          "name": "spender",
          "type": "address"
        },
        {
          "internalType": "uint256",
          "name": "addedValue",
          "type": "uint256"
        }
      ],
      "name": "increaseAllowance",
      "outputs": [
        {
          "internalType": "bool",
          "name": "",
          "type": "bool"
        }
      ],
      "stateMutability": "nonpayable",
      "type": "function"
    },
    {
      "inputs": [
        {
          "internalType": "address",
          "name": "to",
          "type": "address"
        },
        {
          "internalType": "uint256",
          "name": "amount",
          "type": "uint256"
        }
      ],
      "name": "mint",
      "outputs": [],
      "stateMutability": "nonpayable",
      "type": "function"
    },
    {
      "inputs": [
        {
          "internalType": "address",
          "name": "to",
          "type": "address"
        },
        {
          "internalType": "uint256",
          "name": "",
          "type": "uint256"
        },
        {
          "internalType": "uint256",
          "name": "amount",
          "type": "uint256"
        },
        {
          "internalType": "uint256",
          "name": "",
          "type": "uint256"
        },
        {
          "internalType": "bytes",
          "name": "",
          "type": "bytes"
        }
      ],
      "name": "mintReceipt",
      "outputs": [],
      "stateMutability": "nonpayable",
      "type": "function"
    },
    {
      "inputs": [],
      "name": "name",
      "outputs": [
        {
          "internalType": "string",
          "name": "",
          "type": "string"
        }
      ],
      "stateMutability": "view",
      "type": "function"
    },
    {
      "inputs": [],
      "name": "pause",
      "outputs": [],
      "stateMutability": "nonpayable",
      "type": "function"
    },
    {
      "inputs": [],
      "name": "paused",
      "outputs": [
        {
          "internalType": "bool",
          "name": "",
          "type": "bool"
        }
      ],
      "stateMutability": "view",
      "type": "function"
    },
    {
      "inputs": [
        {
          "internalType": "bytes32",
          "name": "role",
          "type": "bytes32"
        },
        {
          "internalType": "address",
          "name": "account",
          "type": "address"
        }
      ],
      "name": "renounceRole",
      "outputs": [],
      "stateMutability": "nonpayable",
      "type": "function"
    },
    {
      "inputs": [
        {
          "internalType": "bytes32",
          "name": "role",
          "type": "bytes32"
        },
        {
          "internalType": "address",
          "name": "account",
          "type": "address"
        }
      ],
      "name": "revokeRole",
      "outputs": [],
      "stateMutability": "nonpayable",
      "type": "function"
    },
    {
      "inputs": [
        {
          "internalType": "bytes4",
          "name": "interfaceId",
          "type": "bytes4"
        }
      ],
      "name": "supportsInterface",
      "outputs": [
        {
          "internalType": "bool",
          "name": "",
          "type": "bool"
        }
      ],
      "stateMutability": "view",
      "type": "function"
    },
    {
      "inputs": [],
      "name": "symbol",
      "outputs": [
        {
          "internalType": "string",
          "name": "",
          "type": "string"
        }
      ],
      "stateMutability": "view",
      "type": "function"
    },
    {
      "inputs": [],
      "name": "totalSupply",
      "outputs": [
        {
          "internalType": "uint256",
          "name": "",
          "type": "uint256"
        }
      ],
      "stateMutability": "view",
      "type": "function"
    },
    {
      "inputs": [
        {
          "internalType": "address",
          "name": "to",
          "type": "address"
        },
        {
          "internalType": "uint256",
          "name": "amount",
          "type": "uint256"
        }
      ],
      "name": "transfer",
      "outputs": [
        {
          "internalType": "bool",
          "name": "",
          "type": "bool"
        }
      ],
      "stateMutability": "nonpayable",
      "type": "function"
    },
    {
      "inputs": [
        {
          "internalType": "address",
          "name": "from",
          "type": "address"
        },
        {
          "internalType": "address",
          "name": "to",
          "type": "address"
        },
        {
          "internalType": "uint256",
          "name": "amount",
          "type": "uint256"
        }
      ],
      "name": "transferFrom",
      "outputs": [
        {
          "internalType": "bool",
          "name": "",
          "type": "bool"
        }
      ],
      "stateMutability": "nonpayable",
      "type": "function"
    },
    {
      "inputs": [],
      "name": "unpause",
      "outputs": [],
      "stateMutability": "nonpayable",
      "type": "function"
    }
  ],
  "transactionHash": "0xac120b398d222e883c772f8ff8d68146587b636fbaea8c6790be1c3a3cac60f0",
  "args": [
    "CarbonX20",
    "CR20"
  ],
  "numDeployments": 3,
  "solcInputHash": "d5422413f3683c7ca62bb90967462287",
  "bytecode": "0x60806040523480156200001157600080fd5b5060405162002455380380620024558339810160408190526200003491620003a0565b8181818181600590805190602001906200005092919062000247565b5080516200006690600690602084019062000247565b50506007805460ff191690555062000080600033620000e2565b620000ac7f9f2df0fed2c77648de5860a4cc508cd0818c85b8b8a1ab4ceeef8d981c8956a633620000e2565b620000d87f65d7a28e3265b37a6474929f336521b332c1681b933f6cb9f3376673440d862a33620000e2565b505050506200045a565b620000ee8282620000f2565b5050565b6200010982826200013560201b62000ad11760201c565b60008281526001602090815260409091206200013091839062000b6f620001d5821b17901c565b505050565b6000828152602081815260408083206001600160a01b038516845290915290205460ff16620000ee576000828152602081815260408083206001600160a01b03851684529091529020805460ff19166001179055620001913390565b6001600160a01b0316816001600160a01b0316837f2f8788117e7eff1d82e926ec794901d17c78024a50270940304540a733656f0d60405160405180910390a45050565b6000620001ec836001600160a01b038416620001f5565b90505b92915050565b60008181526001830160205260408120546200023e57508154600181810184556000848152602080822090930184905584548482528286019093526040902091909155620001ef565b506000620001ef565b828054620002559062000407565b90600052602060002090601f016020900481019282620002795760008555620002c4565b82601f106200029457805160ff1916838001178555620002c4565b82800160010185558215620002c4579182015b82811115620002c4578251825591602001919060010190620002a7565b50620002d2929150620002d6565b5090565b5b80821115620002d25760008155600101620002d7565b600082601f830112620002fe578081fd5b81516001600160401b03808211156200031b576200031b62000444565b604051601f8301601f19908116603f0116810190828211818310171562000346576200034662000444565b8160405283815260209250868385880101111562000362578485fd5b8491505b8382101562000385578582018301518183018401529082019062000366565b838211156200039657848385830101525b9695505050505050565b60008060408385031215620003b3578182fd5b82516001600160401b0380821115620003ca578384fd5b620003d886838701620002ed565b93506020850151915080821115620003ee578283fd5b50620003fd85828601620002ed565b9150509250929050565b600181811c908216806200041c57607f821691505b602082108114156200043e57634e487b7160e01b600052602260045260246000fd5b50919050565b634e487b7160e01b600052604160045260246000fd5b611feb806200046a6000396000f3fe608060405234801561001057600080fd5b50600436106101da5760003560e01c80635c975abb11610104578063a217fddf116100a2578063d539139311610071578063d53913931461040f578063d547741f14610436578063dd62ed3e14610449578063e63ab1e91461048257600080fd5b8063a217fddf146103ce578063a457c2d7146103d6578063a9059cbb146103e9578063ca15c873146103fc57600080fd5b80638456cb59116100de5780638456cb591461035c5780639010d07c1461036457806391d148541461038f57806395d89b41146103c657600080fd5b80635c975abb1461031557806370a082311461032057806379cc67901461034957600080fd5b8063313ce5671161017c5780633f4ba83a1161014b5780633f4ba83a146102d457806340c10f19146102dc57806342966c68146102ef57806356b4e96c1461030257600080fd5b8063313ce5671461028c57806336568abe1461029b57806338b565f1146102ae57806339509351146102c157600080fd5b806318160ddd116101b857806318160ddd1461022f57806323b872dd14610241578063248a9ca3146102545780632f2ff15d1461027757600080fd5b806301ffc9a7146101df57806306fdde0314610207578063095ea7b31461021c575b600080fd5b6101f26101ed366004611c86565b6104a9565b60405190151581526020015b60405180910390f35b61020f6104ed565b6040516101fe9190611d50565b6101f261022a366004611ba6565b61057f565b6004545b6040519081526020016101fe565b6101f261024f366004611ab2565b610597565b610233610262366004611c2b565b60009081526020819052604090206001015490565b61028a610285366004611c43565b6105bb565b005b604051601281526020016101fe565b61028a6102a9366004611c43565b6105e5565b61028a6102bc366004611aed565b610676565b6101f26102cf366004611ba6565b6106cd565b61028a61070c565b61028a6102ea366004611ba6565b6107b2565b61028a6102fd366004611c2b565b610858565b61028a610310366004611bcf565b610865565b60075460ff166101f2565b61023361032e366004611a66565b6001600160a01b031660009081526002602052604090205490565b61028a610357366004611ba6565b6108f6565b61028a61090b565b610377610372366004611c65565b6109af565b6040516001600160a01b0390911681526020016101fe565b6101f261039d366004611c43565b6000918252602082815260408084206001600160a01b0393909316845291905290205460ff1690565b61020f6109ce565b610233600081565b6101f26103e4366004611ba6565b6109dd565b6101f26103f7366004611ba6565b610a87565b61023361040a366004611c2b565b610a95565b6102337f9f2df0fed2c77648de5860a4cc508cd0818c85b8b8a1ab4ceeef8d981c8956a681565b61028a610444366004611c43565b610aac565b610233610457366004611a80565b6001600160a01b03918216600090815260036020908152604080832093909416825291909152205490565b6102337f65d7a28e3265b37a6474929f336521b332c1681b933f6cb9f3376673440d862a81565b60006001600160e01b031982167f5a05180f0000000000000000000000000000000000000000000000000000000014806104e757506104e782610b84565b92915050565b6060600580546104fc90611f33565b80601f016020809104026020016040519081016040528092919081815260200182805461052890611f33565b80156105755780601f1061054a57610100808354040283529160200191610575565b820191906000526020600020905b81548152906001019060200180831161055857829003601f168201915b5050505050905090565b60003361058d818585610beb565b5060019392505050565b6000336105a5858285610d43565b6105b0858585610dd5565b506001949350505050565b6000828152602081905260409020600101546105d681610ff7565b6105e08383611001565b505050565b6001600160a01b03811633146106685760405162461bcd60e51b815260206004820152602f60248201527f416363657373436f6e74726f6c3a2063616e206f6e6c792072656e6f756e636560448201527f20726f6c657320666f722073656c66000000000000000000000000000000000060648201526084015b60405180910390fd5b6106728282611023565b5050565b60005b84518110156106c5576106b3868583815181106106a657634e487b7160e01b600052603260045260246000fd5b60200260200101516107b2565b806106bd81611f6e565b915050610679565b505050505050565b3360008181526003602090815260408083206001600160a01b038716845290915281205490919061058d9082908690610707908790611db4565b610beb565b6107367f65d7a28e3265b37a6474929f336521b332c1681b933f6cb9f3376673440d862a3361039d565b6107a85760405162461bcd60e51b815260206004820152603960248201527f45524332305072657365744d696e7465725061757365723a206d75737420686160448201527f76652070617573657220726f6c6520746f20756e706175736500000000000000606482015260840161065f565b6107b0611045565b565b6107dc7f9f2df0fed2c77648de5860a4cc508cd0818c85b8b8a1ab4ceeef8d981c8956a63361039d565b61084e5760405162461bcd60e51b815260206004820152603660248201527f45524332305072657365744d696e7465725061757365723a206d75737420686160448201527f7665206d696e74657220726f6c6520746f206d696e7400000000000000000000606482015260840161065f565b61067282826110e1565b61086233826111cc565b50565b6108ef85306001600160a01b031663313ce5676040518163ffffffff1660e01b815260040160206040518083038186803b1580156108a257600080fd5b505afa1580156108b6573d6000803e3d6000fd5b505050506040513d601f19601f820116820180604052508101906108da9190611cae565b6108e590600a611e0f565b6102ea9086611eba565b5050505050565b610901823383610d43565b61067282826111cc565b6109357f65d7a28e3265b37a6474929f336521b332c1681b933f6cb9f3376673440d862a3361039d565b6109a75760405162461bcd60e51b815260206004820152603760248201527f45524332305072657365744d696e7465725061757365723a206d75737420686160448201527f76652070617573657220726f6c6520746f207061757365000000000000000000606482015260840161065f565b6107b061135d565b60008281526001602052604081206109c790836113e5565b9392505050565b6060600680546104fc90611f33565b3360008181526003602090815260408083206001600160a01b038716845290915281205490919083811015610a7a5760405162461bcd60e51b815260206004820152602560248201527f45524332303a2064656372656173656420616c6c6f77616e63652062656c6f7760448201527f207a65726f000000000000000000000000000000000000000000000000000000606482015260840161065f565b6105b08286868403610beb565b60003361058d818585610dd5565b60008181526001602052604081206104e7906113f1565b600082815260208190526040902060010154610ac781610ff7565b6105e08383611023565b6000828152602081815260408083206001600160a01b038516845290915290205460ff16610672576000828152602081815260408083206001600160a01b03851684529091529020805460ff19166001179055610b2b3390565b6001600160a01b0316816001600160a01b0316837f2f8788117e7eff1d82e926ec794901d17c78024a50270940304540a733656f0d60405160405180910390a45050565b60006109c7836001600160a01b0384166113fb565b60006001600160e01b031982167f7965db0b0000000000000000000000000000000000000000000000000000000014806104e757507f01ffc9a7000000000000000000000000000000000000000000000000000000006001600160e01b03198316146104e7565b6001600160a01b038316610c665760405162461bcd60e51b8152602060048201526024808201527f45524332303a20617070726f76652066726f6d20746865207a65726f2061646460448201527f7265737300000000000000000000000000000000000000000000000000000000606482015260840161065f565b6001600160a01b038216610ce25760405162461bcd60e51b815260206004820152602260248201527f45524332303a20617070726f766520746f20746865207a65726f20616464726560448201527f7373000000000000000000000000000000000000000000000000000000000000606482015260840161065f565b6001600160a01b0383811660008181526003602090815260408083209487168084529482529182902085905590518481527f8c5be1e5ebec7d5bd14f71427d1e84f3dd0314c0f7b2291e5b200ac8c7c3b925910160405180910390a3505050565b6001600160a01b038381166000908152600360209081526040808320938616835292905220546000198114610dcf5781811015610dc25760405162461bcd60e51b815260206004820152601d60248201527f45524332303a20696e73756666696369656e7420616c6c6f77616e6365000000604482015260640161065f565b610dcf8484848403610beb565b50505050565b6001600160a01b038316610e515760405162461bcd60e51b815260206004820152602560248201527f45524332303a207472616e736665722066726f6d20746865207a65726f20616460448201527f6472657373000000000000000000000000000000000000000000000000000000606482015260840161065f565b6001600160a01b038216610ecd5760405162461bcd60e51b815260206004820152602360248201527f45524332303a207472616e7366657220746f20746865207a65726f206164647260448201527f6573730000000000000000000000000000000000000000000000000000000000606482015260840161065f565b610ed883838361144a565b6001600160a01b03831660009081526002602052604090205481811015610f675760405162461bcd60e51b815260206004820152602660248201527f45524332303a207472616e7366657220616d6f756e742065786365656473206260448201527f616c616e63650000000000000000000000000000000000000000000000000000606482015260840161065f565b6001600160a01b03808516600090815260026020526040808220858503905591851681529081208054849290610f9e908490611db4565b92505081905550826001600160a01b0316846001600160a01b03167fddf252ad1be2c89b69c2b068fc378daa952ba7f163c4a11628f55a4df523b3ef84604051610fea91815260200190565b60405180910390a3610dcf565b6108628133611455565b61100b8282610ad1565b60008281526001602052604090206105e09082610b6f565b61102d82826114d3565b60008281526001602052604090206105e09082611552565b60075460ff166110975760405162461bcd60e51b815260206004820152601460248201527f5061757361626c653a206e6f7420706175736564000000000000000000000000604482015260640161065f565b6007805460ff191690557f5db9ee0a495bf2e6ff9c91a7834c1ba4fdd244a5e8aa4e537bd38aeae4b073aa335b6040516001600160a01b03909116815260200160405180910390a1565b6001600160a01b0382166111375760405162461bcd60e51b815260206004820152601f60248201527f45524332303a206d696e7420746f20746865207a65726f206164647265737300604482015260640161065f565b6111436000838361144a565b80600460008282546111559190611db4565b90915550506001600160a01b03821660009081526002602052604081208054839290611182908490611db4565b90915550506040518181526001600160a01b038316906000907fddf252ad1be2c89b69c2b068fc378daa952ba7f163c4a11628f55a4df523b3ef9060200160405180910390a35050565b6001600160a01b0382166112485760405162461bcd60e51b815260206004820152602160248201527f45524332303a206275726e2066726f6d20746865207a65726f2061646472657360448201527f7300000000000000000000000000000000000000000000000000000000000000606482015260840161065f565b6112548260008361144a565b6001600160a01b038216600090815260026020526040902054818110156112e35760405162461bcd60e51b815260206004820152602260248201527f45524332303a206275726e20616d6f756e7420657863656564732062616c616e60448201527f6365000000000000000000000000000000000000000000000000000000000000606482015260840161065f565b6001600160a01b0383166000908152600260205260408120838303905560048054849290611312908490611ed9565b90915550506040518281526000906001600160a01b038516907fddf252ad1be2c89b69c2b068fc378daa952ba7f163c4a11628f55a4df523b3ef9060200160405180910390a3505050565b60075460ff16156113b05760405162461bcd60e51b815260206004820152601060248201527f5061757361626c653a2070617573656400000000000000000000000000000000604482015260640161065f565b6007805460ff191660011790557f62e78cea01bee320cd4e420270b5ea74000d11b0c9f74754ebdbfc544b05a2586110c43390565b60006109c78383611567565b60006104e7825490565b6000818152600183016020526040812054611442575081546001818101845560008481526020808220909301849055845484825282860190935260409020919091556104e7565b5060006104e7565b6105e083838361159f565b6000828152602081815260408083206001600160a01b038516845290915290205460ff1661067257611491816001600160a01b03166014611618565b61149c836020611618565b6040516020016114ad929190611ccf565b60408051601f198184030181529082905262461bcd60e51b825261065f91600401611d50565b6000828152602081815260408083206001600160a01b038516845290915290205460ff1615610672576000828152602081815260408083206001600160a01b0385168085529252808320805460ff1916905551339285917ff6391f5c32d9c69d2a47ea670b442974b53935d1edc7fd64eb21e047a839171b9190a45050565b60006109c7836001600160a01b03841661183f565b600082600001828154811061158c57634e487b7160e01b600052603260045260246000fd5b9060005260206000200154905092915050565b60075460ff16156105e05760405162461bcd60e51b815260206004820152602a60248201527f45524332305061757361626c653a20746f6b656e207472616e7366657220776860448201527f696c652070617573656400000000000000000000000000000000000000000000606482015260840161065f565b60606000611627836002611eba565b611632906002611db4565b67ffffffffffffffff81111561165857634e487b7160e01b600052604160045260246000fd5b6040519080825280601f01601f191660200182016040528015611682576020820181803683370190505b5090507f3000000000000000000000000000000000000000000000000000000000000000816000815181106116c757634e487b7160e01b600052603260045260246000fd5b60200101906001600160f81b031916908160001a9053507f78000000000000000000000000000000000000000000000000000000000000008160018151811061172057634e487b7160e01b600052603260045260246000fd5b60200101906001600160f81b031916908160001a9053506000611744846002611eba565b61174f906001611db4565b90505b60018111156117f0577f303132333435363738396162636465660000000000000000000000000000000085600f166010811061179e57634e487b7160e01b600052603260045260246000fd5b1a60f81b8282815181106117c257634e487b7160e01b600052603260045260246000fd5b60200101906001600160f81b031916908160001a90535060049490941c936117e981611f1c565b9050611752565b5083156109c75760405162461bcd60e51b815260206004820181905260248201527f537472696e67733a20686578206c656e67746820696e73756666696369656e74604482015260640161065f565b60008181526001830160205260408120548015611952576000611863600183611ed9565b855490915060009061187790600190611ed9565b90508181146118f85760008660000182815481106118a557634e487b7160e01b600052603260045260246000fd5b90600052602060002001549050808760000184815481106118d657634e487b7160e01b600052603260045260246000fd5b6000918252602080832090910192909255918252600188019052604090208390555b855486908061191757634e487b7160e01b600052603160045260246000fd5b6001900381819060005260206000200160009055905585600101600086815260200190815260200160002060009055600193505050506104e7565b60009150506104e7565b80356001600160a01b038116811461197357600080fd5b919050565b600082601f830112611988578081fd5b8135602067ffffffffffffffff8211156119a4576119a4611f9f565b8160051b6119b3828201611d83565b8381528281019086840183880185018910156119cd578687fd5b8693505b858410156119ef5780358352600193909301929184019184016119d1565b50979650505050505050565b600082601f830112611a0b578081fd5b813567ffffffffffffffff811115611a2557611a25611f9f565b611a38601f8201601f1916602001611d83565b818152846020838601011115611a4c578283fd5b816020850160208301379081016020019190915292915050565b600060208284031215611a77578081fd5b6109c78261195c565b60008060408385031215611a92578081fd5b611a9b8361195c565b9150611aa96020840161195c565b90509250929050565b600080600060608486031215611ac6578081fd5b611acf8461195c565b9250611add6020850161195c565b9150604084013590509250925092565b600080600080600060a08688031215611b04578081fd5b611b0d8661195c565b9450602086013567ffffffffffffffff80821115611b29578283fd5b611b3589838a01611978565b95506040880135915080821115611b4a578283fd5b611b5689838a01611978565b94506060880135915080821115611b6b578283fd5b611b7789838a01611978565b93506080880135915080821115611b8c578283fd5b50611b99888289016119fb565b9150509295509295909350565b60008060408385031215611bb8578182fd5b611bc18361195c565b946020939093013593505050565b600080600080600060a08688031215611be6578081fd5b611bef8661195c565b9450602086013593506040860135925060608601359150608086013567ffffffffffffffff811115611c1f578182fd5b611b99888289016119fb565b600060208284031215611c3c578081fd5b5035919050565b60008060408385031215611c55578182fd5b82359150611aa96020840161195c565b60008060408385031215611c77578182fd5b50508035926020909101359150565b600060208284031215611c97578081fd5b81356001600160e01b0319811681146109c7578182fd5b600060208284031215611cbf578081fd5b815160ff811681146109c7578182fd5b7f416363657373436f6e74726f6c3a206163636f756e7420000000000000000000815260008351611d07816017850160208801611ef0565b7f206973206d697373696e6720726f6c65200000000000000000000000000000006017918401918201528351611d44816028840160208801611ef0565b01602801949350505050565b6020815260008251806020840152611d6f816040850160208701611ef0565b601f01601f19169190910160400192915050565b604051601f8201601f1916810167ffffffffffffffff81118282101715611dac57611dac611f9f565b604052919050565b60008219821115611dc757611dc7611f89565b500190565b600181815b80851115611e07578160001904821115611ded57611ded611f89565b80851615611dfa57918102915b93841c9390800290611dd1565b509250929050565b60006109c760ff841683600082611e28575060016104e7565b81611e35575060006104e7565b8160018114611e4b5760028114611e5557611e71565b60019150506104e7565b60ff841115611e6657611e66611f89565b50506001821b6104e7565b5060208310610133831016604e8410600b8410161715611e94575081810a6104e7565b611e9e8383611dcc565b8060001904821115611eb257611eb2611f89565b029392505050565b6000816000190483118215151615611ed457611ed4611f89565b500290565b600082821015611eeb57611eeb611f89565b500390565b60005b83811015611f0b578181015183820152602001611ef3565b83811115610dcf5750506000910152565b600081611f2b57611f2b611f89565b506000190190565b600181811c90821680611f4757607f821691505b60208210811415611f6857634e487b7160e01b600052602260045260246000fd5b50919050565b6000600019821415611f8257611f82611f89565b5060010190565b634e487b7160e01b600052601160045260246000fd5b634e487b7160e01b600052604160045260246000fdfea2646970667358221220aa3156ef8c61c31c548b189e23c78a61001b6d82170237ab6b7a0f349bc2376964736f6c63430008040033",
  "devdoc": {
    "kind": "dev",
    "methods": {
      "allowance(address,address)": {
        "details": "See {IERC20-allowance}."
      },
      "approve(address,uint256)": {
        "details": "See {IERC20-approve}. NOTE: If `amount` is the maximum `uint256`, the allowance is not updated on `transferFrom`. This is semantically equivalent to an infinite approval. Requirements: - `spender` cannot be the zero address."
      },
      "balanceOf(address)": {
        "details": "See {IERC20-balanceOf}."
      },
      "burn(uint256)": {
        "details": "Destroys `amount` tokens from the caller. See {ERC20-_burn}."
      },
      "burnFrom(address,uint256)": {
        "details": "Destroys `amount` tokens from `account`, deducting from the caller's allowance. See {ERC20-_burn} and {ERC20-allowance}. Requirements: - the caller must have allowance for ``accounts``'s tokens of at least `amount`."
      },
      "decimals()": {
        "details": "Returns the number of decimals used to get its user representation. For example, if `decimals` equals `2`, a balance of `505` tokens should be displayed to a user as `5.05` (`505 / 10 ** 2`). Tokens usually opt for a value of 18, imitating the relationship between Ether and Wei. This is the value {ERC20} uses, unless this function is overridden; NOTE: This information is only used for _display_ purposes: it in no way affects any of the arithmetic of the contract, including {IERC20-balanceOf} and {IERC20-transfer}."
      },
      "decreaseAllowance(address,uint256)": {
        "details": "Atomically decreases the allowance granted to `spender` by the caller. This is an alternative to {approve} that can be used as a mitigation for problems described in {IERC20-approve}. Emits an {Approval} event indicating the updated allowance. Requirements: - `spender` cannot be the zero address. - `spender` must have allowance for the caller of at least `subtractedValue`."
      },
      "getRoleAdmin(bytes32)": {
        "details": "Returns the admin role that controls `role`. See {grantRole} and {revokeRole}. To change a role's admin, use {_setRoleAdmin}."
      },
      "getRoleMember(bytes32,uint256)": {
        "details": "Returns one of the accounts that have `role`. `index` must be a value between 0 and {getRoleMemberCount}, non-inclusive. Role bearers are not sorted in any particular way, and their ordering may change at any point. WARNING: When using {getRoleMember} and {getRoleMemberCount}, make sure you perform all queries on the same block. See the following https://forum.openzeppelin.com/t/iterating-over-elements-on-enumerableset-in-openzeppelin-contracts/2296[forum post] for more information."
      },
      "getRoleMemberCount(bytes32)": {
        "details": "Returns the number of accounts that have `role`. Can be used together with {getRoleMember} to enumerate all bearers of a role."
      },
      "grantRole(bytes32,address)": {
        "details": "Grants `role` to `account`. If `account` had not been already granted `role`, emits a {RoleGranted} event. Requirements: - the caller must have ``role``'s admin role."
      },
      "hasRole(bytes32,address)": {
        "details": "Returns `true` if `account` has been granted `role`."
      },
      "increaseAllowance(address,uint256)": {
        "details": "Atomically increases the allowance granted to `spender` by the caller. This is an alternative to {approve} that can be used as a mitigation for problems described in {IERC20-approve}. Emits an {Approval} event indicating the updated allowance. Requirements: - `spender` cannot be the zero address."
      },
      "mint(address,uint256)": {
        "details": "Creates `amount` new tokens for `to`. See {ERC20-_mint}. Requirements: - the caller must have the `MINTER_ROLE`."
      },
      "name()": {
        "details": "Returns the name of the token."
      },
      "pause()": {
        "details": "Pauses all token transfers. See {ERC20Pausable} and {Pausable-_pause}. Requirements: - the caller must have the `PAUSER_ROLE`."
      },
      "paused()": {
        "details": "Returns true if the contract is paused, and false otherwise."
      },
      "renounceRole(bytes32,address)": {
        "details": "Revokes `role` from the calling account. Roles are often managed via {grantRole} and {revokeRole}: this function's purpose is to provide a mechanism for accounts to lose their privileges if they are compromised (such as when a trusted device is misplaced). If the calling account had been revoked `role`, emits a {RoleRevoked} event. Requirements: - the caller must be `account`."
      },
      "revokeRole(bytes32,address)": {
        "details": "Revokes `role` from `account`. If `account` had been granted `role`, emits a {RoleRevoked} event. Requirements: - the caller must have ``role``'s admin role."
      },
      "supportsInterface(bytes4)": {
        "details": "See {IERC165-supportsInterface}."
      },
      "symbol()": {
        "details": "Returns the symbol of the token, usually a shorter version of the name."
      },
      "totalSupply()": {
        "details": "See {IERC20-totalSupply}."
      },
      "transfer(address,uint256)": {
        "details": "See {IERC20-transfer}. Requirements: - `to` cannot be the zero address. - the caller must have a balance of at least `amount`."
      },
      "transferFrom(address,address,uint256)": {
        "details": "See {IERC20-transferFrom}. Emits an {Approval} event indicating the updated allowance. This is not required by the EIP. See the note at the beginning of {ERC20}. NOTE: Does not update the allowance if the current allowance is the maximum `uint256`. Requirements: - `from` and `to` cannot be the zero address. - `from` must have a balance of at least `amount`. - the caller must have allowance for ``from``'s tokens of at least `amount`."
      },
      "unpause()": {
        "details": "Unpauses all token transfers. See {ERC20Pausable} and {Pausable-_unpause}. Requirements: - the caller must have the `PAUSER_ROLE`."
      }
    },
    "version": 1
  },
  "userdoc": {
    "kind": "user",
    "methods": {},
    "version": 1
  },
  "storageLayout": {
    "storage": [
      {
        "astId": 24,
        "contract": "contracts/CarbonReceipt20.sol:CarbonReceipt20",
        "label": "_roles",
        "offset": 0,
        "slot": "0",
        "type": "t_mapping(t_bytes32,t_struct(RoleData)19_storage)"
      },
      {
        "astId": 338,
        "contract": "contracts/CarbonReceipt20.sol:CarbonReceipt20",
        "label": "_roleMembers",
        "offset": 0,
        "slot": "1",
        "type": "t_mapping(t_bytes32,t_struct(AddressSet)4655_storage)"
      },
      {
        "astId": 2416,
        "contract": "contracts/CarbonReceipt20.sol:CarbonReceipt20",
        "label": "_balances",
        "offset": 0,
        "slot": "2",
        "type": "t_mapping(t_address,t_uint256)"
      },
      {
        "astId": 2422,
        "contract": "contracts/CarbonReceipt20.sol:CarbonReceipt20",
        "label": "_allowances",
        "offset": 0,
        "slot": "3",
        "type": "t_mapping(t_address,t_mapping(t_address,t_uint256))"
      },
      {
        "astId": 2424,
        "contract": "contracts/CarbonReceipt20.sol:CarbonReceipt20",
        "label": "_totalSupply",
        "offset": 0,
        "slot": "4",
        "type": "t_uint256"
      },
      {
        "astId": 2426,
        "contract": "contracts/CarbonReceipt20.sol:CarbonReceipt20",
        "label": "_name",
        "offset": 0,
        "slot": "5",
        "type": "t_string_storage"
      },
      {
        "astId": 2428,
        "contract": "contracts/CarbonReceipt20.sol:CarbonReceipt20",
        "label": "_symbol",
        "offset": 0,
        "slot": "6",
        "type": "t_string_storage"
      },
      {
        "astId": 665,
        "contract": "contracts/CarbonReceipt20.sol:CarbonReceipt20",
        "label": "_paused",
        "offset": 0,
        "slot": "7",
        "type": "t_bool"
      }
    ],
    "types": {
      "t_address": {
        "encoding": "inplace",
        "label": "address",
        "numberOfBytes": "20"
      },
      "t_array(t_bytes32)dyn_storage": {
        "base": "t_bytes32",
        "encoding": "dynamic_array",
        "label": "bytes32[]",
        "numberOfBytes": "32"
      },
      "t_bool": {
        "encoding": "inplace",
        "label": "bool",
        "numberOfBytes": "1"
      },
      "t_bytes32": {
        "encoding": "inplace",
        "label": "bytes32",
        "numberOfBytes": "32"
      },
      "t_mapping(t_address,t_bool)": {
        "encoding": "mapping",
        "key": "t_address",
        "label": "mapping(address => bool)",
        "numberOfBytes": "32",
        "value": "t_bool"
      },
      "t_mapping(t_address,t_mapping(t_address,t_uint256))": {
        "encoding": "mapping",
        "key": "t_address",
        "label": "mapping(address => mapping(address => uint256))",
        "numberOfBytes": "32",
        "value": "t_mapping(t_address,t_uint256)"
      },
      "t_mapping(t_address,t_uint256)": {
        "encoding": "mapping",
        "key": "t_address",
        "label": "mapping(address => uint256)",
        "numberOfBytes": "32",
        "value": "t_uint256"
      },
      "t_mapping(t_bytes32,t_struct(AddressSet)4655_storage)": {
        "encoding": "mapping",
        "key": "t_bytes32",
        "label": "mapping(bytes32 => struct EnumerableSet.AddressSet)",
        "numberOfBytes": "32",
        "value": "t_struct(AddressSet)4655_storage"
      },
      "t_mapping(t_bytes32,t_struct(RoleData)19_storage)": {
        "encoding": "mapping",
        "key": "t_bytes32",
        "label": "mapping(bytes32 => struct AccessControl.RoleData)",
        "numberOfBytes": "32",
        "value": "t_struct(RoleData)19_storage"
      },
      "t_mapping(t_bytes32,t_uint256)": {
        "encoding": "mapping",
        "key": "t_bytes32",
        "label": "mapping(bytes32 => uint256)",
        "numberOfBytes": "32",
        "value": "t_uint256"
      },
      "t_string_storage": {
        "encoding": "bytes",
        "label": "string",
        "numberOfBytes": "32"
      },
      "t_struct(AddressSet)4655_storage": {
        "encoding": "inplace",
        "label": "struct EnumerableSet.AddressSet",
        "members": [
          {
            "astId": 4654,
            "contract": "contracts/CarbonReceipt20.sol:CarbonReceipt20",
            "label": "_inner",
            "offset": 0,
            "slot": "0",
            "type": "t_struct(Set)4354_storage"
          }
        ],
        "numberOfBytes": "64"
      },
      "t_struct(RoleData)19_storage": {
        "encoding": "inplace",
        "label": "struct AccessControl.RoleData",
        "members": [
          {
            "astId": 16,
            "contract": "contracts/CarbonReceipt20.sol:CarbonReceipt20",
            "label": "members",
            "offset": 0,
            "slot": "0",
            "type": "t_mapping(t_address,t_bool)"
          },
          {
            "astId": 18,
            "contract": "contracts/CarbonReceipt20.sol:CarbonReceipt20",
            "label": "adminRole",
            "offset": 0,
            "slot": "1",
            "type": "t_bytes32"
          }
        ],
        "numberOfBytes": "64"
      },
      "t_struct(Set)4354_storage": {
        "encoding": "inplace",
        "label": "struct EnumerableSet.Set",
        "members": [
          {
            "astId": 4349,
            "contract": "contracts/CarbonReceipt20.sol:CarbonReceipt20",
            "label": "_values",
            "offset": 0,
            "slot": "0",
            "type": "t_array(t_bytes32)dyn_storage"
          },
          {
            "astId": 4353,
            "contract": "contracts/CarbonReceipt20.sol:CarbonReceipt20",
            "label": "_indexes",
            "offset": 0,
            "slot": "1",
            "type": "t_mapping(t_bytes32,t_uint256)"
          }
        ],
        "numberOfBytes": "64"
      },
      "t_uint256": {
        "encoding": "inplace",
        "label": "uint256",
        "numberOfBytes": "32"
      }
    }
  }
}