{
  "address": "0x55e1Cded5fa06c0BAf5d2d977C2AF7927C00411F",
  "abi": [
    {
      "inputs": [
        {
          "internalType": "string",
          "name": "name_",
          "type": "string"
        },
        {
          "internalType": "string",
          "name": "symbol_",
          "type": "string"
        }
      ],
      "stateMutability": "nonpayable",
      "type": "constructor"
    },
    {
      "inputs": [
        {
          "internalType": "address",
          "name": "operator",
          "type": "address"
        }
      ],
      "name": "ErrMinterRoleRequired",
      "type": "error"
    },
    {
      "anonymous": false,
      "inputs": [
        {
          "indexed": true,
          "internalType": "address",
          "name": "account",
          "type": "address"
        },
        {
          "indexed": true,
          "internalType": "address",
          "name": "operator",
          "type": "address"
        },
        {
          "indexed": false,
          "internalType": "bool",
          "name": "approved",
          "type": "bool"
        }
      ],
      "name": "ApprovalForAll",
      "type": "event"
    },
    {
      "anonymous": false,
      "inputs": [
        {
          "indexed": true,
          "internalType": "bytes32",
          "name": "role",
          "type": "bytes32"
        },
        {
          "indexed": true,
          "internalType": "bytes32",
          "name": "previousAdminRole",
          "type": "bytes32"
        },
        {
          "indexed": true,
          "internalType": "bytes32",
          "name": "newAdminRole",
          "type": "bytes32"
        }
      ],
      "name": "RoleAdminChanged",
      "type": "event"
    },
    {
      "anonymous": false,
      "inputs": [
        {
          "indexed": true,
          "internalType": "bytes32",
          "name": "role",
          "type": "bytes32"
        },
        {
          "indexed": true,
          "internalType": "address",
          "name": "account",
          "type": "address"
        },
        {
          "indexed": true,
          "internalType": "address",
          "name": "sender",
          "type": "address"
        }
      ],
      "name": "RoleGranted",
      "type": "event"
    },
    {
      "anonymous": false,
      "inputs": [
        {
          "indexed": true,
          "internalType": "bytes32",
          "name": "role",
          "type": "bytes32"
        },
        {
          "indexed": true,
          "internalType": "address",
          "name": "account",
          "type": "address"
        },
        {
          "indexed": true,
          "internalType": "address",
          "name": "sender",
          "type": "address"
        }
      ],
      "name": "RoleRevoked",
      "type": "event"
    },
    {
      "anonymous": false,
      "inputs": [
        {
          "indexed": true,
          "internalType": "address",
          "name": "operator",
          "type": "address"
        },
        {
          "indexed": true,
          "internalType": "address",
          "name": "from",
          "type": "address"
        },
        {
          "indexed": true,
          "internalType": "address",
          "name": "to",
          "type": "address"
        },
        {
          "indexed": false,
          "internalType": "uint256[]",
          "name": "ids",
          "type": "uint256[]"
        },
        {
          "indexed": false,
          "internalType": "uint256[]",
          "name": "values",
          "type": "uint256[]"
        }
      ],
      "name": "TransferBatch",
      "type": "event"
    },
    {
      "anonymous": false,
      "inputs": [
        {
          "indexed": true,
          "internalType": "address",
          "name": "operator",
          "type": "address"
        },
        {
          "indexed": true,
          "internalType": "address",
          "name": "from",
          "type": "address"
        },
        {
          "indexed": true,
          "internalType": "address",
          "name": "to",
          "type": "address"
        },
        {
          "indexed": false,
          "internalType": "uint256",
          "name": "id",
          "type": "uint256"
        },
        {
          "indexed": false,
          "internalType": "uint256",
          "name": "value",
          "type": "uint256"
        }
      ],
      "name": "TransferSingle",
      "type": "event"
    },
    {
      "anonymous": false,
      "inputs": [
        {
          "indexed": false,
          "internalType": "string",
          "name": "value",
          "type": "string"
        },
        {
          "indexed": true,
          "internalType": "uint256",
          "name": "id",
          "type": "uint256"
        }
      ],
      "name": "URI",
      "type": "event"
    },
    {
      "inputs": [],
      "name": "DEFAULT_ADMIN_ROLE",
      "outputs": [
        {
          "internalType": "bytes32",
          "name": "",
          "type": "bytes32"
        }
      ],
      "stateMutability": "view",
      "type": "function"
    },
    {
      "inputs": [],
      "name": "MINTER_ROLE",
      "outputs": [
        {
          "internalType": "bytes32",
          "name": "",
          "type": "bytes32"
        }
      ],
      "stateMutability": "view",
      "type": "function"
    },
    {
      "inputs": [],
      "name": "PAUSER_ROLE",
      "outputs": [
        {
          "internalType": "bytes32",
          "name": "",
          "type": "bytes32"
        }
      ],
      "stateMutability": "view",
      "type": "function"
    },
    {
      "inputs": [
        {
          "internalType": "address",
          "name": "account",
          "type": "address"
        },
        {
          "internalType": "uint256",
          "name": "id",
          "type": "uint256"
        }
      ],
      "name": "balanceOf",
      "outputs": [
        {
          "internalType": "uint256",
          "name": "",
          "type": "uint256"
        }
      ],
      "stateMutability": "view",
      "type": "function"
    },
    {
      "inputs": [
        {
          "internalType": "address[]",
          "name": "accounts",
          "type": "address[]"
        },
        {
          "internalType": "uint256[]",
          "name": "ids",
          "type": "uint256[]"
        }
      ],
      "name": "balanceOfBatch",
      "outputs": [
        {
          "internalType": "uint256[]",
          "name": "",
          "type": "uint256[]"
        }
      ],
      "stateMutability": "view",
      "type": "function"
    },
    {
      "inputs": [
        {
          "internalType": "address",
          "name": "to",
          "type": "address"
        },
        {
          "internalType": "uint256[]",
          "name": "tokenIds",
          "type": "uint256[]"
        },
        {
          "internalType": "uint256[]",
          "name": "amounts",
          "type": "uint256[]"
        },
        {
          "internalType": "uint256[]",
          "name": "originalTokenIds",
          "type": "uint256[]"
        },
        {
          "internalType": "bytes",
          "name": "data",
          "type": "bytes"
        }
      ],
      "name": "batchMintReceipt",
      "outputs": [],
      "stateMutability": "nonpayable",
      "type": "function"
    },
    {
      "inputs": [
        {
          "internalType": "address",
          "name": "account",
          "type": "address"
        },
        {
          "internalType": "uint256",
          "name": "id",
          "type": "uint256"
        },
        {
          "internalType": "uint256",
          "name": "value",
          "type": "uint256"
        }
      ],
      "name": "burn",
      "outputs": [],
      "stateMutability": "nonpayable",
      "type": "function"
    },
    {
      "inputs": [
        {
          "internalType": "address",
          "name": "account",
          "type": "address"
        },
        {
          "internalType": "uint256[]",
          "name": "ids",
          "type": "uint256[]"
        },
        {
          "internalType": "uint256[]",
          "name": "values",
          "type": "uint256[]"
        }
      ],
      "name": "burnBatch",
      "outputs": [],
      "stateMutability": "nonpayable",
      "type": "function"
    },
    {
      "inputs": [
        {
          "internalType": "address",
          "name": "minter",
          "type": "address"
        }
      ],
      "name": "delegatePermissionsTo",
      "outputs": [],
      "stateMutability": "nonpayable",
      "type": "function"
    },
    {
      "inputs": [
        {
          "internalType": "uint256",
          "name": "id",
          "type": "uint256"
        }
      ],
      "name": "exists",
      "outputs": [
        {
          "internalType": "bool",
          "name": "",
          "type": "bool"
        }
      ],
      "stateMutability": "view",
      "type": "function"
    },
    {
      "inputs": [
        {
          "internalType": "bytes32",
          "name": "role",
          "type": "bytes32"
        }
      ],
      "name": "getRoleAdmin",
      "outputs": [
        {
          "internalType": "bytes32",
          "name": "",
          "type": "bytes32"
        }
      ],
      "stateMutability": "view",
      "type": "function"
    },
    {
      "inputs": [
        {
          "internalType": "bytes32",
          "name": "role",
          "type": "bytes32"
        },
        {
          "internalType": "uint256",
          "name": "index",
          "type": "uint256"
        }
      ],
      "name": "getRoleMember",
      "outputs": [
        {
          "internalType": "address",
          "name": "",
          "type": "address"
        }
      ],
      "stateMutability": "view",
      "type": "function"
    },
    {
      "inputs": [
        {
          "internalType": "bytes32",
          "name": "role",
          "type": "bytes32"
        }
      ],
      "name": "getRoleMemberCount",
      "outputs": [
        {
          "internalType": "uint256",
          "name": "",
          "type": "uint256"
        }
      ],
      "stateMutability": "view",
      "type": "function"
    },
    {
      "inputs": [
        {
          "internalType": "bytes32",
          "name": "role",
          "type": "bytes32"
        },
        {
          "internalType": "address",
          "name": "account",
          "type": "address"
        }
      ],
      "name": "grantRole",
      "outputs": [],
      "stateMutability": "nonpayable",
      "type": "function"
    },
    {
      "inputs": [
        {
          "internalType": "bytes32",
          "name": "role",
          "type": "bytes32"
        },
        {
          "internalType": "address",
          "name": "account",
          "type": "address"
        }
      ],
      "name": "hasRole",
      "outputs": [
        {
          "internalType": "bool",
          "name": "",
          "type": "bool"
        }
      ],
      "stateMutability": "view",
      "type": "function"
    },
    {
      "inputs": [
        {
          "internalType": "address",
          "name": "account",
          "type": "address"
        },
        {
          "internalType": "address",
          "name": "operator",
          "type": "address"
        }
      ],
      "name": "isApprovedForAll",
      "outputs": [
        {
          "internalType": "bool",
          "name": "",
          "type": "bool"
        }
      ],
      "stateMutability": "view",
      "type": "function"
    },
    {
      "inputs": [
        {
          "internalType": "address",
          "name": "to",
          "type": "address"
        },
        {
          "internalType": "uint256",
          "name": "tokenId",
          "type": "uint256"
        },
        {
          "internalType": "uint256",
          "name": "amount",
          "type": "uint256"
        },
        {
          "internalType": "uint256",
          "name": "originalTokenId",
          "type": "uint256"
        },
        {
          "internalType": "bytes",
          "name": "data",
          "type": "bytes"
        }
      ],
      "name": "mintReceipt",
      "outputs": [],
      "stateMutability": "nonpayable",
      "type": "function"
    },
    {
      "inputs": [],
      "name": "name",
      "outputs": [
        {
          "internalType": "string",
          "name": "",
          "type": "string"
        }
      ],
      "stateMutability": "view",
      "type": "function"
    },
    {
      "inputs": [
        {
          "internalType": "uint256",
          "name": "tokenId",
          "type": "uint256"
        },
        {
          "internalType": "uint256",
          "name": "index",
          "type": "uint256"
        }
      ],
      "name": "receiptData",
      "outputs": [
        {
          "components": [
            {
              "internalType": "uint256",
              "name": "originalTokenId",
              "type": "uint256"
            },
            {
              "internalType": "uint256",
              "name": "amount",
              "type": "uint256"
            },
            {
              "internalType": "uint256",
              "name": "blockNumber",
              "type": "uint256"
            },
            {
              "internalType": "uint256",
              "name": "blockTime",
              "type": "uint256"
            }
          ],
          "internalType": "struct CarbonReceipt55.ReceiptData",
          "name": "",
          "type": "tuple"
        }
      ],
      "stateMutability": "view",
      "type": "function"
    },
    {
      "inputs": [
        {
          "internalType": "uint256",
          "name": "tokenId",
          "type": "uint256"
        }
      ],
      "name": "receiptDataCount",
      "outputs": [
        {
          "internalType": "uint256",
          "name": "",
          "type": "uint256"
        }
      ],
      "stateMutability": "view",
      "type": "function"
    },
    {
      "inputs": [
        {
          "internalType": "bytes32",
          "name": "role",
          "type": "bytes32"
        },
        {
          "internalType": "address",
          "name": "account",
          "type": "address"
        }
      ],
      "name": "renounceRole",
      "outputs": [],
      "stateMutability": "nonpayable",
      "type": "function"
    },
    {
      "inputs": [
        {
          "internalType": "bytes32",
          "name": "role",
          "type": "bytes32"
        },
        {
          "internalType": "address",
          "name": "account",
          "type": "address"
        }
      ],
      "name": "revokeRole",
      "outputs": [],
      "stateMutability": "nonpayable",
      "type": "function"
    },
    {
      "inputs": [
        {
          "internalType": "address",
          "name": "from",
          "type": "address"
        },
        {
          "internalType": "address",
          "name": "to",
          "type": "address"
        },
        {
          "internalType": "uint256[]",
          "name": "ids",
          "type": "uint256[]"
        },
        {
          "internalType": "uint256[]",
          "name": "amounts",
          "type": "uint256[]"
        },
        {
          "internalType": "bytes",
          "name": "data",
          "type": "bytes"
        }
      ],
      "name": "safeBatchTransferFrom",
      "outputs": [],
      "stateMutability": "nonpayable",
      "type": "function"
    },
    {
      "inputs": [
        {
          "internalType": "address",
          "name": "from",
          "type": "address"
        },
        {
          "internalType": "address",
          "name": "to",
          "type": "address"
        },
        {
          "internalType": "uint256",
          "name": "id",
          "type": "uint256"
        },
        {
          "internalType": "uint256",
          "name": "amount",
          "type": "uint256"
        },
        {
          "internalType": "bytes",
          "name": "data",
          "type": "bytes"
        }
      ],
      "name": "safeTransferFrom",
      "outputs": [],
      "stateMutability": "nonpayable",
      "type": "function"
    },
    {
      "inputs": [
        {
          "internalType": "address",
          "name": "operator",
          "type": "address"
        },
        {
          "internalType": "bool",
          "name": "approved",
          "type": "bool"
        }
      ],
      "name": "setApprovalForAll",
      "outputs": [],
      "stateMutability": "nonpayable",
      "type": "function"
    },
    {
      "inputs": [
        {
          "internalType": "bytes4",
          "name": "interfaceId",
          "type": "bytes4"
        }
      ],
      "name": "supportsInterface",
      "outputs": [
        {
          "internalType": "bool",
          "name": "",
          "type": "bool"
        }
      ],
      "stateMutability": "view",
      "type": "function"
    },
    {
      "inputs": [],
      "name": "symbol",
      "outputs": [
        {
          "internalType": "string",
          "name": "",
          "type": "string"
        }
      ],
      "stateMutability": "view",
      "type": "function"
    },
    {
      "inputs": [
        {
          "internalType": "uint256",
          "name": "id",
          "type": "uint256"
        }
      ],
      "name": "totalSupply",
      "outputs": [
        {
          "internalType": "uint256",
          "name": "",
          "type": "uint256"
        }
      ],
      "stateMutability": "view",
      "type": "function"
    },
    {
      "inputs": [
        {
          "internalType": "uint256",
          "name": "",
          "type": "uint256"
        }
      ],
      "name": "uri",
      "outputs": [
        {
          "internalType": "string",
          "name": "",
          "type": "string"
        }
      ],
      "stateMutability": "view",
      "type": "function"
    }
  ],
  "transactionHash": "0x271f94ac03011d2515356ced99a5c0dfac3dd89a83293cdb348ef7295e341456",
  "args": [
    "CarbonReceipt",
    "CR1"
  ],
  "numDeployments": 4,
  "solcInputHash": "ed37d04bb660df0f24cd1f969b2033b4",
  "bytecode": "0x60806040523480156200001157600080fd5b506040516200362e3803806200362e8339810160408190526200003491620003be565b60408051602081019091526000815260016002556200005381620000ed565b5081516200006990600790602085019062000261565b5080516200007f90600890602084019062000261565b506200008d60003362000106565b620000b97f9f2df0fed2c77648de5860a4cc508cd0818c85b8b8a1ab4ceeef8d981c8956a63362000106565b620000e57f65d7a28e3265b37a6474929f336521b332c1681b933f6cb9f3376673440d862a3362000106565b50506200047b565b80516200010290600590602084019062000261565b5050565b6200010282826200012382826200014f60201b62000ff81760201c565b60008281526001602090815260409091206200014a91839062001096620001ef821b17901c565b505050565b6000828152602081815260408083206001600160a01b038516845290915290205460ff1662000102576000828152602081815260408083206001600160a01b03851684529091529020805460ff19166001179055620001ab3390565b6001600160a01b0316816001600160a01b0316837f2f8788117e7eff1d82e926ec794901d17c78024a50270940304540a733656f0d60405160405180910390a45050565b600062000206836001600160a01b0384166200020f565b90505b92915050565b6000818152600183016020526040812054620002585750815460018181018455600084815260208082209093018490558454848252828601909352604090209190915562000209565b50600062000209565b8280546200026f9062000428565b90600052602060002090601f016020900481019282620002935760008555620002de565b82601f10620002ae57805160ff1916838001178555620002de565b82800160010185558215620002de579182015b82811115620002de578251825591602001919060010190620002c1565b50620002ec929150620002f0565b5090565b5b80821115620002ec5760008155600101620002f1565b600082601f8301126200031957600080fd5b81516001600160401b038082111562000336576200033662000465565b604051601f8301601f19908116603f0116810190828211818310171562000361576200036162000465565b816040528381526020925086838588010111156200037e57600080fd5b600091505b83821015620003a2578582018301518183018401529082019062000383565b83821115620003b45760008385830101525b9695505050505050565b60008060408385031215620003d257600080fd5b82516001600160401b0380821115620003ea57600080fd5b620003f88683870162000307565b935060208501519150808211156200040f57600080fd5b506200041e8582860162000307565b9150509250929050565b600181811c908216806200043d57607f821691505b602082108114156200045f57634e487b7160e01b600052602260045260246000fd5b50919050565b634e487b7160e01b600052604160045260246000fd5b6131a3806200048b6000396000f3fe608060405234801561001057600080fd5b50600436106101cd5760003560e01c80639010d07c11610104578063d5391393116100a2578063ec29788e11610071578063ec29788e14610491578063f242432a146104a4578063f316c25b146104b7578063f5298aca146104fd57600080fd5b8063d5391393146103f4578063d547741f1461041b578063e63ab1e91461042e578063e985e9c51461045557600080fd5b8063a217fddf116100de578063a217fddf146103a6578063a22cb465146103ae578063bd85b039146103c1578063ca15c873146103e157600080fd5b80639010d07c1461033c57806391d148541461036757806395d89b411461039e57600080fd5b80632f2ff15d116101715780634e1273f41161014b5780634e1273f4146102d45780634f558e79146102f457806356b4e96c146103165780636b20c4541461032957600080fd5b80632f2ff15d1461029b57806336568abe146102ae57806338b565f1146102c157600080fd5b806306fdde03116101ad57806306fdde031461023b5780630e89341c14610250578063248a9ca3146102635780632eb2c2d61461028657600080fd5b8062719405146101d2578062fdd58e1461020557806301ffc9a714610218575b600080fd5b6101f26101e0366004612c8e565b60009081526009602052604090205490565b6040519081526020015b60405180910390f35b6101f2610213366004612b0e565b610510565b61022b610226366004612cec565b6105be565b60405190151581526020016101fc565b610243610630565b6040516101fc9190612ef0565b61024361025e366004612c8e565b6106c2565b6101f2610271366004612c8e565b60009081526020819052604090206001015490565b6102996102943660046128ef565b610756565b005b6102996102a9366004612ca7565b6107f8565b6102996102bc366004612ca7565b610822565b6102996102cf366004612a72565b6108ae565b6102e76102e2366004612bbd565b610a55565b6040516101fc9190612eaf565b61022b610302366004612c8e565b600090815260066020526040902054151590565b610299610324366004612b6b565b610b93565b6102996103373660046129fe565b610c41565b61034f61034a366004612cca565b610cda565b6040516001600160a01b0390911681526020016101fc565b61022b610375366004612ca7565b6000918252602082815260408084206001600160a01b0393909316845291905290205460ff1690565b610243610cf9565b6101f2600081565b6102996103bc366004612ad2565b610d08565b6101f26103cf366004612c8e565b60009081526006602052604090205490565b6101f26103ef366004612c8e565b610d13565b6101f27f9f2df0fed2c77648de5860a4cc508cd0818c85b8b8a1ab4ceeef8d981c8956a681565b610299610429366004612ca7565b610d2a565b6101f27f65d7a28e3265b37a6474929f336521b332c1681b933f6cb9f3376673440d862a81565b61022b6104633660046128bc565b6001600160a01b03918216600090815260046020908152604080832093909416825291909152205460ff1690565b61029961049f3660046128a1565b610d4f565b6102996104b2366004612999565b610dd3565b6104ca6104c5366004612cca565b610e6e565b6040516101fc91908151815260208083015190820152604080830151908201526060918201519181019190915260800190565b61029961050b366004612b38565b610f5f565b60006001600160a01b0383166105935760405162461bcd60e51b815260206004820152602a60248201527f455243313135353a2061646472657373207a65726f206973206e6f742061207660448201527f616c6964206f776e65720000000000000000000000000000000000000000000060648201526084015b60405180910390fd5b5060008181526003602090815260408083206001600160a01b03861684529091529020545b92915050565b60006001600160e01b031982167fd9b67a2600000000000000000000000000000000000000000000000000000000148061062157506001600160e01b031982167f5bfad1a800000000000000000000000000000000000000000000000000000000145b806105b857506105b8826110ab565b60606007805461063f90612fb8565b80601f016020809104026020016040519081016040528092919081815260200182805461066b90612fb8565b80156106b85780601f1061068d576101008083540402835291602001916106b8565b820191906000526020600020905b81548152906001019060200180831161069b57829003601f168201915b5050505050905090565b6060600580546106d190612fb8565b80601f01602080910402602001604051908101604052809291908181526020018280546106fd90612fb8565b801561074a5780601f1061071f5761010080835404028352916020019161074a565b820191906000526020600020905b81548152906001019060200180831161072d57829003601f168201915b50505050509050919050565b6001600160a01b03851633148061077257506107728533610463565b6107e45760405162461bcd60e51b815260206004820152602e60248201527f455243313135353a2063616c6c6572206973206e6f7420746f6b656e206f776e60448201527f6572206f7220617070726f766564000000000000000000000000000000000000606482015260840161058a565b6107f1858585858561111d565b5050505050565b600082815260208190526040902060010154610813816113cc565b61081d83836113d9565b505050565b6001600160a01b03811633146108a05760405162461bcd60e51b815260206004820152602f60248201527f416363657373436f6e74726f6c3a2063616e206f6e6c792072656e6f756e636560448201527f20726f6c657320666f722073656c660000000000000000000000000000000000606482015260840161058a565b6108aa82826113fb565b5050565b6108d87f9f2df0fed2c77648de5860a4cc508cd0818c85b8b8a1ab4ceeef8d981c8956a633610375565b61091c57335b6040517fc4971c7e0000000000000000000000000000000000000000000000000000000081526001600160a01b03909116600482015260240161058a565b61092461141d565b60005b8451811015610a4a576000604051806080016040528085848151811061094f5761094f613067565b6020026020010151815260200186848151811061096e5761096e613067565b602002602001015181526020014381526020014281525090506009600087848151811061099d5761099d613067565b602090810291909101810151825281810192909252604090810160009081208054600181810183559183529184902085516004909302019182559284015192810192909255820151600282015560608201516003909101558551610a37908890889085908110610a0f57610a0f613067565b6020026020010151878581518110610a2957610a29613067565b602002602001015186611475565b5080610a4281613020565b915050610927565b506107f16001600255565b60608151835114610ace5760405162461bcd60e51b815260206004820152602960248201527f455243313135353a206163636f756e747320616e6420696473206c656e67746860448201527f206d69736d617463680000000000000000000000000000000000000000000000606482015260840161058a565b6000835167ffffffffffffffff811115610aea57610aea61307d565b604051908082528060200260200182016040528015610b13578160200160208202803683370190505b50905060005b8451811015610b8b57610b5e858281518110610b3757610b37613067565b6020026020010151858381518110610b5157610b51613067565b6020026020010151610510565b828281518110610b7057610b70613067565b6020908102919091010152610b8481613020565b9050610b19565b509392505050565b610bbd7f9f2df0fed2c77648de5860a4cc508cd0818c85b8b8a1ab4ceeef8d981c8956a633610375565b610bc757336108de565b610bcf61141d565b60408051608081018252838152602080820186815243838501908152426060850190815260008a815260098552958620805460018181018355918852949096208551600490950201938455915194830194909455925160028201559151600390920191909155610a4a86868685611475565b6001600160a01b038316331480610c5d5750610c5d8333610463565b610ccf5760405162461bcd60e51b815260206004820152602e60248201527f455243313135353a2063616c6c6572206973206e6f7420746f6b656e206f776e60448201527f6572206f7220617070726f766564000000000000000000000000000000000000606482015260840161058a565b61081d8383836115b6565b6000828152600160205260408120610cf29083611858565b9392505050565b60606008805461063f90612fb8565b6108aa338383611864565b60008181526001602052604081206105b890611959565b600082815260208190526040902060010154610d45816113cc565b61081d83836113fb565b6000610d5a816113cc565b610da97f9f2df0fed2c77648de5860a4cc508cd0818c85b8b8a1ab4ceeef8d981c8956a66104297f9f2df0fed2c77648de5860a4cc508cd0818c85b8b8a1ab4ceeef8d981c8956a66000610cda565b6108aa7f9f2df0fed2c77648de5860a4cc508cd0818c85b8b8a1ab4ceeef8d981c8956a6836113d9565b6001600160a01b038516331480610def5750610def8533610463565b610e615760405162461bcd60e51b815260206004820152602e60248201527f455243313135353a2063616c6c6572206973206e6f7420746f6b656e206f776e60448201527f6572206f7220617070726f766564000000000000000000000000000000000000606482015260840161058a565b6107f18585858585611963565b610e996040518060800160405280600081526020016000815260200160008152602001600081525090565b6000838152600960205260409020548210610ef65760405162461bcd60e51b815260206004820152601360248201527f496e646578206f7574206f6620426f756e647300000000000000000000000000604482015260640161058a565b6000838152600960205260409020805483908110610f1657610f16613067565b9060005260206000209060040201604051806080016040529081600082015481526020016001820154815260200160028201548152602001600382015481525050905092915050565b6001600160a01b038316331480610f7b5750610f7b8333610463565b610fed5760405162461bcd60e51b815260206004820152602e60248201527f455243313135353a2063616c6c6572206973206e6f7420746f6b656e206f776e60448201527f6572206f7220617070726f766564000000000000000000000000000000000000606482015260840161058a565b61081d838383611b4b565b6000828152602081815260408083206001600160a01b038516845290915290205460ff166108aa576000828152602081815260408083206001600160a01b03851684529091529020805460ff191660011790556110523390565b6001600160a01b0316816001600160a01b0316837f2f8788117e7eff1d82e926ec794901d17c78024a50270940304540a733656f0d60405160405180910390a45050565b6000610cf2836001600160a01b038416611d12565b60006001600160e01b031982167fd9b67a2600000000000000000000000000000000000000000000000000000000148061110e57506001600160e01b031982167f0e89341c00000000000000000000000000000000000000000000000000000000145b806105b857506105b882611d61565b81518351146111945760405162461bcd60e51b815260206004820152602860248201527f455243313135353a2069647320616e6420616d6f756e7473206c656e6774682060448201527f6d69736d61746368000000000000000000000000000000000000000000000000606482015260840161058a565b6001600160a01b0384166112105760405162461bcd60e51b815260206004820152602560248201527f455243313135353a207472616e7366657220746f20746865207a65726f20616460448201527f6472657373000000000000000000000000000000000000000000000000000000606482015260840161058a565b3361121f818787878787611d9f565b60005b845181101561135e57600085828151811061123f5761123f613067565b60200260200101519050600085838151811061125d5761125d613067565b60209081029190910181015160008481526003835260408082206001600160a01b038e1683529093529190912054909150818110156113045760405162461bcd60e51b815260206004820152602a60248201527f455243313135353a20696e73756666696369656e742062616c616e636520666f60448201527f72207472616e7366657200000000000000000000000000000000000000000000606482015260840161058a565b60008381526003602090815260408083206001600160a01b038e8116855292528083208585039055908b16825281208054849290611343908490612f27565b925050819055505050508061135790613020565b9050611222565b50846001600160a01b0316866001600160a01b0316826001600160a01b03167f4a39dc06d4c0dbc64b70af90fd698a233a518aa5d07e595d983b8c0526c8f7fb87876040516113ae929190612ec2565b60405180910390a46113c4818787878787611dad565b505050505050565b6113d68133611fa9565b50565b6113e38282610ff8565b600082815260016020526040902061081d9082611096565b611405828261201c565b600082815260016020526040902061081d908261209b565b60028054141561146f5760405162461bcd60e51b815260206004820152601f60248201527f5265656e7472616e637947756172643a207265656e7472616e742063616c6c00604482015260640161058a565b60028055565b6001600160a01b0384166114f15760405162461bcd60e51b815260206004820152602160248201527f455243313135353a206d696e7420746f20746865207a65726f2061646472657360448201527f7300000000000000000000000000000000000000000000000000000000000000606482015260840161058a565b3360006114fd856120b0565b9050600061150a856120b0565b905061151b83600089858589611d9f565b60008681526003602090815260408083206001600160a01b038b1684529091528120805487929061154d908490612f27565b909155505060408051878152602081018790526001600160a01b03808a1692600092918716917fc3d58168c5ae7397731d063d5bbf3d657854427343f4c083240f7aacaa2d0f62910160405180910390a46115ad836000898989896120fb565b50505050505050565b6001600160a01b0383166116325760405162461bcd60e51b815260206004820152602360248201527f455243313135353a206275726e2066726f6d20746865207a65726f206164647260448201527f6573730000000000000000000000000000000000000000000000000000000000606482015260840161058a565b80518251146116a95760405162461bcd60e51b815260206004820152602860248201527f455243313135353a2069647320616e6420616d6f756e7473206c656e6774682060448201527f6d69736d61746368000000000000000000000000000000000000000000000000606482015260840161058a565b60003390506116cc81856000868660405180602001604052806000815250611d9f565b60005b83518110156117e95760008482815181106116ec576116ec613067565b60200260200101519050600084838151811061170a5761170a613067565b60209081029190910181015160008481526003835260408082206001600160a01b038c1683529093529190912054909150818110156117b05760405162461bcd60e51b8152602060048201526024808201527f455243313135353a206275726e20616d6f756e7420657863656564732062616c60448201527f616e636500000000000000000000000000000000000000000000000000000000606482015260840161058a565b60009283526003602090815260408085206001600160a01b038b16865290915290922091039055806117e181613020565b9150506116cf565b5060006001600160a01b0316846001600160a01b0316826001600160a01b03167f4a39dc06d4c0dbc64b70af90fd698a233a518aa5d07e595d983b8c0526c8f7fb868660405161183a929190612ec2565b60405180910390a46040805160208101909152600090525b50505050565b6000610cf2838361224d565b816001600160a01b0316836001600160a01b031614156118ec5760405162461bcd60e51b815260206004820152602960248201527f455243313135353a2073657474696e6720617070726f76616c2073746174757360448201527f20666f722073656c660000000000000000000000000000000000000000000000606482015260840161058a565b6001600160a01b03838116600081815260046020908152604080832094871680845294825291829020805460ff191686151590811790915591519182527f17307eab39ab6107e8899845ad3d59bd9653f200f220920489ca2b5937696c31910160405180910390a3505050565b60006105b8825490565b6001600160a01b0384166119df5760405162461bcd60e51b815260206004820152602560248201527f455243313135353a207472616e7366657220746f20746865207a65726f20616460448201527f6472657373000000000000000000000000000000000000000000000000000000606482015260840161058a565b3360006119eb856120b0565b905060006119f8856120b0565b9050611a08838989858589611d9f565b60008681526003602090815260408083206001600160a01b038c16845290915290205485811015611aa15760405162461bcd60e51b815260206004820152602a60248201527f455243313135353a20696e73756666696369656e742062616c616e636520666f60448201527f72207472616e7366657200000000000000000000000000000000000000000000606482015260840161058a565b60008781526003602090815260408083206001600160a01b038d8116855292528083208985039055908a16825281208054889290611ae0908490612f27565b909155505060408051888152602081018890526001600160a01b03808b16928c821692918816917fc3d58168c5ae7397731d063d5bbf3d657854427343f4c083240f7aacaa2d0f62910160405180910390a4611b40848a8a8a8a8a6120fb565b505050505050505050565b6001600160a01b038316611bc75760405162461bcd60e51b815260206004820152602360248201527f455243313135353a206275726e2066726f6d20746865207a65726f206164647260448201527f6573730000000000000000000000000000000000000000000000000000000000606482015260840161058a565b336000611bd3846120b0565b90506000611be0846120b0565b9050611c0083876000858560405180602001604052806000815250611d9f565b60008581526003602090815260408083206001600160a01b038a16845290915290205484811015611c985760405162461bcd60e51b8152602060048201526024808201527f455243313135353a206275726e20616d6f756e7420657863656564732062616c60448201527f616e636500000000000000000000000000000000000000000000000000000000606482015260840161058a565b60008681526003602090815260408083206001600160a01b038b81168086529184528285208a8703905582518b81529384018a90529092908816917fc3d58168c5ae7397731d063d5bbf3d657854427343f4c083240f7aacaa2d0f62910160405180910390a46040805160208101909152600090526115ad565b6000818152600183016020526040812054611d59575081546001818101845560008481526020808220909301849055845484825282860190935260409020919091556105b8565b5060006105b8565b60006001600160e01b031982167f5a05180f0000000000000000000000000000000000000000000000000000000014806105b857506105b882612277565b6113c48686868686866122de565b6001600160a01b0384163b156113c4576040517fbc197c810000000000000000000000000000000000000000000000000000000081526001600160a01b0385169063bc197c8190611e0a9089908990889088908890600401612e0e565b602060405180830381600087803b158015611e2457600080fd5b505af1925050508015611e54575060408051601f3d908101601f19168201909252611e5191810190612d09565b60015b611f0a57611e60613093565b806308c379a01415611e9a5750611e756130af565b80611e805750611e9c565b8060405162461bcd60e51b815260040161058a9190612ef0565b505b60405162461bcd60e51b815260206004820152603460248201527f455243313135353a207472616e7366657220746f206e6f6e2d4552433131353560448201527f526563656976657220696d706c656d656e746572000000000000000000000000606482015260840161058a565b6001600160e01b031981167fbc197c8100000000000000000000000000000000000000000000000000000000146115ad5760405162461bcd60e51b815260206004820152602860248201527f455243313135353a204552433131353552656365697665722072656a6563746560448201527f6420746f6b656e73000000000000000000000000000000000000000000000000606482015260840161058a565b6000828152602081815260408083206001600160a01b038516845290915290205460ff166108aa57611fda8161246c565b611fe583602061247e565b604051602001611ff6929190612d8d565b60408051601f198184030181529082905262461bcd60e51b825261058a91600401612ef0565b6000828152602081815260408083206001600160a01b038516845290915290205460ff16156108aa576000828152602081815260408083206001600160a01b0385168085529252808320805460ff1916905551339285917ff6391f5c32d9c69d2a47ea670b442974b53935d1edc7fd64eb21e047a839171b9190a45050565b6000610cf2836001600160a01b0384166126a7565b604080516001808252818301909252606091600091906020808301908036833701905050905082816000815181106120ea576120ea613067565b602090810291909101015292915050565b6001600160a01b0384163b156113c4576040517ff23a6e610000000000000000000000000000000000000000000000000000000081526001600160a01b0385169063f23a6e61906121589089908990889088908890600401612e6c565b602060405180830381600087803b15801561217257600080fd5b505af19250505080156121a2575060408051601f3d908101601f1916820190925261219f91810190612d09565b60015b6121ae57611e60613093565b6001600160e01b031981167ff23a6e6100000000000000000000000000000000000000000000000000000000146115ad5760405162461bcd60e51b815260206004820152602860248201527f455243313135353a204552433131353552656365697665722072656a6563746560448201527f6420746f6b656e73000000000000000000000000000000000000000000000000606482015260840161058a565b600082600001828154811061226457612264613067565b9060005260206000200154905092915050565b60006001600160e01b031982167f7965db0b0000000000000000000000000000000000000000000000000000000014806105b857507f01ffc9a7000000000000000000000000000000000000000000000000000000006001600160e01b03198316146105b8565b6001600160a01b0385166123655760005b83518110156123635782818151811061230a5761230a613067565b60200260200101516006600086848151811061232857612328613067565b60200260200101518152602001908152602001600020600082825461234d9190612f27565b9091555061235c905081613020565b90506122ef565b505b6001600160a01b0384166113c45760005b83518110156115ad57600084828151811061239357612393613067565b6020026020010151905060008483815181106123b1576123b1613067565b60200260200101519050600060066000848152602001908152602001600020549050818110156124495760405162461bcd60e51b815260206004820152602860248201527f455243313135353a206275726e20616d6f756e74206578636565647320746f7460448201527f616c537570706c79000000000000000000000000000000000000000000000000606482015260840161058a565b6000928352600660205260409092209103905561246581613020565b9050612376565b60606105b86001600160a01b03831660145b6060600061248d836002612f3f565b612498906002612f27565b67ffffffffffffffff8111156124b0576124b061307d565b6040519080825280601f01601f1916602001820160405280156124da576020820181803683370190505b5090507f30000000000000000000000000000000000000000000000000000000000000008160008151811061251157612511613067565b60200101907effffffffffffffffffffffffffffffffffffffffffffffffffffffffffffff1916908160001a9053507f78000000000000000000000000000000000000000000000000000000000000008160018151811061257457612574613067565b60200101907effffffffffffffffffffffffffffffffffffffffffffffffffffffffffffff1916908160001a90535060006125b0846002612f3f565b6125bb906001612f27565b90505b6001811115612658577f303132333435363738396162636465660000000000000000000000000000000085600f16601081106125fc576125fc613067565b1a60f81b82828151811061261257612612613067565b60200101907effffffffffffffffffffffffffffffffffffffffffffffffffffffffffffff1916908160001a90535060049490941c9361265181612fa1565b90506125be565b508315610cf25760405162461bcd60e51b815260206004820181905260248201527f537472696e67733a20686578206c656e67746820696e73756666696369656e74604482015260640161058a565b600081815260018301602052604081205480156127905760006126cb600183612f5e565b85549091506000906126df90600190612f5e565b90508181146127445760008660000182815481106126ff576126ff613067565b906000526020600020015490508087600001848154811061272257612722613067565b6000918252602080832090910192909255918252600188019052604090208390555b855486908061275557612755613051565b6001900381819060005260206000200160009055905585600101600086815260200190815260200160002060009055600193505050506105b8565b60009150506105b8565b80356001600160a01b03811681146127b157600080fd5b919050565b600082601f8301126127c757600080fd5b813560206127d482612f03565b6040516127e18282612ff3565b8381528281019150858301600585901b8701840188101561280157600080fd5b60005b8581101561282057813584529284019290840190600101612804565b5090979650505050505050565b600082601f83011261283e57600080fd5b813567ffffffffffffffff8111156128585761285861307d565b60405161286f6020601f19601f8501160182612ff3565b81815284602083860101111561288457600080fd5b816020850160208301376000918101602001919091529392505050565b6000602082840312156128b357600080fd5b610cf28261279a565b600080604083850312156128cf57600080fd5b6128d88361279a565b91506128e66020840161279a565b90509250929050565b600080600080600060a0868803121561290757600080fd5b6129108661279a565b945061291e6020870161279a565b9350604086013567ffffffffffffffff8082111561293b57600080fd5b61294789838a016127b6565b9450606088013591508082111561295d57600080fd5b61296989838a016127b6565b9350608088013591508082111561297f57600080fd5b5061298c8882890161282d565b9150509295509295909350565b600080600080600060a086880312156129b157600080fd5b6129ba8661279a565b94506129c86020870161279a565b93506040860135925060608601359150608086013567ffffffffffffffff8111156129f257600080fd5b61298c8882890161282d565b600080600060608486031215612a1357600080fd5b612a1c8461279a565b9250602084013567ffffffffffffffff80821115612a3957600080fd5b612a45878388016127b6565b93506040860135915080821115612a5b57600080fd5b50612a68868287016127b6565b9150509250925092565b600080600080600060a08688031215612a8a57600080fd5b612a938661279a565b9450602086013567ffffffffffffffff80821115612ab057600080fd5b612abc89838a016127b6565b9550604088013591508082111561293b57600080fd5b60008060408385031215612ae557600080fd5b612aee8361279a565b915060208301358015158114612b0357600080fd5b809150509250929050565b60008060408385031215612b2157600080fd5b612b2a8361279a565b946020939093013593505050565b600080600060608486031215612b4d57600080fd5b612b568461279a565b95602085013595506040909401359392505050565b600080600080600060a08688031215612b8357600080fd5b612b8c8661279a565b9450602086013593506040860135925060608601359150608086013567ffffffffffffffff8111156129f257600080fd5b60008060408385031215612bd057600080fd5b823567ffffffffffffffff80821115612be857600080fd5b818501915085601f830112612bfc57600080fd5b81356020612c0982612f03565b604051612c168282612ff3565b8381528281019150858301600585901b870184018b1015612c3657600080fd5b600096505b84871015612c6057612c4c8161279a565b835260019690960195918301918301612c3b565b5096505086013592505080821115612c7757600080fd5b50612c84858286016127b6565b9150509250929050565b600060208284031215612ca057600080fd5b5035919050565b60008060408385031215612cba57600080fd5b823591506128e66020840161279a565b60008060408385031215612cdd57600080fd5b50508035926020909101359150565b600060208284031215612cfe57600080fd5b8135610cf281613157565b600060208284031215612d1b57600080fd5b8151610cf281613157565b600081518084526020808501945080840160005b83811015612d5657815187529582019590820190600101612d3a565b509495945050505050565b60008151808452612d79816020860160208601612f75565b601f01601f19169290920160200192915050565b7f416363657373436f6e74726f6c3a206163636f756e7420000000000000000000815260008351612dc5816017850160208801612f75565b7f206973206d697373696e6720726f6c65200000000000000000000000000000006017918401918201528351612e02816028840160208801612f75565b01602801949350505050565b60006001600160a01b03808816835280871660208401525060a06040830152612e3a60a0830186612d26565b8281036060840152612e4c8186612d26565b90508281036080840152612e608185612d61565b98975050505050505050565b60006001600160a01b03808816835280871660208401525084604083015283606083015260a06080830152612ea460a0830184612d61565b979650505050505050565b602081526000610cf26020830184612d26565b604081526000612ed56040830185612d26565b8281036020840152612ee78185612d26565b95945050505050565b602081526000610cf26020830184612d61565b600067ffffffffffffffff821115612f1d57612f1d61307d565b5060051b60200190565b60008219821115612f3a57612f3a61303b565b500190565b6000816000190483118215151615612f5957612f5961303b565b500290565b600082821015612f7057612f7061303b565b500390565b60005b83811015612f90578181015183820152602001612f78565b838111156118525750506000910152565b600081612fb057612fb061303b565b506000190190565b600181811c90821680612fcc57607f821691505b60208210811415612fed57634e487b7160e01b600052602260045260246000fd5b50919050565b601f19601f830116810181811067ffffffffffffffff821117156130195761301961307d565b6040525050565b60006000198214156130345761303461303b565b5060010190565b634e487b7160e01b600052601160045260246000fd5b634e487b7160e01b600052603160045260246000fd5b634e487b7160e01b600052603260045260246000fd5b634e487b7160e01b600052604160045260246000fd5b600060033d11156130ac5760046000803e5060005160e01c5b90565b600060443d10156130bd5790565b6040517ffffffffffffffffffffffffffffffffffffffffffffffffffffffffffffffffc803d016004833e81513d67ffffffffffffffff816024840111818411171561310b57505050505090565b82850191508151818111156131235750505050505090565b843d870101602082850101111561313d5750505050505090565b61314c60208286010187612ff3565b509095945050505050565b6001600160e01b0319811681146113d657600080fdfea26469706673582212206173ffec6473c6afba6c9184458d7939abbcdc4e8287b2f858dc0471c22c778264736f6c63430008060033",
  "devdoc": {
    "errors": {
      "ErrMinterRoleRequired(address)": [
        {
          "params": {
            "operator": "Operator needs minter role"
          }
        }
      ]
    },
    "kind": "dev",
    "methods": {
      "balanceOf(address,uint256)": {
        "details": "See {IERC1155-balanceOf}. Requirements: - `account` cannot be the zero address."
      },
      "balanceOfBatch(address[],uint256[])": {
        "details": "See {IERC1155-balanceOfBatch}. Requirements: - `accounts` and `ids` must have the same length."
      },
      "exists(uint256)": {
        "details": "Indicates whether any token exist with a given id, or not."
      },
      "getRoleAdmin(bytes32)": {
        "details": "Returns the admin role that controls `role`. See {grantRole} and {revokeRole}. To change a role's admin, use {_setRoleAdmin}."
      },
      "getRoleMember(bytes32,uint256)": {
        "details": "Returns one of the accounts that have `role`. `index` must be a value between 0 and {getRoleMemberCount}, non-inclusive. Role bearers are not sorted in any particular way, and their ordering may change at any point. WARNING: When using {getRoleMember} and {getRoleMemberCount}, make sure you perform all queries on the same block. See the following https://forum.openzeppelin.com/t/iterating-over-elements-on-enumerableset-in-openzeppelin-contracts/2296[forum post] for more information."
      },
      "getRoleMemberCount(bytes32)": {
        "details": "Returns the number of accounts that have `role`. Can be used together with {getRoleMember} to enumerate all bearers of a role."
      },
      "grantRole(bytes32,address)": {
        "details": "Grants `role` to `account`. If `account` had not been already granted `role`, emits a {RoleGranted} event. Requirements: - the caller must have ``role``'s admin role. May emit a {RoleGranted} event."
      },
      "hasRole(bytes32,address)": {
        "details": "Returns `true` if `account` has been granted `role`."
      },
      "isApprovedForAll(address,address)": {
        "details": "See {IERC1155-isApprovedForAll}."
      },
      "renounceRole(bytes32,address)": {
        "details": "Revokes `role` from the calling account. Roles are often managed via {grantRole} and {revokeRole}: this function's purpose is to provide a mechanism for accounts to lose their privileges if they are compromised (such as when a trusted device is misplaced). If the calling account had been revoked `role`, emits a {RoleRevoked} event. Requirements: - the caller must be `account`. May emit a {RoleRevoked} event."
      },
      "revokeRole(bytes32,address)": {
        "details": "Revokes `role` from `account`. If `account` had been granted `role`, emits a {RoleRevoked} event. Requirements: - the caller must have ``role``'s admin role. May emit a {RoleRevoked} event."
      },
      "safeBatchTransferFrom(address,address,uint256[],uint256[],bytes)": {
        "details": "See {IERC1155-safeBatchTransferFrom}."
      },
      "safeTransferFrom(address,address,uint256,uint256,bytes)": {
        "details": "See {IERC1155-safeTransferFrom}."
      },
      "setApprovalForAll(address,bool)": {
        "details": "See {IERC1155-setApprovalForAll}."
      },
      "supportsInterface(bytes4)": {
        "details": "See {IERC165-supportsInterface}."
      },
      "totalSupply(uint256)": {
        "details": "Total amount of tokens in with a given id."
      },
      "uri(uint256)": {
        "details": "See {IERC1155MetadataURI-uri}. This implementation returns the same URI for *all* token types. It relies on the token type ID substitution mechanism https://eips.ethereum.org/EIPS/eip-1155#metadata[defined in the EIP]. Clients calling this function must replace the `\\{id\\}` substring with the actual token type ID."
      }
    },
    "version": 1
  },
  "userdoc": {
    "errors": {
      "ErrMinterRoleRequired(address)": [
        {
          "notice": "`operator` must have minter role to mint"
        }
      ]
    },
    "kind": "user",
    "methods": {},
    "version": 1
  },
  "storageLayout": {
    "storage": [
      {
        "astId": 24,
        "contract": "contracts/CarbonReceipt55.sol:CarbonReceipt55",
        "label": "_roles",
        "offset": 0,
        "slot": "0",
        "type": "t_mapping(t_bytes32,t_struct(RoleData)19_storage)"
      },
      {
        "astId": 334,
        "contract": "contracts/CarbonReceipt55.sol:CarbonReceipt55",
        "label": "_roleMembers",
        "offset": 0,
        "slot": "1",
        "type": "t_mapping(t_bytes32,t_struct(AddressSet)5570_storage)"
      },
      {
        "astId": 770,
        "contract": "contracts/CarbonReceipt55.sol:CarbonReceipt55",
        "label": "_status",
        "offset": 0,
        "slot": "2",
        "type": "t_uint256"
      },
      {
        "astId": 839,
        "contract": "contracts/CarbonReceipt55.sol:CarbonReceipt55",
        "label": "_balances",
        "offset": 0,
        "slot": "3",
        "type": "t_mapping(t_uint256,t_mapping(t_address,t_uint256))"
      },
      {
        "astId": 845,
        "contract": "contracts/CarbonReceipt55.sol:CarbonReceipt55",
        "label": "_operatorApprovals",
        "offset": 0,
        "slot": "4",
        "type": "t_mapping(t_address,t_mapping(t_address,t_bool))"
      },
      {
        "astId": 847,
        "contract": "contracts/CarbonReceipt55.sol:CarbonReceipt55",
        "label": "_uri",
        "offset": 0,
        "slot": "5",
        "type": "t_string_storage"
      },
      {
        "astId": 2278,
        "contract": "contracts/CarbonReceipt55.sol:CarbonReceipt55",
        "label": "_totalSupply",
        "offset": 0,
        "slot": "6",
        "type": "t_mapping(t_uint256,t_uint256)"
      },
      {
        "astId": 6064,
        "contract": "contracts/CarbonReceipt55.sol:CarbonReceipt55",
        "label": "_name",
        "offset": 0,
        "slot": "7",
        "type": "t_string_storage"
      },
      {
        "astId": 6066,
        "contract": "contracts/CarbonReceipt55.sol:CarbonReceipt55",
        "label": "_symbol",
        "offset": 0,
        "slot": "8",
        "type": "t_string_storage"
      },
      {
        "astId": 6072,
        "contract": "contracts/CarbonReceipt55.sol:CarbonReceipt55",
        "label": "_receipts",
        "offset": 0,
        "slot": "9",
        "type": "t_mapping(t_uint256,t_array(t_struct(ReceiptData)6052_storage)dyn_storage)"
      }
    ],
    "types": {
      "t_address": {
        "encoding": "inplace",
        "label": "address",
        "numberOfBytes": "20"
      },
      "t_array(t_bytes32)dyn_storage": {
        "base": "t_bytes32",
        "encoding": "dynamic_array",
        "label": "bytes32[]",
        "numberOfBytes": "32"
      },
      "t_array(t_struct(ReceiptData)6052_storage)dyn_storage": {
        "base": "t_struct(ReceiptData)6052_storage",
        "encoding": "dynamic_array",
        "label": "struct CarbonReceipt55.ReceiptData[]",
        "numberOfBytes": "32"
      },
      "t_bool": {
        "encoding": "inplace",
        "label": "bool",
        "numberOfBytes": "1"
      },
      "t_bytes32": {
        "encoding": "inplace",
        "label": "bytes32",
        "numberOfBytes": "32"
      },
      "t_mapping(t_address,t_bool)": {
        "encoding": "mapping",
        "key": "t_address",
        "label": "mapping(address => bool)",
        "numberOfBytes": "32",
        "value": "t_bool"
      },
      "t_mapping(t_address,t_mapping(t_address,t_bool))": {
        "encoding": "mapping",
        "key": "t_address",
        "label": "mapping(address => mapping(address => bool))",
        "numberOfBytes": "32",
        "value": "t_mapping(t_address,t_bool)"
      },
      "t_mapping(t_address,t_uint256)": {
        "encoding": "mapping",
        "key": "t_address",
        "label": "mapping(address => uint256)",
        "numberOfBytes": "32",
        "value": "t_uint256"
      },
      "t_mapping(t_bytes32,t_struct(AddressSet)5570_storage)": {
        "encoding": "mapping",
        "key": "t_bytes32",
        "label": "mapping(bytes32 => struct EnumerableSet.AddressSet)",
        "numberOfBytes": "32",
        "value": "t_struct(AddressSet)5570_storage"
      },
      "t_mapping(t_bytes32,t_struct(RoleData)19_storage)": {
        "encoding": "mapping",
        "key": "t_bytes32",
        "label": "mapping(bytes32 => struct AccessControl.RoleData)",
        "numberOfBytes": "32",
        "value": "t_struct(RoleData)19_storage"
      },
      "t_mapping(t_bytes32,t_uint256)": {
        "encoding": "mapping",
        "key": "t_bytes32",
        "label": "mapping(bytes32 => uint256)",
        "numberOfBytes": "32",
        "value": "t_uint256"
      },
      "t_mapping(t_uint256,t_array(t_struct(ReceiptData)6052_storage)dyn_storage)": {
        "encoding": "mapping",
        "key": "t_uint256",
        "label": "mapping(uint256 => struct CarbonReceipt55.ReceiptData[])",
        "numberOfBytes": "32",
        "value": "t_array(t_struct(ReceiptData)6052_storage)dyn_storage"
      },
      "t_mapping(t_uint256,t_mapping(t_address,t_uint256))": {
        "encoding": "mapping",
        "key": "t_uint256",
        "label": "mapping(uint256 => mapping(address => uint256))",
        "numberOfBytes": "32",
        "value": "t_mapping(t_address,t_uint256)"
      },
      "t_mapping(t_uint256,t_uint256)": {
        "encoding": "mapping",
        "key": "t_uint256",
        "label": "mapping(uint256 => uint256)",
        "numberOfBytes": "32",
        "value": "t_uint256"
      },
      "t_string_storage": {
        "encoding": "bytes",
        "label": "string",
        "numberOfBytes": "32"
      },
      "t_struct(AddressSet)5570_storage": {
        "encoding": "inplace",
        "label": "struct EnumerableSet.AddressSet",
        "members": [
          {
            "astId": 5569,
            "contract": "contracts/CarbonReceipt55.sol:CarbonReceipt55",
            "label": "_inner",
            "offset": 0,
            "slot": "0",
            "type": "t_struct(Set)5255_storage"
          }
        ],
        "numberOfBytes": "64"
      },
      "t_struct(ReceiptData)6052_storage": {
        "encoding": "inplace",
        "label": "struct CarbonReceipt55.ReceiptData",
        "members": [
          {
            "astId": 6045,
            "contract": "contracts/CarbonReceipt55.sol:CarbonReceipt55",
            "label": "originalTokenId",
            "offset": 0,
            "slot": "0",
            "type": "t_uint256"
          },
          {
            "astId": 6047,
            "contract": "contracts/CarbonReceipt55.sol:CarbonReceipt55",
            "label": "amount",
            "offset": 0,
            "slot": "1",
            "type": "t_uint256"
          },
          {
            "astId": 6049,
            "contract": "contracts/CarbonReceipt55.sol:CarbonReceipt55",
            "label": "blockNumber",
            "offset": 0,
            "slot": "2",
            "type": "t_uint256"
          },
          {
            "astId": 6051,
            "contract": "contracts/CarbonReceipt55.sol:CarbonReceipt55",
            "label": "blockTime",
            "offset": 0,
            "slot": "3",
            "type": "t_uint256"
          }
        ],
        "numberOfBytes": "128"
      },
      "t_struct(RoleData)19_storage": {
        "encoding": "inplace",
        "label": "struct AccessControl.RoleData",
        "members": [
          {
            "astId": 16,
            "contract": "contracts/CarbonReceipt55.sol:CarbonReceipt55",
            "label": "members",
            "offset": 0,
            "slot": "0",
            "type": "t_mapping(t_address,t_bool)"
          },
          {
            "astId": 18,
            "contract": "contracts/CarbonReceipt55.sol:CarbonReceipt55",
            "label": "adminRole",
            "offset": 0,
            "slot": "1",
            "type": "t_bytes32"
          }
        ],
        "numberOfBytes": "64"
      },
      "t_struct(Set)5255_storage": {
        "encoding": "inplace",
        "label": "struct EnumerableSet.Set",
        "members": [
          {
            "astId": 5250,
            "contract": "contracts/CarbonReceipt55.sol:CarbonReceipt55",
            "label": "_values",
            "offset": 0,
            "slot": "0",
            "type": "t_array(t_bytes32)dyn_storage"
          },
          {
            "astId": 5254,
            "contract": "contracts/CarbonReceipt55.sol:CarbonReceipt55",
            "label": "_indexes",
            "offset": 0,
            "slot": "1",
            "type": "t_mapping(t_bytes32,t_uint256)"
          }
        ],
        "numberOfBytes": "64"
      },
      "t_uint256": {
        "encoding": "inplace",
        "label": "uint256",
        "numberOfBytes": "32"
      }
    }
  }
}