{
  "address": "0xDeBB0ea069065981FB8d2Cfa8451288671eFa853",
  "abi": [
    {
      "inputs": [
        {
          "internalType": "contract ICarbonReceipt",
          "name": "receiptToken_",
          "type": "address"
        },
        {
          "internalType": "contract ICarbonX",
          "name": "supportedToken",
          "type": "address"
        }
      ],
      "stateMutability": "nonpayable",
      "type": "constructor"
    },
    {
      "anonymous": false,
      "inputs": [
        {
          "indexed": true,
          "internalType": "uint256",
          "name": "tokenId",
          "type": "uint256"
        },
        {
          "indexed": false,
          "internalType": "uint256",
          "name": "amount",
          "type": "uint256"
        },
        {
          "indexed": true,
          "internalType": "address",
          "name": "from",
          "type": "address"
        },
        {
          "indexed": false,
          "internalType": "address",
          "name": "tokenAddress",
          "type": "address"
        },
        {
          "indexed": false,
          "internalType": "uint256",
          "name": "originalTokenId",
          "type": "uint256"
        }
      ],
      "name": "CarbonDeposited",
      "type": "event"
    },
    {
      "anonymous": false,
      "inputs": [
        {
          "indexed": true,
          "internalType": "address",
          "name": "previousOwner",
          "type": "address"
        },
        {
          "indexed": true,
          "internalType": "address",
          "name": "newOwner",
          "type": "address"
        }
      ],
      "name": "OwnershipTransferred",
      "type": "event"
    },
    {
      "anonymous": false,
      "inputs": [
        {
          "indexed": true,
          "internalType": "address",
          "name": "operator",
          "type": "address"
        },
        {
          "indexed": true,
          "internalType": "address",
          "name": "from",
          "type": "address"
        },
        {
          "indexed": true,
          "internalType": "address",
          "name": "to",
          "type": "address"
        },
        {
          "indexed": false,
          "internalType": "uint256",
          "name": "id",
          "type": "uint256"
        },
        {
          "indexed": false,
          "internalType": "uint256",
          "name": "value",
          "type": "uint256"
        }
      ],
      "name": "TransferSingle",
      "type": "event"
    },
    {
      "inputs": [
        {
          "internalType": "contract ICarbonX",
          "name": "supportedToken",
          "type": "address"
        }
      ],
      "name": "addSupportedToken",
      "outputs": [],
      "stateMutability": "nonpayable",
      "type": "function"
    },
    {
      "inputs": [],
      "name": "currentReceiptTokenId",
      "outputs": [
        {
          "internalType": "uint256",
          "name": "",
          "type": "uint256"
        }
      ],
      "stateMutability": "view",
      "type": "function"
    },
    {
      "inputs": [
        {
          "internalType": "address",
          "name": "operator",
          "type": "address"
        },
        {
          "internalType": "address",
          "name": "from",
          "type": "address"
        },
        {
          "internalType": "uint256[]",
          "name": "tokenIds",
          "type": "uint256[]"
        },
        {
          "internalType": "uint256[]",
          "name": "amounts",
          "type": "uint256[]"
        },
        {
          "internalType": "bytes",
          "name": "data",
          "type": "bytes"
        }
      ],
      "name": "onERC1155BatchReceived",
      "outputs": [
        {
          "internalType": "bytes4",
          "name": "",
          "type": "bytes4"
        }
      ],
      "stateMutability": "nonpayable",
      "type": "function"
    },
    {
      "inputs": [
        {
          "internalType": "address",
          "name": "operator",
          "type": "address"
        },
        {
          "internalType": "address",
          "name": "from",
          "type": "address"
        },
        {
          "internalType": "uint256",
          "name": "tokenId",
          "type": "uint256"
        },
        {
          "internalType": "uint256",
          "name": "amount",
          "type": "uint256"
        },
        {
          "internalType": "bytes",
          "name": "data",
          "type": "bytes"
        }
      ],
      "name": "onERC1155Received",
      "outputs": [
        {
          "internalType": "bytes4",
          "name": "",
          "type": "bytes4"
        }
      ],
      "stateMutability": "nonpayable",
      "type": "function"
    },
    {
      "inputs": [],
      "name": "owner",
      "outputs": [
        {
          "internalType": "address",
          "name": "",
          "type": "address"
        }
      ],
      "stateMutability": "view",
      "type": "function"
    },
    {
      "inputs": [
        {
          "internalType": "contract ICarbonX",
          "name": "supportedToken",
          "type": "address"
        }
      ],
      "name": "removeSupportedToken",
      "outputs": [],
      "stateMutability": "nonpayable",
      "type": "function"
    },
    {
      "inputs": [],
      "name": "renounceOwnership",
      "outputs": [],
      "stateMutability": "nonpayable",
      "type": "function"
    },
    {
      "inputs": [
        {
          "internalType": "bytes4",
          "name": "interfaceId",
          "type": "bytes4"
        }
      ],
      "name": "supportsInterface",
      "outputs": [
        {
          "internalType": "bool",
          "name": "",
          "type": "bool"
        }
      ],
      "stateMutability": "view",
      "type": "function"
    },
    {
      "inputs": [
        {
          "internalType": "address",
          "name": "token",
          "type": "address"
        }
      ],
      "name": "tokenIsSupported",
      "outputs": [
        {
          "internalType": "bool",
          "name": "",
          "type": "bool"
        }
      ],
      "stateMutability": "view",
      "type": "function"
    },
    {
      "inputs": [
        {
          "internalType": "address",
          "name": "newOwner",
          "type": "address"
        }
      ],
      "name": "transferOwnership",
      "outputs": [],
      "stateMutability": "nonpayable",
      "type": "function"
    }
  ],
  "transactionHash": "0xa8cc2f39422466bd514642ce59200fcfe36063032c465c522853c6a8978aac15",
  "args": [
    "0xECce91D1b232d855Ce88729a15452c94844E80Eb",
    "0xe607f3b6DDA27D5c6533Dea81D6904009fC0af22"
  ],
  "numDeployments": 3,
  "solcInputHash": "0b83fd30560fc4acc13e3ea1187deba1",
  "bytecode": "0x60806040523480156200001157600080fd5b506040516200127e3803806200127e833981016040819052620000349162000140565b6200003f336200006d565b600380546001600160a01b0319166001600160a01b0384161790556200006581620000bd565b505062000197565b600080546001600160a01b038381166001600160a01b0319831681178455604051919092169283917f8be0079c531659141344cd1fd0a4f28419497f9722a3daafe3b4186f6b6457e09190a35050565b6000546001600160a01b031633146200011c5760405162461bcd60e51b815260206004820181905260248201527f4f776e61626c653a2063616c6c6572206973206e6f7420746865206f776e6572604482015260640160405180910390fd5b6001600160a01b03166000908152600460205260409020805460ff19166001179055565b6000806040838503121562000153578182fd5b825162000160816200017e565b602084015190925062000173816200017e565b809150509250929050565b6001600160a01b03811681146200019457600080fd5b50565b6110d780620001a76000396000f3fe608060405234801561001057600080fd5b50600436106100be5760003560e01c80638da5cb5b11610076578063e70619501161005b578063e706195014610178578063f23a6e61146101a4578063f2fde38b146101b757600080fd5b80638da5cb5b14610131578063bc197c811461014c57600080fd5b80636d69fcaf116100a75780636d69fcaf14610101578063715018a614610116578063763191901461011e57600080fd5b806301ffc9a7146100c357806362889c69146100eb575b600080fd5b6100d66100d1366004610e24565b6101ca565b60405190151581526020015b60405180910390f35b6100f36101f5565b6040519081526020016100e2565b61011461010f366004610cd0565b610205565b005b610114610288565b61011461012c366004610cd0565b6102ee565b6000546040516001600160a01b0390911681526020016100e2565b61015f61015a366004610cf3565b610369565b6040516001600160e01b031990911681526020016100e2565b6100d6610186366004610cd0565b6001600160a01b031660009081526004602052604090205460ff1690565b61015f6101b2366004610d9d565b61066a565b6101146101c5366004610cd0565b6109e9565b60006001600160e01b031982166301ffc9a760e01b14806101ef57506101ef82610acb565b92915050565b600061020060015490565b905090565b6000546001600160a01b031633146102645760405162461bcd60e51b815260206004820181905260248201527f4f776e61626c653a2063616c6c6572206973206e6f7420746865206f776e657260448201526064015b60405180910390fd5b6001600160a01b03166000908152600460205260409020805460ff19166001179055565b6000546001600160a01b031633146102e25760405162461bcd60e51b815260206004820181905260248201527f4f776e61626c653a2063616c6c6572206973206e6f7420746865206f776e6572604482015260640161025b565b6102ec6000610b19565b565b6000546001600160a01b031633146103485760405162461bcd60e51b815260206004820181905260248201527f4f776e61626c653a2063616c6c6572206973206e6f7420746865206f776e6572604482015260640161025b565b6001600160a01b03166000908152600460205260409020805460ff19169055565b600061037433610186565b6103c05760405162461bcd60e51b815260206004820152601660248201527f546f6b656e206973206e6f7420737570706f7274656400000000000000000000604482015260640161025b565b6040516337e70f9960e21b8152339063df9c3e64906103eb9089908990899089908990600401610ee1565b602060405180830381600087803b15801561040557600080fd5b505af1925050508015610435575060408051601f3d908101601f1916820190925261043291810190610e04565b60015b6104eb57610441610fd4565b806308c379a0141561047b5750610456610fec565b80610461575061047d565b8060405162461bcd60e51b815260040161025b9190610f7e565b505b60405162461bcd60e51b815260206004820152603360248201527f436172626f6e5661756c743a207472616e7366657220746f206e6f742d636f6d60448201527f70617469626c6520696d706c656d656e74657200000000000000000000000000606482015260840161025b565b8061054e5760405162461bcd60e51b815260206004820152602d60248201527f436172626f6e5661756c743a207472616e7366657220696e746f207661756c7460448201526c081b9bdd081858d8d95c1d1959609a1b606482015260840161025b565b50604051638aaab70760e01b81523390638aaab7079061057a9089908990899089908990600401610ee1565b602060405180830381600087803b15801561059457600080fd5b505af19250505080156105c4575060408051601f3d908101601f191682019092526105c191810190610e40565b60015b6105d057610441610fd4565b6001600160e01b03198116638aaab70760e01b1461063e5760405162461bcd60e51b815260206004820152602560248201527f436172626f6e5661756c743a2049436172626f6e582072656a656374656420746044820152646f6b656e7360d81b606482015260840161025b565b50507fbc197c810000000000000000000000000000000000000000000000000000000095945050505050565b6001805481019055600033846001600160a01b03821660009081526004602052604090205460ff166106de5760405162461bcd60e51b815260206004820152601660248201527f546f6b656e206973206e6f7420737570706f7274656400000000000000000000604482015260640161025b565b60006106e960015490565b905060006106f688610b81565b9050600061070388610b81565b6040516337e70f9960e21b8152909150339063df9c3e6490610731908e908e90879087908e90600401610ee1565b602060405180830381600087803b15801561074b57600080fd5b505af192505050801561077b575060408051601f3d908101601f1916820190925261077891810190610e04565b60015b61078757610441610fd4565b806107ea5760405162461bcd60e51b815260206004820152602d60248201527f436172626f6e5661756c743a207472616e7366657220696e746f207661756c7460448201526c081b9bdd081858d8d95c1d1959609a1b606482015260840161025b565b506003546040517f56b4e96c0000000000000000000000000000000000000000000000000000000081526001600160a01b03909116906356b4e96c9061083c908d9087908d908a908e90600401610f3f565b600060405180830381600087803b15801561085657600080fd5b505af115801561086a573d6000803e3d6000fd5b50505050896001600160a01b0316837fd797c87441d02020d857705fd8d523c1f782c39d735a59f41812890064caa4908a6108a23390565b604080519283526001600160a01b039091166020830152810188905260600160405180910390a3604051638aaab70760e01b81523390638aaab707906108f4908e908e90879087908e90600401610ee1565b602060405180830381600087803b15801561090e57600080fd5b505af192505050801561093e575060408051601f3d908101601f1916820190925261093b91810190610e40565b60015b61094a57610441610fd4565b6001600160e01b03198116638aaab70760e01b146109b85760405162461bcd60e51b815260206004820152602560248201527f436172626f6e5661756c743a2049436172626f6e582072656a656374656420746044820152646f6b656e7360d81b606482015260840161025b565b507ff23a6e61000000000000000000000000000000000000000000000000000000009b9a5050505050505050505050565b6000546001600160a01b03163314610a435760405162461bcd60e51b815260206004820181905260248201527f4f776e61626c653a2063616c6c6572206973206e6f7420746865206f776e6572604482015260640161025b565b6001600160a01b038116610abf5760405162461bcd60e51b815260206004820152602660248201527f4f776e61626c653a206e6577206f776e657220697320746865207a65726f206160448201527f6464726573730000000000000000000000000000000000000000000000000000606482015260840161025b565b610ac881610b19565b50565b60006001600160e01b031982167f4e2312e00000000000000000000000000000000000000000000000000000000014806101ef57506301ffc9a760e01b6001600160e01b03198316146101ef565b600080546001600160a01b038381167fffffffffffffffffffffffff0000000000000000000000000000000000000000831681178455604051919092169283917f8be0079c531659141344cd1fd0a4f28419497f9722a3daafe3b4186f6b6457e09190a35050565b60408051600180825281830190925260609160009190602080830190803683370190505090508281600081518110610bc957634e487b7160e01b600052603260045260246000fd5b602090810291909101015292915050565b600082601f830112610bea578081fd5b8135602067ffffffffffffffff821115610c0657610c06610fbe565b8160051b604051610c1983830182610f91565b8381528281018684018388018501891015610c32578687fd5b8693505b85841015610c54578035825260019390930192908401908401610c36565b5090979650505050505050565b600082601f830112610c71578081fd5b813567ffffffffffffffff811115610c8b57610c8b610fbe565b604051610ca2601f8301601f191660200182610f91565b818152846020838601011115610cb6578283fd5b816020850160208301379081016020019190915292915050565b600060208284031215610ce1578081fd5b8135610cec81611076565b9392505050565b600080600080600060a08688031215610d0a578081fd5b8535610d1581611076565b94506020860135610d2581611076565b9350604086013567ffffffffffffffff80821115610d41578283fd5b610d4d89838a01610bda565b94506060880135915080821115610d62578283fd5b610d6e89838a01610bda565b93506080880135915080821115610d83578283fd5b50610d9088828901610c61565b9150509295509295909350565b600080600080600060a08688031215610db4578081fd5b8535610dbf81611076565b94506020860135610dcf81611076565b93506040860135925060608601359150608086013567ffffffffffffffff811115610df8578182fd5b610d9088828901610c61565b600060208284031215610e15578081fd5b81518015158114610cec578182fd5b600060208284031215610e35578081fd5b8135610cec8161108b565b600060208284031215610e51578081fd5b8151610cec8161108b565b6000815180845260208085019450808401835b83811015610e8b57815187529582019590820190600101610e6f565b509495945050505050565b60008151808452815b81811015610ebb57602081850181015186830182015201610e9f565b81811115610ecc5782602083870101525b50601f01601f19169290920160200192915050565b60006001600160a01b03808816835280871660208401525060a06040830152610f0d60a0830186610e5c565b8281036060840152610f1f8186610e5c565b90508281036080840152610f338185610e96565b98975050505050505050565b6001600160a01b038616815284602082015283604082015282606082015260a060808201526000610f7360a0830184610e96565b979650505050505050565b602081526000610cec6020830184610e96565b601f8201601f1916810167ffffffffffffffff81118282101715610fb757610fb7610fbe565b6040525050565b634e487b7160e01b600052604160045260246000fd5b600060033d1115610fe957600481823e5160e01c5b90565b600060443d1015610ffa5790565b6040516003193d81016004833e81513d67ffffffffffffffff816024840111818411171561102a57505050505090565b82850191508151818111156110425750505050505090565b843d870101602082850101111561105c5750505050505090565b61106b60208286010187610f91565b509095945050505050565b6001600160a01b0381168114610ac857600080fd5b6001600160e01b031981168114610ac857600080fdfea26469706673582212207a8f44235931e99a6cf7e0df4837e0ab258762648b11ac4822288f8c4209e92f64736f6c63430008040033",
  "devdoc": {
    "kind": "dev",
    "methods": {
      "owner()": {
        "details": "Returns the address of the current owner."
      },
      "renounceOwnership()": {
        "details": "Leaves the contract without owner. It will not be possible to call `onlyOwner` functions anymore. Can only be called by the current owner. NOTE: Renouncing ownership will leave the contract without an owner, thereby removing any functionality that is only available to the owner."
      },
      "supportsInterface(bytes4)": {
        "details": "See {IERC165-supportsInterface}."
      },
      "transferOwnership(address)": {
        "details": "Transfers ownership of the contract to a new account (`newOwner`). Can only be called by the current owner."
      }
    },
    "version": 1
  },
  "userdoc": {
    "kind": "user",
    "methods": {},
    "version": 1
  },
  "storageLayout": {
    "storage": [
      {
        "astId": 550,
        "contract": "contracts/CarbonVault.sol:CarbonVault",
        "label": "_owner",
        "offset": 0,
        "slot": "0",
        "type": "t_address"
      },
      {
        "astId": 5289,
        "contract": "contracts/CarbonVault.sol:CarbonVault",
        "label": "_tokenIds",
        "offset": 0,
        "slot": "1",
        "type": "t_struct(Counter)3629_storage"
      },
      {
        "astId": 5293,
        "contract": "contracts/CarbonVault.sol:CarbonVault",
        "label": "_tokenUris",
        "offset": 0,
        "slot": "2",
        "type": "t_mapping(t_uint256,t_string_storage)"
      },
      {
        "astId": 5296,
        "contract": "contracts/CarbonVault.sol:CarbonVault",
        "label": "_receiptToken",
        "offset": 0,
        "slot": "3",
        "type": "t_contract(ICarbonReceipt)6215"
      },
      {
        "astId": 5300,
        "contract": "contracts/CarbonVault.sol:CarbonVault",
        "label": "_supportedTokens",
        "offset": 0,
        "slot": "4",
        "type": "t_mapping(t_address,t_bool)"
      }
    ],
    "types": {
      "t_address": {
        "encoding": "inplace",
        "label": "address",
        "numberOfBytes": "20"
      },
      "t_bool": {
        "encoding": "inplace",
        "label": "bool",
        "numberOfBytes": "1"
      },
      "t_contract(ICarbonReceipt)6215": {
        "encoding": "inplace",
        "label": "contract ICarbonReceipt",
        "numberOfBytes": "20"
      },
      "t_mapping(t_address,t_bool)": {
        "encoding": "mapping",
        "key": "t_address",
        "label": "mapping(address => bool)",
        "numberOfBytes": "32",
        "value": "t_bool"
      },
      "t_mapping(t_uint256,t_string_storage)": {
        "encoding": "mapping",
        "key": "t_uint256",
        "label": "mapping(uint256 => string)",
        "numberOfBytes": "32",
        "value": "t_string_storage"
      },
      "t_string_storage": {
        "encoding": "bytes",
        "label": "string",
        "numberOfBytes": "32"
      },
      "t_struct(Counter)3629_storage": {
        "encoding": "inplace",
        "label": "struct Counters.Counter",
        "members": [
          {
            "astId": 3628,
            "contract": "contracts/CarbonVault.sol:CarbonVault",
            "label": "_value",
            "offset": 0,
            "slot": "0",
            "type": "t_uint256"
          }
        ],
        "numberOfBytes": "32"
      },
      "t_uint256": {
        "encoding": "inplace",
        "label": "uint256",
        "numberOfBytes": "32"
      }
    }
  }
}