{
  "address": "0x6C392b147761284d5F198702C468888776af8EAc",
  "abi": [
    {
      "inputs": [
        {
          "internalType": "address",
          "name": "signer_",
          "type": "address"
        },
        {
          "internalType": "string",
          "name": "baseUri_",
          "type": "string"
        }
      ],
      "stateMutability": "nonpayable",
      "type": "constructor"
    },
    {
      "anonymous": false,
      "inputs": [
        {
          "indexed": true,
          "internalType": "address",
          "name": "account",
          "type": "address"
        },
        {
          "indexed": true,
          "internalType": "address",
          "name": "operator",
          "type": "address"
        },
        {
          "indexed": false,
          "internalType": "bool",
          "name": "approved",
          "type": "bool"
        }
      ],
      "name": "ApprovalForAll",
      "type": "event"
    },
    {
      "anonymous": false,
      "inputs": [
        {
          "indexed": true,
          "internalType": "address",
          "name": "previousOwner",
          "type": "address"
        },
        {
          "indexed": true,
          "internalType": "address",
          "name": "newOwner",
          "type": "address"
        }
      ],
      "name": "OwnershipTransferred",
      "type": "event"
    },
    {
      "anonymous": false,
      "inputs": [
        {
          "indexed": true,
          "internalType": "address",
          "name": "oldSigner",
          "type": "address"
        },
        {
          "indexed": true,
          "internalType": "address",
          "name": "_signer",
          "type": "address"
        }
      ],
      "name": "SignerChanged",
      "type": "event"
    },
    {
      "anonymous": false,
      "inputs": [
        {
          "indexed": true,
          "internalType": "address",
          "name": "operator",
          "type": "address"
        },
        {
          "indexed": true,
          "internalType": "address",
          "name": "from",
          "type": "address"
        },
        {
          "indexed": true,
          "internalType": "address",
          "name": "to",
          "type": "address"
        },
        {
          "indexed": false,
          "internalType": "uint256[]",
          "name": "ids",
          "type": "uint256[]"
        },
        {
          "indexed": false,
          "internalType": "uint256[]",
          "name": "values",
          "type": "uint256[]"
        }
      ],
      "name": "TransferBatch",
      "type": "event"
    },
    {
      "anonymous": false,
      "inputs": [
        {
          "indexed": true,
          "internalType": "address",
          "name": "operator",
          "type": "address"
        },
        {
          "indexed": true,
          "internalType": "address",
          "name": "from",
          "type": "address"
        },
        {
          "indexed": true,
          "internalType": "address",
          "name": "to",
          "type": "address"
        },
        {
          "indexed": false,
          "internalType": "uint256",
          "name": "id",
          "type": "uint256"
        },
        {
          "indexed": false,
          "internalType": "uint256",
          "name": "value",
          "type": "uint256"
        }
      ],
      "name": "TransferSingle",
      "type": "event"
    },
    {
      "anonymous": false,
      "inputs": [
        {
          "indexed": false,
          "internalType": "string",
          "name": "value",
          "type": "string"
        },
        {
          "indexed": true,
          "internalType": "uint256",
          "name": "id",
          "type": "uint256"
        }
      ],
      "name": "URI",
      "type": "event"
    },
    {
      "inputs": [
        {
          "internalType": "address",
          "name": "account",
          "type": "address"
        },
        {
          "internalType": "uint256",
          "name": "id",
          "type": "uint256"
        }
      ],
      "name": "balanceOf",
      "outputs": [
        {
          "internalType": "uint256",
          "name": "",
          "type": "uint256"
        }
      ],
      "stateMutability": "view",
      "type": "function"
    },
    {
      "inputs": [
        {
          "internalType": "address[]",
          "name": "accounts",
          "type": "address[]"
        },
        {
          "internalType": "uint256[]",
          "name": "ids",
          "type": "uint256[]"
        }
      ],
      "name": "balanceOfBatch",
      "outputs": [
        {
          "internalType": "uint256[]",
          "name": "",
          "type": "uint256[]"
        }
      ],
      "stateMutability": "view",
      "type": "function"
    },
    {
      "inputs": [
        {
          "internalType": "address",
          "name": "account",
          "type": "address"
        },
        {
          "internalType": "uint256",
          "name": "id",
          "type": "uint256"
        },
        {
          "internalType": "uint256",
          "name": "value",
          "type": "uint256"
        }
      ],
      "name": "burn",
      "outputs": [],
      "stateMutability": "nonpayable",
      "type": "function"
    },
    {
      "inputs": [
        {
          "internalType": "address",
          "name": "account",
          "type": "address"
        },
        {
          "internalType": "uint256[]",
          "name": "ids",
          "type": "uint256[]"
        },
        {
          "internalType": "uint256[]",
          "name": "values",
          "type": "uint256[]"
        }
      ],
      "name": "burnBatch",
      "outputs": [],
      "stateMutability": "nonpayable",
      "type": "function"
    },
    {
      "inputs": [
        {
          "internalType": "address",
          "name": "to",
          "type": "address"
        },
        {
          "internalType": "uint256",
          "name": "tokenId",
          "type": "uint256"
        },
        {
          "internalType": "uint256",
          "name": "amount",
          "type": "uint256"
        },
        {
          "internalType": "string",
          "name": "tokenUri",
          "type": "string"
        },
        {
          "internalType": "bytes",
          "name": "signature",
          "type": "bytes"
        }
      ],
      "name": "create",
      "outputs": [],
      "stateMutability": "nonpayable",
      "type": "function"
    },
    {
      "inputs": [
        {
          "internalType": "address",
          "name": "to",
          "type": "address"
        },
        {
          "internalType": "uint256",
          "name": "tokenId",
          "type": "uint256"
        },
        {
          "internalType": "uint256",
          "name": "amount",
          "type": "uint256"
        },
        {
          "internalType": "string",
          "name": "tokenUri",
          "type": "string"
        }
      ],
      "name": "createMessage",
      "outputs": [
        {
          "internalType": "bytes32",
          "name": "",
          "type": "bytes32"
        }
      ],
      "stateMutability": "view",
      "type": "function"
    },
    {
      "inputs": [
        {
          "internalType": "address",
          "name": "to",
          "type": "address"
        },
        {
          "internalType": "uint256",
          "name": "tokenId",
          "type": "uint256"
        },
        {
          "internalType": "uint256",
          "name": "amount",
          "type": "uint256"
        }
      ],
      "name": "createMessage",
      "outputs": [
        {
          "internalType": "bytes32",
          "name": "",
          "type": "bytes32"
        }
      ],
      "stateMutability": "view",
      "type": "function"
    },
    {
      "inputs": [
        {
          "internalType": "uint256",
          "name": "id",
          "type": "uint256"
        }
      ],
      "name": "exists",
      "outputs": [
        {
          "internalType": "bool",
          "name": "",
          "type": "bool"
        }
      ],
      "stateMutability": "view",
      "type": "function"
    },
    {
      "inputs": [
        {
          "internalType": "address",
          "name": "account",
          "type": "address"
        },
        {
          "internalType": "address",
          "name": "operator",
          "type": "address"
        }
      ],
      "name": "isApprovedForAll",
      "outputs": [
        {
          "internalType": "bool",
          "name": "",
          "type": "bool"
        }
      ],
      "stateMutability": "view",
      "type": "function"
    },
    {
      "inputs": [
        {
          "internalType": "uint256",
          "name": "tokenId",
          "type": "uint256"
        },
        {
          "internalType": "uint256",
          "name": "amount",
          "type": "uint256"
        },
        {
          "internalType": "bytes",
          "name": "signature",
          "type": "bytes"
        }
      ],
      "name": "mint",
      "outputs": [],
      "stateMutability": "nonpayable",
      "type": "function"
    },
    {
      "inputs": [
        {
          "internalType": "address",
          "name": "to",
          "type": "address"
        },
        {
          "internalType": "uint256",
          "name": "tokenId",
          "type": "uint256"
        },
        {
          "internalType": "uint256",
          "name": "amount",
          "type": "uint256"
        },
        {
          "internalType": "bytes",
          "name": "signature",
          "type": "bytes"
        }
      ],
      "name": "mintTo",
      "outputs": [],
      "stateMutability": "nonpayable",
      "type": "function"
    },
    {
      "inputs": [],
      "name": "owner",
      "outputs": [
        {
          "internalType": "address",
          "name": "",
          "type": "address"
        }
      ],
      "stateMutability": "view",
      "type": "function"
    },
    {
      "inputs": [],
      "name": "renounceOwnership",
      "outputs": [],
      "stateMutability": "nonpayable",
      "type": "function"
    },
    {
      "inputs": [
        {
          "internalType": "address",
          "name": "from",
          "type": "address"
        },
        {
          "internalType": "address",
          "name": "to",
          "type": "address"
        },
        {
          "internalType": "uint256[]",
          "name": "ids",
          "type": "uint256[]"
        },
        {
          "internalType": "uint256[]",
          "name": "amounts",
          "type": "uint256[]"
        },
        {
          "internalType": "bytes",
          "name": "data",
          "type": "bytes"
        }
      ],
      "name": "safeBatchTransferFrom",
      "outputs": [],
      "stateMutability": "nonpayable",
      "type": "function"
    },
    {
      "inputs": [
        {
          "internalType": "address",
          "name": "from",
          "type": "address"
        },
        {
          "internalType": "address",
          "name": "to",
          "type": "address"
        },
        {
          "internalType": "uint256",
          "name": "id",
          "type": "uint256"
        },
        {
          "internalType": "uint256",
          "name": "amount",
          "type": "uint256"
        },
        {
          "internalType": "bytes",
          "name": "data",
          "type": "bytes"
        }
      ],
      "name": "safeTransferFrom",
      "outputs": [],
      "stateMutability": "nonpayable",
      "type": "function"
    },
    {
      "inputs": [
        {
          "internalType": "address",
          "name": "operator",
          "type": "address"
        },
        {
          "internalType": "bool",
          "name": "approved",
          "type": "bool"
        }
      ],
      "name": "setApprovalForAll",
      "outputs": [],
      "stateMutability": "nonpayable",
      "type": "function"
    },
    {
      "inputs": [
        {
          "internalType": "address",
          "name": "signer_",
          "type": "address"
        }
      ],
      "name": "setSigner",
      "outputs": [],
      "stateMutability": "nonpayable",
      "type": "function"
    },
    {
      "inputs": [
        {
          "internalType": "uint256",
          "name": "id",
          "type": "uint256"
        },
        {
          "internalType": "string",
          "name": "tokenUri",
          "type": "string"
        }
      ],
      "name": "setTokenUri",
      "outputs": [],
      "stateMutability": "nonpayable",
      "type": "function"
    },
    {
      "inputs": [],
      "name": "signer",
      "outputs": [
        {
          "internalType": "address",
          "name": "",
          "type": "address"
        }
      ],
      "stateMutability": "view",
      "type": "function"
    },
    {
      "inputs": [
        {
          "internalType": "bytes4",
          "name": "interfaceId",
          "type": "bytes4"
        }
      ],
      "name": "supportsInterface",
      "outputs": [
        {
          "internalType": "bool",
          "name": "",
          "type": "bool"
        }
      ],
      "stateMutability": "view",
      "type": "function"
    },
    {
      "inputs": [
        {
          "internalType": "uint256",
          "name": "id",
          "type": "uint256"
        }
      ],
      "name": "totalSupply",
      "outputs": [
        {
          "internalType": "uint256",
          "name": "",
          "type": "uint256"
        }
      ],
      "stateMutability": "view",
      "type": "function"
    },
    {
      "inputs": [
        {
          "internalType": "address",
          "name": "newOwner",
          "type": "address"
        }
      ],
      "name": "transferOwnership",
      "outputs": [],
      "stateMutability": "nonpayable",
      "type": "function"
    },
    {
      "inputs": [
        {
          "internalType": "uint256",
          "name": "id",
          "type": "uint256"
        }
      ],
      "name": "uri",
      "outputs": [
        {
          "internalType": "string",
          "name": "",
          "type": "string"
        }
      ],
      "stateMutability": "view",
      "type": "function"
    },
    {
      "inputs": [],
      "name": "withdraw",
      "outputs": [],
      "stateMutability": "nonpayable",
      "type": "function"
    }
  ],
  "transactionHash": "0xe0286dc09846312d51ac4b396698f9bd114a5bfb55b3f7db33141d6b6049f328",
  "args": [
    "0xeebA72dcE016a06055dbD0318429053bEd738c7e",
    "ipfs://"
  ],
  "numDeployments": 2,
  "solcInputHash": "5cc6f34e564da2699ac13dcd6cb8d362",
  "bytecode": "0x60806040523480156200001157600080fd5b5060405162002f0a38038062002f0a83398101604081905262000034916200019a565b80620000408162000073565b506200004c336200008c565b50600580546001600160a01b0319166001600160a01b0392909216919091179055620002d7565b805162000088906002906020840190620000de565b5050565b600480546001600160a01b038381166001600160a01b0319831681179093556040519116919082907f8be0079c531659141344cd1fd0a4f28419497f9722a3daafe3b4186f6b6457e090600090a35050565b828054620000ec906200029a565b90600052602060002090601f0160209004810192826200011057600085556200015b565b82601f106200012b57805160ff19168380011785556200015b565b828001600101855582156200015b579182015b828111156200015b5782518255916020019190600101906200013e565b50620001699291506200016d565b5090565b5b808211156200016957600081556001016200016e565b634e487b7160e01b600052604160045260246000fd5b60008060408385031215620001ae57600080fd5b82516001600160a01b0381168114620001c657600080fd5b602084810151919350906001600160401b0380821115620001e657600080fd5b818601915086601f830112620001fb57600080fd5b81518181111562000210576200021062000184565b604051601f8201601f19908116603f011681019083821181831017156200023b576200023b62000184565b8160405282815289868487010111156200025457600080fd5b600093505b8284101562000278578484018601518185018701529285019262000259565b828411156200028a5760008684830101525b8096505050505050509250929050565b600181811c90821680620002af57607f821691505b60208210811415620002d157634e487b7160e01b600052602260045260246000fd5b50919050565b612c2380620002e76000396000f3fe608060405234801561001057600080fd5b50600436106101975760003560e01c806357f7789e116100e3578063bd85b0391161008c578063f242432a11610066578063f242432a146103e9578063f2fde38b146103fc578063f5298aca1461040f57600080fd5b8063bd85b0391461033a578063e985e9c51461035a578063ed9ec58c1461039657600080fd5b8063715018a6116100bd578063715018a61461030e5780638da5cb5b14610316578063a22cb4651461032757600080fd5b806357f7789e146102d55780636b20c454146102e85780636c19e783146102fb57600080fd5b8063280f4e28116101455780633ccfd60b1161011f5780633ccfd60b1461028b5780634e1273f4146102935780634f558e79146102b357600080fd5b8063280f4e28146102525780632eb2c2d61461026557806336a100d51461027857600080fd5b80630e89341c116101765780630e89341c146101fa57806320d4f41b1461021a578063238ac9331461022d57600080fd5b8062fdd58e1461019c57806301ffc9a7146101c257806308dc9f42146101e5575b600080fd5b6101af6101aa3660046122b5565b610422565b6040519081526020015b60405180910390f35b6101d56101d03660046122f5565b6104cb565b60405190151581526020016101b9565b6101f86101f33660046123d0565b610568565b005b61020d610208366004612420565b610594565b6040516101b99190612486565b6101af610228366004612499565b610636565b6005546001600160a01b03165b6040516001600160a01b0390911681526020016101b9565b6101f8610260366004612499565b61066f565b6101f861027336600461258f565b6107da565b6101f8610286366004612639565b61087c565b6101f861094f565b6102a66102a1366004612691565b6109dc565b6040516101b99190612797565b6101d56102c1366004612420565b600090815260036020526040902054151590565b6101f86102e33660046127aa565b610b1a565b6101f86102f63660046127e7565b610b7e565b6101f8610309366004612851565b610c08565b6101f8610cc1565b6004546001600160a01b031661023a565b6101f861033536600461286c565b610d27565b6101af610348366004612420565b60009081526003602052604090205490565b6101d56103683660046128a8565b6001600160a01b03918216600090815260016020908152604080832093909416825291909152205460ff1690565b6101af6103a43660046128db565b604080516001600160a01b0385166020820152908101839052606081018290526000906080016040516020818303038152906040528051906020012090509392505050565b6101f86103f736600461290e565b610d32565b6101f861040a366004612851565b610db9565b6101f861041d3660046128db565b610e9b565b60006001600160a01b0383166104a55760405162461bcd60e51b815260206004820152602b60248201527f455243313135353a2062616c616e636520717565727920666f7220746865207a60448201527f65726f206164647265737300000000000000000000000000000000000000000060648201526084015b60405180910390fd5b506000908152602081815260408083206001600160a01b03949094168352929052205490565b60006001600160e01b031982167fd9b67a2600000000000000000000000000000000000000000000000000000000148061052e57506001600160e01b031982167f0e89341c00000000000000000000000000000000000000000000000000000000145b8061056257507f01ffc9a7000000000000000000000000000000000000000000000000000000006001600160e01b03198316145b92915050565b600083815260036020526040902054839061058257600080fd5b61058e3385858561066f565b50505050565b60008181526006602052604090208054606091906105b190612973565b80601f01602080910402602001604051908101604052809291908181526020018280546105dd90612973565b801561062a5780601f106105ff5761010080835404028352916020019161062a565b820191906000526020600020905b81548152906001019060200180831161060d57829003601f168201915b50505050509050919050565b60008484848460405160200161064f94939291906129ae565b604051602081830303815290604052805190602001209050949350505050565b600083815260036020526040902054839061068957600080fd5b604080516001600160a01b03871660208083019190915281830187905260608083018790528351808403909101815260809092019092528051910120600090610720905b6040517f19457468657265756d205369676e6564204d6573736167653a0a3332000000006020820152603c8101829052600090605c01604051602081830303815290604052805190602001209050919050565b90506107346005546001600160a01b031690565b6001600160a01b03166107478285610f20565b6001600160a01b0316146107c35760405162461bcd60e51b815260206004820152603b60248201527f456974686572207369676e61747572652069732077726f6e67206f722070617260448201527f616d65746572732068617665206265656e20636f727275707465640000000000606482015260840161049c565b60606107d187878784610f3c565b50505050505050565b6001600160a01b0385163314806107f657506107f68533610368565b6108685760405162461bcd60e51b815260206004820152603260248201527f455243313135353a207472616e736665722063616c6c6572206973206e6f742060448201527f6f776e6572206e6f7220617070726f7665640000000000000000000000000000606482015260840161049c565b6108758585858585611072565b5050505050565b600061088d6106cd87878787610636565b90506108a16005546001600160a01b031690565b6001600160a01b03166108b48284610f20565b6001600160a01b0316146109305760405162461bcd60e51b815260206004820152603b60248201527f456974686572207369676e61747572652069732077726f6e67206f722070617260448201527f616d65746572732068617665206265656e20636f727275707465640000000000606482015260840161049c565b606061093e87878784610f3c565b8351156107d1576107d186856112de565b6004546001600160a01b031633146109a95760405162461bcd60e51b815260206004820181905260248201527f4f776e61626c653a2063616c6c6572206973206e6f7420746865206f776e6572604482015260640161049c565b6040514790339082156108fc029083906000818181858888f193505050501580156109d8573d6000803e3d6000fd5b5050565b60608151835114610a555760405162461bcd60e51b815260206004820152602960248201527f455243313135353a206163636f756e747320616e6420696473206c656e67746860448201527f206d69736d617463680000000000000000000000000000000000000000000000606482015260840161049c565b6000835167ffffffffffffffff811115610a7157610a71612319565b604051908082528060200260200182016040528015610a9a578160200160208202803683370190505b50905060005b8451811015610b1257610ae5858281518110610abe57610abe6129e6565b6020026020010151858381518110610ad857610ad86129e6565b6020026020010151610422565b828281518110610af757610af76129e6565b6020908102919091010152610b0b81612a12565b9050610aa0565b509392505050565b6004546001600160a01b03163314610b745760405162461bcd60e51b815260206004820181905260248201527f4f776e61626c653a2063616c6c6572206973206e6f7420746865206f776e6572604482015260640161049c565b6109d882826112de565b6001600160a01b038316331480610b9a5750610b9a8333610368565b610bf85760405162461bcd60e51b815260206004820152602960248201527f455243313135353a2063616c6c6572206973206e6f74206f776e6572206e6f7260448201526808185c1c1c9bdd995960ba1b606482015260840161049c565b610c038383836112fd565b505050565b6004546001600160a01b03163314610c625760405162461bcd60e51b815260206004820181905260248201527f4f776e61626c653a2063616c6c6572206973206e6f7420746865206f776e6572604482015260640161049c565b600580546001600160a01b0383811673ffffffffffffffffffffffffffffffffffffffff19831681179093556040519116919082907feeb293e1f8f3a9db91ade748726387ed1352ca78f5430c5f06fe3d1e1ad5057990600090a35050565b6004546001600160a01b03163314610d1b5760405162461bcd60e51b815260206004820181905260248201527f4f776e61626c653a2063616c6c6572206973206e6f7420746865206f776e6572604482015260640161049c565b610d256000611552565b565b6109d83383836115b1565b6001600160a01b038516331480610d4e5750610d4e8533610368565b610dac5760405162461bcd60e51b815260206004820152602960248201527f455243313135353a2063616c6c6572206973206e6f74206f776e6572206e6f7260448201526808185c1c1c9bdd995960ba1b606482015260840161049c565b61087585858585856116a6565b6004546001600160a01b03163314610e135760405162461bcd60e51b815260206004820181905260248201527f4f776e61626c653a2063616c6c6572206973206e6f7420746865206f776e6572604482015260640161049c565b6001600160a01b038116610e8f5760405162461bcd60e51b815260206004820152602660248201527f4f776e61626c653a206e6577206f776e657220697320746865207a65726f206160448201527f6464726573730000000000000000000000000000000000000000000000000000606482015260840161049c565b610e9881611552565b50565b6001600160a01b038316331480610eb75750610eb78333610368565b610f155760405162461bcd60e51b815260206004820152602960248201527f455243313135353a2063616c6c6572206973206e6f74206f776e6572206e6f7260448201526808185c1c1c9bdd995960ba1b606482015260840161049c565b610c0383838361185f565b6000806000610f2f85856119ef565b91509150610b1281611a5f565b6001600160a01b038416610fb85760405162461bcd60e51b815260206004820152602160248201527f455243313135353a206d696e7420746f20746865207a65726f2061646472657360448201527f7300000000000000000000000000000000000000000000000000000000000000606482015260840161049c565b336000610fc485611c1a565b90506000610fd185611c1a565b9050610fe283600089858589611c65565b6000868152602081815260408083206001600160a01b038b16845290915281208054879290611012908490612a2d565b909155505060408051878152602081018790526001600160a01b03808a1692600092918716917fc3d58168c5ae7397731d063d5bbf3d657854427343f4c083240f7aacaa2d0f62910160405180910390a46107d183600089898989611c73565b81518351146110d45760405162461bcd60e51b815260206004820152602860248201527f455243313135353a2069647320616e6420616d6f756e7473206c656e677468206044820152670dad2e6dac2e8c6d60c31b606482015260840161049c565b6001600160a01b0384166111385760405162461bcd60e51b815260206004820152602560248201527f455243313135353a207472616e7366657220746f20746865207a65726f206164604482015264647265737360d81b606482015260840161049c565b33611147818787878787611c65565b60005b8451811015611270576000858281518110611167576111676129e6565b602002602001015190506000858381518110611185576111856129e6565b602090810291909101810151600084815280835260408082206001600160a01b038e1683529093529190912054909150818110156112185760405162461bcd60e51b815260206004820152602a60248201527f455243313135353a20696e73756666696369656e742062616c616e636520666f60448201526939103a3930b739b332b960b11b606482015260840161049c565b6000838152602081815260408083206001600160a01b038e8116855292528083208585039055908b16825281208054849290611255908490612a2d565b925050819055505050508061126990612a12565b905061114a565b50846001600160a01b0316866001600160a01b0316826001600160a01b03167f4a39dc06d4c0dbc64b70af90fd698a233a518aa5d07e595d983b8c0526c8f7fb87876040516112c0929190612a45565b60405180910390a46112d6818787878787611e28565b505050505050565b60008281526006602090815260409091208251610c0392840190612200565b6001600160a01b03831661135f5760405162461bcd60e51b815260206004820152602360248201527f455243313135353a206275726e2066726f6d20746865207a65726f206164647260448201526265737360e81b606482015260840161049c565b80518251146113c15760405162461bcd60e51b815260206004820152602860248201527f455243313135353a2069647320616e6420616d6f756e7473206c656e677468206044820152670dad2e6dac2e8c6d60c31b606482015260840161049c565b60003390506113e481856000868660405180602001604052806000815250611c65565b60005b83518110156114e5576000848281518110611404576114046129e6565b602002602001015190506000848381518110611422576114226129e6565b602090810291909101810151600084815280835260408082206001600160a01b038c1683529093529190912054909150818110156114ae5760405162461bcd60e51b8152602060048201526024808201527f455243313135353a206275726e20616d6f756e7420657863656564732062616c604482015263616e636560e01b606482015260840161049c565b6000928352602083815260408085206001600160a01b038b16865290915290922091039055806114dd81612a12565b9150506113e7565b5060006001600160a01b0316846001600160a01b0316826001600160a01b03167f4a39dc06d4c0dbc64b70af90fd698a233a518aa5d07e595d983b8c0526c8f7fb8686604051611536929190612a45565b60405180910390a460408051602081019091526000905261058e565b600480546001600160a01b0383811673ffffffffffffffffffffffffffffffffffffffff19831681179093556040519116919082907f8be0079c531659141344cd1fd0a4f28419497f9722a3daafe3b4186f6b6457e090600090a35050565b816001600160a01b0316836001600160a01b031614156116395760405162461bcd60e51b815260206004820152602960248201527f455243313135353a2073657474696e6720617070726f76616c2073746174757360448201527f20666f722073656c660000000000000000000000000000000000000000000000606482015260840161049c565b6001600160a01b03838116600081815260016020908152604080832094871680845294825291829020805460ff191686151590811790915591519182527f17307eab39ab6107e8899845ad3d59bd9653f200f220920489ca2b5937696c31910160405180910390a3505050565b6001600160a01b03841661170a5760405162461bcd60e51b815260206004820152602560248201527f455243313135353a207472616e7366657220746f20746865207a65726f206164604482015264647265737360d81b606482015260840161049c565b33600061171685611c1a565b9050600061172385611c1a565b9050611733838989858589611c65565b6000868152602081815260408083206001600160a01b038c168452909152902054858110156117b75760405162461bcd60e51b815260206004820152602a60248201527f455243313135353a20696e73756666696369656e742062616c616e636520666f60448201526939103a3930b739b332b960b11b606482015260840161049c565b6000878152602081815260408083206001600160a01b038d8116855292528083208985039055908a168252812080548892906117f4908490612a2d565b909155505060408051888152602081018890526001600160a01b03808b16928c821692918816917fc3d58168c5ae7397731d063d5bbf3d657854427343f4c083240f7aacaa2d0f62910160405180910390a4611854848a8a8a8a8a611c73565b505050505050505050565b6001600160a01b0383166118c15760405162461bcd60e51b815260206004820152602360248201527f455243313135353a206275726e2066726f6d20746865207a65726f206164647260448201526265737360e81b606482015260840161049c565b3360006118cd84611c1a565b905060006118da84611c1a565b90506118fa83876000858560405180602001604052806000815250611c65565b6000858152602081815260408083206001600160a01b038a168452909152902054848110156119775760405162461bcd60e51b8152602060048201526024808201527f455243313135353a206275726e20616d6f756e7420657863656564732062616c604482015263616e636560e01b606482015260840161049c565b6000868152602081815260408083206001600160a01b038b81168086529184528285208a8703905582518b81529384018a90529092908816917fc3d58168c5ae7397731d063d5bbf3d657854427343f4c083240f7aacaa2d0f62910160405180910390a46040805160208101909152600090526107d1565b600080825160411415611a265760208301516040840151606085015160001a611a1a87828585611f33565b94509450505050611a58565b825160401415611a505760208301516040840151611a45868383612020565b935093505050611a58565b506000905060025b9250929050565b6000816004811115611a7357611a73612a73565b1415611a7c5750565b6001816004811115611a9057611a90612a73565b1415611ade5760405162461bcd60e51b815260206004820152601860248201527f45434453413a20696e76616c6964207369676e61747572650000000000000000604482015260640161049c565b6002816004811115611af257611af2612a73565b1415611b405760405162461bcd60e51b815260206004820152601f60248201527f45434453413a20696e76616c6964207369676e6174757265206c656e67746800604482015260640161049c565b6003816004811115611b5457611b54612a73565b1415611bad5760405162461bcd60e51b815260206004820152602260248201527f45434453413a20696e76616c6964207369676e6174757265202773272076616c604482015261756560f01b606482015260840161049c565b6004816004811115611bc157611bc1612a73565b1415610e985760405162461bcd60e51b815260206004820152602260248201527f45434453413a20696e76616c6964207369676e6174757265202776272076616c604482015261756560f01b606482015260840161049c565b60408051600180825281830190925260609160009190602080830190803683370190505090508281600081518110611c5457611c546129e6565b602090810291909101015292915050565b6112d6868686868686612072565b6001600160a01b0384163b156112d65760405163f23a6e6160e01b81526001600160a01b0385169063f23a6e6190611cb79089908990889088908890600401612a89565b602060405180830381600087803b158015611cd157600080fd5b505af1925050508015611d01575060408051601f3d908101601f19168201909252611cfe91810190612acc565b60015b611db757611d0d612ae9565b806308c379a01415611d475750611d22612b05565b80611d2d5750611d49565b8060405162461bcd60e51b815260040161049c9190612486565b505b60405162461bcd60e51b815260206004820152603460248201527f455243313135353a207472616e7366657220746f206e6f6e204552433131353560448201527f526563656976657220696d706c656d656e746572000000000000000000000000606482015260840161049c565b6001600160e01b0319811663f23a6e6160e01b146107d15760405162461bcd60e51b815260206004820152602860248201527f455243313135353a204552433131353552656365697665722072656a656374656044820152676420746f6b656e7360c01b606482015260840161049c565b6001600160a01b0384163b156112d65760405163bc197c8160e01b81526001600160a01b0385169063bc197c8190611e6c9089908990889088908890600401612b8f565b602060405180830381600087803b158015611e8657600080fd5b505af1925050508015611eb6575060408051601f3d908101601f19168201909252611eb391810190612acc565b60015b611ec257611d0d612ae9565b6001600160e01b0319811663bc197c8160e01b146107d15760405162461bcd60e51b815260206004820152602860248201527f455243313135353a204552433131353552656365697665722072656a656374656044820152676420746f6b656e7360c01b606482015260840161049c565b6000807f7fffffffffffffffffffffffffffffff5d576e7357a4501ddfe92f46681b20a0831115611f6a5750600090506003612017565b8460ff16601b14158015611f8257508460ff16601c14155b15611f935750600090506004612017565b6040805160008082526020820180845289905260ff881692820192909252606081018690526080810185905260019060a0016020604051602081039080840390855afa158015611fe7573d6000803e3d6000fd5b5050604051601f1901519150506001600160a01b03811661201057600060019250925050612017565b9150600090505b94509492505050565b6000807f7fffffffffffffffffffffffffffffffffffffffffffffffffffffffffffffff83168161205660ff86901c601b612a2d565b905061206487828885611f33565b935093505050935093915050565b6001600160a01b0385166120f95760005b83518110156120f75782818151811061209e5761209e6129e6565b6020026020010151600360008684815181106120bc576120bc6129e6565b6020026020010151815260200190815260200160002060008282546120e19190612a2d565b909155506120f0905081612a12565b9050612083565b505b6001600160a01b0384166112d65760005b83518110156107d1576000848281518110612127576121276129e6565b602002602001015190506000848381518110612145576121456129e6565b60200260200101519050600060036000848152602001908152602001600020549050818110156121dd5760405162461bcd60e51b815260206004820152602860248201527f455243313135353a206275726e20616d6f756e74206578636565647320746f7460448201527f616c537570706c79000000000000000000000000000000000000000000000000606482015260840161049c565b600092835260036020526040909220910390556121f981612a12565b905061210a565b82805461220c90612973565b90600052602060002090601f01602090048101928261222e5760008555612274565b82601f1061224757805160ff1916838001178555612274565b82800160010185558215612274579182015b82811115612274578251825591602001919060010190612259565b50612280929150612284565b5090565b5b808211156122805760008155600101612285565b80356001600160a01b03811681146122b057600080fd5b919050565b600080604083850312156122c857600080fd5b6122d183612299565b946020939093013593505050565b6001600160e01b031981168114610e9857600080fd5b60006020828403121561230757600080fd5b8135612312816122df565b9392505050565b634e487b7160e01b600052604160045260246000fd5b601f8201601f1916810167ffffffffffffffff8111828210171561235557612355612319565b6040525050565b600082601f83011261236d57600080fd5b813567ffffffffffffffff81111561238757612387612319565b60405161239e601f8301601f19166020018261232f565b8181528460208386010111156123b357600080fd5b816020850160208301376000918101602001919091529392505050565b6000806000606084860312156123e557600080fd5b8335925060208401359150604084013567ffffffffffffffff81111561240a57600080fd5b6124168682870161235c565b9150509250925092565b60006020828403121561243257600080fd5b5035919050565b6000815180845260005b8181101561245f57602081850181015186830182015201612443565b81811115612471576000602083870101525b50601f01601f19169290920160200192915050565b6020815260006123126020830184612439565b600080600080608085870312156124af57600080fd5b6124b885612299565b93506020850135925060408501359150606085013567ffffffffffffffff8111156124e257600080fd5b6124ee8782880161235c565b91505092959194509250565b600067ffffffffffffffff82111561251457612514612319565b5060051b60200190565b600082601f83011261252f57600080fd5b8135602061253c826124fa565b604051612549828261232f565b83815260059390931b850182019282810191508684111561256957600080fd5b8286015b84811015612584578035835291830191830161256d565b509695505050505050565b600080600080600060a086880312156125a757600080fd5b6125b086612299565b94506125be60208701612299565b9350604086013567ffffffffffffffff808211156125db57600080fd5b6125e789838a0161251e565b945060608801359150808211156125fd57600080fd5b61260989838a0161251e565b9350608088013591508082111561261f57600080fd5b5061262c8882890161235c565b9150509295509295909350565b600080600080600060a0868803121561265157600080fd5b61265a86612299565b94506020860135935060408601359250606086013567ffffffffffffffff8082111561268557600080fd5b61260989838a0161235c565b600080604083850312156126a457600080fd5b823567ffffffffffffffff808211156126bc57600080fd5b818501915085601f8301126126d057600080fd5b813560206126dd826124fa565b6040516126ea828261232f565b83815260059390931b850182019282810191508984111561270a57600080fd5b948201945b8386101561272f5761272086612299565b8252948201949082019061270f565b9650508601359250508082111561274557600080fd5b506127528582860161251e565b9150509250929050565b600081518084526020808501945080840160005b8381101561278c57815187529582019590820190600101612770565b509495945050505050565b602081526000612312602083018461275c565b600080604083850312156127bd57600080fd5b82359150602083013567ffffffffffffffff8111156127db57600080fd5b6127528582860161235c565b6000806000606084860312156127fc57600080fd5b61280584612299565b9250602084013567ffffffffffffffff8082111561282257600080fd5b61282e8783880161251e565b9350604086013591508082111561284457600080fd5b506124168682870161251e565b60006020828403121561286357600080fd5b61231282612299565b6000806040838503121561287f57600080fd5b61288883612299565b91506020830135801515811461289d57600080fd5b809150509250929050565b600080604083850312156128bb57600080fd5b6128c483612299565b91506128d260208401612299565b90509250929050565b6000806000606084860312156128f057600080fd5b6128f984612299565b95602085013595506040909401359392505050565b600080600080600060a0868803121561292657600080fd5b61292f86612299565b945061293d60208701612299565b93506040860135925060608601359150608086013567ffffffffffffffff81111561296757600080fd5b61262c8882890161235c565b600181811c9082168061298757607f821691505b602082108114156129a857634e487b7160e01b600052602260045260246000fd5b50919050565b6001600160a01b03851681528360208201528260408201526080606082015260006129dc6080830184612439565b9695505050505050565b634e487b7160e01b600052603260045260246000fd5b634e487b7160e01b600052601160045260246000fd5b6000600019821415612a2657612a266129fc565b5060010190565b60008219821115612a4057612a406129fc565b500190565b604081526000612a58604083018561275c565b8281036020840152612a6a818561275c565b95945050505050565b634e487b7160e01b600052602160045260246000fd5b60006001600160a01b03808816835280871660208401525084604083015283606083015260a06080830152612ac160a0830184612439565b979650505050505050565b600060208284031215612ade57600080fd5b8151612312816122df565b600060033d1115612b025760046000803e5060005160e01c5b90565b600060443d1015612b135790565b6040516003193d81016004833e81513d67ffffffffffffffff8160248401118184111715612b4357505050505090565b8285019150815181811115612b5b5750505050505090565b843d8701016020828501011115612b755750505050505090565b612b846020828601018761232f565b509095945050505050565b60006001600160a01b03808816835280871660208401525060a06040830152612bbb60a083018661275c565b8281036060840152612bcd818661275c565b90508281036080840152612be18185612439565b9897505050505050505056fea2646970667358221220ce6887bd9c0b4ef7b974e513ceb4222e0782c87cd4fab5a22864c713492cb4ed64736f6c63430008090033",
  "devdoc": {
    "kind": "dev",
    "methods": {
      "balanceOf(address,uint256)": {
        "details": "See {IERC1155-balanceOf}. Requirements: - `account` cannot be the zero address."
      },
      "balanceOfBatch(address[],uint256[])": {
        "details": "See {IERC1155-balanceOfBatch}. Requirements: - `accounts` and `ids` must have the same length."
      },
      "createMessage(address,uint256,uint256)": {
        "params": {
          "amount": "the amount of tokens",
          "to": "the beneficiary",
          "tokenId": "the token id"
        },
        "returns": {
          "_0": "the message to sign"
        }
      },
      "createMessage(address,uint256,uint256,string)": {
        "params": {
          "amount": "the amount of tokens",
          "to": "the beneficiary",
          "tokenId": "the token id",
          "tokenUri": "The tokenUri"
        },
        "returns": {
          "_0": "the message to sign"
        }
      },
      "exists(uint256)": {
        "details": "Indicates whether any token exist with a given id, or not."
      },
      "isApprovedForAll(address,address)": {
        "details": "See {IERC1155-isApprovedForAll}."
      },
      "mintTo(address,uint256,uint256,bytes)": {
        "params": {
          "amount": "the amount of tokens",
          "to": "the beneficiary",
          "tokenId": "the token id"
        }
      },
      "owner()": {
        "details": "Returns the address of the current owner."
      },
      "renounceOwnership()": {
        "details": "Leaves the contract without owner. It will not be possible to call `onlyOwner` functions anymore. Can only be called by the current owner. NOTE: Renouncing ownership will leave the contract without an owner, thereby removing any functionality that is only available to the owner."
      },
      "safeBatchTransferFrom(address,address,uint256[],uint256[],bytes)": {
        "details": "See {IERC1155-safeBatchTransferFrom}."
      },
      "safeTransferFrom(address,address,uint256,uint256,bytes)": {
        "details": "See {IERC1155-safeTransferFrom}."
      },
      "setApprovalForAll(address,bool)": {
        "details": "See {IERC1155-setApprovalForAll}."
      },
      "signer()": {
        "returns": {
          "_0": "the signer address"
        }
      },
      "supportsInterface(bytes4)": {
        "details": "See {IERC165-supportsInterface}."
      },
      "totalSupply(uint256)": {
        "details": "Total amount of tokens in with a given id."
      },
      "transferOwnership(address)": {
        "details": "Transfers ownership of the contract to a new account (`newOwner`). Can only be called by the current owner."
      }
    },
    "version": 1
  },
  "userdoc": {
    "kind": "user",
    "methods": {
      "createMessage(address,uint256,uint256)": {
        "notice": "Helper that creates the message that signer needs to sign to allow a mint         this is usually also used when creating the allowances, to ensure \"message\"         is the same"
      },
      "createMessage(address,uint256,uint256,string)": {
        "notice": "Helper that creates the message that signer needs to sign to allow a mint         this is usually also used when creating the allowances, to ensure \"message\"         is the same"
      },
      "mintTo(address,uint256,uint256,bytes)": {
        "notice": "Mints token for existing tokenId to a specific beneficiary"
      },
      "signer()": {
        "notice": "Helper to know signers address"
      }
    },
    "version": 1
  },
  "storageLayout": {
    "storage": [
      {
        "astId": 130,
        "contract": "contracts/CarbonX.sol:CarbonX",
        "label": "_balances",
        "offset": 0,
        "slot": "0",
        "type": "t_mapping(t_uint256,t_mapping(t_address,t_uint256))"
      },
      {
        "astId": 136,
        "contract": "contracts/CarbonX.sol:CarbonX",
        "label": "_operatorApprovals",
        "offset": 0,
        "slot": "1",
        "type": "t_mapping(t_address,t_mapping(t_address,t_bool))"
      },
      {
        "astId": 138,
        "contract": "contracts/CarbonX.sol:CarbonX",
        "label": "_uri",
        "offset": 0,
        "slot": "2",
        "type": "t_string_storage"
      },
      {
        "astId": 1569,
        "contract": "contracts/CarbonX.sol:CarbonX",
        "label": "_totalSupply",
        "offset": 0,
        "slot": "3",
        "type": "t_mapping(t_uint256,t_uint256)"
      },
      {
        "astId": 7,
        "contract": "contracts/CarbonX.sol:CarbonX",
        "label": "_owner",
        "offset": 0,
        "slot": "4",
        "type": "t_address"
      },
      {
        "astId": 2712,
        "contract": "contracts/CarbonX.sol:CarbonX",
        "label": "_signer",
        "offset": 0,
        "slot": "5",
        "type": "t_address"
      },
      {
        "astId": 2716,
        "contract": "contracts/CarbonX.sol:CarbonX",
        "label": "_tokenUris",
        "offset": 0,
        "slot": "6",
        "type": "t_mapping(t_uint256,t_string_storage)"
      }
    ],
    "types": {
      "t_address": {
        "encoding": "inplace",
        "label": "address",
        "numberOfBytes": "20"
      },
      "t_bool": {
        "encoding": "inplace",
        "label": "bool",
        "numberOfBytes": "1"
      },
      "t_mapping(t_address,t_bool)": {
        "encoding": "mapping",
        "key": "t_address",
        "label": "mapping(address => bool)",
        "numberOfBytes": "32",
        "value": "t_bool"
      },
      "t_mapping(t_address,t_mapping(t_address,t_bool))": {
        "encoding": "mapping",
        "key": "t_address",
        "label": "mapping(address => mapping(address => bool))",
        "numberOfBytes": "32",
        "value": "t_mapping(t_address,t_bool)"
      },
      "t_mapping(t_address,t_uint256)": {
        "encoding": "mapping",
        "key": "t_address",
        "label": "mapping(address => uint256)",
        "numberOfBytes": "32",
        "value": "t_uint256"
      },
      "t_mapping(t_uint256,t_mapping(t_address,t_uint256))": {
        "encoding": "mapping",
        "key": "t_uint256",
        "label": "mapping(uint256 => mapping(address => uint256))",
        "numberOfBytes": "32",
        "value": "t_mapping(t_address,t_uint256)"
      },
      "t_mapping(t_uint256,t_string_storage)": {
        "encoding": "mapping",
        "key": "t_uint256",
        "label": "mapping(uint256 => string)",
        "numberOfBytes": "32",
        "value": "t_string_storage"
      },
      "t_mapping(t_uint256,t_uint256)": {
        "encoding": "mapping",
        "key": "t_uint256",
        "label": "mapping(uint256 => uint256)",
        "numberOfBytes": "32",
        "value": "t_uint256"
      },
      "t_string_storage": {
        "encoding": "bytes",
        "label": "string",
        "numberOfBytes": "32"
      },
      "t_uint256": {
        "encoding": "inplace",
        "label": "uint256",
        "numberOfBytes": "32"
      }
    }
  }
}