{
  "address": "0x7e535a3Ee69611665F9295177A0714b25b4C3447",
  "abi": [
    {
      "inputs": [
        {
          "internalType": "address",
          "name": "signer_",
          "type": "address"
        },
        {
          "internalType": "string",
          "name": "baseUri_",
          "type": "string"
        }
      ],
      "stateMutability": "nonpayable",
      "type": "constructor"
    },
    {
      "anonymous": false,
      "inputs": [
        {
          "indexed": true,
          "internalType": "address",
          "name": "account",
          "type": "address"
        },
        {
          "indexed": true,
          "internalType": "address",
          "name": "operator",
          "type": "address"
        },
        {
          "indexed": false,
          "internalType": "bool",
          "name": "approved",
          "type": "bool"
        }
      ],
      "name": "ApprovalForAll",
      "type": "event"
    },
    {
      "anonymous": false,
      "inputs": [
        {
          "indexed": true,
          "internalType": "address",
          "name": "previousOwner",
          "type": "address"
        },
        {
          "indexed": true,
          "internalType": "address",
          "name": "newOwner",
          "type": "address"
        }
      ],
      "name": "OwnershipTransferred",
      "type": "event"
    },
    {
      "anonymous": false,
      "inputs": [
        {
          "indexed": true,
          "internalType": "address",
          "name": "oldSigner",
          "type": "address"
        },
        {
          "indexed": true,
          "internalType": "address",
          "name": "_signer",
          "type": "address"
        }
      ],
      "name": "SignerChanged",
      "type": "event"
    },
    {
      "anonymous": false,
      "inputs": [
        {
          "indexed": true,
          "internalType": "address",
          "name": "operator",
          "type": "address"
        },
        {
          "indexed": true,
          "internalType": "address",
          "name": "from",
          "type": "address"
        },
        {
          "indexed": true,
          "internalType": "address",
          "name": "to",
          "type": "address"
        },
        {
          "indexed": false,
          "internalType": "uint256[]",
          "name": "ids",
          "type": "uint256[]"
        },
        {
          "indexed": false,
          "internalType": "uint256[]",
          "name": "values",
          "type": "uint256[]"
        }
      ],
      "name": "TransferBatch",
      "type": "event"
    },
    {
      "anonymous": false,
      "inputs": [
        {
          "indexed": true,
          "internalType": "address",
          "name": "operator",
          "type": "address"
        },
        {
          "indexed": true,
          "internalType": "address",
          "name": "from",
          "type": "address"
        },
        {
          "indexed": true,
          "internalType": "address",
          "name": "to",
          "type": "address"
        },
        {
          "indexed": false,
          "internalType": "uint256",
          "name": "id",
          "type": "uint256"
        },
        {
          "indexed": false,
          "internalType": "uint256",
          "name": "value",
          "type": "uint256"
        }
      ],
      "name": "TransferSingle",
      "type": "event"
    },
    {
      "anonymous": false,
      "inputs": [
        {
          "indexed": false,
          "internalType": "string",
          "name": "value",
          "type": "string"
        },
        {
          "indexed": true,
          "internalType": "uint256",
          "name": "id",
          "type": "uint256"
        }
      ],
      "name": "URI",
      "type": "event"
    },
    {
      "inputs": [
        {
          "internalType": "address",
          "name": "account",
          "type": "address"
        },
        {
          "internalType": "uint256",
          "name": "id",
          "type": "uint256"
        }
      ],
      "name": "balanceOf",
      "outputs": [
        {
          "internalType": "uint256",
          "name": "",
          "type": "uint256"
        }
      ],
      "stateMutability": "view",
      "type": "function"
    },
    {
      "inputs": [
        {
          "internalType": "address[]",
          "name": "accounts",
          "type": "address[]"
        },
        {
          "internalType": "uint256[]",
          "name": "ids",
          "type": "uint256[]"
        }
      ],
      "name": "balanceOfBatch",
      "outputs": [
        {
          "internalType": "uint256[]",
          "name": "",
          "type": "uint256[]"
        }
      ],
      "stateMutability": "view",
      "type": "function"
    },
    {
      "inputs": [
        {
          "internalType": "address",
          "name": "account",
          "type": "address"
        },
        {
          "internalType": "uint256",
          "name": "id",
          "type": "uint256"
        },
        {
          "internalType": "uint256",
          "name": "value",
          "type": "uint256"
        }
      ],
      "name": "burn",
      "outputs": [],
      "stateMutability": "nonpayable",
      "type": "function"
    },
    {
      "inputs": [
        {
          "internalType": "address",
          "name": "account",
          "type": "address"
        },
        {
          "internalType": "uint256[]",
          "name": "ids",
          "type": "uint256[]"
        },
        {
          "internalType": "uint256[]",
          "name": "values",
          "type": "uint256[]"
        }
      ],
      "name": "burnBatch",
      "outputs": [],
      "stateMutability": "nonpayable",
      "type": "function"
    },
    {
      "inputs": [
        {
          "internalType": "address",
          "name": "to",
          "type": "address"
        },
        {
          "internalType": "uint256",
          "name": "tokenId",
          "type": "uint256"
        },
        {
          "internalType": "uint256",
          "name": "amount",
          "type": "uint256"
        },
        {
          "internalType": "uint256",
          "name": "maxSupply",
          "type": "uint256"
        },
        {
          "internalType": "string",
          "name": "tokenUri",
          "type": "string"
        },
        {
          "internalType": "bytes",
          "name": "signature",
          "type": "bytes"
        }
      ],
      "name": "create",
      "outputs": [],
      "stateMutability": "nonpayable",
      "type": "function"
    },
    {
      "inputs": [
        {
          "internalType": "address",
          "name": "to",
          "type": "address"
        },
        {
          "internalType": "uint256",
          "name": "tokenId",
          "type": "uint256"
        },
        {
          "internalType": "uint256",
          "name": "amount",
          "type": "uint256"
        },
        {
          "internalType": "string",
          "name": "tokenUri",
          "type": "string"
        }
      ],
      "name": "createMessage",
      "outputs": [
        {
          "internalType": "bytes32",
          "name": "",
          "type": "bytes32"
        }
      ],
      "stateMutability": "view",
      "type": "function"
    },
    {
      "inputs": [
        {
          "internalType": "address",
          "name": "to",
          "type": "address"
        },
        {
          "internalType": "uint256",
          "name": "tokenId",
          "type": "uint256"
        },
        {
          "internalType": "uint256",
          "name": "amount",
          "type": "uint256"
        }
      ],
      "name": "createMessage",
      "outputs": [
        {
          "internalType": "bytes32",
          "name": "",
          "type": "bytes32"
        }
      ],
      "stateMutability": "view",
      "type": "function"
    },
    {
      "inputs": [
        {
          "internalType": "uint256",
          "name": "id",
          "type": "uint256"
        }
      ],
      "name": "exists",
      "outputs": [
        {
          "internalType": "bool",
          "name": "",
          "type": "bool"
        }
      ],
      "stateMutability": "view",
      "type": "function"
    },
    {
      "inputs": [
        {
          "internalType": "address",
          "name": "account",
          "type": "address"
        },
        {
          "internalType": "address",
          "name": "operator",
          "type": "address"
        }
      ],
      "name": "isApprovedForAll",
      "outputs": [
        {
          "internalType": "bool",
          "name": "",
          "type": "bool"
        }
      ],
      "stateMutability": "view",
      "type": "function"
    },
    {
      "inputs": [
        {
          "internalType": "address",
          "name": "",
          "type": "address"
        },
        {
          "internalType": "address",
          "name": "",
          "type": "address"
        },
        {
          "internalType": "uint256[]",
          "name": "",
          "type": "uint256[]"
        },
        {
          "internalType": "uint256[]",
          "name": "",
          "type": "uint256[]"
        },
        {
          "internalType": "bytes",
          "name": "",
          "type": "bytes"
        }
      ],
      "name": "isTransferIntoVaultAccepted",
      "outputs": [
        {
          "internalType": "bool",
          "name": "",
          "type": "bool"
        }
      ],
      "stateMutability": "nonpayable",
      "type": "function"
    },
    {
      "inputs": [
        {
          "internalType": "uint256",
          "name": "tokenId",
          "type": "uint256"
        },
        {
          "internalType": "uint256",
          "name": "amount",
          "type": "uint256"
        },
        {
          "internalType": "bytes",
          "name": "signature",
          "type": "bytes"
        }
      ],
      "name": "mint",
      "outputs": [],
      "stateMutability": "nonpayable",
      "type": "function"
    },
    {
      "inputs": [
        {
          "internalType": "address",
          "name": "to",
          "type": "address"
        },
        {
          "internalType": "uint256",
          "name": "tokenId",
          "type": "uint256"
        },
        {
          "internalType": "uint256",
          "name": "amount",
          "type": "uint256"
        },
        {
          "internalType": "bytes",
          "name": "signature",
          "type": "bytes"
        }
      ],
      "name": "mintTo",
      "outputs": [],
      "stateMutability": "nonpayable",
      "type": "function"
    },
    {
      "inputs": [
        {
          "internalType": "address",
          "name": "",
          "type": "address"
        },
        {
          "internalType": "address",
          "name": "",
          "type": "address"
        },
        {
          "internalType": "uint256[]",
          "name": "",
          "type": "uint256[]"
        },
        {
          "internalType": "uint256[]",
          "name": "",
          "type": "uint256[]"
        },
        {
          "internalType": "bytes",
          "name": "",
          "type": "bytes"
        }
      ],
      "name": "onTransferIntoVaultSuccessfullyDone",
      "outputs": [
        {
          "internalType": "bytes4",
          "name": "",
          "type": "bytes4"
        }
      ],
      "stateMutability": "nonpayable",
      "type": "function"
    },
    {
      "inputs": [],
      "name": "owner",
      "outputs": [
        {
          "internalType": "address",
          "name": "",
          "type": "address"
        }
      ],
      "stateMutability": "view",
      "type": "function"
    },
    {
      "inputs": [],
      "name": "renounceOwnership",
      "outputs": [],
      "stateMutability": "nonpayable",
      "type": "function"
    },
    {
      "inputs": [
        {
          "internalType": "address",
          "name": "from",
          "type": "address"
        },
        {
          "internalType": "address",
          "name": "to",
          "type": "address"
        },
        {
          "internalType": "uint256[]",
          "name": "ids",
          "type": "uint256[]"
        },
        {
          "internalType": "uint256[]",
          "name": "amounts",
          "type": "uint256[]"
        },
        {
          "internalType": "bytes",
          "name": "data",
          "type": "bytes"
        }
      ],
      "name": "safeBatchTransferFrom",
      "outputs": [],
      "stateMutability": "nonpayable",
      "type": "function"
    },
    {
      "inputs": [
        {
          "internalType": "address",
          "name": "from",
          "type": "address"
        },
        {
          "internalType": "address",
          "name": "to",
          "type": "address"
        },
        {
          "internalType": "uint256",
          "name": "id",
          "type": "uint256"
        },
        {
          "internalType": "uint256",
          "name": "amount",
          "type": "uint256"
        },
        {
          "internalType": "bytes",
          "name": "data",
          "type": "bytes"
        }
      ],
      "name": "safeTransferFrom",
      "outputs": [],
      "stateMutability": "nonpayable",
      "type": "function"
    },
    {
      "inputs": [
        {
          "internalType": "address",
          "name": "operator",
          "type": "address"
        },
        {
          "internalType": "bool",
          "name": "approved",
          "type": "bool"
        }
      ],
      "name": "setApprovalForAll",
      "outputs": [],
      "stateMutability": "nonpayable",
      "type": "function"
    },
    {
      "inputs": [
        {
          "internalType": "address",
          "name": "signer_",
          "type": "address"
        }
      ],
      "name": "setSigner",
      "outputs": [],
      "stateMutability": "nonpayable",
      "type": "function"
    },
    {
      "inputs": [
        {
          "internalType": "uint256",
          "name": "id",
          "type": "uint256"
        },
        {
          "internalType": "string",
          "name": "tokenUri",
          "type": "string"
        }
      ],
      "name": "setTokenUri",
      "outputs": [],
      "stateMutability": "nonpayable",
      "type": "function"
    },
    {
      "inputs": [],
      "name": "signer",
      "outputs": [
        {
          "internalType": "address",
          "name": "",
          "type": "address"
        }
      ],
      "stateMutability": "view",
      "type": "function"
    },
    {
      "inputs": [
        {
          "internalType": "bytes4",
          "name": "interfaceId",
          "type": "bytes4"
        }
      ],
      "name": "supportsInterface",
      "outputs": [
        {
          "internalType": "bool",
          "name": "",
          "type": "bool"
        }
      ],
      "stateMutability": "view",
      "type": "function"
    },
    {
      "inputs": [
        {
          "internalType": "uint256",
          "name": "id",
          "type": "uint256"
        }
      ],
      "name": "totalSupply",
      "outputs": [
        {
          "internalType": "uint256",
          "name": "",
          "type": "uint256"
        }
      ],
      "stateMutability": "view",
      "type": "function"
    },
    {
      "inputs": [
        {
          "internalType": "address",
          "name": "newOwner",
          "type": "address"
        }
      ],
      "name": "transferOwnership",
      "outputs": [],
      "stateMutability": "nonpayable",
      "type": "function"
    },
    {
      "inputs": [
        {
          "internalType": "uint256",
          "name": "id",
          "type": "uint256"
        }
      ],
      "name": "uri",
      "outputs": [
        {
          "internalType": "string",
          "name": "",
          "type": "string"
        }
      ],
      "stateMutability": "view",
      "type": "function"
    },
    {
      "inputs": [],
      "name": "withdraw",
      "outputs": [],
      "stateMutability": "nonpayable",
      "type": "function"
    }
  ],
  "transactionHash": "0x60f1f420db7779023e73ae2009adce156d212dbb2544c7fc86459a355686881c",
  "args": [
    "0xeebA72dcE016a06055dbD0318429053bEd738c7e",
    "ipfs://"
  ],
  "numDeployments": 4,
  "solcInputHash": "0b83fd30560fc4acc13e3ea1187deba1",
  "bytecode": "0x60806040523480156200001157600080fd5b506040516200329738038062003297833981016040819052620000349162000184565b80620000408162000073565b506200004c336200008c565b50600580546001600160a01b0319166001600160a01b0392909216919091179055620002d0565b805162000088906002906020840190620000de565b5050565b600480546001600160a01b038381166001600160a01b0319831681179093556040519116919082907f8be0079c531659141344cd1fd0a4f28419497f9722a3daafe3b4186f6b6457e090600090a35050565b828054620000ec906200027d565b90600052602060002090601f0160209004810192826200011057600085556200015b565b82601f106200012b57805160ff19168380011785556200015b565b828001600101855582156200015b579182015b828111156200015b5782518255916020019190600101906200013e565b50620001699291506200016d565b5090565b5b808211156200016957600081556001016200016e565b6000806040838503121562000197578182fd5b82516001600160a01b0381168114620001ae578283fd5b602084810151919350906001600160401b0380821115620001cd578384fd5b818601915086601f830112620001e1578384fd5b815181811115620001f657620001f6620002ba565b604051601f8201601f19908116603f01168101908382118183101715620002215762000221620002ba565b81604052828152898684870101111562000239578687fd5b8693505b828410156200025c57848401860151818501870152928501926200023d565b828411156200026d57868684830101525b8096505050505050509250929050565b600181811c908216806200029257607f821691505b60208210811415620002b457634e487b7160e01b600052602260045260246000fd5b50919050565b634e487b7160e01b600052604160045260246000fd5b612fb780620002e06000396000f3fe608060405234801561001057600080fd5b50600436106101ad5760003560e01c80636c19e783116100ee578063bd85b03911610097578063ed9ec58c11610071578063ed9ec58c14610416578063f242432a1461046f578063f2fde38b14610482578063f5298aca1461049557600080fd5b8063bd85b039146103a1578063df9c3e64146103c1578063e985e9c5146103da57600080fd5b80638aaab707116100c85780638aaab7071461032c5780638da5cb5b1461037d578063a22cb4651461038e57600080fd5b80636c19e783146102fe578063715018a61461031157806383a9a2201461031957600080fd5b8063280f4e281161015b5780634e1273f4116101355780634e1273f4146102965780634f558e79146102b657806357f7789e146102d85780636b20c454146102eb57600080fd5b8063280f4e28146102685780632eb2c2d61461027b5780633ccfd60b1461028e57600080fd5b80630e89341c1161018c5780630e89341c1461021057806320d4f41b14610230578063238ac9331461024357600080fd5b8062fdd58e146101b257806301ffc9a7146101d857806308dc9f42146101fb575b600080fd5b6101c56101c036600461293f565b6104a8565b6040519081526020015b60405180910390f35b6101eb6101e6366004612b51565b610551565b60405190151581526020016101cf565b61020e610209366004612bdc565b6105ee565b005b61022361021e366004612b89565b61061a565b6040516101cf9190612dcb565b6101c561023e36600461299a565b6106bc565b6005546001600160a01b03165b6040516001600160a01b0390911681526020016101cf565b61020e61027636600461299a565b6106f7565b61020e61028936600461278b565b61090d565b61020e6109af565b6102a96102a4366004612a86565b610a3c565b6040516101cf9190612d8a565b6101eb6102c4366004612b89565b600090815260036020526040902054151590565b61020e6102e6366004612ba1565b610bb2565b61020e6102f9366004612894565b610c16565b61020e61030c366004612738565b610ca0565b61020e610db7565b61020e6103273660046129f9565b610e1d565b61036461033a36600461278b565b7f8aaab7070000000000000000000000000000000000000000000000000000000095945050505050565b6040516001600160e01b031990911681526020016101cf565b6004546001600160a01b0316610250565b61020e61039c366004612905565b611003565b6101c56103af366004612b89565b60009081526003602052604090205490565b6101eb6103cf36600461278b565b600195945050505050565b6101eb6103e8366004612759565b6001600160a01b03918216600090815260016020908152604080832093909416825291909152205460ff1690565b6101c5610424366004612968565b604080516001600160a01b03851660208201529081018390526060810182905230608082015260009060a0016040516020818303038152906040528051906020012090509392505050565b61020e61047d366004612831565b61100e565b61020e610490366004612738565b611095565b61020e6104a3366004612968565b611177565b60006001600160a01b03831661052b5760405162461bcd60e51b815260206004820152602b60248201527f455243313135353a2062616c616e636520717565727920666f7220746865207a60448201527f65726f206164647265737300000000000000000000000000000000000000000060648201526084015b60405180910390fd5b506000908152602081815260408083206001600160a01b03949094168352929052205490565b60006001600160e01b031982167fd9b67a260000000000000000000000000000000000000000000000000000000014806105b457506001600160e01b031982167f0e89341c00000000000000000000000000000000000000000000000000000000145b806105e857507f01ffc9a7000000000000000000000000000000000000000000000000000000006001600160e01b03198316145b92915050565b600083815260036020526040902054839061060857600080fd5b610614338585856106f7565b50505050565b600081815260066020526040902080546060919061063790612e1a565b80601f016020809104026020016040519081016040528092919081815260200182805461066390612e1a565b80156106b05780601f10610685576101008083540402835291602001916106b0565b820191906000526020600020905b81548152906001019060200180831161069357829003601f168201915b50505050509050919050565b600084848484306040516020016106d7959493929190612d46565b604051602081830303815290604052805190602001209050949350505050565b600083815260036020526040902054839061071157600080fd5b60006107ba610767878787604080516001600160a01b03851660208201529081018390526060810182905230608082015260009060a0016040516020818303038152906040528051906020012090509392505050565b6040517f19457468657265756d205369676e6564204d6573736167653a0a3332000000006020820152603c8101829052600090605c01604051602081830303815290604052805190602001209050919050565b90506107ce6005546001600160a01b031690565b6001600160a01b03166107e182856111fc565b6001600160a01b03161461085d5760405162461bcd60e51b815260206004820152603b60248201527f456974686572207369676e61747572652069732077726f6e67206f722070617260448201527f616d65746572732068617665206265656e20636f7272757074656400000000006064820152608401610522565b6000858152600760209081526040808320546003909252909120546108829086612e02565b11156108f65760405162461bcd60e51b815260206004820152602360248201527f4d696e7420776f756c642076696f6c617465206d617820746f6b656e2073757060448201527f706c7900000000000000000000000000000000000000000000000000000000006064820152608401610522565b606061090487878784611218565b50505050505050565b6001600160a01b038516331480610929575061092985336103e8565b61099b5760405162461bcd60e51b815260206004820152603260248201527f455243313135353a207472616e736665722063616c6c6572206973206e6f742060448201527f6f776e6572206e6f7220617070726f76656400000000000000000000000000006064820152608401610522565b6109a8858585858561134e565b5050505050565b6004546001600160a01b03163314610a095760405162461bcd60e51b815260206004820181905260248201527f4f776e61626c653a2063616c6c6572206973206e6f7420746865206f776e65726044820152606401610522565b6040514790339082156108fc029083906000818181858888f19350505050158015610a38573d6000803e3d6000fd5b5050565b60608151835114610ab55760405162461bcd60e51b815260206004820152602960248201527f455243313135353a206163636f756e747320616e6420696473206c656e67746860448201527f206d69736d6174636800000000000000000000000000000000000000000000006064820152608401610522565b6000835167ffffffffffffffff811115610adf57634e487b7160e01b600052604160045260246000fd5b604051908082528060200260200182016040528015610b08578160200160208202803683370190505b50905060005b8451811015610baa57610b6f858281518110610b3a57634e487b7160e01b600052603260045260246000fd5b6020026020010151858381518110610b6257634e487b7160e01b600052603260045260246000fd5b60200260200101516104a8565b828281518110610b8f57634e487b7160e01b600052603260045260246000fd5b6020908102919091010152610ba381612e82565b9050610b0e565b509392505050565b6004546001600160a01b03163314610c0c5760405162461bcd60e51b815260206004820181905260248201527f4f776e61626c653a2063616c6c6572206973206e6f7420746865206f776e65726044820152606401610522565b610a3882826115d6565b6001600160a01b038316331480610c325750610c3283336103e8565b610c905760405162461bcd60e51b815260206004820152602960248201527f455243313135353a2063616c6c6572206973206e6f74206f776e6572206e6f7260448201526808185c1c1c9bdd995960ba1b6064820152608401610522565b610c9b8383836115f5565b505050565b6004546001600160a01b03163314610cfa5760405162461bcd60e51b815260206004820181905260248201527f4f776e61626c653a2063616c6c6572206973206e6f7420746865206f776e65726044820152606401610522565b6005546001600160a01b0382811691161415610d585760405162461bcd60e51b815260206004820152601960248201527f4164647265737320697320616c7265616479207369676e6572000000000000006044820152606401610522565b600580546001600160a01b0383811673ffffffffffffffffffffffffffffffffffffffff19831681179093556040519116919082907feeb293e1f8f3a9db91ade748726387ed1352ca78f5430c5f06fe3d1e1ad5057990600090a35050565b6004546001600160a01b03163314610e115760405162461bcd60e51b815260206004820181905260248201527f4f776e61626c653a2063616c6c6572206973206e6f7420746865206f776e65726044820152606401610522565b610e1b6000611866565b565b60008581526003602052604090205415610e9f5760405162461bcd60e51b815260206004820152602660248201527f546f6b656e20616c7265616479206578697374732c20757365206d696e74206960448201527f6e737465616400000000000000000000000000000000000000000000000000006064820152608401610522565b6000610eb0610767888888876106bc565b9050610ec46005546001600160a01b031690565b6001600160a01b0316610ed782846111fc565b6001600160a01b031614610f535760405162461bcd60e51b815260206004820152603b60248201527f456974686572207369676e61747572652069732077726f6e67206f722070617260448201527f616d65746572732068617665206265656e20636f7272757074656400000000006064820152608401610522565b83851115610fc95760405162461bcd60e51b815260206004820152602660248201527f496e697469616c20737570706c792067726561746572207468616e206d61782060448201527f737570706c7900000000000000000000000000000000000000000000000000006064820152608401610522565b6060610fd788888884611218565b6000878152600760205260409020859055835115610ff957610ff987856115d6565b5050505050505050565b610a383383836118c5565b6001600160a01b03851633148061102a575061102a85336103e8565b6110885760405162461bcd60e51b815260206004820152602960248201527f455243313135353a2063616c6c6572206973206e6f74206f776e6572206e6f7260448201526808185c1c1c9bdd995960ba1b6064820152608401610522565b6109a885858585856119ba565b6004546001600160a01b031633146110ef5760405162461bcd60e51b815260206004820181905260248201527f4f776e61626c653a2063616c6c6572206973206e6f7420746865206f776e65726044820152606401610522565b6001600160a01b03811661116b5760405162461bcd60e51b815260206004820152602660248201527f4f776e61626c653a206e6577206f776e657220697320746865207a65726f206160448201527f64647265737300000000000000000000000000000000000000000000000000006064820152608401610522565b61117481611866565b50565b6001600160a01b038316331480611193575061119383336103e8565b6111f15760405162461bcd60e51b815260206004820152602960248201527f455243313135353a2063616c6c6572206973206e6f74206f776e6572206e6f7260448201526808185c1c1c9bdd995960ba1b6064820152608401610522565b610c9b838383611b73565b600080600061120b8585611d03565b91509150610baa81611d73565b6001600160a01b0384166112945760405162461bcd60e51b815260206004820152602160248201527f455243313135353a206d696e7420746f20746865207a65726f2061646472657360448201527f73000000000000000000000000000000000000000000000000000000000000006064820152608401610522565b3360006112a085611f74565b905060006112ad85611f74565b90506112be83600089858589611fcd565b6000868152602081815260408083206001600160a01b038b168452909152812080548792906112ee908490612e02565b909155505060408051878152602081018790526001600160a01b03808a1692600092918716917fc3d58168c5ae7397731d063d5bbf3d657854427343f4c083240f7aacaa2d0f62910160405180910390a461090483600089898989611fdb565b81518351146113b05760405162461bcd60e51b815260206004820152602860248201527f455243313135353a2069647320616e6420616d6f756e7473206c656e677468206044820152670dad2e6dac2e8c6d60c31b6064820152608401610522565b6001600160a01b0384166114145760405162461bcd60e51b815260206004820152602560248201527f455243313135353a207472616e7366657220746f20746865207a65726f206164604482015264647265737360d81b6064820152608401610522565b33611423818787878787611fcd565b60005b845181101561156857600085828151811061145157634e487b7160e01b600052603260045260246000fd5b60200260200101519050600085838151811061147d57634e487b7160e01b600052603260045260246000fd5b602090810291909101810151600084815280835260408082206001600160a01b038e1683529093529190912054909150818110156115105760405162461bcd60e51b815260206004820152602a60248201527f455243313135353a20696e73756666696369656e742062616c616e636520666f60448201526939103a3930b739b332b960b11b6064820152608401610522565b6000838152602081815260408083206001600160a01b038e8116855292528083208585039055908b1682528120805484929061154d908490612e02565b925050819055505050508061156190612e82565b9050611426565b50846001600160a01b0316866001600160a01b0316826001600160a01b03167f4a39dc06d4c0dbc64b70af90fd698a233a518aa5d07e595d983b8c0526c8f7fb87876040516115b8929190612d9d565b60405180910390a46115ce818787878787612190565b505050505050565b60008281526006602090815260409091208251610c9b928401906125a0565b6001600160a01b0383166116575760405162461bcd60e51b815260206004820152602360248201527f455243313135353a206275726e2066726f6d20746865207a65726f206164647260448201526265737360e81b6064820152608401610522565b80518251146116b95760405162461bcd60e51b815260206004820152602860248201527f455243313135353a2069647320616e6420616d6f756e7473206c656e677468206044820152670dad2e6dac2e8c6d60c31b6064820152608401610522565b60003390506116dc81856000868660405180602001604052806000815250611fcd565b60005b83518110156117f957600084828151811061170a57634e487b7160e01b600052603260045260246000fd5b60200260200101519050600084838151811061173657634e487b7160e01b600052603260045260246000fd5b602090810291909101810151600084815280835260408082206001600160a01b038c1683529093529190912054909150818110156117c25760405162461bcd60e51b8152602060048201526024808201527f455243313135353a206275726e20616d6f756e7420657863656564732062616c604482015263616e636560e01b6064820152608401610522565b6000928352602083815260408085206001600160a01b038b16865290915290922091039055806117f181612e82565b9150506116df565b5060006001600160a01b0316846001600160a01b0316826001600160a01b03167f4a39dc06d4c0dbc64b70af90fd698a233a518aa5d07e595d983b8c0526c8f7fb868660405161184a929190612d9d565b60405180910390a4604080516020810190915260009052610614565b600480546001600160a01b0383811673ffffffffffffffffffffffffffffffffffffffff19831681179093556040519116919082907f8be0079c531659141344cd1fd0a4f28419497f9722a3daafe3b4186f6b6457e090600090a35050565b816001600160a01b0316836001600160a01b0316141561194d5760405162461bcd60e51b815260206004820152602960248201527f455243313135353a2073657474696e6720617070726f76616c2073746174757360448201527f20666f722073656c6600000000000000000000000000000000000000000000006064820152608401610522565b6001600160a01b03838116600081815260016020908152604080832094871680845294825291829020805460ff191686151590811790915591519182527f17307eab39ab6107e8899845ad3d59bd9653f200f220920489ca2b5937696c31910160405180910390a3505050565b6001600160a01b038416611a1e5760405162461bcd60e51b815260206004820152602560248201527f455243313135353a207472616e7366657220746f20746865207a65726f206164604482015264647265737360d81b6064820152608401610522565b336000611a2a85611f74565b90506000611a3785611f74565b9050611a47838989858589611fcd565b6000868152602081815260408083206001600160a01b038c16845290915290205485811015611acb5760405162461bcd60e51b815260206004820152602a60248201527f455243313135353a20696e73756666696369656e742062616c616e636520666f60448201526939103a3930b739b332b960b11b6064820152608401610522565b6000878152602081815260408083206001600160a01b038d8116855292528083208985039055908a16825281208054889290611b08908490612e02565b909155505060408051888152602081018890526001600160a01b03808b16928c821692918816917fc3d58168c5ae7397731d063d5bbf3d657854427343f4c083240f7aacaa2d0f62910160405180910390a4611b68848a8a8a8a8a611fdb565b505050505050505050565b6001600160a01b038316611bd55760405162461bcd60e51b815260206004820152602360248201527f455243313135353a206275726e2066726f6d20746865207a65726f206164647260448201526265737360e81b6064820152608401610522565b336000611be184611f74565b90506000611bee84611f74565b9050611c0e83876000858560405180602001604052806000815250611fcd565b6000858152602081815260408083206001600160a01b038a16845290915290205484811015611c8b5760405162461bcd60e51b8152602060048201526024808201527f455243313135353a206275726e20616d6f756e7420657863656564732062616c604482015263616e636560e01b6064820152608401610522565b6000868152602081815260408083206001600160a01b038b81168086529184528285208a8703905582518b81529384018a90529092908816917fc3d58168c5ae7397731d063d5bbf3d657854427343f4c083240f7aacaa2d0f62910160405180910390a4604080516020810190915260009052610904565b600080825160411415611d3a5760208301516040840151606085015160001a611d2e8782858561229b565b94509450505050611d6c565b825160401415611d645760208301516040840151611d59868383612388565b935093505050611d6c565b506000905060025b9250929050565b6000816004811115611d9557634e487b7160e01b600052602160045260246000fd5b1415611d9e5750565b6001816004811115611dc057634e487b7160e01b600052602160045260246000fd5b1415611e0e5760405162461bcd60e51b815260206004820152601860248201527f45434453413a20696e76616c6964207369676e617475726500000000000000006044820152606401610522565b6002816004811115611e3057634e487b7160e01b600052602160045260246000fd5b1415611e7e5760405162461bcd60e51b815260206004820152601f60248201527f45434453413a20696e76616c6964207369676e6174757265206c656e677468006044820152606401610522565b6003816004811115611ea057634e487b7160e01b600052602160045260246000fd5b1415611ef95760405162461bcd60e51b815260206004820152602260248201527f45434453413a20696e76616c6964207369676e6174757265202773272076616c604482015261756560f01b6064820152608401610522565b6004816004811115611f1b57634e487b7160e01b600052602160045260246000fd5b14156111745760405162461bcd60e51b815260206004820152602260248201527f45434453413a20696e76616c6964207369676e6174757265202776272076616c604482015261756560f01b6064820152608401610522565b60408051600180825281830190925260609160009190602080830190803683370190505090508281600081518110611fbc57634e487b7160e01b600052603260045260246000fd5b602090810291909101015292915050565b6115ce8686868686866123da565b6001600160a01b0384163b156115ce5760405163f23a6e6160e01b81526001600160a01b0385169063f23a6e619061201f9089908990889088908890600401612d03565b602060405180830381600087803b15801561203957600080fd5b505af1925050508015612069575060408051601f3d908101601f1916820190925261206691810190612b6d565b60015b61211f57612075612ec9565b806308c379a014156120af575061208a612ee1565b8061209557506120b1565b8060405162461bcd60e51b81526004016105229190612dcb565b505b60405162461bcd60e51b815260206004820152603460248201527f455243313135353a207472616e7366657220746f206e6f6e204552433131353560448201527f526563656976657220696d706c656d656e7465720000000000000000000000006064820152608401610522565b6001600160e01b0319811663f23a6e6160e01b146109045760405162461bcd60e51b815260206004820152602860248201527f455243313135353a204552433131353552656365697665722072656a656374656044820152676420746f6b656e7360c01b6064820152608401610522565b6001600160a01b0384163b156115ce5760405163bc197c8160e01b81526001600160a01b0385169063bc197c81906121d49089908990889088908890600401612ca5565b602060405180830381600087803b1580156121ee57600080fd5b505af192505050801561221e575060408051601f3d908101601f1916820190925261221b91810190612b6d565b60015b61222a57612075612ec9565b6001600160e01b0319811663bc197c8160e01b146109045760405162461bcd60e51b815260206004820152602860248201527f455243313135353a204552433131353552656365697665722072656a656374656044820152676420746f6b656e7360c01b6064820152608401610522565b6000807f7fffffffffffffffffffffffffffffff5d576e7357a4501ddfe92f46681b20a08311156122d2575060009050600361237f565b8460ff16601b141580156122ea57508460ff16601c14155b156122fb575060009050600461237f565b6040805160008082526020820180845289905260ff881692820192909252606081018690526080810185905260019060a0016020604051602081039080840390855afa15801561234f573d6000803e3d6000fd5b5050604051601f1901519150506001600160a01b0381166123785760006001925092505061237f565b9150600090505b94509492505050565b6000807f7fffffffffffffffffffffffffffffffffffffffffffffffffffffffffffffff8316816123be60ff86901c601b612e02565b90506123cc8782888561229b565b935093505050935093915050565b6001600160a01b03851661247d5760005b835181101561247b5782818151811061241457634e487b7160e01b600052603260045260246000fd5b60200260200101516003600086848151811061244057634e487b7160e01b600052603260045260246000fd5b6020026020010151815260200190815260200160002060008282546124659190612e02565b90915550612474905081612e82565b90506123eb565b505b6001600160a01b0384166115ce5760005b83518110156109045760008482815181106124b957634e487b7160e01b600052603260045260246000fd5b6020026020010151905060008483815181106124e557634e487b7160e01b600052603260045260246000fd5b602002602001015190506000600360008481526020019081526020016000205490508181101561257d5760405162461bcd60e51b815260206004820152602860248201527f455243313135353a206275726e20616d6f756e74206578636565647320746f7460448201527f616c537570706c790000000000000000000000000000000000000000000000006064820152608401610522565b6000928352600360205260409092209103905561259981612e82565b905061248e565b8280546125ac90612e1a565b90600052602060002090601f0160209004810192826125ce5760008555612614565b82601f106125e757805160ff1916838001178555612614565b82800160010185558215612614579182015b828111156126145782518255916020019190600101906125f9565b50612620929150612624565b5090565b5b808211156126205760008155600101612625565b80356001600160a01b038116811461265057600080fd5b919050565b600082601f830112612665578081fd5b8135602061267282612dde565b60405161267f8282612e55565b8381528281019150858301600585901b8701840188101561269e578586fd5b855b858110156126bc578135845292840192908401906001016126a0565b5090979650505050505050565b600082601f8301126126d9578081fd5b813567ffffffffffffffff8111156126f3576126f3612eb3565b60405161270a601f8301601f191660200182612e55565b81815284602083860101111561271e578283fd5b816020850160208301379081016020019190915292915050565b600060208284031215612749578081fd5b61275282612639565b9392505050565b6000806040838503121561276b578081fd5b61277483612639565b915061278260208401612639565b90509250929050565b600080600080600060a086880312156127a2578081fd5b6127ab86612639565b94506127b960208701612639565b9350604086013567ffffffffffffffff808211156127d5578283fd5b6127e189838a01612655565b945060608801359150808211156127f6578283fd5b61280289838a01612655565b93506080880135915080821115612817578283fd5b50612824888289016126c9565b9150509295509295909350565b600080600080600060a08688031215612848578081fd5b61285186612639565b945061285f60208701612639565b93506040860135925060608601359150608086013567ffffffffffffffff811115612888578182fd5b612824888289016126c9565b6000806000606084860312156128a8578283fd5b6128b184612639565b9250602084013567ffffffffffffffff808211156128cd578384fd5b6128d987838801612655565b935060408601359150808211156128ee578283fd5b506128fb86828701612655565b9150509250925092565b60008060408385031215612917578182fd5b61292083612639565b915060208301358015158114612934578182fd5b809150509250929050565b60008060408385031215612951578182fd5b61295a83612639565b946020939093013593505050565b60008060006060848603121561297c578081fd5b61298584612639565b95602085013595506040909401359392505050565b600080600080608085870312156129af578182fd5b6129b885612639565b93506020850135925060408501359150606085013567ffffffffffffffff8111156129e1578182fd5b6129ed878288016126c9565b91505092959194509250565b60008060008060008060c08789031215612a11578384fd5b612a1a87612639565b9550602087013594506040870135935060608701359250608087013567ffffffffffffffff80821115612a4b578283fd5b612a578a838b016126c9565b935060a0890135915080821115612a6c578283fd5b50612a7989828a016126c9565b9150509295509295509295565b60008060408385031215612a98578182fd5b823567ffffffffffffffff80821115612aaf578384fd5b818501915085601f830112612ac2578384fd5b81356020612acf82612dde565b604051612adc8282612e55565b8381528281019150858301600585901b870184018b1015612afb578889fd5b8896505b84871015612b2457612b1081612639565b835260019690960195918301918301612aff565b5096505086013592505080821115612b3a578283fd5b50612b4785828601612655565b9150509250929050565b600060208284031215612b62578081fd5b813561275281612f6b565b600060208284031215612b7e578081fd5b815161275281612f6b565b600060208284031215612b9a578081fd5b5035919050565b60008060408385031215612bb3578182fd5b82359150602083013567ffffffffffffffff811115612bd0578182fd5b612b47858286016126c9565b600080600060608486031215612bf0578081fd5b8335925060208401359150604084013567ffffffffffffffff811115612c14578182fd5b6128fb868287016126c9565b6000815180845260208085019450808401835b83811015612c4f57815187529582019590820190600101612c33565b509495945050505050565b60008151808452815b81811015612c7f57602081850181015186830182015201612c63565b81811115612c905782602083870101525b50601f01601f19169290920160200192915050565b60006001600160a01b03808816835280871660208401525060a06040830152612cd160a0830186612c20565b8281036060840152612ce38186612c20565b90508281036080840152612cf78185612c5a565b98975050505050505050565b60006001600160a01b03808816835280871660208401525084604083015283606083015260a06080830152612d3b60a0830184612c5a565b979650505050505050565b60006001600160a01b03808816835286602084015285604084015260a06060840152612d7560a0840186612c5a565b91508084166080840152509695505050505050565b6020815260006127526020830184612c20565b604081526000612db06040830185612c20565b8281036020840152612dc28185612c20565b95945050505050565b6020815260006127526020830184612c5a565b600067ffffffffffffffff821115612df857612df8612eb3565b5060051b60200190565b60008219821115612e1557612e15612e9d565b500190565b600181811c90821680612e2e57607f821691505b60208210811415612e4f57634e487b7160e01b600052602260045260246000fd5b50919050565b601f8201601f1916810167ffffffffffffffff81118282101715612e7b57612e7b612eb3565b6040525050565b6000600019821415612e9657612e96612e9d565b5060010190565b634e487b7160e01b600052601160045260246000fd5b634e487b7160e01b600052604160045260246000fd5b600060033d1115612ede57600481823e5160e01c5b90565b600060443d1015612eef5790565b6040516003193d81016004833e81513d67ffffffffffffffff8160248401118184111715612f1f57505050505090565b8285019150815181811115612f375750505050505090565b843d8701016020828501011115612f515750505050505090565b612f6060208286010187612e55565b509095945050505050565b6001600160e01b03198116811461117457600080fdfea2646970667358221220f6ce692bd9f92ac59a3b6c4e0e776018c484a8d2200a06a2cab07c17c77610d564736f6c63430008040033",
  "devdoc": {
    "kind": "dev",
    "methods": {
      "balanceOf(address,uint256)": {
        "details": "See {IERC1155-balanceOf}. Requirements: - `account` cannot be the zero address."
      },
      "balanceOfBatch(address[],uint256[])": {
        "details": "See {IERC1155-balanceOfBatch}. Requirements: - `accounts` and `ids` must have the same length."
      },
      "create(address,uint256,uint256,uint256,string,bytes)": {
        "details": "Creates a new token with max supply, mints $amount into $to address"
      },
      "createMessage(address,uint256,uint256)": {
        "params": {
          "amount": "the amount of tokens",
          "to": "the beneficiary",
          "tokenId": "the token id"
        },
        "returns": {
          "_0": "the message to sign"
        }
      },
      "createMessage(address,uint256,uint256,string)": {
        "params": {
          "amount": "the amount of tokens",
          "to": "the beneficiary",
          "tokenId": "the token id",
          "tokenUri": "The tokenUri"
        },
        "returns": {
          "_0": "the message to sign"
        }
      },
      "exists(uint256)": {
        "details": "Indicates whether any token exist with a given id, or not."
      },
      "isApprovedForAll(address,address)": {
        "details": "See {IERC1155-isApprovedForAll}."
      },
      "mint(uint256,uint256,bytes)": {
        "details": "Mints token into msg.sender for existing tokenId to a specific beneficiary maximum supply may not exceed maxTokenSupplies[tokenId]",
        "params": {
          "amount": "the amount of tokens",
          "tokenId": "the token id"
        }
      },
      "mintTo(address,uint256,uint256,bytes)": {
        "details": "Mints token at beneficiary-address for existing tokenId to a specific beneficiary maximum supply may not exceed maxTokenSupplies[tokenId]",
        "params": {
          "amount": "the amount of tokens",
          "to": "the beneficiary",
          "tokenId": "the token id"
        }
      },
      "owner()": {
        "details": "Returns the address of the current owner."
      },
      "renounceOwnership()": {
        "details": "Leaves the contract without owner. It will not be possible to call `onlyOwner` functions anymore. Can only be called by the current owner. NOTE: Renouncing ownership will leave the contract without an owner, thereby removing any functionality that is only available to the owner."
      },
      "safeBatchTransferFrom(address,address,uint256[],uint256[],bytes)": {
        "details": "See {IERC1155-safeBatchTransferFrom}."
      },
      "safeTransferFrom(address,address,uint256,uint256,bytes)": {
        "details": "See {IERC1155-safeTransferFrom}."
      },
      "setApprovalForAll(address,bool)": {
        "details": "See {IERC1155-setApprovalForAll}."
      },
      "signer()": {
        "returns": {
          "_0": "the signer address"
        }
      },
      "supportsInterface(bytes4)": {
        "details": "See {IERC165-supportsInterface}."
      },
      "totalSupply(uint256)": {
        "details": "Total amount of tokens in with a given id."
      },
      "transferOwnership(address)": {
        "details": "Transfers ownership of the contract to a new account (`newOwner`). Can only be called by the current owner."
      }
    },
    "version": 1
  },
  "userdoc": {
    "kind": "user",
    "methods": {
      "createMessage(address,uint256,uint256)": {
        "notice": "Helper that creates the message that signer needs to sign to allow a mint         this is usually also used when creating the allowances, to ensure \"message\"         is the same"
      },
      "createMessage(address,uint256,uint256,string)": {
        "notice": "Helper that creates the message that signer needs to sign to allow a mint         this is usually also used when creating the allowances, to ensure \"message\"         is the same"
      },
      "signer()": {
        "notice": "Helper to know signers address"
      }
    },
    "version": 1
  },
  "storageLayout": {
    "storage": [
      {
        "astId": 765,
        "contract": "contracts/CarbonX.sol:CarbonX",
        "label": "_balances",
        "offset": 0,
        "slot": "0",
        "type": "t_mapping(t_uint256,t_mapping(t_address,t_uint256))"
      },
      {
        "astId": 771,
        "contract": "contracts/CarbonX.sol:CarbonX",
        "label": "_operatorApprovals",
        "offset": 0,
        "slot": "1",
        "type": "t_mapping(t_address,t_mapping(t_address,t_bool))"
      },
      {
        "astId": 773,
        "contract": "contracts/CarbonX.sol:CarbonX",
        "label": "_uri",
        "offset": 0,
        "slot": "2",
        "type": "t_string_storage"
      },
      {
        "astId": 2204,
        "contract": "contracts/CarbonX.sol:CarbonX",
        "label": "_totalSupply",
        "offset": 0,
        "slot": "3",
        "type": "t_mapping(t_uint256,t_uint256)"
      },
      {
        "astId": 550,
        "contract": "contracts/CarbonX.sol:CarbonX",
        "label": "_owner",
        "offset": 0,
        "slot": "4",
        "type": "t_address"
      },
      {
        "astId": 5732,
        "contract": "contracts/CarbonX.sol:CarbonX",
        "label": "_signer",
        "offset": 0,
        "slot": "5",
        "type": "t_address"
      },
      {
        "astId": 5742,
        "contract": "contracts/CarbonX.sol:CarbonX",
        "label": "_tokenUris",
        "offset": 0,
        "slot": "6",
        "type": "t_mapping(t_uint256,t_string_storage)"
      },
      {
        "astId": 5746,
        "contract": "contracts/CarbonX.sol:CarbonX",
        "label": "_maxTokenSupplies",
        "offset": 0,
        "slot": "7",
        "type": "t_mapping(t_uint256,t_uint256)"
      }
    ],
    "types": {
      "t_address": {
        "encoding": "inplace",
        "label": "address",
        "numberOfBytes": "20"
      },
      "t_bool": {
        "encoding": "inplace",
        "label": "bool",
        "numberOfBytes": "1"
      },
      "t_mapping(t_address,t_bool)": {
        "encoding": "mapping",
        "key": "t_address",
        "label": "mapping(address => bool)",
        "numberOfBytes": "32",
        "value": "t_bool"
      },
      "t_mapping(t_address,t_mapping(t_address,t_bool))": {
        "encoding": "mapping",
        "key": "t_address",
        "label": "mapping(address => mapping(address => bool))",
        "numberOfBytes": "32",
        "value": "t_mapping(t_address,t_bool)"
      },
      "t_mapping(t_address,t_uint256)": {
        "encoding": "mapping",
        "key": "t_address",
        "label": "mapping(address => uint256)",
        "numberOfBytes": "32",
        "value": "t_uint256"
      },
      "t_mapping(t_uint256,t_mapping(t_address,t_uint256))": {
        "encoding": "mapping",
        "key": "t_uint256",
        "label": "mapping(uint256 => mapping(address => uint256))",
        "numberOfBytes": "32",
        "value": "t_mapping(t_address,t_uint256)"
      },
      "t_mapping(t_uint256,t_string_storage)": {
        "encoding": "mapping",
        "key": "t_uint256",
        "label": "mapping(uint256 => string)",
        "numberOfBytes": "32",
        "value": "t_string_storage"
      },
      "t_mapping(t_uint256,t_uint256)": {
        "encoding": "mapping",
        "key": "t_uint256",
        "label": "mapping(uint256 => uint256)",
        "numberOfBytes": "32",
        "value": "t_uint256"
      },
      "t_string_storage": {
        "encoding": "bytes",
        "label": "string",
        "numberOfBytes": "32"
      },
      "t_uint256": {
        "encoding": "inplace",
        "label": "uint256",
        "numberOfBytes": "32"
      }
    }
  }
}