{
  "address": "0x41410f96579D3a8F747588816B84D99faDec6Cef",
  "abi": [
    {
      "inputs": [
        {
          "internalType": "contract CarbonReceipt",
          "name": "receiptToken_",
          "type": "address"
        },
        {
          "internalType": "string",
          "name": "baseUri_",
          "type": "string"
        }
      ],
      "stateMutability": "nonpayable",
      "type": "constructor"
    },
    {
      "anonymous": false,
      "inputs": [
        {
          "indexed": true,
          "internalType": "address",
          "name": "account",
          "type": "address"
        },
        {
          "indexed": true,
          "internalType": "address",
          "name": "operator",
          "type": "address"
        },
        {
          "indexed": false,
          "internalType": "bool",
          "name": "approved",
          "type": "bool"
        }
      ],
      "name": "ApprovalForAll",
      "type": "event"
    },
    {
      "anonymous": false,
      "inputs": [
        {
          "indexed": true,
          "internalType": "address",
          "name": "previousOwner",
          "type": "address"
        },
        {
          "indexed": true,
          "internalType": "address",
          "name": "newOwner",
          "type": "address"
        }
      ],
      "name": "OwnershipTransferred",
      "type": "event"
    },
    {
      "anonymous": false,
      "inputs": [
        {
          "indexed": true,
          "internalType": "address",
          "name": "oldSigner",
          "type": "address"
        },
        {
          "indexed": true,
          "internalType": "address",
          "name": "_signer",
          "type": "address"
        }
      ],
      "name": "SignerChanged",
      "type": "event"
    },
    {
      "anonymous": false,
      "inputs": [
        {
          "indexed": true,
          "internalType": "address",
          "name": "operator",
          "type": "address"
        },
        {
          "indexed": true,
          "internalType": "address",
          "name": "from",
          "type": "address"
        },
        {
          "indexed": true,
          "internalType": "address",
          "name": "to",
          "type": "address"
        },
        {
          "indexed": false,
          "internalType": "uint256[]",
          "name": "ids",
          "type": "uint256[]"
        },
        {
          "indexed": false,
          "internalType": "uint256[]",
          "name": "values",
          "type": "uint256[]"
        }
      ],
      "name": "TransferBatch",
      "type": "event"
    },
    {
      "anonymous": false,
      "inputs": [
        {
          "indexed": true,
          "internalType": "address",
          "name": "operator",
          "type": "address"
        },
        {
          "indexed": true,
          "internalType": "address",
          "name": "from",
          "type": "address"
        },
        {
          "indexed": true,
          "internalType": "address",
          "name": "to",
          "type": "address"
        },
        {
          "indexed": false,
          "internalType": "uint256",
          "name": "id",
          "type": "uint256"
        },
        {
          "indexed": false,
          "internalType": "uint256",
          "name": "value",
          "type": "uint256"
        }
      ],
      "name": "TransferSingle",
      "type": "event"
    },
    {
      "anonymous": false,
      "inputs": [
        {
          "indexed": false,
          "internalType": "string",
          "name": "value",
          "type": "string"
        },
        {
          "indexed": true,
          "internalType": "uint256",
          "name": "id",
          "type": "uint256"
        }
      ],
      "name": "URI",
      "type": "event"
    },
    {
      "inputs": [
        {
          "internalType": "address",
          "name": "account",
          "type": "address"
        },
        {
          "internalType": "uint256",
          "name": "id",
          "type": "uint256"
        }
      ],
      "name": "balanceOf",
      "outputs": [
        {
          "internalType": "uint256",
          "name": "",
          "type": "uint256"
        }
      ],
      "stateMutability": "view",
      "type": "function"
    },
    {
      "inputs": [
        {
          "internalType": "address[]",
          "name": "accounts",
          "type": "address[]"
        },
        {
          "internalType": "uint256[]",
          "name": "ids",
          "type": "uint256[]"
        }
      ],
      "name": "balanceOfBatch",
      "outputs": [
        {
          "internalType": "uint256[]",
          "name": "",
          "type": "uint256[]"
        }
      ],
      "stateMutability": "view",
      "type": "function"
    },
    {
      "inputs": [
        {
          "internalType": "uint256",
          "name": "id",
          "type": "uint256"
        }
      ],
      "name": "exists",
      "outputs": [
        {
          "internalType": "bool",
          "name": "",
          "type": "bool"
        }
      ],
      "stateMutability": "view",
      "type": "function"
    },
    {
      "inputs": [
        {
          "internalType": "address",
          "name": "account",
          "type": "address"
        },
        {
          "internalType": "address",
          "name": "operator",
          "type": "address"
        }
      ],
      "name": "isApprovedForAll",
      "outputs": [
        {
          "internalType": "bool",
          "name": "",
          "type": "bool"
        }
      ],
      "stateMutability": "view",
      "type": "function"
    },
    {
      "inputs": [
        {
          "internalType": "address",
          "name": "",
          "type": "address"
        },
        {
          "internalType": "address",
          "name": "",
          "type": "address"
        },
        {
          "internalType": "uint256[]",
          "name": "",
          "type": "uint256[]"
        },
        {
          "internalType": "uint256[]",
          "name": "",
          "type": "uint256[]"
        },
        {
          "internalType": "bytes",
          "name": "",
          "type": "bytes"
        }
      ],
      "name": "onERC1155BatchReceived",
      "outputs": [
        {
          "internalType": "bytes4",
          "name": "",
          "type": "bytes4"
        }
      ],
      "stateMutability": "nonpayable",
      "type": "function"
    },
    {
      "inputs": [
        {
          "internalType": "address",
          "name": "",
          "type": "address"
        },
        {
          "internalType": "address",
          "name": "from",
          "type": "address"
        },
        {
          "internalType": "uint256",
          "name": "",
          "type": "uint256"
        },
        {
          "internalType": "uint256",
          "name": "amount",
          "type": "uint256"
        },
        {
          "internalType": "bytes",
          "name": "",
          "type": "bytes"
        }
      ],
      "name": "onERC1155Received",
      "outputs": [
        {
          "internalType": "bytes4",
          "name": "",
          "type": "bytes4"
        }
      ],
      "stateMutability": "nonpayable",
      "type": "function"
    },
    {
      "inputs": [],
      "name": "owner",
      "outputs": [
        {
          "internalType": "address",
          "name": "",
          "type": "address"
        }
      ],
      "stateMutability": "view",
      "type": "function"
    },
    {
      "inputs": [],
      "name": "renounceOwnership",
      "outputs": [],
      "stateMutability": "nonpayable",
      "type": "function"
    },
    {
      "inputs": [
        {
          "internalType": "address",
          "name": "from",
          "type": "address"
        },
        {
          "internalType": "address",
          "name": "to",
          "type": "address"
        },
        {
          "internalType": "uint256[]",
          "name": "ids",
          "type": "uint256[]"
        },
        {
          "internalType": "uint256[]",
          "name": "amounts",
          "type": "uint256[]"
        },
        {
          "internalType": "bytes",
          "name": "data",
          "type": "bytes"
        }
      ],
      "name": "safeBatchTransferFrom",
      "outputs": [],
      "stateMutability": "nonpayable",
      "type": "function"
    },
    {
      "inputs": [
        {
          "internalType": "address",
          "name": "from",
          "type": "address"
        },
        {
          "internalType": "address",
          "name": "to",
          "type": "address"
        },
        {
          "internalType": "uint256",
          "name": "id",
          "type": "uint256"
        },
        {
          "internalType": "uint256",
          "name": "amount",
          "type": "uint256"
        },
        {
          "internalType": "bytes",
          "name": "data",
          "type": "bytes"
        }
      ],
      "name": "safeTransferFrom",
      "outputs": [],
      "stateMutability": "nonpayable",
      "type": "function"
    },
    {
      "inputs": [
        {
          "internalType": "address",
          "name": "operator",
          "type": "address"
        },
        {
          "internalType": "bool",
          "name": "approved",
          "type": "bool"
        }
      ],
      "name": "setApprovalForAll",
      "outputs": [],
      "stateMutability": "nonpayable",
      "type": "function"
    },
    {
      "inputs": [
        {
          "internalType": "bytes4",
          "name": "interfaceId",
          "type": "bytes4"
        }
      ],
      "name": "supportsInterface",
      "outputs": [
        {
          "internalType": "bool",
          "name": "",
          "type": "bool"
        }
      ],
      "stateMutability": "view",
      "type": "function"
    },
    {
      "inputs": [
        {
          "internalType": "uint256",
          "name": "id",
          "type": "uint256"
        }
      ],
      "name": "totalSupply",
      "outputs": [
        {
          "internalType": "uint256",
          "name": "",
          "type": "uint256"
        }
      ],
      "stateMutability": "view",
      "type": "function"
    },
    {
      "inputs": [
        {
          "internalType": "address",
          "name": "newOwner",
          "type": "address"
        }
      ],
      "name": "transferOwnership",
      "outputs": [],
      "stateMutability": "nonpayable",
      "type": "function"
    },
    {
      "inputs": [
        {
          "internalType": "uint256",
          "name": "",
          "type": "uint256"
        }
      ],
      "name": "uri",
      "outputs": [
        {
          "internalType": "string",
          "name": "",
          "type": "string"
        }
      ],
      "stateMutability": "view",
      "type": "function"
    }
  ],
  "transactionHash": "0x82230bd87d05968337ac37364cf90dfe806cea0ed59d32ce9c107e099cc46276",
  "args": [
    "0x92c36a49D3d71670b310c3b75d29Bdc13AB02811",
    "ipfs://"
  ],
  "numDeployments": 1,
  "solcInputHash": "2d705b08c67b93f98b2eaa2f971bf586",
  "bytecode": "0x60806040523480156200001157600080fd5b5060405162001caa38038062001caa833981016040819052620000349162000184565b80620000408162000073565b506200004c336200008c565b50600680546001600160a01b0319166001600160a01b0392909216919091179055620002d0565b805162000088906002906020840190620000de565b5050565b600480546001600160a01b038381166001600160a01b0319831681179093556040519116919082907f8be0079c531659141344cd1fd0a4f28419497f9722a3daafe3b4186f6b6457e090600090a35050565b828054620000ec906200027d565b90600052602060002090601f0160209004810192826200011057600085556200015b565b82601f106200012b57805160ff19168380011785556200015b565b828001600101855582156200015b579182015b828111156200015b5782518255916020019190600101906200013e565b50620001699291506200016d565b5090565b5b808211156200016957600081556001016200016e565b6000806040838503121562000197578182fd5b82516001600160a01b0381168114620001ae578283fd5b602084810151919350906001600160401b0380821115620001cd578384fd5b818601915086601f830112620001e1578384fd5b815181811115620001f657620001f6620002ba565b604051601f8201601f19908116603f01168101908382118183101715620002215762000221620002ba565b81604052828152898684870101111562000239578687fd5b8693505b828410156200025c57848401860151818501870152928501926200023d565b828411156200026d57868684830101525b8096505050505050509250929050565b600181811c908216806200029257607f821691505b60208210811415620002b457634e487b7160e01b600052602260045260246000fd5b50919050565b634e487b7160e01b600052604160045260246000fd5b6119ca80620002e06000396000f3fe608060405234801561001057600080fd5b50600436106100f45760003560e01c80638da5cb5b11610097578063e985e9c511610066578063e985e9c514610247578063f23a6e6114610283578063f242432a14610296578063f2fde38b146102a957600080fd5b80638da5cb5b146101c1578063a22cb465146101dc578063bc197c81146101ef578063bd85b0391461022757600080fd5b80632eb2c2d6116100d35780632eb2c2d6146101625780634e1273f4146101775780634f558e7914610197578063715018a6146101b957600080fd5b8062fdd58e146100f957806301ffc9a71461011f5780630e89341c14610142575b600080fd5b61010c610107366004611533565b6102bc565b6040519081526020015b60405180910390f35b61013261012d366004611627565b610365565b6040519015158152602001610116565b61015561015036600461165f565b610376565b60405161011691906117de565b6101756101703660046113f0565b61040a565b005b61018a61018536600461155c565b6104ac565b604051610116919061179d565b6101326101a536600461165f565b600090815260036020526040902054151590565b610175610622565b6004546040516001600160a01b039091168152602001610116565b6101756101ea3660046114f9565b610688565b61020e6101fd3660046113f0565b63bc197c8160e01b95945050505050565b6040516001600160e01b03199091168152602001610116565b61010c61023536600461165f565b60009081526003602052604090205490565b6101326102553660046113be565b6001600160a01b03918216600090815260016020908152604080832093909416825291909152205460ff1690565b61020e610291366004611496565b610697565b6101756102a4366004611496565b610729565b6101756102b736600461139d565b6107c4565b60006001600160a01b03831661033f5760405162461bcd60e51b815260206004820152602b60248201527f455243313135353a2062616c616e636520717565727920666f7220746865207a60448201527f65726f206164647265737300000000000000000000000000000000000000000060648201526084015b60405180910390fd5b506000908152602081815260408083206001600160a01b03949094168352929052205490565b6000610370826108a6565b92915050565b6060600280546103859061182d565b80601f01602080910402602001604051908101604052809291908181526020018280546103b19061182d565b80156103fe5780601f106103d3576101008083540402835291602001916103fe565b820191906000526020600020905b8154815290600101906020018083116103e157829003601f168201915b50505050509050919050565b6001600160a01b03851633148061042657506104268533610255565b6104985760405162461bcd60e51b815260206004820152603260248201527f455243313135353a207472616e736665722063616c6c6572206973206e6f742060448201527f6f776e6572206e6f7220617070726f76656400000000000000000000000000006064820152608401610336565b6104a585858585856108e4565b5050505050565b606081518351146105255760405162461bcd60e51b815260206004820152602960248201527f455243313135353a206163636f756e747320616e6420696473206c656e67746860448201527f206d69736d6174636800000000000000000000000000000000000000000000006064820152608401610336565b6000835167ffffffffffffffff81111561054f57634e487b7160e01b600052604160045260246000fd5b604051908082528060200260200182016040528015610578578160200160208202803683370190505b50905060005b845181101561061a576105df8582815181106105aa57634e487b7160e01b600052603260045260246000fd5b60200260200101518583815181106105d257634e487b7160e01b600052603260045260246000fd5b60200260200101516102bc565b8282815181106105ff57634e487b7160e01b600052603260045260246000fd5b602090810291909101015261061381611895565b905061057e565b509392505050565b6004546001600160a01b0316331461067c5760405162461bcd60e51b815260206004820181905260248201527f4f776e61626c653a2063616c6c6572206973206e6f7420746865206f776e65726044820152606401610336565b6106866000610b81565b565b610693338383610beb565b5050565b6006546040517f40c10f190000000000000000000000000000000000000000000000000000000081526001600160a01b0386811660048301526024820185905260009216906340c10f1990604401600060405180830381600087803b1580156106ff57600080fd5b505af1158015610713573d6000803e3d6000fd5b5063f23a6e6160e01b9998505050505050505050565b6001600160a01b03851633148061074557506107458533610255565b6107b75760405162461bcd60e51b815260206004820152602960248201527f455243313135353a2063616c6c6572206973206e6f74206f776e6572206e6f7260448201527f20617070726f76656400000000000000000000000000000000000000000000006064820152608401610336565b6104a58585858585610ce0565b6004546001600160a01b0316331461081e5760405162461bcd60e51b815260206004820181905260248201527f4f776e61626c653a2063616c6c6572206973206e6f7420746865206f776e65726044820152606401610336565b6001600160a01b03811661089a5760405162461bcd60e51b815260206004820152602660248201527f4f776e61626c653a206e6577206f776e657220697320746865207a65726f206160448201527f64647265737300000000000000000000000000000000000000000000000000006064820152608401610336565b6108a381610b81565b50565b60006001600160e01b031982167f4e2312e0000000000000000000000000000000000000000000000000000000001480610370575061037082610e99565b815183511461095b5760405162461bcd60e51b815260206004820152602860248201527f455243313135353a2069647320616e6420616d6f756e7473206c656e6774682060448201527f6d69736d617463680000000000000000000000000000000000000000000000006064820152608401610336565b6001600160a01b0384166109bf5760405162461bcd60e51b815260206004820152602560248201527f455243313135353a207472616e7366657220746f20746865207a65726f206164604482015264647265737360d81b6064820152608401610336565b336109ce818787878787610f34565b60005b8451811015610b135760008582815181106109fc57634e487b7160e01b600052603260045260246000fd5b602002602001015190506000858381518110610a2857634e487b7160e01b600052603260045260246000fd5b602090810291909101810151600084815280835260408082206001600160a01b038e168352909352919091205490915081811015610abb5760405162461bcd60e51b815260206004820152602a60248201527f455243313135353a20696e73756666696369656e742062616c616e636520666f60448201526939103a3930b739b332b960b11b6064820152608401610336565b6000838152602081815260408083206001600160a01b038e8116855292528083208585039055908b16825281208054849290610af8908490611815565b9250508190555050505080610b0c90611895565b90506109d1565b50846001600160a01b0316866001600160a01b0316826001600160a01b03167f4a39dc06d4c0dbc64b70af90fd698a233a518aa5d07e595d983b8c0526c8f7fb8787604051610b639291906117b0565b60405180910390a4610b79818787878787610f7c565b505050505050565b600480546001600160a01b038381167fffffffffffffffffffffffff0000000000000000000000000000000000000000831681179093556040519116919082907f8be0079c531659141344cd1fd0a4f28419497f9722a3daafe3b4186f6b6457e090600090a35050565b816001600160a01b0316836001600160a01b03161415610c735760405162461bcd60e51b815260206004820152602960248201527f455243313135353a2073657474696e6720617070726f76616c2073746174757360448201527f20666f722073656c6600000000000000000000000000000000000000000000006064820152608401610336565b6001600160a01b03838116600081815260016020908152604080832094871680845294825291829020805460ff191686151590811790915591519182527f17307eab39ab6107e8899845ad3d59bd9653f200f220920489ca2b5937696c31910160405180910390a3505050565b6001600160a01b038416610d445760405162461bcd60e51b815260206004820152602560248201527f455243313135353a207472616e7366657220746f20746865207a65726f206164604482015264647265737360d81b6064820152608401610336565b336000610d508561113a565b90506000610d5d8561113a565b9050610d6d838989858589610f34565b6000868152602081815260408083206001600160a01b038c16845290915290205485811015610df15760405162461bcd60e51b815260206004820152602a60248201527f455243313135353a20696e73756666696369656e742062616c616e636520666f60448201526939103a3930b739b332b960b11b6064820152608401610336565b6000878152602081815260408083206001600160a01b038d8116855292528083208985039055908a16825281208054889290610e2e908490611815565b909155505060408051888152602081018890526001600160a01b03808b16928c821692918816917fc3d58168c5ae7397731d063d5bbf3d657854427343f4c083240f7aacaa2d0f62910160405180910390a4610e8e848a8a8a8a8a611193565b505050505050505050565b60006001600160e01b031982167fd9b67a26000000000000000000000000000000000000000000000000000000001480610efc57506001600160e01b031982167f0e89341c00000000000000000000000000000000000000000000000000000000145b8061037057507f01ffc9a7000000000000000000000000000000000000000000000000000000006001600160e01b0319831614610370565b60405162461bcd60e51b815260206004820152600b60248201527f4e6f7420616c6c6f7765640000000000000000000000000000000000000000006044820152606401610336565b6001600160a01b0384163b15610b795760405163bc197c8160e01b81526001600160a01b0385169063bc197c8190610fc090899089908890889088906004016116fc565b602060405180830381600087803b158015610fda57600080fd5b505af192505050801561100a575060408051601f3d908101601f1916820190925261100791810190611643565b60015b6110c0576110166118dc565b806308c379a01415611050575061102b6118f4565b806110365750611052565b8060405162461bcd60e51b815260040161033691906117de565b505b60405162461bcd60e51b815260206004820152603460248201527f455243313135353a207472616e7366657220746f206e6f6e204552433131353560448201527f526563656976657220696d706c656d656e7465720000000000000000000000006064820152608401610336565b6001600160e01b0319811663bc197c8160e01b146111315760405162461bcd60e51b815260206004820152602860248201527f455243313135353a204552433131353552656365697665722072656a656374656044820152676420746f6b656e7360c01b6064820152608401610336565b50505050505050565b6040805160018082528183019092526060916000919060208083019080368337019050509050828160008151811061118257634e487b7160e01b600052603260045260246000fd5b602090810291909101015292915050565b6001600160a01b0384163b15610b795760405163f23a6e6160e01b81526001600160a01b0385169063f23a6e61906111d7908990899088908890889060040161175a565b602060405180830381600087803b1580156111f157600080fd5b505af1925050508015611221575060408051601f3d908101601f1916820190925261121e91810190611643565b60015b61122d576110166118dc565b6001600160e01b0319811663f23a6e6160e01b146111315760405162461bcd60e51b815260206004820152602860248201527f455243313135353a204552433131353552656365697665722072656a656374656044820152676420746f6b656e7360c01b6064820152608401610336565b80356001600160a01b03811681146112b557600080fd5b919050565b600082601f8301126112ca578081fd5b813560206112d7826117f1565b6040516112e48282611868565b8381528281019150858301600585901b87018401881015611303578586fd5b855b8581101561132157813584529284019290840190600101611305565b5090979650505050505050565b600082601f83011261133e578081fd5b813567ffffffffffffffff811115611358576113586118c6565b60405161136f601f8301601f191660200182611868565b818152846020838601011115611383578283fd5b816020850160208301379081016020019190915292915050565b6000602082840312156113ae578081fd5b6113b78261129e565b9392505050565b600080604083850312156113d0578081fd5b6113d98361129e565b91506113e76020840161129e565b90509250929050565b600080600080600060a08688031215611407578081fd5b6114108661129e565b945061141e6020870161129e565b9350604086013567ffffffffffffffff8082111561143a578283fd5b61144689838a016112ba565b9450606088013591508082111561145b578283fd5b61146789838a016112ba565b9350608088013591508082111561147c578283fd5b506114898882890161132e565b9150509295509295909350565b600080600080600060a086880312156114ad578081fd5b6114b68661129e565b94506114c46020870161129e565b93506040860135925060608601359150608086013567ffffffffffffffff8111156114ed578182fd5b6114898882890161132e565b6000806040838503121561150b578182fd5b6115148361129e565b915060208301358015158114611528578182fd5b809150509250929050565b60008060408385031215611545578182fd5b61154e8361129e565b946020939093013593505050565b6000806040838503121561156e578182fd5b823567ffffffffffffffff80821115611585578384fd5b818501915085601f830112611598578384fd5b813560206115a5826117f1565b6040516115b28282611868565b8381528281019150858301600585901b870184018b10156115d1578889fd5b8896505b848710156115fa576115e68161129e565b8352600196909601959183019183016115d5565b5096505086013592505080821115611610578283fd5b5061161d858286016112ba565b9150509250929050565b600060208284031215611638578081fd5b81356113b78161197e565b600060208284031215611654578081fd5b81516113b78161197e565b600060208284031215611670578081fd5b5035919050565b6000815180845260208085019450808401835b838110156116a65781518752958201959082019060010161168a565b509495945050505050565b60008151808452815b818110156116d6576020818501810151868301820152016116ba565b818111156116e75782602083870101525b50601f01601f19169290920160200192915050565b60006001600160a01b03808816835280871660208401525060a0604083015261172860a0830186611677565b828103606084015261173a8186611677565b9050828103608084015261174e81856116b1565b98975050505050505050565b60006001600160a01b03808816835280871660208401525084604083015283606083015260a0608083015261179260a08301846116b1565b979650505050505050565b6020815260006113b76020830184611677565b6040815260006117c36040830185611677565b82810360208401526117d58185611677565b95945050505050565b6020815260006113b760208301846116b1565b600067ffffffffffffffff82111561180b5761180b6118c6565b5060051b60200190565b60008219821115611828576118286118b0565b500190565b600181811c9082168061184157607f821691505b6020821081141561186257634e487b7160e01b600052602260045260246000fd5b50919050565b601f8201601f1916810167ffffffffffffffff8111828210171561188e5761188e6118c6565b6040525050565b60006000198214156118a9576118a96118b0565b5060010190565b634e487b7160e01b600052601160045260246000fd5b634e487b7160e01b600052604160045260246000fd5b600060033d11156118f157600481823e5160e01c5b90565b600060443d10156119025790565b6040516003193d81016004833e81513d67ffffffffffffffff816024840111818411171561193257505050505090565b828501915081518181111561194a5750505050505090565b843d87010160208285010111156119645750505050505090565b61197360208286010187611868565b509095945050505050565b6001600160e01b0319811681146108a357600080fdfea2646970667358221220f305faa35d0d70817ee627fbf3e749f52a1eefb852f63a6ae80e645cecde615b64736f6c63430008040033",
  "devdoc": {
    "kind": "dev",
    "methods": {
      "balanceOf(address,uint256)": {
        "details": "See {IERC1155-balanceOf}. Requirements: - `account` cannot be the zero address."
      },
      "balanceOfBatch(address[],uint256[])": {
        "details": "See {IERC1155-balanceOfBatch}. Requirements: - `accounts` and `ids` must have the same length."
      },
      "exists(uint256)": {
        "details": "Indicates whether any token exist with a given id, or not."
      },
      "isApprovedForAll(address,address)": {
        "details": "See {IERC1155-isApprovedForAll}."
      },
      "owner()": {
        "details": "Returns the address of the current owner."
      },
      "renounceOwnership()": {
        "details": "Leaves the contract without owner. It will not be possible to call `onlyOwner` functions anymore. Can only be called by the current owner. NOTE: Renouncing ownership will leave the contract without an owner, thereby removing any functionality that is only available to the owner."
      },
      "safeBatchTransferFrom(address,address,uint256[],uint256[],bytes)": {
        "details": "See {IERC1155-safeBatchTransferFrom}."
      },
      "safeTransferFrom(address,address,uint256,uint256,bytes)": {
        "details": "See {IERC1155-safeTransferFrom}."
      },
      "setApprovalForAll(address,bool)": {
        "details": "See {IERC1155-setApprovalForAll}."
      },
      "totalSupply(uint256)": {
        "details": "Total amount of tokens in with a given id."
      },
      "transferOwnership(address)": {
        "details": "Transfers ownership of the contract to a new account (`newOwner`). Can only be called by the current owner."
      },
      "uri(uint256)": {
        "details": "See {IERC1155MetadataURI-uri}. This implementation returns the same URI for *all* token types. It relies on the token type ID substitution mechanism https://eips.ethereum.org/EIPS/eip-1155#metadata[defined in the EIP]. Clients calling this function must replace the `\\{id\\}` substring with the actual token type ID."
      }
    },
    "version": 1
  },
  "userdoc": {
    "kind": "user",
    "methods": {},
    "version": 1
  },
  "storageLayout": {
    "storage": [
      {
        "astId": 765,
        "contract": "contracts/CarbonVault.sol:CarbonVault",
        "label": "_balances",
        "offset": 0,
        "slot": "0",
        "type": "t_mapping(t_uint256,t_mapping(t_address,t_uint256))"
      },
      {
        "astId": 771,
        "contract": "contracts/CarbonVault.sol:CarbonVault",
        "label": "_operatorApprovals",
        "offset": 0,
        "slot": "1",
        "type": "t_mapping(t_address,t_mapping(t_address,t_bool))"
      },
      {
        "astId": 773,
        "contract": "contracts/CarbonVault.sol:CarbonVault",
        "label": "_uri",
        "offset": 0,
        "slot": "2",
        "type": "t_string_storage"
      },
      {
        "astId": 2204,
        "contract": "contracts/CarbonVault.sol:CarbonVault",
        "label": "_totalSupply",
        "offset": 0,
        "slot": "3",
        "type": "t_mapping(t_uint256,t_uint256)"
      },
      {
        "astId": 550,
        "contract": "contracts/CarbonVault.sol:CarbonVault",
        "label": "_owner",
        "offset": 0,
        "slot": "4",
        "type": "t_address"
      },
      {
        "astId": 4908,
        "contract": "contracts/CarbonVault.sol:CarbonVault",
        "label": "_tokenUris",
        "offset": 0,
        "slot": "5",
        "type": "t_mapping(t_uint256,t_string_storage)"
      },
      {
        "astId": 4911,
        "contract": "contracts/CarbonVault.sol:CarbonVault",
        "label": "_receiptToken",
        "offset": 0,
        "slot": "6",
        "type": "t_contract(CarbonReceipt)4884"
      }
    ],
    "types": {
      "t_address": {
        "encoding": "inplace",
        "label": "address",
        "numberOfBytes": "20"
      },
      "t_bool": {
        "encoding": "inplace",
        "label": "bool",
        "numberOfBytes": "1"
      },
      "t_contract(CarbonReceipt)4884": {
        "encoding": "inplace",
        "label": "contract CarbonReceipt",
        "numberOfBytes": "20"
      },
      "t_mapping(t_address,t_bool)": {
        "encoding": "mapping",
        "key": "t_address",
        "label": "mapping(address => bool)",
        "numberOfBytes": "32",
        "value": "t_bool"
      },
      "t_mapping(t_address,t_mapping(t_address,t_bool))": {
        "encoding": "mapping",
        "key": "t_address",
        "label": "mapping(address => mapping(address => bool))",
        "numberOfBytes": "32",
        "value": "t_mapping(t_address,t_bool)"
      },
      "t_mapping(t_address,t_uint256)": {
        "encoding": "mapping",
        "key": "t_address",
        "label": "mapping(address => uint256)",
        "numberOfBytes": "32",
        "value": "t_uint256"
      },
      "t_mapping(t_uint256,t_mapping(t_address,t_uint256))": {
        "encoding": "mapping",
        "key": "t_uint256",
        "label": "mapping(uint256 => mapping(address => uint256))",
        "numberOfBytes": "32",
        "value": "t_mapping(t_address,t_uint256)"
      },
      "t_mapping(t_uint256,t_string_storage)": {
        "encoding": "mapping",
        "key": "t_uint256",
        "label": "mapping(uint256 => string)",
        "numberOfBytes": "32",
        "value": "t_string_storage"
      },
      "t_mapping(t_uint256,t_uint256)": {
        "encoding": "mapping",
        "key": "t_uint256",
        "label": "mapping(uint256 => uint256)",
        "numberOfBytes": "32",
        "value": "t_uint256"
      },
      "t_string_storage": {
        "encoding": "bytes",
        "label": "string",
        "numberOfBytes": "32"
      },
      "t_uint256": {
        "encoding": "inplace",
        "label": "uint256",
        "numberOfBytes": "32"
      }
    }
  }
}